{
  "contractName": "LotterySuperApp",
  "abi": [
    {
      "inputs": [
        {
          "internalType": "contract ISuperfluid",
          "name": "host",
          "type": "address"
        },
        {
          "internalType": "contract IConstantFlowAgreementV1",
          "name": "cfa",
          "type": "address"
        },
        {
          "internalType": "contract ISuperToken",
          "name": "acceptedToken",
          "type": "address"
        }
      ],
      "stateMutability": "nonpayable",
      "type": "constructor"
    },
    {
      "anonymous": false,
      "inputs": [
        {
          "indexed": true,
          "internalType": "address",
          "name": "previousOwner",
          "type": "address"
        },
        {
          "indexed": true,
          "internalType": "address",
          "name": "newOwner",
          "type": "address"
        }
      ],
      "name": "OwnershipTransferred",
      "type": "event"
    },
    {
      "anonymous": false,
      "inputs": [
        {
          "indexed": false,
          "internalType": "address",
          "name": "winner",
          "type": "address"
        }
      ],
      "name": "WinnerChanged",
      "type": "event"
    },
    {
      "inputs": [],
      "name": "owner",
      "outputs": [
        {
          "internalType": "address",
          "name": "",
          "type": "address"
        }
      ],
      "stateMutability": "view",
      "type": "function"
    },
    {
      "inputs": [],
      "name": "renounceOwnership",
      "outputs": [],
      "stateMutability": "nonpayable",
      "type": "function"
    },
    {
      "inputs": [
        {
          "internalType": "address",
          "name": "",
          "type": "address"
        }
      ],
      "name": "tickets",
      "outputs": [
        {
          "internalType": "uint256",
          "name": "",
          "type": "uint256"
        }
      ],
      "stateMutability": "view",
      "type": "function"
    },
    {
      "inputs": [
        {
          "internalType": "address",
          "name": "newOwner",
          "type": "address"
        }
      ],
      "name": "transferOwnership",
      "outputs": [],
      "stateMutability": "nonpayable",
      "type": "function"
    },
    {
      "inputs": [
        {
          "internalType": "bytes",
          "name": "ctx",
          "type": "bytes"
        }
      ],
      "name": "participate",
      "outputs": [],
      "stateMutability": "nonpayable",
      "type": "function"
    },
    {
      "inputs": [],
      "name": "currentWinner",
      "outputs": [
        {
          "internalType": "uint256",
          "name": "drawingTime",
          "type": "uint256"
        },
        {
          "internalType": "address",
          "name": "player",
          "type": "address"
        },
        {
          "internalType": "int96",
          "name": "flowRate",
          "type": "int96"
        }
      ],
      "stateMutability": "view",
      "type": "function"
    },
    {
      "inputs": [
        {
          "internalType": "contract ISuperToken",
          "name": "superToken",
          "type": "address"
        },
        {
          "internalType": "bytes",
          "name": "ctx",
          "type": "bytes"
        },
        {
          "internalType": "address",
          "name": "agreementClass",
          "type": "address"
        },
        {
          "internalType": "bytes32",
          "name": "",
          "type": "bytes32"
        }
      ],
      "name": "beforeAgreementCreated",
      "outputs": [
        {
          "internalType": "bytes",
          "name": "cbdata",
          "type": "bytes"
        }
      ],
      "stateMutability": "view",
      "type": "function"
    },
    {
      "inputs": [
        {
          "internalType": "contract ISuperToken",
          "name": "",
          "type": "address"
        },
        {
          "internalType": "bytes",
          "name": "ctx",
          "type": "bytes"
        },
        {
          "internalType": "address",
          "name": "agreementClass",
          "type": "address"
        },
        {
          "internalType": "bytes32",
          "name": "agreementId",
          "type": "bytes32"
        },
        {
          "internalType": "bytes",
          "name": "cbdata",
          "type": "bytes"
        }
      ],
      "name": "afterAgreementCreated",
      "outputs": [
        {
          "internalType": "bytes",
          "name": "newCtx",
          "type": "bytes"
        }
      ],
      "stateMutability": "nonpayable",
      "type": "function"
    },
    {
      "inputs": [
        {
          "internalType": "contract ISuperToken",
          "name": "superToken",
          "type": "address"
        },
        {
          "internalType": "bytes",
          "name": "ctx",
          "type": "bytes"
        },
        {
          "internalType": "address",
          "name": "agreementClass",
          "type": "address"
        },
        {
          "internalType": "bytes32",
          "name": "",
          "type": "bytes32"
        }
      ],
      "name": "beforeAgreementUpdated",
      "outputs": [
        {
          "internalType": "bytes",
          "name": "cbdata",
          "type": "bytes"
        }
      ],
      "stateMutability": "view",
      "type": "function"
    },
    {
      "inputs": [
        {
          "internalType": "contract ISuperToken",
          "name": "",
          "type": "address"
        },
        {
          "internalType": "bytes",
          "name": "ctx",
          "type": "bytes"
        },
        {
          "internalType": "address",
          "name": "agreementClass",
          "type": "address"
        },
        {
          "internalType": "bytes32",
          "name": "agreementId",
          "type": "bytes32"
        },
        {
          "internalType": "bytes",
          "name": "cbdata",
          "type": "bytes"
        }
      ],
      "name": "afterAgreementUpdated",
      "outputs": [
        {
          "internalType": "bytes",
          "name": "newCtx",
          "type": "bytes"
        }
      ],
      "stateMutability": "nonpayable",
      "type": "function"
    },
    {
      "inputs": [
        {
          "internalType": "contract ISuperToken",
          "name": "superToken",
          "type": "address"
        },
        {
          "internalType": "bytes",
          "name": "",
          "type": "bytes"
        },
        {
          "internalType": "address",
          "name": "agreementClass",
          "type": "address"
        },
        {
          "internalType": "bytes32",
          "name": "",
          "type": "bytes32"
        }
      ],
      "name": "beforeAgreementTerminated",
      "outputs": [
        {
          "internalType": "bytes",
          "name": "cbdata",
          "type": "bytes"
        }
      ],
      "stateMutability": "view",
      "type": "function"
    },
    {
      "inputs": [
        {
          "internalType": "contract ISuperToken",
          "name": "",
          "type": "address"
        },
        {
          "internalType": "bytes",
          "name": "ctx",
          "type": "bytes"
        },
        {
          "internalType": "address",
          "name": "",
          "type": "address"
        },
        {
          "internalType": "bytes32",
          "name": "",
          "type": "bytes32"
        },
        {
          "internalType": "bytes",
          "name": "cbdata",
          "type": "bytes"
        }
      ],
      "name": "afterAgreementTerminated",
      "outputs": [
        {
          "internalType": "bytes",
          "name": "newCtx",
          "type": "bytes"
        }
      ],
      "stateMutability": "nonpayable",
      "type": "function"
    }
  ],
  "bytecode": "0x60806040523480156200001157600080fd5b50604051620033d8380380620033d8833981810160405260608110156200003757600080fd5b8101908080519060200190929190805190602001909291908051906020019092919050505060006200006e6200031660201b60201c565b9050806000806101000a81548173ffffffffffffffffffffffffffffffffffffffff021916908373ffffffffffffffffffffffffffffffffffffffff1602179055508073ffffffffffffffffffffffffffffffffffffffff16600073ffffffffffffffffffffffffffffffffffffffff167f8be0079c531659141344cd1fd0a4f28419497f9722a3daafe3b4186f6b6457e060405160405180910390a350600073ffffffffffffffffffffffffffffffffffffffff168373ffffffffffffffffffffffffffffffffffffffff1614156200014457fe5b600073ffffffffffffffffffffffffffffffffffffffff168273ffffffffffffffffffffffffffffffffffffffff1614156200017c57fe5b600073ffffffffffffffffffffffffffffffffffffffff168173ffffffffffffffffffffffffffffffffffffffff161415620001b457fe5b82600160006101000a81548173ffffffffffffffffffffffffffffffffffffffff021916908373ffffffffffffffffffffffffffffffffffffffff16021790555081600260006101000a81548173ffffffffffffffffffffffffffffffffffffffff021916908373ffffffffffffffffffffffffffffffffffffffff16021790555080600360006101000a81548173ffffffffffffffffffffffffffffffffffffffff021916908373ffffffffffffffffffffffffffffffffffffffff160217905550600060019050600160009054906101000a900473ffffffffffffffffffffffffffffffffffffffff1673ffffffffffffffffffffffffffffffffffffffff1663ad3915c8826040518263ffffffff1660e01b815260040180828152602001915050600060405180830381600087803b158015620002f357600080fd5b505af115801562000308573d6000803e3d6000fd5b50505050505050506200031e565b600033905090565b6130aa806200032e6000396000f3fe608060405234801561001057600080fd5b50600436106100b45760003560e01c8063bd2da4a311610071578063bd2da4a31461040c578063be6baf9b14610548578063d002c9a5146106d9578063d7d491231461086a578063da37411e146108e3578063f2fde38b14610a74576100b4565b806317dd68ce146100b95780632d9c9338146101f55780636dcbf2a314610331578063715018a6146103895780638da5cb5b14610393578063aabe2fe3146103c7575b600080fd5b61017a600480360360808110156100cf57600080fd5b81019080803573ffffffffffffffffffffffffffffffffffffffff1690602001909291908035906020019064010000000081111561010c57600080fd5b82018360208201111561011e57600080fd5b8035906020019184600183028401116401000000008311171561014057600080fd5b9091929391929390803573ffffffffffffffffffffffffffffffffffffffff16906020019092919080359060200190929190505050610ab8565b6040518080602001828103825283818151815260200191508051906020019080838360005b838110156101ba57808201518184015260208101905061019f565b50505050905090810190601f1680156101e75780820380516001836020036101000a031916815260200191505b509250505060405180910390f35b6102b66004803603608081101561020b57600080fd5b81019080803573ffffffffffffffffffffffffffffffffffffffff1690602001909291908035906020019064010000000081111561024857600080fd5b82018360208201111561025a57600080fd5b8035906020019184600183028401116401000000008311171561027c57600080fd5b9091929391929390803573ffffffffffffffffffffffffffffffffffffffff16906020019092919080359060200190929190505050610bd9565b6040518080602001828103825283818151815260200191508051906020019080838360005b838110156102f65780820151818401526020810190506102db565b50505050905090810190601f1680156103235780820380516001836020036101000a031916815260200191505b509250505060405180910390f35b6103736004803603602081101561034757600080fd5b81019080803573ffffffffffffffffffffffffffffffffffffffff169060200190929190505050610d56565b6040518082815260200191505060405180910390f35b610391610d6e565b005b61039b610ef4565b604051808273ffffffffffffffffffffffffffffffffffffffff16815260200191505060405180910390f35b6103cf610f1d565b604051808481526020018373ffffffffffffffffffffffffffffffffffffffff16815260200182600b0b8152602001935050505060405180910390f35b6104cd6004803603608081101561042257600080fd5b81019080803573ffffffffffffffffffffffffffffffffffffffff1690602001909291908035906020019064010000000081111561045f57600080fd5b82018360208201111561047157600080fd5b8035906020019184600183028401116401000000008311171561049357600080fd5b9091929391929390803573ffffffffffffffffffffffffffffffffffffffff1690602001909291908035906020019092919050505061110f565b6040518080602001828103825283818151815260200191508051906020019080838360005b8381101561050d5780820151818401526020810190506104f2565b50505050905090810190601f16801561053a5780820380516001836020036101000a031916815260200191505b509250505060405180910390f35b61065e600480360360a081101561055e57600080fd5b81019080803573ffffffffffffffffffffffffffffffffffffffff1690602001909291908035906020019064010000000081111561059b57600080fd5b8201836020820111156105ad57600080fd5b803590602001918460018302840111640100000000831117156105cf57600080fd5b9091929391929390803573ffffffffffffffffffffffffffffffffffffffff169060200190929190803590602001909291908035906020019064010000000081111561061a57600080fd5b82018360208201111561062c57600080fd5b8035906020019184600183028401116401000000008311171561064e57600080fd5b909192939192939050505061128c565b6040518080602001828103825283818151815260200191508051906020019080838360005b8381101561069e578082015181840152602081019050610683565b50505050905090810190601f1680156106cb5780820380516001836020036101000a031916815260200191505b509250505060405180910390f35b6107ef600480360360a08110156106ef57600080fd5b81019080803573ffffffffffffffffffffffffffffffffffffffff1690602001909291908035906020019064010000000081111561072c57600080fd5b82018360208201111561073e57600080fd5b8035906020019184600183028401116401000000008311171561076057600080fd5b9091929391929390803573ffffffffffffffffffffffffffffffffffffffff16906020019092919080359060200190929190803590602001906401000000008111156107ab57600080fd5b8201836020820111156107bd57600080fd5b803590602001918460018302840111640100000000831117156107df57600080fd5b90919293919293905050506113c7565b6040518080602001828103825283818151815260200191508051906020019080838360005b8381101561082f578082015181840152602081019050610814565b50505050905090810190601f16801561085c5780820380516001836020036101000a031916815260200191505b509250505060405180910390f35b6108e16004803603602081101561088057600080fd5b810190808035906020019064010000000081111561089d57600080fd5b8201836020820111156108af57600080fd5b803590602001918460018302840111640100000000831117156108d157600080fd5b909192939192939050505061148a565b005b6109f9600480360360a08110156108f957600080fd5b81019080803573ffffffffffffffffffffffffffffffffffffffff1690602001909291908035906020019064010000000081111561093657600080fd5b82018360208201111561094857600080fd5b8035906020019184600183028401116401000000008311171561096a57600080fd5b9091929391929390803573ffffffffffffffffffffffffffffffffffffffff16906020019092919080359060200190929190803590602001906401000000008111156109b557600080fd5b8201836020820111156109c757600080fd5b803590602001918460018302840111640100000000831117156109e957600080fd5b90919293919293905050506116dd565b6040518080602001828103825283818151815260200191508051906020019080838360005b83811015610a39578082015181840152602081019050610a1e565b50505050905090810190601f168015610a665780820380516001836020036101000a031916815260200191505b509250505060405180910390f35b610ab660048036036020811015610a8a57600080fd5b81019080803573ffffffffffffffffffffffffffffffffffffffff1690602001909291905050506117a0565b005b6060600160009054906101000a900473ffffffffffffffffffffffffffffffffffffffff1673ffffffffffffffffffffffffffffffffffffffff163373ffffffffffffffffffffffffffffffffffffffff1614610b60576040517f08c379a0000000000000000000000000000000000000000000000000000000008152600401808060200182810382526026815260200180612fe56026913960400191505060405180910390fd5b610b69866119ab565b1580610b7b5750610b7983611a05565b155b15610baa5760016040516020018082151581526020019150506040516020818303038152906040529050610bd0565b600060405160200180821515815260200191505060405160208183030381529060405290505b95945050505050565b6060600160009054906101000a900473ffffffffffffffffffffffffffffffffffffffff1673ffffffffffffffffffffffffffffffffffffffff163373ffffffffffffffffffffffffffffffffffffffff1614610c81576040517f08c379a0000000000000000000000000000000000000000000000000000000008152600401808060200182810382526026815260200180612fe56026913960400191505060405180910390fd5b8583610c8c826119ab565b610ce1576040517f08c379a00000000000000000000000000000000000000000000000000000000081526004018080602001828103825260238152602001806130526023913960400191505060405180910390fd5b610cea81611a05565b610d3f576040517f08c379a000000000000000000000000000000000000000000000000000000000815260040180806020018281038252602581526020018061300b6025913960400191505060405180910390fd5b610d498787611ab1565b9250505095945050505050565b60076020528060005260406000206000915090505481565b610d76611cff565b73ffffffffffffffffffffffffffffffffffffffff1660008054906101000a900473ffffffffffffffffffffffffffffffffffffffff1673ffffffffffffffffffffffffffffffffffffffff1614610e36576040517f08c379a00000000000000000000000000000000000000000000000000000000081526004018080602001828103825260208152602001807f4f776e61626c653a2063616c6c6572206973206e6f7420746865206f776e657281525060200191505060405180910390fd5b600073ffffffffffffffffffffffffffffffffffffffff1660008054906101000a900473ffffffffffffffffffffffffffffffffffffffff1673ffffffffffffffffffffffffffffffffffffffff167f8be0079c531659141344cd1fd0a4f28419497f9722a3daafe3b4186f6b6457e060405160405180910390a360008060006101000a81548173ffffffffffffffffffffffffffffffffffffffff021916908373ffffffffffffffffffffffffffffffffffffffff160217905550565b60008060009054906101000a900473ffffffffffffffffffffffffffffffffffffffff16905090565b60008060008073ffffffffffffffffffffffffffffffffffffffff16600660009054906101000a900473ffffffffffffffffffffffffffffffffffffffff1673ffffffffffffffffffffffffffffffffffffffff161461110a57600260009054906101000a900473ffffffffffffffffffffffffffffffffffffffff1673ffffffffffffffffffffffffffffffffffffffff1663e6a1e888600360009054906101000a900473ffffffffffffffffffffffffffffffffffffffff1630600660009054906101000a900473ffffffffffffffffffffffffffffffffffffffff166040518463ffffffff1660e01b8152600401808473ffffffffffffffffffffffffffffffffffffffff1681526020018373ffffffffffffffffffffffffffffffffffffffff1681526020018273ffffffffffffffffffffffffffffffffffffffff168152602001935050505060806040518083038186803b15801561108057600080fd5b505afa158015611094573d6000803e3d6000fd5b505050506040513d60808110156110aa57600080fd5b81019080805190602001909291908051906020019092919080519060200190929190805190602001909291905050509050508092508194505050600660009054906101000a900473ffffffffffffffffffffffffffffffffffffffff1691505b909192565b6060600160009054906101000a900473ffffffffffffffffffffffffffffffffffffffff1673ffffffffffffffffffffffffffffffffffffffff163373ffffffffffffffffffffffffffffffffffffffff16146111b7576040517f08c379a0000000000000000000000000000000000000000000000000000000008152600401808060200182810382526026815260200180612fe56026913960400191505060405180910390fd5b85836111c2826119ab565b611217576040517f08c379a00000000000000000000000000000000000000000000000000000000081526004018080602001828103825260238152602001806130526023913960400191505060405180910390fd5b61122081611a05565b611275576040517f08c379a000000000000000000000000000000000000000000000000000000000815260040180806020018281038252602581526020018061300b6025913960400191505060405180910390fd5b61127f8787611ab1565b9250505095945050505050565b6060600160009054906101000a900473ffffffffffffffffffffffffffffffffffffffff1673ffffffffffffffffffffffffffffffffffffffff163373ffffffffffffffffffffffffffffffffffffffff1614611334576040517f08c379a0000000000000000000000000000000000000000000000000000000008152600401808060200182810382526026815260200180612fe56026913960400191505060405180910390fd5b60008383602081101561134657600080fd5b81019080803515159060200190929190505050905080156113ae5787878080601f016020809104026020016040519081016040528093929190818152602001838380828437600081840152601f19601f820116905080830192505050505050509150506113bc565b6113b88888611d07565b9150505b979650505050505050565b6060600160009054906101000a900473ffffffffffffffffffffffffffffffffffffffff1673ffffffffffffffffffffffffffffffffffffffff163373ffffffffffffffffffffffffffffffffffffffff161461146f576040517f08c379a0000000000000000000000000000000000000000000000000000000008152600401808060200182810382526026815260200180612fe56026913960400191505060405180910390fd5b61147d878787878787611f8e565b9050979650505050505050565b6000600160009054906101000a900473ffffffffffffffffffffffffffffffffffffffff1673ffffffffffffffffffffffffffffffffffffffff16633f6c923a84846040518363ffffffff1660e01b815260040180806020018281038252848482818152602001925080828437600081840152601f19601f820116905080830192505050935050505060a06040518083038186803b15801561152b57600080fd5b505afa15801561153f573d6000803e3d6000fd5b505050506040513d60a081101561155557600080fd5b810190808051906020019092919080519060200190929190805190602001909291908051906020019092919080519060200190929190505050505092505050600360009054906101000a900473ffffffffffffffffffffffffffffffffffffffff1673ffffffffffffffffffffffffffffffffffffffff166323b872dd8230670de0b6b3a76400006040518463ffffffff1660e01b8152600401808473ffffffffffffffffffffffffffffffffffffffff1681526020018373ffffffffffffffffffffffffffffffffffffffff1681526020018281526020019350505050602060405180830381600087803b15801561164d57600080fd5b505af1158015611661573d6000803e3d6000fd5b505050506040513d602081101561167757600080fd5b810190808051906020019092919050505050600760008273ffffffffffffffffffffffffffffffffffffffff1673ffffffffffffffffffffffffffffffffffffffff16815260200190815260200160002060008154809291906001019190505550505050565b6060600160009054906101000a900473ffffffffffffffffffffffffffffffffffffffff1673ffffffffffffffffffffffffffffffffffffffff163373ffffffffffffffffffffffffffffffffffffffff1614611785576040517f08c379a0000000000000000000000000000000000000000000000000000000008152600401808060200182810382526026815260200180612fe56026913960400191505060405180910390fd5b611793878787878787611f8e565b9050979650505050505050565b6117a8611cff565b73ffffffffffffffffffffffffffffffffffffffff1660008054906101000a900473ffffffffffffffffffffffffffffffffffffffff1673ffffffffffffffffffffffffffffffffffffffff1614611868576040517f08c379a00000000000000000000000000000000000000000000000000000000081526004018080602001828103825260208152602001807f4f776e61626c653a2063616c6c6572206973206e6f7420746865206f776e657281525060200191505060405180910390fd5b600073ffffffffffffffffffffffffffffffffffffffff168173ffffffffffffffffffffffffffffffffffffffff1614156118ee576040517f08c379a0000000000000000000000000000000000000000000000000000000008152600401808060200182810382526026815260200180612f9b6026913960400191505060405180910390fd5b8073ffffffffffffffffffffffffffffffffffffffff1660008054906101000a900473ffffffffffffffffffffffffffffffffffffffff1673ffffffffffffffffffffffffffffffffffffffff167f8be0079c531659141344cd1fd0a4f28419497f9722a3daafe3b4186f6b6457e060405160405180910390a3806000806101000a81548173ffffffffffffffffffffffffffffffffffffffff021916908373ffffffffffffffffffffffffffffffffffffffff16021790555050565b6000600360009054906101000a900473ffffffffffffffffffffffffffffffffffffffff1673ffffffffffffffffffffffffffffffffffffffff168273ffffffffffffffffffffffffffffffffffffffff16149050919050565b60007fa9214cc96615e0085d3bb077758db69497dc2dce3b2b1e97bc93c3d18d83efd38273ffffffffffffffffffffffffffffffffffffffff16637730599e6040518163ffffffff1660e01b815260040160206040518083038186803b158015611a6e57600080fd5b505afa158015611a82573d6000803e3d6000fd5b505050506040513d6020811015611a9857600080fd5b8101908080519060200190929190505050149050919050565b60606000600160009054906101000a900473ffffffffffffffffffffffffffffffffffffffff1673ffffffffffffffffffffffffffffffffffffffff16633f6c923a85856040518363ffffffff1660e01b815260040180806020018281038252848482818152602001925080828437600081840152601f19601f820116905080830192505050935050505060a06040518083038186803b158015611b5457600080fd5b505afa158015611b68573d6000803e3d6000fd5b505050506040513d60a0811015611b7e57600080fd5b8101908080519060200190929190805190602001909291908051906020019092919080519060200190929190805190602001909291905050505050925050506000600760008373ffffffffffffffffffffffffffffffffffffffff1673ffffffffffffffffffffffffffffffffffffffff1681526020019081526020016000205411604051806060016040528060248152602001612fc16024913990611cbf576040517f08c379a00000000000000000000000000000000000000000000000000000000081526004018080602001828103825283818151815260200191508051906020019080838360005b83811015611c84578082015181840152602081019050611c69565b50505050905090810190601f168015611cb15780820380516001836020036101000a031916815260200191505b509250505060405180910390fd5b5080604051602001808273ffffffffffffffffffffffffffffffffffffffff16815260200191505060405160208183030381529060405291505092915050565b600033905090565b60606000600160009054906101000a900473ffffffffffffffffffffffffffffffffffffffff1673ffffffffffffffffffffffffffffffffffffffff16633f6c923a85856040518363ffffffff1660e01b815260040180806020018281038252848482818152602001925080828437600081840152601f19601f820116905080830192505050935050505060a06040518083038186803b158015611daa57600080fd5b505afa158015611dbe573d6000803e3d6000fd5b505050506040513d60a0811015611dd457600080fd5b81019080805190602001909291908051906020019092919080519060200190929190805190602001909291908051906020019092919050505050509250505060006001600560008473ffffffffffffffffffffffffffffffffffffffff1673ffffffffffffffffffffffffffffffffffffffff168152602001908152602001600020540390506000600460016004805490500381548110611e7157fe5b9060005260206000200160009054906101000a900473ffffffffffffffffffffffffffffffffffffffff1690508060048381548110611eac57fe5b9060005260206000200160006101000a81548173ffffffffffffffffffffffffffffffffffffffff021916908373ffffffffffffffffffffffffffffffffffffffff1602179055506004805480611eff57fe5b6001900381819060005260206000200160006101000a81549073ffffffffffffffffffffffffffffffffffffffff021916905590556000600560008573ffffffffffffffffffffffffffffffffffffffff1673ffffffffffffffffffffffffffffffffffffffff16815260200190815260200160002081905550611f8386866122f7565b935050505092915050565b6060600083836020811015611fa257600080fd5b81019080803573ffffffffffffffffffffffffffffffffffffffff169060200190929190505050905060008673ffffffffffffffffffffffffffffffffffffffff1663aabd2668600360009054906101000a900473ffffffffffffffffffffffffffffffffffffffff16886040518363ffffffff1660e01b8152600401808373ffffffffffffffffffffffffffffffffffffffff1681526020018281526020019250505060806040518083038186803b15801561205e57600080fd5b505afa158015612072573d6000803e3d6000fd5b505050506040513d608081101561208857600080fd5b8101908080519060200190929190805190602001909291908051906020019092919080519060200190929190505050505091505062278d00678ac7230489e80000816120d057fe5b04600b0b81600b0b12156040518060600160405280602281526020016130306022913990612199576040517f08c379a00000000000000000000000000000000000000000000000000000000081526004018080602001828103825283818151815260200191508051906020019080838360005b8381101561215e578082015181840152602081019050612143565b50505050905090810190601f16801561218b5780820380516001836020036101000a031916815260200191505b509250505060405180910390fd5b50600760008373ffffffffffffffffffffffffffffffffffffffff1673ffffffffffffffffffffffffffffffffffffffff16815260200190815260200160002060008154809291906001900391905055506000600560008473ffffffffffffffffffffffffffffffffffffffff1673ffffffffffffffffffffffffffffffffffffffff1681526020019081526020016000205414156122df576004829080600181540180825580915050600190039060005260206000200160009091909190916101000a81548173ffffffffffffffffffffffffffffffffffffffff021916908373ffffffffffffffffffffffffffffffffffffffff160217905550600480549050600560008473ffffffffffffffffffffffffffffffffffffffff1673ffffffffffffffffffffffffffffffffffffffff168152602001908152602001600020819055505b6122e989896122f7565b925050509695505050505050565b60606000600660009054906101000a900473ffffffffffffffffffffffffffffffffffffffff16905060048080549050600480549050434060405160200180838152602001828152602001925050506040516020818303038152906040528051906020012060001c8161236657fe5b068154811061237157fe5b9060005260206000200160009054906101000a900473ffffffffffffffffffffffffffffffffffffffff16600660006101000a81548173ffffffffffffffffffffffffffffffffffffffff021916908373ffffffffffffffffffffffffffffffffffffffff16021790555083838080601f016020809104026020016040519081016040528093929190818152602001838380828437600081840152601f19601f820116905080830192505050505050509150600073ffffffffffffffffffffffffffffffffffffffff168173ffffffffffffffffffffffffffffffffffffffff161461293557600160009054906101000a900473ffffffffffffffffffffffffffffffffffffffff1673ffffffffffffffffffffffffffffffffffffffff16638d62bb01600260009054906101000a900473ffffffffffffffffffffffffffffffffffffffff1663b4b333c660e01b600360009054906101000a900473ffffffffffffffffffffffffffffffffffffffff163086600067ffffffffffffffff811180156124fd57600080fd5b506040519080825280601f01601f1916602001820160405280156125305781602001600182028036833780820191505090505b50604051602401808573ffffffffffffffffffffffffffffffffffffffff1681526020018473ffffffffffffffffffffffffffffffffffffffff1681526020018373ffffffffffffffffffffffffffffffffffffffff16815260200180602001828103825283818151815260200191508051906020019080838360005b838110156125c85780820151818401526020810190506125ad565b50505050905090810190601f1680156125f55780820380516001836020036101000a031916815260200191505b5095505050505050604051602081830303815290604052907bffffffffffffffffffffffffffffffffffffffffffffffffffffffff19166020820180517bffffffffffffffffffffffffffffffffffffffffffffffffffffffff8381831617835250505050856040518463ffffffff1660e01b8152600401808473ffffffffffffffffffffffffffffffffffffffff1681526020018060200180602001838103835285818151815260200191508051906020019080838360005b838110156126ca5780820151818401526020810190506126af565b50505050905090810190601f1680156126f75780820380516001836020036101000a031916815260200191505b50838103825284818151815260200191508051906020019080838360005b83811015612730578082015181840152602081019050612715565b50505050905090810190601f16801561275d5780820380516001836020036101000a031916815260200191505b5095505050505050600060405180830381600087803b15801561277f57600080fd5b505af1158015612793573d6000803e3d6000fd5b505050506040513d6000823e3d601f19601f8201168201806040525060408110156127bd57600080fd5b81019080805160405193929190846401000000008211156127dd57600080fd5b838201915060208201858111156127f357600080fd5b825186600182028301116401000000008211171561281057600080fd5b8083526020830192505050908051906020019080838360005b83811015612844578082015181840152602081019050612829565b50505050905090810190601f1680156128715780820380516001836020036101000a031916815260200191505b506040526020018051604051939291908464010000000082111561289457600080fd5b838201915060208201858111156128aa57600080fd5b82518660018202830111640100000000821117156128c757600080fd5b8083526020830192505050908051906020019080838360005b838110156128fb5780820151818401526020810190506128e0565b50505050905090810190601f1680156129285780820380516001836020036101000a031916815260200191505b5060405250505050809250505b600160009054906101000a900473ffffffffffffffffffffffffffffffffffffffff1673ffffffffffffffffffffffffffffffffffffffff16638d62bb01600260009054906101000a900473ffffffffffffffffffffffffffffffffffffffff166362fc305e60e01b600360009054906101000a900473ffffffffffffffffffffffffffffffffffffffff16600660009054906101000a900473ffffffffffffffffffffffffffffffffffffffff16600260009054906101000a900473ffffffffffffffffffffffffffffffffffffffff1673ffffffffffffffffffffffffffffffffffffffff1663e8e7e2d1600360009054906101000a900473ffffffffffffffffffffffffffffffffffffffff16306040518363ffffffff1660e01b8152600401808373ffffffffffffffffffffffffffffffffffffffff1681526020018273ffffffffffffffffffffffffffffffffffffffff1681526020019250505060206040518083038186803b158015612aad57600080fd5b505afa158015612ac1573d6000803e3d6000fd5b505050506040513d6020811015612ad757600080fd5b8101908080519060200190929190505050600067ffffffffffffffff81118015612b0057600080fd5b506040519080825280601f01601f191660200182016040528015612b335781602001600182028036833780820191505090505b50604051602401808573ffffffffffffffffffffffffffffffffffffffff1681526020018473ffffffffffffffffffffffffffffffffffffffff16815260200183600b0b815260200180602001828103825283818151815260200191508051906020019080838360005b83811015612bb8578082015181840152602081019050612b9d565b50505050905090810190601f168015612be55780820380516001836020036101000a031916815260200191505b5095505050505050604051602081830303815290604052907bffffffffffffffffffffffffffffffffffffffffffffffffffffffff19166020820180517bffffffffffffffffffffffffffffffffffffffffffffffffffffffff8381831617835250505050856040518463ffffffff1660e01b8152600401808473ffffffffffffffffffffffffffffffffffffffff1681526020018060200180602001838103835285818151815260200191508051906020019080838360005b83811015612cba578082015181840152602081019050612c9f565b50505050905090810190601f168015612ce75780820380516001836020036101000a031916815260200191505b50838103825284818151815260200191508051906020019080838360005b83811015612d20578082015181840152602081019050612d05565b50505050905090810190601f168015612d4d5780820380516001836020036101000a031916815260200191505b5095505050505050600060405180830381600087803b158015612d6f57600080fd5b505af1158015612d83573d6000803e3d6000fd5b505050506040513d6000823e3d601f19601f820116820180604052506040811015612dad57600080fd5b8101908080516040519392919084640100000000821115612dcd57600080fd5b83820191506020820185811115612de357600080fd5b8251866001820283011164010000000082111715612e0057600080fd5b8083526020830192505050908051906020019080838360005b83811015612e34578082015181840152602081019050612e19565b50505050905090810190601f168015612e615780820380516001836020036101000a031916815260200191505b5060405260200180516040519392919084640100000000821115612e8457600080fd5b83820191506020820185811115612e9a57600080fd5b8251866001820283011164010000000082111715612eb757600080fd5b8083526020830192505050908051906020019080838360005b83811015612eeb578082015181840152602081019050612ed0565b50505050905090810190601f168015612f185780820380516001836020036101000a031916815260200191505b5060405250505050809250507fea51f0378bfcc3f8154085e9b27c4cdab6940054e6f03064754c023ab59d545a600660009054906101000a900473ffffffffffffffffffffffffffffffffffffffff16604051808273ffffffffffffffffffffffffffffffffffffffff16815260200191505060405180910390a1509291505056fe4f776e61626c653a206e6577206f776e657220697320746865207a65726f20616464726573734c6f747465727953757065724170703a206e656564207469636b657420746f20706c61794c6f747465727953757065724170703a20737570706f7274206f6e6c79206f6e6520686f73744c6f747465727953757065724170703a206f6e6c7920434641763120737570706f727465644c6f747465727953757065724170703a20666c6f77207261746520746f6f206c6f774c6f747465727953757065724170703a206e6f7420616363657074656420746f6b656ea264697066735822122094a578eb34b92df5850d58cd61b9e10c832633c54aaac4fb8d2fd2969a731f2a64736f6c63430007010033",
  "immutableReferences": {},
  "source": "// SPDX-License-Identifier: MIT\npragma solidity 0.7.1;\n\nimport {\n    ISuperfluid,\n    ISuperToken,\n    ISuperAgreement,\n    ISuperApp,\n    SuperAppDefinitions\n} from \"@superfluid-finance/ethereum-contracts/contracts/interfaces/superfluid/ISuperfluid.sol\";\n\nimport {\n    IConstantFlowAgreementV1\n} from \"@superfluid-finance/ethereum-contracts/contracts/interfaces/agreements/IConstantFlowAgreementV1.sol\";\n\nimport \"@openzeppelin/contracts/access/Ownable.sol\";\n\n\ncontract LotterySuperApp is Ownable, ISuperApp { \n\n    /// @dev Entrance fee for the game (hardcoded to $1)\n    uint256 constant private _ENTRANCE_FEE = 1e18;\n    /// @dev Minimum flow rate to participate (hardcoded to $10 / mo)\n    int96 constant private _MINIMUM_FLOW_RATE = int96(uint256(10e18) / uint256(3600 * 24 * 30));\n\n    string constant private _ERR_STR_NO_TICKET = \"LotterySuperApp: need ticket to play\";\n    string constant private _ERR_STR_LOW_FLOW_RATE = \"LotterySuperApp: flow rate too low\";\n\n    ISuperfluid private _host; // host\n    IConstantFlowAgreementV1 private _cfa; // the stored constant flow agreement class address\n    ISuperToken private _acceptedToken; // accepted token\n\n    address[] private _players;\n    mapping (address => uint) private _playerIndices;\n    address private _winner;\n\n    constructor(\n        ISuperfluid host,\n        IConstantFlowAgreementV1 cfa,\n        ISuperToken acceptedToken) {\n        assert(address(host) != address(0));\n        assert(address(cfa) != address(0));\n        assert(address(acceptedToken) != address(0));\n\n        _host = host;\n        _cfa = cfa;\n        _acceptedToken = acceptedToken;\n\n        uint256 configWord =\n            SuperAppDefinitions.TYPE_APP_FINAL;\n\n        _host.registerApp(configWord);\n    }\n\n    /// @dev Tickets by users\n    mapping (address => uint) public tickets;\n\n    /**************************************************************************\n     * Game Logic\n     *************************************************************************/\n\n    /// @dev Take entrance fee from the user and issue a ticket\n    function participate(bytes calldata ctx) external {\n        // msg sender is encoded in the Context\n        (,,address sender,,) = _host.decodeCtx(ctx);\n        _acceptedToken.transferFrom(sender, address(this), _ENTRANCE_FEE);\n        tickets[sender]++;\n    }\n\n    function currentWinner()\n        external view\n        returns (\n            uint256 drawingTime,\n            address player,\n            int96 flowRate\n        )\n    {\n        if (_winner != address(0)) {\n            (drawingTime, flowRate,,) = _cfa.getFlow(_acceptedToken, address(this), _winner);\n            player = _winner;\n        }\n    }\n\n    event WinnerChanged(address winner);\n\n    /// @dev Check requirements before letting the user playing the game\n    function _beforePlay(\n        bytes calldata ctx\n    )\n        private view\n        returns (bytes memory cbdata)\n    {\n        (,,address sender,,) = _host.decodeCtx(ctx);\n        require(tickets[sender] > 0, _ERR_STR_NO_TICKET);\n        cbdata = abi.encode(sender);\n    }\n\n    /// @dev Play the game\n    function _play(\n        bytes calldata ctx,\n        address agreementClass,\n        bytes32 agreementId,\n        bytes calldata cbdata\n    )\n        private\n        returns (bytes memory newCtx)\n    {\n        (address player) = abi.decode(cbdata, (address));\n\n        (,int96 flowRate,,) = IConstantFlowAgreementV1(agreementClass).getFlowByID(_acceptedToken, agreementId);\n        require(flowRate >= _MINIMUM_FLOW_RATE, _ERR_STR_LOW_FLOW_RATE);\n\n        // charge one ticket\n        tickets[player]--; \n\n        // arrange players list\n        if (_playerIndices[player] == 0) {\n            _players.push(player);\n            _playerIndices[player] = _players.length;\n        }\n\n        return _draw(ctx);\n    }\n\n    /// @dev Play the game\n    function _quit(\n        bytes calldata ctx\n    )\n        private\n        returns (bytes memory newCtx)\n    {\n        (,,address player,,) = _host.decodeCtx(ctx);\n\n        // arrange players list\n        uint playerIndex = _playerIndices[player] - 1;\n        address lastPlayer = _players[_players.length - 1];\n        _players[playerIndex] = lastPlayer;\n        _players.pop();\n        _playerIndices[player] = 0;\n\n        return _draw(ctx);\n    }\n\n    // @dev Make a new draw\n    function _draw(\n        bytes calldata ctx\n    )\n        private\n        returns (bytes memory newCtx)\n    {\n        address oldWinner = _winner;\n\n        // rand() adaptation from: https://ethereum.stackexchange.com/questions/72940/solidity-how-do-i-generate-a-random-address\n        _winner = _players[\n            uint(keccak256(abi.encodePacked(_players.length, blockhash(block.number))))\n            %\n            _players.length\n        ];\n\n        newCtx = ctx;\n\n        // delete flow to old winner \n        if (oldWinner != address(0)) {\n            (newCtx, ) = _host.callAgreementWithContext(\n                _cfa,\n                abi.encodeWithSelector(\n                    _cfa.deleteFlow.selector,\n                    _acceptedToken,\n                    address(this),\n                    oldWinner,\n                    new bytes(0)\n                ),\n                newCtx\n            );\n        }\n\n        // create flow to new winner\n        (newCtx, ) = _host.callAgreementWithContext(\n            _cfa,\n            abi.encodeWithSelector(\n                _cfa.createFlow.selector,\n                _acceptedToken,\n                _winner,\n                _cfa.getNetFlow(_acceptedToken, address(this)),\n                new bytes(0)\n            ),\n            newCtx\n        );\n\n        emit WinnerChanged(_winner);\n    }\n\n    /**************************************************************************\n     * SuperApp callbacks\n     *************************************************************************/\n\n    function beforeAgreementCreated(\n        ISuperToken superToken,\n        bytes calldata ctx,\n        address agreementClass,\n        bytes32 /*agreementId*/\n    )\n        external view override\n        onlyHost\n        onlyExpected(superToken, agreementClass)\n        returns (bytes memory cbdata)\n    {\n        cbdata = _beforePlay(ctx);\n    }\n\n    function afterAgreementCreated(\n        ISuperToken /* superToken */,\n        bytes calldata ctx,\n        address agreementClass,\n        bytes32 agreementId,\n        bytes calldata cbdata\n    )\n        external override\n        onlyHost\n        returns (bytes memory newCtx)\n    {\n        return _play(ctx, agreementClass, agreementId, cbdata);\n    }\n\n    function beforeAgreementUpdated(\n        ISuperToken superToken,\n        bytes calldata ctx,\n        address agreementClass,\n        bytes32 /*agreementId*/\n    )\n        external view override\n        onlyHost\n        onlyExpected(superToken, agreementClass)\n        returns (bytes memory cbdata)\n    {\n        cbdata = _beforePlay(ctx);\n    }\n\n    function afterAgreementUpdated(\n        ISuperToken /* superToken */,\n        bytes calldata ctx,\n        address agreementClass,\n        bytes32 agreementId,\n        bytes calldata cbdata\n    )\n        external override\n        onlyHost\n        returns (bytes memory newCtx)\n    {\n        return _play(ctx, agreementClass, agreementId, cbdata);\n    }\n\n    function beforeAgreementTerminated(\n        ISuperToken superToken,\n        bytes calldata /*ctx*/,\n        address agreementClass,\n        bytes32 /*agreementId*/\n    )\n        external view override\n        onlyHost\n        returns (bytes memory cbdata)\n    {\n        // According to the app basic law, we should never revert in a termination callback\n        if (!_isSameToken(superToken) || !_isCFAv1(agreementClass)) return abi.encode(true);\n        return abi.encode(false);\n    }\n\n    ///\n    function afterAgreementTerminated(\n        ISuperToken /* superToken */,\n        bytes calldata ctx,\n        address /* agreementClass */,\n        bytes32 /* agreementId */,\n        bytes calldata cbdata\n    )\n        external override\n        onlyHost\n        returns (bytes memory newCtx)\n    {\n        // According to the app basic law, we should never revert in a termination callback\n        (bool shouldIgnore) = abi.decode(cbdata, (bool));\n        if (shouldIgnore) return ctx;\n        return _quit(ctx);\n    }\n\n    function _isSameToken(ISuperToken superToken) private view returns (bool) {\n        return address(superToken) == address(_acceptedToken);\n    }\n\n    function _isCFAv1(address agreementClass) private pure returns (bool) {\n        return ISuperAgreement(agreementClass).agreementType()\n            == keccak256(\"org.superfluid-finance.agreements.ConstantFlowAgreement.v1\");\n    }\n\n    modifier onlyHost() {\n        require(msg.sender == address(_host), \"LotterySuperApp: support only one host\");\n        _;\n    }\n\n    modifier onlyExpected(ISuperToken superToken, address agreementClass) {\n        require(_isSameToken(superToken), \"LotterySuperApp: not accepted token\");\n        require(_isCFAv1(agreementClass), \"LotterySuperApp: only CFAv1 supported\");\n        _;\n    }\n\n}\n\n",
  "sourcePath": "/home/hellwolf/Projects/superfluid/superfluid-protocol-preview/sample-integrations/superapp-demo/contracts/LotterySuperApp.sol",
  "compiler": {
    "name": "solc",
    "version": "0.7.1+commit.f4a555be.Emscripten.clang"
  },
  "schemaVersion": "3.2.5",
  "updatedAt": "2020-10-02T08:44:32.055Z",
  "devdoc": {
    "kind": "dev",
    "methods": {
      "owner()": {
        "details": "Returns the address of the current owner."
      },
      "participate(bytes)": {
        "details": "Take entrance fee from the user and issue a ticket"
      },
      "renounceOwnership()": {
        "details": "Leaves the contract without owner. It will not be possible to call `onlyOwner` functions anymore. Can only be called by the current owner. NOTE: Renouncing ownership will leave the contract without an owner, thereby removing any functionality that is only available to the owner."
      },
      "transferOwnership(address)": {
        "details": "Transfers ownership of the contract to a new account (`newOwner`). Can only be called by the current owner."
      }
    },
    "stateVariables": {
      "_ENTRANCE_FEE": {
        "details": "Entrance fee for the game (hardcoded to $1)"
      },
      "_MINIMUM_FLOW_RATE": {
        "details": "Minimum flow rate to participate (hardcoded to $10 / mo)"
      },
      "tickets": {
        "details": "Tickets by users"
      }
    },
    "version": 1
  },
  "userdoc": {
    "kind": "user",
    "methods": {},
    "version": 1
  }
}