{
  "contractName": "LotterySuperApp",
  "abi": [
    {
      "inputs": [
        {
          "internalType": "contract ISuperfluid",
          "name": "host",
          "type": "address"
        },
        {
          "internalType": "contract IConstantFlowAgreementV1",
          "name": "cfa",
          "type": "address"
        },
        {
          "internalType": "contract ISuperToken",
          "name": "acceptedToken",
          "type": "address"
        }
      ],
      "stateMutability": "nonpayable",
      "type": "constructor"
    },
    {
      "anonymous": false,
      "inputs": [
        {
          "indexed": true,
          "internalType": "address",
          "name": "previousOwner",
          "type": "address"
        },
        {
          "indexed": true,
          "internalType": "address",
          "name": "newOwner",
          "type": "address"
        }
      ],
      "name": "OwnershipTransferred",
      "type": "event"
    },
    {
      "anonymous": false,
      "inputs": [
        {
          "indexed": false,
          "internalType": "address",
          "name": "winner",
          "type": "address"
        }
      ],
      "name": "WinnerChanged",
      "type": "event"
    },
    {
      "inputs": [],
      "name": "owner",
      "outputs": [
        {
          "internalType": "address",
          "name": "",
          "type": "address"
        }
      ],
      "stateMutability": "view",
      "type": "function"
    },
    {
      "inputs": [],
      "name": "renounceOwnership",
      "outputs": [],
      "stateMutability": "nonpayable",
      "type": "function"
    },
    {
      "inputs": [
        {
          "internalType": "address",
          "name": "",
          "type": "address"
        }
      ],
      "name": "tickets",
      "outputs": [
        {
          "internalType": "uint256",
          "name": "",
          "type": "uint256"
        }
      ],
      "stateMutability": "view",
      "type": "function"
    },
    {
      "inputs": [
        {
          "internalType": "address",
          "name": "newOwner",
          "type": "address"
        }
      ],
      "name": "transferOwnership",
      "outputs": [],
      "stateMutability": "nonpayable",
      "type": "function"
    },
    {
      "inputs": [
        {
          "internalType": "bytes",
          "name": "ctx",
          "type": "bytes"
        }
      ],
      "name": "participate",
      "outputs": [
        {
          "internalType": "bytes",
          "name": "newCtx",
          "type": "bytes"
        }
      ],
      "stateMutability": "nonpayable",
      "type": "function"
    },
    {
      "inputs": [],
      "name": "currentWinner",
      "outputs": [
        {
          "internalType": "uint256",
          "name": "drawingTime",
          "type": "uint256"
        },
        {
          "internalType": "address",
          "name": "player",
          "type": "address"
        },
        {
          "internalType": "int96",
          "name": "flowRate",
          "type": "int96"
        }
      ],
      "stateMutability": "view",
      "type": "function"
    },
    {
      "inputs": [
        {
          "internalType": "contract ISuperToken",
          "name": "superToken",
          "type": "address"
        },
        {
          "internalType": "address",
          "name": "agreementClass",
          "type": "address"
        },
        {
          "internalType": "bytes32",
          "name": "",
          "type": "bytes32"
        },
        {
          "internalType": "bytes",
          "name": "",
          "type": "bytes"
        },
        {
          "internalType": "bytes",
          "name": "ctx",
          "type": "bytes"
        }
      ],
      "name": "beforeAgreementCreated",
      "outputs": [
        {
          "internalType": "bytes",
          "name": "cbdata",
          "type": "bytes"
        }
      ],
      "stateMutability": "view",
      "type": "function"
    },
    {
      "inputs": [
        {
          "internalType": "contract ISuperToken",
          "name": "",
          "type": "address"
        },
        {
          "internalType": "address",
          "name": "agreementClass",
          "type": "address"
        },
        {
          "internalType": "bytes32",
          "name": "agreementId",
          "type": "bytes32"
        },
        {
          "internalType": "bytes",
          "name": "",
          "type": "bytes"
        },
        {
          "internalType": "bytes",
          "name": "cbdata",
          "type": "bytes"
        },
        {
          "internalType": "bytes",
          "name": "ctx",
          "type": "bytes"
        }
      ],
      "name": "afterAgreementCreated",
      "outputs": [
        {
          "internalType": "bytes",
          "name": "newCtx",
          "type": "bytes"
        }
      ],
      "stateMutability": "nonpayable",
      "type": "function"
    },
    {
      "inputs": [
        {
          "internalType": "contract ISuperToken",
          "name": "superToken",
          "type": "address"
        },
        {
          "internalType": "address",
          "name": "agreementClass",
          "type": "address"
        },
        {
          "internalType": "bytes32",
          "name": "",
          "type": "bytes32"
        },
        {
          "internalType": "bytes",
          "name": "",
          "type": "bytes"
        },
        {
          "internalType": "bytes",
          "name": "ctx",
          "type": "bytes"
        }
      ],
      "name": "beforeAgreementUpdated",
      "outputs": [
        {
          "internalType": "bytes",
          "name": "cbdata",
          "type": "bytes"
        }
      ],
      "stateMutability": "view",
      "type": "function"
    },
    {
      "inputs": [
        {
          "internalType": "contract ISuperToken",
          "name": "",
          "type": "address"
        },
        {
          "internalType": "address",
          "name": "agreementClass",
          "type": "address"
        },
        {
          "internalType": "bytes32",
          "name": "agreementId",
          "type": "bytes32"
        },
        {
          "internalType": "bytes",
          "name": "",
          "type": "bytes"
        },
        {
          "internalType": "bytes",
          "name": "cbdata",
          "type": "bytes"
        },
        {
          "internalType": "bytes",
          "name": "ctx",
          "type": "bytes"
        }
      ],
      "name": "afterAgreementUpdated",
      "outputs": [
        {
          "internalType": "bytes",
          "name": "newCtx",
          "type": "bytes"
        }
      ],
      "stateMutability": "nonpayable",
      "type": "function"
    },
    {
      "inputs": [
        {
          "internalType": "contract ISuperToken",
          "name": "superToken",
          "type": "address"
        },
        {
          "internalType": "address",
          "name": "agreementClass",
          "type": "address"
        },
        {
          "internalType": "bytes32",
          "name": "",
          "type": "bytes32"
        },
        {
          "internalType": "bytes",
          "name": "",
          "type": "bytes"
        },
        {
          "internalType": "bytes",
          "name": "",
          "type": "bytes"
        }
      ],
      "name": "beforeAgreementTerminated",
      "outputs": [
        {
          "internalType": "bytes",
          "name": "cbdata",
          "type": "bytes"
        }
      ],
      "stateMutability": "view",
      "type": "function"
    },
    {
      "inputs": [
        {
          "internalType": "contract ISuperToken",
          "name": "",
          "type": "address"
        },
        {
          "internalType": "address",
          "name": "",
          "type": "address"
        },
        {
          "internalType": "bytes32",
          "name": "",
          "type": "bytes32"
        },
        {
          "internalType": "bytes",
          "name": "agreementData",
          "type": "bytes"
        },
        {
          "internalType": "bytes",
          "name": "cbdata",
          "type": "bytes"
        },
        {
          "internalType": "bytes",
          "name": "ctx",
          "type": "bytes"
        }
      ],
      "name": "afterAgreementTerminated",
      "outputs": [
        {
          "internalType": "bytes",
          "name": "newCtx",
          "type": "bytes"
        }
      ],
      "stateMutability": "nonpayable",
      "type": "function"
    }
  ],
  "bytecode": "0x60806040523480156200001157600080fd5b506040516200347e3803806200347e833981810160405281019062000037919062000340565b600062000049620002f360201b60201c565b9050806000806101000a81548173ffffffffffffffffffffffffffffffffffffffff021916908373ffffffffffffffffffffffffffffffffffffffff1602179055508073ffffffffffffffffffffffffffffffffffffffff16600073ffffffffffffffffffffffffffffffffffffffff167f8be0079c531659141344cd1fd0a4f28419497f9722a3daafe3b4186f6b6457e060405160405180910390a350600073ffffffffffffffffffffffffffffffffffffffff168373ffffffffffffffffffffffffffffffffffffffff1614156200011f57fe5b600073ffffffffffffffffffffffffffffffffffffffff168273ffffffffffffffffffffffffffffffffffffffff1614156200015757fe5b600073ffffffffffffffffffffffffffffffffffffffff168173ffffffffffffffffffffffffffffffffffffffff1614156200018f57fe5b82600160006101000a81548173ffffffffffffffffffffffffffffffffffffffff021916908373ffffffffffffffffffffffffffffffffffffffff16021790555081600260006101000a81548173ffffffffffffffffffffffffffffffffffffffff021916908373ffffffffffffffffffffffffffffffffffffffff16021790555080600360006101000a81548173ffffffffffffffffffffffffffffffffffffffff021916908373ffffffffffffffffffffffffffffffffffffffff160217905550600060019050600160009054906101000a900473ffffffffffffffffffffffffffffffffffffffff1673ffffffffffffffffffffffffffffffffffffffff1663ad3915c8826040518263ffffffff1660e01b8152600401620002b59190620003a7565b600060405180830381600087803b158015620002d057600080fd5b505af1158015620002e5573d6000803e3d6000fd5b50505050505050506200048c565b600033905090565b6000815190506200030c816200043e565b92915050565b600081519050620003238162000458565b92915050565b6000815190506200033a8162000472565b92915050565b6000806000606084860312156200035657600080fd5b6000620003668682870162000329565b93505060206200037986828701620002fb565b92505060406200038c8682870162000312565b9150509250925092565b620003a18162000434565b82525050565b6000602082019050620003be600083018462000396565b92915050565b6000620003d18262000414565b9050919050565b6000620003e582620003c4565b9050919050565b6000620003f982620003c4565b9050919050565b60006200040d82620003c4565b9050919050565b600073ffffffffffffffffffffffffffffffffffffffff82169050919050565b6000819050919050565b6200044981620003d8565b81146200045557600080fd5b50565b6200046381620003ec565b81146200046f57600080fd5b50565b6200047d8162000400565b81146200048957600080fd5b50565b612fe2806200049c6000396000f3fe608060405234801561001057600080fd5b50600436106100b45760003560e01c8063884d1f4011610071578063884d1f40146101b35780638da5cb5b146101e3578063aabe2fe314610201578063d7d4912314610221578063d86ed3e514610251578063f2fde38b14610281576100b4565b8063230dbd29146100b957806330d9c915146100e957806353c11f99146101195780635f9e7d77146101495780636dcbf2a314610179578063715018a6146101a9575b600080fd5b6100d360048036038101906100ce9190612453565b61029d565b6040516100e0919061295d565b60405180910390f35b61010360048036038101906100fe91906123a3565b61034c565b604051610110919061295d565b60405180910390f35b610133600480360381019061012e9190612453565b610489565b604051610140919061295d565b60405180910390f35b610163600480360381019061015e91906123a3565b6105b2565b604051610170919061295d565b60405180910390f35b610193600480360381019061018e91906121e9565b6106bb565b6040516101a09190612b7c565b60405180910390f35b6101b16106d3565b005b6101cd60048036038101906101c891906123a3565b610840565b6040516101da919061295d565b60405180910390f35b6101eb61097d565b6040516101f891906128cc565b60405180910390f35b6102096109a6565b60405161021893929190612b97565b60405180910390f35b61023b600480360381019061023691906122f2565b610b29565b604051610248919061295d565b60405180910390f35b61026b60048036038101906102669190612453565b610dcc565b604051610278919061295d565b60405180910390f35b61029b600480360381019061029691906121e9565b610e7b565b005b6060600160009054906101000a900473ffffffffffffffffffffffffffffffffffffffff1673ffffffffffffffffffffffffffffffffffffffff163373ffffffffffffffffffffffffffffffffffffffff161461032f576040517f08c379a000000000000000000000000000000000000000000000000000000000815260040161032690612b1c565b60405180910390fd5b61033d83838b8b898961106d565b90509998505050505050505050565b6060600160009054906101000a900473ffffffffffffffffffffffffffffffffffffffff1673ffffffffffffffffffffffffffffffffffffffff163373ffffffffffffffffffffffffffffffffffffffff16146103de576040517f08c379a00000000000000000000000000000000000000000000000000000000081526004016103d590612b1c565b60405180910390fd5b87876103e98261122d565b610428576040517f08c379a000000000000000000000000000000000000000000000000000000000815260040161041f90612b5c565b60405180910390fd5b61043181611287565b610470576040517f08c379a000000000000000000000000000000000000000000000000000000000815260040161046790612b3c565b60405180910390fd5b61047a8585611330565b92505050979650505050505050565b6060600160009054906101000a900473ffffffffffffffffffffffffffffffffffffffff1673ffffffffffffffffffffffffffffffffffffffff163373ffffffffffffffffffffffffffffffffffffffff161461051b576040517f08c379a000000000000000000000000000000000000000000000000000000000815260040161051290612b1c565b60405180910390fd5b6000858581019061052c9190612277565b905080156105815783838080601f016020809104026020016040519081016040528093929190818152602001838380828437600081840152601f19601f820116905080830192505050505050509150506105a5565b60008888810190610592919061223b565b5090506105a08186866114b3565b925050505b9998505050505050505050565b6060600160009054906101000a900473ffffffffffffffffffffffffffffffffffffffff1673ffffffffffffffffffffffffffffffffffffffff163373ffffffffffffffffffffffffffffffffffffffff1614610644576040517f08c379a000000000000000000000000000000000000000000000000000000000815260040161063b90612b1c565b60405180910390fd5b61064d8861122d565b158061065f575061065d87611287565b155b1561068c576001604051602001610676919061291e565b60405160208183030381529060405290506106b0565b600060405160200161069e919061291e565b60405160208183030381529060405290505b979650505050505050565b60076020528060005260406000206000915090505481565b6106db6114de565b73ffffffffffffffffffffffffffffffffffffffff166106f961097d565b73ffffffffffffffffffffffffffffffffffffffff1614610782576040517f08c379a00000000000000000000000000000000000000000000000000000000081526004018080602001828103825260208152602001807f4f776e61626c653a2063616c6c6572206973206e6f7420746865206f776e657281525060200191505060405180910390fd5b600073ffffffffffffffffffffffffffffffffffffffff1660008054906101000a900473ffffffffffffffffffffffffffffffffffffffff1673ffffffffffffffffffffffffffffffffffffffff167f8be0079c531659141344cd1fd0a4f28419497f9722a3daafe3b4186f6b6457e060405160405180910390a360008060006101000a81548173ffffffffffffffffffffffffffffffffffffffff021916908373ffffffffffffffffffffffffffffffffffffffff160217905550565b6060600160009054906101000a900473ffffffffffffffffffffffffffffffffffffffff1673ffffffffffffffffffffffffffffffffffffffff163373ffffffffffffffffffffffffffffffffffffffff16146108d2576040517f08c379a00000000000000000000000000000000000000000000000000000000081526004016108c990612b1c565b60405180910390fd5b87876108dd8261122d565b61091c576040517f08c379a000000000000000000000000000000000000000000000000000000000815260040161091390612b5c565b60405180910390fd5b61092581611287565b610964576040517f08c379a000000000000000000000000000000000000000000000000000000000815260040161095b90612b3c565b60405180910390fd5b61096e8585611330565b92505050979650505050505050565b60008060009054906101000a900473ffffffffffffffffffffffffffffffffffffffff16905090565b60008060008073ffffffffffffffffffffffffffffffffffffffff16600660009054906101000a900473ffffffffffffffffffffffffffffffffffffffff1673ffffffffffffffffffffffffffffffffffffffff1614610b2457600260009054906101000a900473ffffffffffffffffffffffffffffffffffffffff1673ffffffffffffffffffffffffffffffffffffffff1663e6a1e888600360009054906101000a900473ffffffffffffffffffffffffffffffffffffffff1630600660009054906101000a900473ffffffffffffffffffffffffffffffffffffffff166040518463ffffffff1660e01b8152600401610aa393929190612a02565b60806040518083038186803b158015610abb57600080fd5b505afa158015610acf573d6000803e3d6000fd5b505050506040513d601f19601f82011682018060405250810190610af3919061259c565b9050508092508194505050600660009054906101000a900473ffffffffffffffffffffffffffffffffffffffff1691505b909192565b6060600160009054906101000a900473ffffffffffffffffffffffffffffffffffffffff1673ffffffffffffffffffffffffffffffffffffffff163373ffffffffffffffffffffffffffffffffffffffff1614610bbb576040517f08c379a0000000000000000000000000000000000000000000000000000000008152600401610bb290612b1c565b60405180910390fd5b6000600160009054906101000a900473ffffffffffffffffffffffffffffffffffffffff1673ffffffffffffffffffffffffffffffffffffffff16633f6c923a85856040518363ffffffff1660e01b8152600401610c1a929190612939565b60006040518083038186803b158015610c3257600080fd5b505afa158015610c46573d6000803e3d6000fd5b505050506040513d6000823e3d601f19601f82011682018060405250810190610c6f919061255b565b606001519050600360009054906101000a900473ffffffffffffffffffffffffffffffffffffffff1673ffffffffffffffffffffffffffffffffffffffff166323b872dd8230670de0b6b3a76400006040518463ffffffff1660e01b8152600401610cdc939291906128e7565b602060405180830381600087803b158015610cf657600080fd5b505af1158015610d0a573d6000803e3d6000fd5b505050506040513d601f19601f82011682018060405250810190610d2e91906122a0565b50600760008273ffffffffffffffffffffffffffffffffffffffff1673ffffffffffffffffffffffffffffffffffffffff1681526020019081526020016000206000815480929190600101919050555083838080601f016020809104026020016040519081016040528093929190818152602001838380828437600081840152601f19601f8201169050808301925050505050505091505092915050565b6060600160009054906101000a900473ffffffffffffffffffffffffffffffffffffffff1673ffffffffffffffffffffffffffffffffffffffff163373ffffffffffffffffffffffffffffffffffffffff1614610e5e576040517f08c379a0000000000000000000000000000000000000000000000000000000008152600401610e5590612b1c565b60405180910390fd5b610e6c83838b8b898961106d565b90509998505050505050505050565b610e836114de565b73ffffffffffffffffffffffffffffffffffffffff16610ea161097d565b73ffffffffffffffffffffffffffffffffffffffff1614610f2a576040517f08c379a00000000000000000000000000000000000000000000000000000000081526004018080602001828103825260208152602001807f4f776e61626c653a2063616c6c6572206973206e6f7420746865206f776e657281525060200191505060405180910390fd5b600073ffffffffffffffffffffffffffffffffffffffff168173ffffffffffffffffffffffffffffffffffffffff161415610fb0576040517f08c379a0000000000000000000000000000000000000000000000000000000008152600401808060200182810382526026815260200180612f416026913960400191505060405180910390fd5b8073ffffffffffffffffffffffffffffffffffffffff1660008054906101000a900473ffffffffffffffffffffffffffffffffffffffff1673ffffffffffffffffffffffffffffffffffffffff167f8be0079c531659141344cd1fd0a4f28419497f9722a3daafe3b4186f6b6457e060405160405180910390a3806000806101000a81548173ffffffffffffffffffffffffffffffffffffffff021916908373ffffffffffffffffffffffffffffffffffffffff16021790555050565b6060600083838101906110809190612212565b905060008673ffffffffffffffffffffffffffffffffffffffff1663aabd2668600360009054906101000a900473ffffffffffffffffffffffffffffffffffffffff16886040518363ffffffff1660e01b81526004016110e1929190612ad1565b60806040518083038186803b1580156110f957600080fd5b505afa15801561110d573d6000803e3d6000fd5b505050506040513d601f19601f82011682018060405250810190611131919061259c565b505091505062278d00678ac7230489e800008161114a57fe5b04600b0b81600b0b1215604051806060016040528060228152602001612f8b60229139906111ae576040517f08c379a00000000000000000000000000000000000000000000000000000000081526004016111a59190612afa565b60405180910390fd5b506111c38260046114e690919063ffffffff16565b50600760008373ffffffffffffffffffffffffffffffffffffffff1673ffffffffffffffffffffffffffffffffffffffff168152602001908152602001600020600081548092919060019003919050555061121f828a8a611516565b925050509695505050505050565b6000600360009054906101000a900473ffffffffffffffffffffffffffffffffffffffff1673ffffffffffffffffffffffffffffffffffffffff168273ffffffffffffffffffffffffffffffffffffffff16149050919050565b60007fa9214cc96615e0085d3bb077758db69497dc2dce3b2b1e97bc93c3d18d83efd38273ffffffffffffffffffffffffffffffffffffffff16637730599e6040518163ffffffff1660e01b815260040160206040518083038186803b1580156112f057600080fd5b505afa158015611304573d6000803e3d6000fd5b505050506040513d601f19601f8201168201806040525081019061132891906122c9565b149050919050565b60606000600160009054906101000a900473ffffffffffffffffffffffffffffffffffffffff1673ffffffffffffffffffffffffffffffffffffffff16633f6c923a85856040518363ffffffff1660e01b8152600401611391929190612939565b60006040518083038186803b1580156113a957600080fd5b505afa1580156113bd573d6000803e3d6000fd5b505050506040513d6000823e3d601f19601f820116820180604052508101906113e6919061255b565b6060015190506000600760008373ffffffffffffffffffffffffffffffffffffffff1673ffffffffffffffffffffffffffffffffffffffff1681526020019081526020016000205411604051806060016040528060248152602001612f676024913990611489576040517f08c379a00000000000000000000000000000000000000000000000000000000081526004016114809190612afa565b60405180910390fd5b508060405160200161149b91906128cc565b60405160208183030381529060405291505092915050565b60606114c9846004611c8390919063ffffffff16565b506114d5848484611516565b90509392505050565b600033905090565b600061150e836000018373ffffffffffffffffffffffffffffffffffffffff1660001b611cb3565b905092915050565b60606000600660009054906101000a900473ffffffffffffffffffffffffffffffffffffffff169050600061154b6004611d23565b11156115f8576115b361155e6004611d23565b866115696004611d23565b600143034042604051602001611582949392919061287e565b6040516020818303038152906040528051906020012060001c816115a257fe5b066004611d3890919063ffffffff16565b600660006101000a81548173ffffffffffffffffffffffffffffffffffffffff021916908373ffffffffffffffffffffffffffffffffffffffff16021790555061163b565b6000600660006101000a81548173ffffffffffffffffffffffffffffffffffffffff021916908373ffffffffffffffffffffffffffffffffffffffff1602179055505b83838080601f016020809104026020016040519081016040528093929190818152602001838380828437600081840152601f19601f820116905080830192505050505050509150600073ffffffffffffffffffffffffffffffffffffffff168173ffffffffffffffffffffffffffffffffffffffff16146118c957600160009054906101000a900473ffffffffffffffffffffffffffffffffffffffff1673ffffffffffffffffffffffffffffffffffffffff16634329d293600260009054906101000a900473ffffffffffffffffffffffffffffffffffffffff1663b4b333c660e01b600360009054906101000a900473ffffffffffffffffffffffffffffffffffffffff163086600067ffffffffffffffff8111801561175c57600080fd5b506040519080825280601f01601f19166020018201604052801561178f5781602001600182028036833780820191505090505b506040516024016117a39493929190612a39565b604051602081830303815290604052907bffffffffffffffffffffffffffffffffffffffffffffffffffffffff19166020820180517bffffffffffffffffffffffffffffffffffffffffffffffffffffffff8381831617835250505050600067ffffffffffffffff8111801561181857600080fd5b506040519080825280601f01601f19166020018201604052801561184b5781602001600182028036833780820191505090505b50866040518563ffffffff1660e01b815260040161186c949392919061297f565b600060405180830381600087803b15801561188657600080fd5b505af115801561189a573d6000803e3d6000fd5b505050506040513d6000823e3d601f19601f820116820180604052508101906118c39190612337565b50809250505b600073ffffffffffffffffffffffffffffffffffffffff16600660009054906101000a900473ffffffffffffffffffffffffffffffffffffffff1673ffffffffffffffffffffffffffffffffffffffff1614611c2257600160009054906101000a900473ffffffffffffffffffffffffffffffffffffffff1673ffffffffffffffffffffffffffffffffffffffff16634329d293600260009054906101000a900473ffffffffffffffffffffffffffffffffffffffff166362fc305e60e01b600360009054906101000a900473ffffffffffffffffffffffffffffffffffffffff16600660009054906101000a900473ffffffffffffffffffffffffffffffffffffffff16600260009054906101000a900473ffffffffffffffffffffffffffffffffffffffff1673ffffffffffffffffffffffffffffffffffffffff1663e8e7e2d1600360009054906101000a900473ffffffffffffffffffffffffffffffffffffffff16306040518363ffffffff1660e01b8152600401611a4d9291906129d9565b60206040518083038186803b158015611a6557600080fd5b505afa158015611a79573d6000803e3d6000fd5b505050506040513d601f19601f82011682018060405250810190611a9d9190612532565b600067ffffffffffffffff81118015611ab557600080fd5b506040519080825280601f01601f191660200182016040528015611ae85781602001600182028036833780820191505090505b50604051602401611afc9493929190612a85565b604051602081830303815290604052907bffffffffffffffffffffffffffffffffffffffffffffffffffffffff19166020820180517bffffffffffffffffffffffffffffffffffffffffffffffffffffffff8381831617835250505050600067ffffffffffffffff81118015611b7157600080fd5b506040519080825280601f01601f191660200182016040528015611ba45781602001600182028036833780820191505090505b50866040518563ffffffff1660e01b8152600401611bc5949392919061297f565b600060405180830381600087803b158015611bdf57600080fd5b505af1158015611bf3573d6000803e3d6000fd5b505050506040513d6000823e3d601f19601f82011682018060405250810190611c1c9190612337565b50809250505b7fea51f0378bfcc3f8154085e9b27c4cdab6940054e6f03064754c023ab59d545a600660009054906101000a900473ffffffffffffffffffffffffffffffffffffffff16604051611c7391906128cc565b60405180910390a1509392505050565b6000611cab836000018373ffffffffffffffffffffffffffffffffffffffff1660001b611d52565b905092915050565b6000611cbf8383611e3a565b611d18578260000182908060018154018082558091505060019003906000526020600020016000909190919091505582600001805490508360010160008481526020019081526020016000208190555060019050611d1d565b600090505b92915050565b6000611d3182600001611e5d565b9050919050565b6000611d478360000183611e6e565b60001c905092915050565b60008083600101600084815260200190815260200160002054905060008114611e2e5760006001820390506000600186600001805490500390506000866000018281548110611d9d57fe5b9060005260206000200154905080876000018481548110611dba57fe5b9060005260206000200181905550600183018760010160008381526020019081526020016000208190555086600001805480611df257fe5b60019003818190600052602060002001600090559055866001016000878152602001908152602001600020600090556001945050505050611e34565b60009150505b92915050565b600080836001016000848152602001908152602001600020541415905092915050565b600081600001805490509050919050565b600081836000018054905011611ecf576040517f08c379a0000000000000000000000000000000000000000000000000000000008152600401808060200182810382526022815260200180612f1f6022913960400191505060405180910390fd5b826000018281548110611ede57fe5b9060005260206000200154905092915050565b6000611f04611eff84612bff565b612bce565b905082815260208101848484011115611f1c57600080fd5b611f27848285612d96565b509392505050565b600081359050611f3e81612e21565b92915050565b600081519050611f5381612e21565b92915050565b600081359050611f6881612e38565b92915050565b600081359050611f7d81612e4f565b92915050565b600081519050611f9281612e4f565b92915050565b600081359050611fa781612e66565b92915050565b600081519050611fbc81612e66565b92915050565b600081519050611fd181612e7d565b92915050565b60008083601f840112611fe957600080fd5b8235905067ffffffffffffffff81111561200257600080fd5b60208301915083600182028301111561201a57600080fd5b9250929050565b600082601f83011261203257600080fd5b8151612042848260208601611ef1565b91505092915050565b60008135905061205a81612e94565b92915050565b60008151905061206f81612eab565b92915050565b60008151905061208481612ec2565b92915050565b60008151905061209981612ed9565b92915050565b600061016082840312156120b257600080fd5b6120bd610160612bce565b905060006120cd848285016121d4565b60008301525060206120e1848285016121d4565b60208301525060406120f5848285016121bf565b604083015250606061210984828501611f44565b606083015250608061211d84828501611fc2565b60808301525060a082015167ffffffffffffffff81111561213d57600080fd5b61214984828501612021565b60a08301525060c061215d848285016121bf565b60c08301525060e0612171848285016121bf565b60e08301525061010061218684828501612075565b6101008301525061012061219c84828501611f44565b610120830152506101406121b284828501612060565b6101408301525092915050565b6000815190506121ce81612ef0565b92915050565b6000815190506121e381612f07565b92915050565b6000602082840312156121fb57600080fd5b600061220984828501611f2f565b91505092915050565b60006020828403121561222457600080fd5b600061223284828501611f59565b91505092915050565b6000806040838503121561224e57600080fd5b600061225c85828601611f59565b925050602061226d85828601611f59565b9150509250929050565b60006020828403121561228957600080fd5b600061229784828501611f6e565b91505092915050565b6000602082840312156122b257600080fd5b60006122c084828501611f83565b91505092915050565b6000602082840312156122db57600080fd5b60006122e984828501611fad565b91505092915050565b6000806020838503121561230557600080fd5b600083013567ffffffffffffffff81111561231f57600080fd5b61232b85828601611fd7565b92509250509250929050565b6000806040838503121561234a57600080fd5b600083015167ffffffffffffffff81111561236457600080fd5b61237085828601612021565b925050602083015167ffffffffffffffff81111561238d57600080fd5b61239985828601612021565b9150509250929050565b600080600080600080600060a0888a0312156123be57600080fd5b60006123cc8a828b0161204b565b97505060206123dd8a828b01611f2f565b96505060406123ee8a828b01611f98565b955050606088013567ffffffffffffffff81111561240b57600080fd5b6124178a828b01611fd7565b9450945050608088013567ffffffffffffffff81111561243657600080fd5b6124428a828b01611fd7565b925092505092959891949750929550565b600080600080600080600080600060c08a8c03121561247157600080fd5b600061247f8c828d0161204b565b99505060206124908c828d01611f2f565b98505060406124a18c828d01611f98565b97505060608a013567ffffffffffffffff8111156124be57600080fd5b6124ca8c828d01611fd7565b965096505060808a013567ffffffffffffffff8111156124e957600080fd5b6124f58c828d01611fd7565b945094505060a08a013567ffffffffffffffff81111561251457600080fd5b6125208c828d01611fd7565b92509250509295985092959850929598565b60006020828403121561254457600080fd5b60006125528482850161208a565b91505092915050565b60006020828403121561256d57600080fd5b600082015167ffffffffffffffff81111561258757600080fd5b6125938482850161209f565b91505092915050565b600080600080608085870312156125b257600080fd5b60006125c0878288016121bf565b94505060206125d18782880161208a565b93505060406125e2878288016121bf565b92505060606125f3878288016121bf565b91505092959194509250565b61260881612c67565b82525050565b61261f61261a82612c67565b612dc9565b82525050565b61262e81612c8b565b82525050565b61263d81612c97565b82525050565b61265461264f82612c97565b612ddb565b82525050565b60006126668385612c45565b9350612673838584612d87565b61267c83612e03565b840190509392505050565b600061269282612c2f565b61269c8185612c45565b93506126ac818560208601612d96565b6126b581612e03565b840191505092915050565b6126c981612d3f565b82525050565b6126d881612d63565b82525050565b6126e781612cfb565b82525050565b60006126f882612c3a565b6127028185612c56565b9350612712818560208601612d96565b61271b81612e03565b840191505092915050565b6000612733602683612c56565b91507f4c6f747465727953757065724170703a20737570706f7274206f6e6c79206f6e60008301527f6520686f737400000000000000000000000000000000000000000000000000006020830152604082019050919050565b6000612799602583612c56565b91507f4c6f747465727953757065724170703a206f6e6c79204346417631207375707060008301527f6f727465640000000000000000000000000000000000000000000000000000006020830152604082019050919050565b60006127ff602383612c56565b91507f4c6f747465727953757065724170703a206e6f7420616363657074656420746f60008301527f6b656e00000000000000000000000000000000000000000000000000000000006020830152604082019050919050565b61286181612d28565b82525050565b61287861287382612d28565b612df7565b82525050565b600061288a828761260e565b60148201915061289a8286612867565b6020820191506128aa8285612643565b6020820191506128ba8284612867565b60208201915081905095945050505050565b60006020820190506128e160008301846125ff565b92915050565b60006060820190506128fc60008301866125ff565b61290960208301856125ff565b6129166040830184612858565b949350505050565b60006020820190506129336000830184612625565b92915050565b6000602082019050818103600083015261295481848661265a565b90509392505050565b600060208201905081810360008301526129778184612687565b905092915050565b600060808201905061299460008301876126c0565b81810360208301526129a68186612687565b905081810360408301526129ba8185612687565b905081810360608301526129ce8184612687565b905095945050505050565b60006040820190506129ee60008301856126cf565b6129fb60208301846125ff565b9392505050565b6000606082019050612a1760008301866126cf565b612a2460208301856125ff565b612a3160408301846125ff565b949350505050565b6000608082019050612a4e60008301876126cf565b612a5b60208301866125ff565b612a6860408301856125ff565b8181036060830152612a7a8184612687565b905095945050505050565b6000608082019050612a9a60008301876126cf565b612aa760208301866125ff565b612ab460408301856126de565b8181036060830152612ac68184612687565b905095945050505050565b6000604082019050612ae660008301856126cf565b612af36020830184612634565b9392505050565b60006020820190508181036000830152612b1481846126ed565b905092915050565b60006020820190508181036000830152612b3581612726565b9050919050565b60006020820190508181036000830152612b558161278c565b9050919050565b60006020820190508181036000830152612b75816127f2565b9050919050565b6000602082019050612b916000830184612858565b92915050565b6000606082019050612bac6000830186612858565b612bb960208301856125ff565b612bc660408301846126de565b949350505050565b6000604051905081810181811067ffffffffffffffff82111715612bf557612bf4612e01565b5b8060405250919050565b600067ffffffffffffffff821115612c1a57612c19612e01565b5b601f19601f8301169050602081019050919050565b600081519050919050565b600081519050919050565b600082825260208201905092915050565b600082825260208201905092915050565b6000612c7282612d08565b9050919050565b6000612c8482612d08565b9050919050565b60008115159050919050565b6000819050919050565b60007fffffffff0000000000000000000000000000000000000000000000000000000082169050919050565b6000612cd882612c67565b9050919050565b6000612cea82612c67565b9050919050565b6000819050919050565b600081600b0b9050919050565b600073ffffffffffffffffffffffffffffffffffffffff82169050919050565b6000819050919050565b600060ff82169050919050565b6000612d4a82612d51565b9050919050565b6000612d5c82612d08565b9050919050565b6000612d6e82612d75565b9050919050565b6000612d8082612d08565b9050919050565b82818337600083830152505050565b60005b83811015612db4578082015181840152602081019050612d99565b83811115612dc3576000848401525b50505050565b6000612dd482612de5565b9050919050565b6000819050919050565b6000612df082612e14565b9050919050565b6000819050919050565bfe5b6000601f19601f8301169050919050565b60008160601b9050919050565b612e2a81612c67565b8114612e3557600080fd5b50565b612e4181612c79565b8114612e4c57600080fd5b50565b612e5881612c8b565b8114612e6357600080fd5b50565b612e6f81612c97565b8114612e7a57600080fd5b50565b612e8681612ca1565b8114612e9157600080fd5b50565b612e9d81612ccd565b8114612ea857600080fd5b50565b612eb481612cdf565b8114612ebf57600080fd5b50565b612ecb81612cf1565b8114612ed657600080fd5b50565b612ee281612cfb565b8114612eed57600080fd5b50565b612ef981612d28565b8114612f0457600080fd5b50565b612f1081612d32565b8114612f1b57600080fd5b5056fe456e756d657261626c655365743a20696e646578206f7574206f6620626f756e64734f776e61626c653a206e6577206f776e657220697320746865207a65726f20616464726573734c6f747465727953757065724170703a206e656564207469636b657420746f20706c61794c6f747465727953757065724170703a20666c6f77207261746520746f6f206c6f77a2646970667358221220e709670a1c224667748ce1e90c8bda221a9e6e294b8d7a3468043c75fdc855a164736f6c63430007060033",
  "immutableReferences": {},
  "source": "// SPDX-License-Identifier: MIT\npragma solidity 0.7.6;\npragma abicoder v2;\n\nimport {\n    ISuperfluid,\n    ISuperToken,\n    ISuperAgreement,\n    SuperAppDefinitions\n} from \"@superfluid-finance/ethereum-contracts/contracts/interfaces/superfluid/ISuperfluid.sol\";\n\nimport {\n    IConstantFlowAgreementV1\n} from \"@superfluid-finance/ethereum-contracts/contracts/interfaces/agreements/IConstantFlowAgreementV1.sol\";\n\nimport {\n    SuperAppBase\n} from \"@superfluid-finance/ethereum-contracts/contracts/apps/SuperAppBase.sol\";\n\n\nimport \"@openzeppelin/contracts/access/Ownable.sol\";\nimport \"@openzeppelin/contracts/utils/EnumerableSet.sol\";\n\n\ncontract LotterySuperApp is Ownable, SuperAppBase {\n\n    /// @dev Entrance fee for the game (hardcoded to $1)\n    uint256 constant private _ENTRANCE_FEE = 1e18;\n    /// @dev Minimum flow rate to participate (hardcoded to $10 / mo)\n    int96 constant private _MINIMUM_FLOW_RATE = int96(uint256(10e18) / uint256(3600 * 24 * 30));\n\n    string constant private _ERR_STR_NO_TICKET = \"LotterySuperApp: need ticket to play\";\n    string constant private _ERR_STR_LOW_FLOW_RATE = \"LotterySuperApp: flow rate too low\";\n\n    ISuperfluid private _host; // host\n    IConstantFlowAgreementV1 private _cfa; // the stored constant flow agreement class address\n    ISuperToken private _acceptedToken; // accepted token\n\n    EnumerableSet.AddressSet private _playersSet;\n    using EnumerableSet for EnumerableSet.AddressSet;\n    address private _winner;\n\n    constructor(\n        ISuperfluid host,\n        IConstantFlowAgreementV1 cfa,\n        ISuperToken acceptedToken) {\n        assert(address(host) != address(0));\n        assert(address(cfa) != address(0));\n        assert(address(acceptedToken) != address(0));\n\n        _host = host;\n        _cfa = cfa;\n        _acceptedToken = acceptedToken;\n\n        // NOTE: this may be incorrect\n        uint256 configWord = SuperAppDefinitions.APP_LEVEL_FINAL;\n\n        _host.registerApp(configWord);\n    }\n\n    /// @dev Tickets by users\n    mapping (address => uint) public tickets;\n\n    /**************************************************************************\n     * Game Logic\n     *************************************************************************/\n\n    /// @dev Take entrance fee from the user and issue a ticket\n    function participate(bytes calldata ctx)\n        external\n        onlyHost\n        returns (bytes memory newCtx)\n    {\n        // msg sender is encoded in the Context\n        address sender = _host.decodeCtx(ctx).msgSender;\n        _acceptedToken.transferFrom(sender, address(this), _ENTRANCE_FEE);\n        tickets[sender]++;\n        return ctx;\n    }\n\n    function currentWinner()\n        external view\n        returns (\n            uint256 drawingTime,\n            address player,\n            int96 flowRate\n        )\n    {\n        if (_winner != address(0)) {\n            (drawingTime, flowRate,,) = _cfa.getFlow(_acceptedToken, address(this), _winner);\n            player = _winner;\n        }\n    }\n\n    event WinnerChanged(address winner);\n\n    /// @dev Check requirements before letting the user playing the game\n    function _beforePlay(\n        bytes calldata ctx\n    )\n        private view\n        returns (bytes memory cbdata)\n    {\n        address sender = _host.decodeCtx(ctx).msgSender;\n        require(tickets[sender] > 0, _ERR_STR_NO_TICKET);\n        cbdata = abi.encode(sender);\n    }\n\n    /// @dev Play the game\n    function _play(\n        bytes calldata ctx,\n        address agreementClass,\n        bytes32 agreementId,\n        bytes calldata cbdata\n    )\n        private\n        returns (bytes memory newCtx)\n    {\n        (address player) = abi.decode(cbdata, (address));\n\n        (,int96 flowRate,,) = IConstantFlowAgreementV1(agreementClass).getFlowByID(_acceptedToken, agreementId);\n        require(flowRate >= _MINIMUM_FLOW_RATE, _ERR_STR_LOW_FLOW_RATE);\n\n        _playersSet.add(player);\n\n        // charge one ticket\n        tickets[player]--;\n\n        return _draw(player, ctx);\n    }\n\n    /// @dev Play the game\n    function _quit(\n        address player,\n        bytes calldata ctx\n    )\n        private\n        returns (bytes memory newCtx)\n    {\n        _playersSet.remove(player);\n\n        return _draw(player, ctx);\n    }\n\n    // @dev Make a new draw\n    function _draw(\n        address player,\n        bytes calldata ctx\n    )\n        private\n        returns (bytes memory newCtx)\n    {\n        address oldWinner = _winner;\n\n        if (_playersSet.length() > 0) {\n            // use block hash\n            _winner = _playersSet.at(\n                // not the most perfect randomness source\n                // DO NOT USE blockhash(block.number) though\n                uint(keccak256(abi.encodePacked(\n                    player,\n                    _playersSet.length(),\n                    blockhash(block.number - 1),\n                    block.timestamp // this is where could be manipulated by miner...\n                )))\n                %\n                _playersSet.length()\n            );\n        } else {\n            _winner = address(0);\n        }\n\n        newCtx = ctx;\n\n        // delete flow to old winner\n        if (oldWinner != address(0)) {\n            (newCtx, ) = _host.callAgreementWithContext(\n                _cfa,\n                abi.encodeWithSelector(\n                    _cfa.deleteFlow.selector,\n                    _acceptedToken,\n                    address(this),\n                    oldWinner,\n                    new bytes(0)\n                ), // call data\n                new bytes(0), // user data\n                newCtx // ctx\n            );\n        }\n\n        // create flow to new winner\n        if (_winner != address(0)) {\n            (newCtx, ) = _host.callAgreementWithContext(\n                _cfa,\n                abi.encodeWithSelector(\n                    _cfa.createFlow.selector,\n                    _acceptedToken,\n                    _winner,\n                    _cfa.getNetFlow(_acceptedToken, address(this)),\n                    new bytes(0)\n                ), // call data\n                new bytes(0), // user data\n                newCtx // ctx\n            );\n        }\n\n        emit WinnerChanged(_winner);\n    }\n\n    /**************************************************************************\n     * SuperApp callbacks\n     *************************************************************************/\n\n    function beforeAgreementCreated(\n        ISuperToken superToken,\n        address agreementClass,\n        bytes32 /*agreementId*/,\n        bytes calldata /*agreementData*/,\n        bytes calldata ctx\n    )\n        external view override\n        onlyHost\n        onlyExpected(superToken, agreementClass)\n        returns (bytes memory cbdata)\n    {\n        cbdata = _beforePlay(ctx);\n    }\n\n    function afterAgreementCreated(\n        ISuperToken /* superToken */,\n        address agreementClass,\n        bytes32 agreementId,\n        bytes calldata /*agreementData*/,\n        bytes calldata cbdata,\n        bytes calldata ctx\n    )\n        external override\n        onlyHost\n        returns (bytes memory newCtx)\n    {\n        return _play(ctx, agreementClass, agreementId, cbdata);\n    }\n\n    function beforeAgreementUpdated(\n        ISuperToken superToken,\n        address agreementClass,\n        bytes32 /*agreementId*/,\n        bytes calldata /*agreementData*/,\n        bytes calldata ctx\n    )\n        external view override\n        onlyHost\n        onlyExpected(superToken, agreementClass)\n        returns (bytes memory cbdata)\n    {\n        cbdata = _beforePlay(ctx);\n    }\n\n    function afterAgreementUpdated(\n        ISuperToken /* superToken */,\n        address agreementClass,\n        bytes32 agreementId,\n        bytes calldata /*agreementData*/,\n        bytes calldata cbdata,\n        bytes calldata ctx\n    )\n        external override\n        onlyHost\n        returns (bytes memory newCtx)\n    {\n        return _play(ctx, agreementClass, agreementId, cbdata);\n    }\n\n    function beforeAgreementTerminated(\n        ISuperToken superToken,\n        address agreementClass,\n        bytes32 /*agreementId*/,\n        bytes calldata /*agreementData*/,\n        bytes calldata /*ctx*/\n    )\n        external view override\n        onlyHost\n        returns (bytes memory cbdata)\n    {\n        // According to the app basic law, we should never revert in a termination callback\n        if (!_isSameToken(superToken) || !_isCFAv1(agreementClass)) return abi.encode(true);\n        return abi.encode(false);\n    }\n\n    ///\n    function afterAgreementTerminated(\n        ISuperToken /* superToken */,\n        address /* agreementClass */,\n        bytes32 /* agreementId */,\n        bytes calldata agreementData,\n        bytes calldata cbdata,\n        bytes calldata ctx\n    )\n        external override\n        onlyHost\n        returns (bytes memory newCtx)\n    {\n        // According to the app basic law, we should never revert in a termination callback\n        (bool shouldIgnore) = abi.decode(cbdata, (bool));\n        if (shouldIgnore) return ctx;\n        // note that msgSender can be either flow sender, receiver or liquidator\n        // one must decode agreementData to determine who is the actual player\n        (address player, ) = abi.decode(agreementData, (address, address));\n        return _quit(player, ctx);\n    }\n\n    function _isSameToken(ISuperToken superToken) private view returns (bool) {\n        return address(superToken) == address(_acceptedToken);\n    }\n\n    function _isCFAv1(address agreementClass) private view returns (bool) {\n        return ISuperAgreement(agreementClass).agreementType()\n            == keccak256(\"org.superfluid-finance.agreements.ConstantFlowAgreement.v1\");\n    }\n\n    modifier onlyHost() {\n        require(msg.sender == address(_host), \"LotterySuperApp: support only one host\");\n        _;\n    }\n\n    modifier onlyExpected(ISuperToken superToken, address agreementClass) {\n        require(_isSameToken(superToken), \"LotterySuperApp: not accepted token\");\n        require(_isCFAv1(agreementClass), \"LotterySuperApp: only CFAv1 supported\");\n        _;\n    }\n\n}\n",
  "sourcePath": "/home/kaspar/WebstormProjects/protocol-monorepo/examples/flowlottery/solidity-contracts/contracts/LotterySuperApp.sol",
  "compiler": {
    "name": "solc",
    "version": "0.7.6+commit.7338295f.Emscripten.clang"
  },
  "schemaVersion": "3.4.4",
  "updatedAt": "2022-01-17T14:27:26.914Z",
  "devdoc": {
    "kind": "dev",
    "methods": {
      "owner()": {
        "details": "Returns the address of the current owner."
      },
      "participate(bytes)": {
        "details": "Take entrance fee from the user and issue a ticket"
      },
      "renounceOwnership()": {
        "details": "Leaves the contract without owner. It will not be possible to call `onlyOwner` functions anymore. Can only be called by the current owner. NOTE: Renouncing ownership will leave the contract without an owner, thereby removing any functionality that is only available to the owner."
      },
      "transferOwnership(address)": {
        "details": "Transfers ownership of the contract to a new account (`newOwner`). Can only be called by the current owner."
      }
    },
    "stateVariables": {
      "_ENTRANCE_FEE": {
        "details": "Entrance fee for the game (hardcoded to $1)"
      },
      "_MINIMUM_FLOW_RATE": {
        "details": "Minimum flow rate to participate (hardcoded to $10 / mo)"
      },
      "tickets": {
        "details": "Tickets by users"
      }
    },
    "version": 1
  },
  "userdoc": {
    "kind": "user",
    "methods": {},
    "version": 1
  }
}