{
  "contractName": "LotterySuperApp",
  "abi": [
    {
      "inputs": [
        {
          "internalType": "contract ISuperfluid",
          "name": "host",
          "type": "address"
        },
        {
          "internalType": "contract IConstantFlowAgreementV1",
          "name": "cfa",
          "type": "address"
        },
        {
          "internalType": "contract ISuperToken",
          "name": "acceptedToken",
          "type": "address"
        }
      ],
      "stateMutability": "nonpayable",
      "type": "constructor"
    },
    {
      "anonymous": false,
      "inputs": [
        {
          "indexed": true,
          "internalType": "address",
          "name": "previousOwner",
          "type": "address"
        },
        {
          "indexed": true,
          "internalType": "address",
          "name": "newOwner",
          "type": "address"
        }
      ],
      "name": "OwnershipTransferred",
      "type": "event"
    },
    {
      "anonymous": false,
      "inputs": [
        {
          "indexed": false,
          "internalType": "address",
          "name": "winner",
          "type": "address"
        }
      ],
      "name": "WinnerChanged",
      "type": "event"
    },
    {
      "inputs": [],
      "name": "owner",
      "outputs": [
        {
          "internalType": "address",
          "name": "",
          "type": "address"
        }
      ],
      "stateMutability": "view",
      "type": "function"
    },
    {
      "inputs": [],
      "name": "renounceOwnership",
      "outputs": [],
      "stateMutability": "nonpayable",
      "type": "function"
    },
    {
      "inputs": [
        {
          "internalType": "address",
          "name": "",
          "type": "address"
        }
      ],
      "name": "tickets",
      "outputs": [
        {
          "internalType": "uint256",
          "name": "",
          "type": "uint256"
        }
      ],
      "stateMutability": "view",
      "type": "function"
    },
    {
      "inputs": [
        {
          "internalType": "address",
          "name": "newOwner",
          "type": "address"
        }
      ],
      "name": "transferOwnership",
      "outputs": [],
      "stateMutability": "nonpayable",
      "type": "function"
    },
    {
      "inputs": [
        {
          "internalType": "bytes",
          "name": "ctx",
          "type": "bytes"
        }
      ],
      "name": "participate",
      "outputs": [
        {
          "internalType": "bytes",
          "name": "newCtx",
          "type": "bytes"
        }
      ],
      "stateMutability": "nonpayable",
      "type": "function"
    },
    {
      "inputs": [],
      "name": "currentWinner",
      "outputs": [
        {
          "internalType": "uint256",
          "name": "drawingTime",
          "type": "uint256"
        },
        {
          "internalType": "address",
          "name": "player",
          "type": "address"
        },
        {
          "internalType": "int96",
          "name": "flowRate",
          "type": "int96"
        }
      ],
      "stateMutability": "view",
      "type": "function"
    },
    {
      "inputs": [
        {
          "internalType": "contract ISuperToken",
          "name": "superToken",
          "type": "address"
        },
        {
          "internalType": "address",
          "name": "agreementClass",
          "type": "address"
        },
        {
          "internalType": "bytes32",
          "name": "",
          "type": "bytes32"
        },
        {
          "internalType": "bytes",
          "name": "",
          "type": "bytes"
        },
        {
          "internalType": "bytes",
          "name": "ctx",
          "type": "bytes"
        }
      ],
      "name": "beforeAgreementCreated",
      "outputs": [
        {
          "internalType": "bytes",
          "name": "cbdata",
          "type": "bytes"
        }
      ],
      "stateMutability": "view",
      "type": "function"
    },
    {
      "inputs": [
        {
          "internalType": "contract ISuperToken",
          "name": "",
          "type": "address"
        },
        {
          "internalType": "address",
          "name": "agreementClass",
          "type": "address"
        },
        {
          "internalType": "bytes32",
          "name": "agreementId",
          "type": "bytes32"
        },
        {
          "internalType": "bytes",
          "name": "",
          "type": "bytes"
        },
        {
          "internalType": "bytes",
          "name": "cbdata",
          "type": "bytes"
        },
        {
          "internalType": "bytes",
          "name": "ctx",
          "type": "bytes"
        }
      ],
      "name": "afterAgreementCreated",
      "outputs": [
        {
          "internalType": "bytes",
          "name": "newCtx",
          "type": "bytes"
        }
      ],
      "stateMutability": "nonpayable",
      "type": "function"
    },
    {
      "inputs": [
        {
          "internalType": "contract ISuperToken",
          "name": "superToken",
          "type": "address"
        },
        {
          "internalType": "address",
          "name": "agreementClass",
          "type": "address"
        },
        {
          "internalType": "bytes32",
          "name": "",
          "type": "bytes32"
        },
        {
          "internalType": "bytes",
          "name": "",
          "type": "bytes"
        },
        {
          "internalType": "bytes",
          "name": "ctx",
          "type": "bytes"
        }
      ],
      "name": "beforeAgreementUpdated",
      "outputs": [
        {
          "internalType": "bytes",
          "name": "cbdata",
          "type": "bytes"
        }
      ],
      "stateMutability": "view",
      "type": "function"
    },
    {
      "inputs": [
        {
          "internalType": "contract ISuperToken",
          "name": "",
          "type": "address"
        },
        {
          "internalType": "address",
          "name": "agreementClass",
          "type": "address"
        },
        {
          "internalType": "bytes32",
          "name": "agreementId",
          "type": "bytes32"
        },
        {
          "internalType": "bytes",
          "name": "",
          "type": "bytes"
        },
        {
          "internalType": "bytes",
          "name": "cbdata",
          "type": "bytes"
        },
        {
          "internalType": "bytes",
          "name": "ctx",
          "type": "bytes"
        }
      ],
      "name": "afterAgreementUpdated",
      "outputs": [
        {
          "internalType": "bytes",
          "name": "newCtx",
          "type": "bytes"
        }
      ],
      "stateMutability": "nonpayable",
      "type": "function"
    },
    {
      "inputs": [
        {
          "internalType": "contract ISuperToken",
          "name": "superToken",
          "type": "address"
        },
        {
          "internalType": "address",
          "name": "agreementClass",
          "type": "address"
        },
        {
          "internalType": "bytes32",
          "name": "",
          "type": "bytes32"
        },
        {
          "internalType": "bytes",
          "name": "",
          "type": "bytes"
        },
        {
          "internalType": "bytes",
          "name": "",
          "type": "bytes"
        }
      ],
      "name": "beforeAgreementTerminated",
      "outputs": [
        {
          "internalType": "bytes",
          "name": "cbdata",
          "type": "bytes"
        }
      ],
      "stateMutability": "view",
      "type": "function"
    },
    {
      "inputs": [
        {
          "internalType": "contract ISuperToken",
          "name": "",
          "type": "address"
        },
        {
          "internalType": "address",
          "name": "",
          "type": "address"
        },
        {
          "internalType": "bytes32",
          "name": "",
          "type": "bytes32"
        },
        {
          "internalType": "bytes",
          "name": "",
          "type": "bytes"
        },
        {
          "internalType": "bytes",
          "name": "cbdata",
          "type": "bytes"
        },
        {
          "internalType": "bytes",
          "name": "ctx",
          "type": "bytes"
        }
      ],
      "name": "afterAgreementTerminated",
      "outputs": [
        {
          "internalType": "bytes",
          "name": "newCtx",
          "type": "bytes"
        }
      ],
      "stateMutability": "nonpayable",
      "type": "function"
    }
  ],
  "bytecode": "0x60806040523480156200001157600080fd5b506040516200341e3803806200341e833981810160405281019062000037919062000340565b600062000049620002f360201b60201c565b9050806000806101000a81548173ffffffffffffffffffffffffffffffffffffffff021916908373ffffffffffffffffffffffffffffffffffffffff1602179055508073ffffffffffffffffffffffffffffffffffffffff16600073ffffffffffffffffffffffffffffffffffffffff167f8be0079c531659141344cd1fd0a4f28419497f9722a3daafe3b4186f6b6457e060405160405180910390a350600073ffffffffffffffffffffffffffffffffffffffff168373ffffffffffffffffffffffffffffffffffffffff1614156200011f57fe5b600073ffffffffffffffffffffffffffffffffffffffff168273ffffffffffffffffffffffffffffffffffffffff1614156200015757fe5b600073ffffffffffffffffffffffffffffffffffffffff168173ffffffffffffffffffffffffffffffffffffffff1614156200018f57fe5b82600160006101000a81548173ffffffffffffffffffffffffffffffffffffffff021916908373ffffffffffffffffffffffffffffffffffffffff16021790555081600260006101000a81548173ffffffffffffffffffffffffffffffffffffffff021916908373ffffffffffffffffffffffffffffffffffffffff16021790555080600360006101000a81548173ffffffffffffffffffffffffffffffffffffffff021916908373ffffffffffffffffffffffffffffffffffffffff160217905550600060019050600160009054906101000a900473ffffffffffffffffffffffffffffffffffffffff1673ffffffffffffffffffffffffffffffffffffffff1663ad3915c8826040518263ffffffff1660e01b8152600401620002b59190620003a7565b600060405180830381600087803b158015620002d057600080fd5b505af1158015620002e5573d6000803e3d6000fd5b50505050505050506200048c565b600033905090565b6000815190506200030c816200043e565b92915050565b600081519050620003238162000458565b92915050565b6000815190506200033a8162000472565b92915050565b6000806000606084860312156200035657600080fd5b6000620003668682870162000329565b93505060206200037986828701620002fb565b92505060406200038c8682870162000312565b9150509250925092565b620003a18162000434565b82525050565b6000602082019050620003be600083018462000396565b92915050565b6000620003d18262000414565b9050919050565b6000620003e582620003c4565b9050919050565b6000620003f982620003c4565b9050919050565b60006200040d82620003c4565b9050919050565b600073ffffffffffffffffffffffffffffffffffffffff82169050919050565b6000819050919050565b6200044981620003d8565b81146200045557600080fd5b50565b6200046381620003ec565b81146200046f57600080fd5b50565b6200047d8162000400565b81146200048957600080fd5b50565b612f82806200049c6000396000f3fe608060405234801561001057600080fd5b50600436106100b45760003560e01c8063884d1f4011610071578063884d1f40146101b35780638da5cb5b146101e3578063aabe2fe314610201578063d7d4912314610221578063d86ed3e514610251578063f2fde38b14610281576100b4565b8063230dbd29146100b957806330d9c915146100e957806353c11f99146101195780635f9e7d77146101495780636dcbf2a314610179578063715018a6146101a9575b600080fd5b6100d360048036038101906100ce919061241c565b61029d565b6040516100e09190612926565b60405180910390f35b61010360048036038101906100fe919061236c565b61034c565b6040516101109190612926565b60405180910390f35b610133600480360381019061012e919061241c565b610489565b6040516101409190612926565b60405180910390f35b610163600480360381019061015e919061236c565b61059c565b6040516101709190612926565b60405180910390f35b610193600480360381019061018e91906121ee565b6106a5565b6040516101a09190612b45565b60405180910390f35b6101b16106bd565b005b6101cd60048036038101906101c8919061236c565b610843565b6040516101da9190612926565b60405180910390f35b6101eb610980565b6040516101f89190612895565b60405180910390f35b6102096109a9565b60405161021893929190612b60565b60405180910390f35b61023b600480360381019061023691906122bb565b610b2c565b6040516102489190612926565b60405180910390f35b61026b6004803603810190610266919061241c565b610d3f565b6040516102789190612926565b60405180910390f35b61029b600480360381019061029691906121ee565b610dee565b005b6060600160009054906101000a900473ffffffffffffffffffffffffffffffffffffffff1673ffffffffffffffffffffffffffffffffffffffff163373ffffffffffffffffffffffffffffffffffffffff161461032f576040517f08c379a000000000000000000000000000000000000000000000000000000000815260040161032690612ae5565b60405180910390fd5b61033d83838b8b8989610ff9565b90509998505050505050505050565b6060600160009054906101000a900473ffffffffffffffffffffffffffffffffffffffff1673ffffffffffffffffffffffffffffffffffffffff163373ffffffffffffffffffffffffffffffffffffffff16146103de576040517f08c379a00000000000000000000000000000000000000000000000000000000081526004016103d590612ae5565b60405180910390fd5b87876103e9826111b9565b610428576040517f08c379a000000000000000000000000000000000000000000000000000000000815260040161041f90612b25565b60405180910390fd5b61043181611213565b610470576040517f08c379a000000000000000000000000000000000000000000000000000000000815260040161046790612b05565b60405180910390fd5b61047a85856112bc565b92505050979650505050505050565b6060600160009054906101000a900473ffffffffffffffffffffffffffffffffffffffff1673ffffffffffffffffffffffffffffffffffffffff163373ffffffffffffffffffffffffffffffffffffffff161461051b576040517f08c379a000000000000000000000000000000000000000000000000000000000815260040161051290612ae5565b60405180910390fd5b6000858581019061052c9190612240565b905080156105815783838080601f016020809104026020016040519081016040528093929190818152602001838380828437600081840152601f19601f8201169050808301925050505050505091505061058f565b61058b848461143f565b9150505b9998505050505050505050565b6060600160009054906101000a900473ffffffffffffffffffffffffffffffffffffffff1673ffffffffffffffffffffffffffffffffffffffff163373ffffffffffffffffffffffffffffffffffffffff161461062e576040517f08c379a000000000000000000000000000000000000000000000000000000000815260040161062590612ae5565b60405180910390fd5b610637886111b9565b1580610649575061064787611213565b155b1561067657600160405160200161066091906128e7565b604051602081830303815290604052905061069a565b600060405160200161068891906128e7565b60405160208183030381529060405290505b979650505050505050565b60076020528060005260406000206000915090505481565b6106c5611524565b73ffffffffffffffffffffffffffffffffffffffff1660008054906101000a900473ffffffffffffffffffffffffffffffffffffffff1673ffffffffffffffffffffffffffffffffffffffff1614610785576040517f08c379a00000000000000000000000000000000000000000000000000000000081526004018080602001828103825260208152602001807f4f776e61626c653a2063616c6c6572206973206e6f7420746865206f776e657281525060200191505060405180910390fd5b600073ffffffffffffffffffffffffffffffffffffffff1660008054906101000a900473ffffffffffffffffffffffffffffffffffffffff1673ffffffffffffffffffffffffffffffffffffffff167f8be0079c531659141344cd1fd0a4f28419497f9722a3daafe3b4186f6b6457e060405160405180910390a360008060006101000a81548173ffffffffffffffffffffffffffffffffffffffff021916908373ffffffffffffffffffffffffffffffffffffffff160217905550565b6060600160009054906101000a900473ffffffffffffffffffffffffffffffffffffffff1673ffffffffffffffffffffffffffffffffffffffff163373ffffffffffffffffffffffffffffffffffffffff16146108d5576040517f08c379a00000000000000000000000000000000000000000000000000000000081526004016108cc90612ae5565b60405180910390fd5b87876108e0826111b9565b61091f576040517f08c379a000000000000000000000000000000000000000000000000000000000815260040161091690612b25565b60405180910390fd5b61092881611213565b610967576040517f08c379a000000000000000000000000000000000000000000000000000000000815260040161095e90612b05565b60405180910390fd5b61097185856112bc565b92505050979650505050505050565b60008060009054906101000a900473ffffffffffffffffffffffffffffffffffffffff16905090565b60008060008073ffffffffffffffffffffffffffffffffffffffff16600660009054906101000a900473ffffffffffffffffffffffffffffffffffffffff1673ffffffffffffffffffffffffffffffffffffffff1614610b2757600260009054906101000a900473ffffffffffffffffffffffffffffffffffffffff1673ffffffffffffffffffffffffffffffffffffffff1663e6a1e888600360009054906101000a900473ffffffffffffffffffffffffffffffffffffffff1630600660009054906101000a900473ffffffffffffffffffffffffffffffffffffffff166040518463ffffffff1660e01b8152600401610aa6939291906129cb565b60806040518083038186803b158015610abe57600080fd5b505afa158015610ad2573d6000803e3d6000fd5b505050506040513d601f19601f82011682018060405250810190610af69190612565565b9050508092508194505050600660009054906101000a900473ffffffffffffffffffffffffffffffffffffffff1691505b909192565b60606000600160009054906101000a900473ffffffffffffffffffffffffffffffffffffffff1673ffffffffffffffffffffffffffffffffffffffff16633f6c923a85856040518363ffffffff1660e01b8152600401610b8d929190612902565b60006040518083038186803b158015610ba557600080fd5b505afa158015610bb9573d6000803e3d6000fd5b505050506040513d6000823e3d601f19601f82011682018060405250810190610be29190612524565b606001519050600360009054906101000a900473ffffffffffffffffffffffffffffffffffffffff1673ffffffffffffffffffffffffffffffffffffffff166323b872dd8230670de0b6b3a76400006040518463ffffffff1660e01b8152600401610c4f939291906128b0565b602060405180830381600087803b158015610c6957600080fd5b505af1158015610c7d573d6000803e3d6000fd5b505050506040513d601f19601f82011682018060405250810190610ca19190612269565b50600760008273ffffffffffffffffffffffffffffffffffffffff1673ffffffffffffffffffffffffffffffffffffffff1681526020019081526020016000206000815480929190600101919050555083838080601f016020809104026020016040519081016040528093929190818152602001838380828437600081840152601f19601f8201169050808301925050505050505091505092915050565b6060600160009054906101000a900473ffffffffffffffffffffffffffffffffffffffff1673ffffffffffffffffffffffffffffffffffffffff163373ffffffffffffffffffffffffffffffffffffffff1614610dd1576040517f08c379a0000000000000000000000000000000000000000000000000000000008152600401610dc890612ae5565b60405180910390fd5b610ddf83838b8b8989610ff9565b90509998505050505050505050565b610df6611524565b73ffffffffffffffffffffffffffffffffffffffff1660008054906101000a900473ffffffffffffffffffffffffffffffffffffffff1673ffffffffffffffffffffffffffffffffffffffff1614610eb6576040517f08c379a00000000000000000000000000000000000000000000000000000000081526004018080602001828103825260208152602001807f4f776e61626c653a2063616c6c6572206973206e6f7420746865206f776e657281525060200191505060405180910390fd5b600073ffffffffffffffffffffffffffffffffffffffff168173ffffffffffffffffffffffffffffffffffffffff161415610f3c576040517f08c379a0000000000000000000000000000000000000000000000000000000008152600401808060200182810382526026815260200180612ee16026913960400191505060405180910390fd5b8073ffffffffffffffffffffffffffffffffffffffff1660008054906101000a900473ffffffffffffffffffffffffffffffffffffffff1673ffffffffffffffffffffffffffffffffffffffff167f8be0079c531659141344cd1fd0a4f28419497f9722a3daafe3b4186f6b6457e060405160405180910390a3806000806101000a81548173ffffffffffffffffffffffffffffffffffffffff021916908373ffffffffffffffffffffffffffffffffffffffff16021790555050565b60606000838381019061100c9190612217565b905060008673ffffffffffffffffffffffffffffffffffffffff1663aabd2668600360009054906101000a900473ffffffffffffffffffffffffffffffffffffffff16886040518363ffffffff1660e01b815260040161106d929190612a9a565b60806040518083038186803b15801561108557600080fd5b505afa158015611099573d6000803e3d6000fd5b505050506040513d601f19601f820116820180604052508101906110bd9190612565565b505091505062278d00678ac7230489e80000816110d657fe5b04600b0b81600b0b1215604051806060016040528060228152602001612f2b602291399061113a576040517f08c379a00000000000000000000000000000000000000000000000000000000081526004016111319190612ac3565b60405180910390fd5b5061114f82600461152c90919063ffffffff16565b50600760008373ffffffffffffffffffffffffffffffffffffffff1673ffffffffffffffffffffffffffffffffffffffff16815260200190815260200160002060008154809291906001900391905055506111ab828a8a61155c565b925050509695505050505050565b6000600360009054906101000a900473ffffffffffffffffffffffffffffffffffffffff1673ffffffffffffffffffffffffffffffffffffffff168273ffffffffffffffffffffffffffffffffffffffff16149050919050565b60007fa9214cc96615e0085d3bb077758db69497dc2dce3b2b1e97bc93c3d18d83efd38273ffffffffffffffffffffffffffffffffffffffff16637730599e6040518163ffffffff1660e01b815260040160206040518083038186803b15801561127c57600080fd5b505afa158015611290573d6000803e3d6000fd5b505050506040513d601f19601f820116820180604052508101906112b49190612292565b149050919050565b60606000600160009054906101000a900473ffffffffffffffffffffffffffffffffffffffff1673ffffffffffffffffffffffffffffffffffffffff16633f6c923a85856040518363ffffffff1660e01b815260040161131d929190612902565b60006040518083038186803b15801561133557600080fd5b505afa158015611349573d6000803e3d6000fd5b505050506040513d6000823e3d601f19601f820116820180604052508101906113729190612524565b6060015190506000600760008373ffffffffffffffffffffffffffffffffffffffff1673ffffffffffffffffffffffffffffffffffffffff1681526020019081526020016000205411604051806060016040528060248152602001612f076024913990611415576040517f08c379a000000000000000000000000000000000000000000000000000000000815260040161140c9190612ac3565b60405180910390fd5b50806040516020016114279190612895565b60405160208183030381529060405291505092915050565b60606000600160009054906101000a900473ffffffffffffffffffffffffffffffffffffffff1673ffffffffffffffffffffffffffffffffffffffff16633f6c923a85856040518363ffffffff1660e01b81526004016114a0929190612902565b60006040518083038186803b1580156114b857600080fd5b505afa1580156114cc573d6000803e3d6000fd5b505050506040513d6000823e3d601f19601f820116820180604052508101906114f59190612524565b60600151905061150f816004611cc990919063ffffffff16565b5061151b81858561155c565b91505092915050565b600033905090565b6000611554836000018373ffffffffffffffffffffffffffffffffffffffff1660001b611cf9565b905092915050565b60606000600660009054906101000a900473ffffffffffffffffffffffffffffffffffffffff16905060006115916004611d69565b111561163e576115f96115a46004611d69565b866115af6004611d69565b6001430340426040516020016115c89493929190612847565b6040516020818303038152906040528051906020012060001c816115e857fe5b066004611d7e90919063ffffffff16565b600660006101000a81548173ffffffffffffffffffffffffffffffffffffffff021916908373ffffffffffffffffffffffffffffffffffffffff160217905550611681565b6000600660006101000a81548173ffffffffffffffffffffffffffffffffffffffff021916908373ffffffffffffffffffffffffffffffffffffffff1602179055505b83838080601f016020809104026020016040519081016040528093929190818152602001838380828437600081840152601f19601f820116905080830192505050505050509150600073ffffffffffffffffffffffffffffffffffffffff168173ffffffffffffffffffffffffffffffffffffffff161461190f57600160009054906101000a900473ffffffffffffffffffffffffffffffffffffffff1673ffffffffffffffffffffffffffffffffffffffff16634329d293600260009054906101000a900473ffffffffffffffffffffffffffffffffffffffff1663b4b333c660e01b600360009054906101000a900473ffffffffffffffffffffffffffffffffffffffff163086600067ffffffffffffffff811180156117a257600080fd5b506040519080825280601f01601f1916602001820160405280156117d55781602001600182028036833780820191505090505b506040516024016117e99493929190612a02565b604051602081830303815290604052907bffffffffffffffffffffffffffffffffffffffffffffffffffffffff19166020820180517bffffffffffffffffffffffffffffffffffffffffffffffffffffffff8381831617835250505050600067ffffffffffffffff8111801561185e57600080fd5b506040519080825280601f01601f1916602001820160405280156118915781602001600182028036833780820191505090505b50866040518563ffffffff1660e01b81526004016118b29493929190612948565b600060405180830381600087803b1580156118cc57600080fd5b505af11580156118e0573d6000803e3d6000fd5b505050506040513d6000823e3d601f19601f820116820180604052508101906119099190612300565b50809250505b600073ffffffffffffffffffffffffffffffffffffffff16600660009054906101000a900473ffffffffffffffffffffffffffffffffffffffff1673ffffffffffffffffffffffffffffffffffffffff1614611c6857600160009054906101000a900473ffffffffffffffffffffffffffffffffffffffff1673ffffffffffffffffffffffffffffffffffffffff16634329d293600260009054906101000a900473ffffffffffffffffffffffffffffffffffffffff166362fc305e60e01b600360009054906101000a900473ffffffffffffffffffffffffffffffffffffffff16600660009054906101000a900473ffffffffffffffffffffffffffffffffffffffff16600260009054906101000a900473ffffffffffffffffffffffffffffffffffffffff1673ffffffffffffffffffffffffffffffffffffffff1663e8e7e2d1600360009054906101000a900473ffffffffffffffffffffffffffffffffffffffff16306040518363ffffffff1660e01b8152600401611a939291906129a2565b60206040518083038186803b158015611aab57600080fd5b505afa158015611abf573d6000803e3d6000fd5b505050506040513d601f19601f82011682018060405250810190611ae391906124fb565b600067ffffffffffffffff81118015611afb57600080fd5b506040519080825280601f01601f191660200182016040528015611b2e5781602001600182028036833780820191505090505b50604051602401611b429493929190612a4e565b604051602081830303815290604052907bffffffffffffffffffffffffffffffffffffffffffffffffffffffff19166020820180517bffffffffffffffffffffffffffffffffffffffffffffffffffffffff8381831617835250505050600067ffffffffffffffff81118015611bb757600080fd5b506040519080825280601f01601f191660200182016040528015611bea5781602001600182028036833780820191505090505b50866040518563ffffffff1660e01b8152600401611c0b9493929190612948565b600060405180830381600087803b158015611c2557600080fd5b505af1158015611c39573d6000803e3d6000fd5b505050506040513d6000823e3d601f19601f82011682018060405250810190611c629190612300565b50809250505b7fea51f0378bfcc3f8154085e9b27c4cdab6940054e6f03064754c023ab59d545a600660009054906101000a900473ffffffffffffffffffffffffffffffffffffffff16604051611cb99190612895565b60405180910390a1509392505050565b6000611cf1836000018373ffffffffffffffffffffffffffffffffffffffff1660001b611d98565b905092915050565b6000611d058383611e80565b611d5e578260000182908060018154018082558091505060019003906000526020600020016000909190919091505582600001805490508360010160008481526020019081526020016000208190555060019050611d63565b600090505b92915050565b6000611d7782600001611ea3565b9050919050565b6000611d8d8360000183611eb4565b60001c905092915050565b60008083600101600084815260200190815260200160002054905060008114611e745760006001820390506000600186600001805490500390506000866000018281548110611de357fe5b9060005260206000200154905080876000018481548110611e0057fe5b9060005260206000200181905550600183018760010160008381526020019081526020016000208190555086600001805480611e3857fe5b60019003818190600052602060002001600090559055866001016000878152602001908152602001600020600090556001945050505050611e7a565b60009150505b92915050565b600080836001016000848152602001908152602001600020541415905092915050565b600081600001805490509050919050565b600081836000018054905011611f15576040517f08c379a0000000000000000000000000000000000000000000000000000000008152600401808060200182810382526022815260200180612ebf6022913960400191505060405180910390fd5b826000018281548110611f2457fe5b9060005260206000200154905092915050565b6000611f4a611f4584612bc8565b612b97565b905082815260208101848484011115611f6257600080fd5b611f6d848285612d4d565b509392505050565b600081359050611f8481612dd8565b92915050565b600081519050611f9981612dd8565b92915050565b600081359050611fae81612def565b92915050565b600081359050611fc381612e06565b92915050565b600081519050611fd881612e06565b92915050565b600081359050611fed81612e1d565b92915050565b60008151905061200281612e1d565b92915050565b60008151905061201781612e34565b92915050565b60008083601f84011261202f57600080fd5b8235905067ffffffffffffffff81111561204857600080fd5b60208301915083600182028301111561206057600080fd5b9250929050565b600082601f83011261207857600080fd5b8151612088848260208601611f37565b91505092915050565b6000813590506120a081612e4b565b92915050565b6000815190506120b581612e62565b92915050565b6000815190506120ca81612e79565b92915050565b600061012082840312156120e357600080fd5b6120ee610120612b97565b905060006120fe848285016121d9565b6000830152506020612112848285016121d9565b6020830152506040612126848285016121c4565b604083015250606061213a84828501611f8a565b606083015250608061214e84828501612008565b60808301525060a082015167ffffffffffffffff81111561216e57600080fd5b61217a84828501612067565b60a08301525060c061218e848285016121c4565b60c08301525060e06121a2848285016121c4565b60e0830152506101006121b7848285016120a6565b6101008301525092915050565b6000815190506121d381612e90565b92915050565b6000815190506121e881612ea7565b92915050565b60006020828403121561220057600080fd5b600061220e84828501611f75565b91505092915050565b60006020828403121561222957600080fd5b600061223784828501611f9f565b91505092915050565b60006020828403121561225257600080fd5b600061226084828501611fb4565b91505092915050565b60006020828403121561227b57600080fd5b600061228984828501611fc9565b91505092915050565b6000602082840312156122a457600080fd5b60006122b284828501611ff3565b91505092915050565b600080602083850312156122ce57600080fd5b600083013567ffffffffffffffff8111156122e857600080fd5b6122f48582860161201d565b92509250509250929050565b6000806040838503121561231357600080fd5b600083015167ffffffffffffffff81111561232d57600080fd5b61233985828601612067565b925050602083015167ffffffffffffffff81111561235657600080fd5b61236285828601612067565b9150509250929050565b600080600080600080600060a0888a03121561238757600080fd5b60006123958a828b01612091565b97505060206123a68a828b01611f75565b96505060406123b78a828b01611fde565b955050606088013567ffffffffffffffff8111156123d457600080fd5b6123e08a828b0161201d565b9450945050608088013567ffffffffffffffff8111156123ff57600080fd5b61240b8a828b0161201d565b925092505092959891949750929550565b600080600080600080600080600060c08a8c03121561243a57600080fd5b60006124488c828d01612091565b99505060206124598c828d01611f75565b985050604061246a8c828d01611fde565b97505060608a013567ffffffffffffffff81111561248757600080fd5b6124938c828d0161201d565b965096505060808a013567ffffffffffffffff8111156124b257600080fd5b6124be8c828d0161201d565b945094505060a08a013567ffffffffffffffff8111156124dd57600080fd5b6124e98c828d0161201d565b92509250509295985092959850929598565b60006020828403121561250d57600080fd5b600061251b848285016120bb565b91505092915050565b60006020828403121561253657600080fd5b600082015167ffffffffffffffff81111561255057600080fd5b61255c848285016120d0565b91505092915050565b6000806000806080858703121561257b57600080fd5b6000612589878288016121c4565b945050602061259a878288016120bb565b93505060406125ab878288016121c4565b92505060606125bc878288016121c4565b91505092959194509250565b6125d181612c30565b82525050565b6125e86125e382612c30565b612d80565b82525050565b6125f781612c54565b82525050565b61260681612c60565b82525050565b61261d61261882612c60565b612d92565b82525050565b600061262f8385612c0e565b935061263c838584612d3e565b61264583612dba565b840190509392505050565b600061265b82612bf8565b6126658185612c0e565b9350612675818560208601612d4d565b61267e81612dba565b840191505092915050565b61269281612cf6565b82525050565b6126a181612d1a565b82525050565b6126b081612cb2565b82525050565b60006126c182612c03565b6126cb8185612c1f565b93506126db818560208601612d4d565b6126e481612dba565b840191505092915050565b60006126fc602683612c1f565b91507f4c6f747465727953757065724170703a20737570706f7274206f6e6c79206f6e60008301527f6520686f737400000000000000000000000000000000000000000000000000006020830152604082019050919050565b6000612762602583612c1f565b91507f4c6f747465727953757065724170703a206f6e6c79204346417631207375707060008301527f6f727465640000000000000000000000000000000000000000000000000000006020830152604082019050919050565b60006127c8602383612c1f565b91507f4c6f747465727953757065724170703a206e6f7420616363657074656420746f60008301527f6b656e00000000000000000000000000000000000000000000000000000000006020830152604082019050919050565b61282a81612cdf565b82525050565b61284161283c82612cdf565b612dae565b82525050565b600061285382876125d7565b6014820191506128638286612830565b602082019150612873828561260c565b6020820191506128838284612830565b60208201915081905095945050505050565b60006020820190506128aa60008301846125c8565b92915050565b60006060820190506128c560008301866125c8565b6128d260208301856125c8565b6128df6040830184612821565b949350505050565b60006020820190506128fc60008301846125ee565b92915050565b6000602082019050818103600083015261291d818486612623565b90509392505050565b600060208201905081810360008301526129408184612650565b905092915050565b600060808201905061295d6000830187612689565b818103602083015261296f8186612650565b905081810360408301526129838185612650565b905081810360608301526129978184612650565b905095945050505050565b60006040820190506129b76000830185612698565b6129c460208301846125c8565b9392505050565b60006060820190506129e06000830186612698565b6129ed60208301856125c8565b6129fa60408301846125c8565b949350505050565b6000608082019050612a176000830187612698565b612a2460208301866125c8565b612a3160408301856125c8565b8181036060830152612a438184612650565b905095945050505050565b6000608082019050612a636000830187612698565b612a7060208301866125c8565b612a7d60408301856126a7565b8181036060830152612a8f8184612650565b905095945050505050565b6000604082019050612aaf6000830185612698565b612abc60208301846125fd565b9392505050565b60006020820190508181036000830152612add81846126b6565b905092915050565b60006020820190508181036000830152612afe816126ef565b9050919050565b60006020820190508181036000830152612b1e81612755565b9050919050565b60006020820190508181036000830152612b3e816127bb565b9050919050565b6000602082019050612b5a6000830184612821565b92915050565b6000606082019050612b756000830186612821565b612b8260208301856125c8565b612b8f60408301846126a7565b949350505050565b6000604051905081810181811067ffffffffffffffff82111715612bbe57612bbd612db8565b5b8060405250919050565b600067ffffffffffffffff821115612be357612be2612db8565b5b601f19601f8301169050602081019050919050565b600081519050919050565b600081519050919050565b600082825260208201905092915050565b600082825260208201905092915050565b6000612c3b82612cbf565b9050919050565b6000612c4d82612cbf565b9050919050565b60008115159050919050565b6000819050919050565b60007fffffffff0000000000000000000000000000000000000000000000000000000082169050919050565b6000612ca182612c30565b9050919050565b6000819050919050565b600081600b0b9050919050565b600073ffffffffffffffffffffffffffffffffffffffff82169050919050565b6000819050919050565b600060ff82169050919050565b6000612d0182612d08565b9050919050565b6000612d1382612cbf565b9050919050565b6000612d2582612d2c565b9050919050565b6000612d3782612cbf565b9050919050565b82818337600083830152505050565b60005b83811015612d6b578082015181840152602081019050612d50565b83811115612d7a576000848401525b50505050565b6000612d8b82612d9c565b9050919050565b6000819050919050565b6000612da782612dcb565b9050919050565b6000819050919050565bfe5b6000601f19601f8301169050919050565b60008160601b9050919050565b612de181612c30565b8114612dec57600080fd5b50565b612df881612c42565b8114612e0357600080fd5b50565b612e0f81612c54565b8114612e1a57600080fd5b50565b612e2681612c60565b8114612e3157600080fd5b50565b612e3d81612c6a565b8114612e4857600080fd5b50565b612e5481612c96565b8114612e5f57600080fd5b50565b612e6b81612ca8565b8114612e7657600080fd5b50565b612e8281612cb2565b8114612e8d57600080fd5b50565b612e9981612cdf565b8114612ea457600080fd5b50565b612eb081612ce9565b8114612ebb57600080fd5b5056fe456e756d657261626c655365743a20696e646578206f7574206f6620626f756e64734f776e61626c653a206e6577206f776e657220697320746865207a65726f20616464726573734c6f747465727953757065724170703a206e656564207469636b657420746f20706c61794c6f747465727953757065724170703a20666c6f77207261746520746f6f206c6f77a2646970667358221220f22f3c242d421d903ac138e87a2698a70e2070f038abed773d33d4802ae4584164736f6c63430007060033",
  "immutableReferences": {},
  "source": "// SPDX-License-Identifier: MIT\npragma solidity 0.7.6;\npragma abicoder v2;\n\nimport {\n    ISuperfluid,\n    ISuperToken,\n    ISuperAgreement,\n    SuperAppDefinitions\n} from \"@superfluid-finance/ethereum-contracts/contracts/interfaces/superfluid/ISuperfluid.sol\";\n\nimport {\n    IConstantFlowAgreementV1\n} from \"@superfluid-finance/ethereum-contracts/contracts/interfaces/agreements/IConstantFlowAgreementV1.sol\";\n\nimport {\n    SuperAppBase\n} from \"@superfluid-finance/ethereum-contracts/contracts/apps/SuperAppBase.sol\";\n\n\nimport \"@openzeppelin/contracts/access/Ownable.sol\";\nimport \"@openzeppelin/contracts/utils/EnumerableSet.sol\";\n\n\ncontract LotterySuperApp is Ownable, SuperAppBase {\n\n    /// @dev Entrance fee for the game (hardcoded to $1)\n    uint256 constant private _ENTRANCE_FEE = 1e18;\n    /// @dev Minimum flow rate to participate (hardcoded to $10 / mo)\n    int96 constant private _MINIMUM_FLOW_RATE = int96(uint256(10e18) / uint256(3600 * 24 * 30));\n\n    string constant private _ERR_STR_NO_TICKET = \"LotterySuperApp: need ticket to play\";\n    string constant private _ERR_STR_LOW_FLOW_RATE = \"LotterySuperApp: flow rate too low\";\n\n    ISuperfluid private _host; // host\n    IConstantFlowAgreementV1 private _cfa; // the stored constant flow agreement class address\n    ISuperToken private _acceptedToken; // accepted token\n\n    EnumerableSet.AddressSet private _playersSet;\n    using EnumerableSet for EnumerableSet.AddressSet;\n    address private _winner;\n\n    constructor(\n        ISuperfluid host,\n        IConstantFlowAgreementV1 cfa,\n        ISuperToken acceptedToken) {\n        assert(address(host) != address(0));\n        assert(address(cfa) != address(0));\n        assert(address(acceptedToken) != address(0));\n\n        _host = host;\n        _cfa = cfa;\n        _acceptedToken = acceptedToken;\n\n        // NOTE: this may be incorrect\n        uint256 configWord = SuperAppDefinitions.APP_LEVEL_FINAL;\n\n        _host.registerApp(configWord);\n    }\n\n    /// @dev Tickets by users\n    mapping (address => uint) public tickets;\n\n    /**************************************************************************\n     * Game Logic\n     *************************************************************************/\n\n    /// @dev Take entrance fee from the user and issue a ticket\n    function participate(bytes calldata ctx) external returns (bytes memory newCtx) {\n        // msg sender is encoded in the Context\n        address sender = _host.decodeCtx(ctx).msgSender;\n        _acceptedToken.transferFrom(sender, address(this), _ENTRANCE_FEE);\n        tickets[sender]++;\n        return ctx;\n    }\n\n    function currentWinner()\n        external view\n        returns (\n            uint256 drawingTime,\n            address player,\n            int96 flowRate\n        )\n    {\n        if (_winner != address(0)) {\n            (drawingTime, flowRate,,) = _cfa.getFlow(_acceptedToken, address(this), _winner);\n            player = _winner;\n        }\n    }\n\n    event WinnerChanged(address winner);\n\n    /// @dev Check requirements before letting the user playing the game\n    function _beforePlay(\n        bytes calldata ctx\n    )\n        private view\n        returns (bytes memory cbdata)\n    {\n        address sender = _host.decodeCtx(ctx).msgSender;\n        require(tickets[sender] > 0, _ERR_STR_NO_TICKET);\n        cbdata = abi.encode(sender);\n    }\n\n    /// @dev Play the game\n    function _play(\n        bytes calldata ctx,\n        address agreementClass,\n        bytes32 agreementId,\n        bytes calldata cbdata\n    )\n        private\n        returns (bytes memory newCtx)\n    {\n        (address player) = abi.decode(cbdata, (address));\n\n        (,int96 flowRate,,) = IConstantFlowAgreementV1(agreementClass).getFlowByID(_acceptedToken, agreementId);\n        require(flowRate >= _MINIMUM_FLOW_RATE, _ERR_STR_LOW_FLOW_RATE);\n\n        _playersSet.add(player);\n\n        // charge one ticket\n        tickets[player]--;\n\n        return _draw(player, ctx);\n    }\n\n    /// @dev Play the game\n    function _quit(\n        bytes calldata ctx\n    )\n        private\n        returns (bytes memory newCtx)\n    {\n        address player = _host.decodeCtx(ctx).msgSender;\n\n        _playersSet.remove(player);\n\n        return _draw(player, ctx);\n    }\n\n    // @dev Make a new draw\n    function _draw(\n        address player,\n        bytes calldata ctx\n    )\n        private\n        returns (bytes memory newCtx)\n    {\n        address oldWinner = _winner;\n\n        if (_playersSet.length() > 0) {\n            // use block hash\n            _winner = _playersSet.at(\n                // not the most perfect randomness source\n                // DO NOT USE blockhash(block.number) though\n                uint(keccak256(abi.encodePacked(\n                    player,\n                    _playersSet.length(),\n                    blockhash(block.number - 1),\n                    block.timestamp // this is where could be manipulated by miner...\n                )))\n                %\n                _playersSet.length()\n            );\n        } else {\n            _winner = address(0);\n        }\n\n        newCtx = ctx;\n\n        // delete flow to old winner\n        if (oldWinner != address(0)) {\n            (newCtx, ) = _host.callAgreementWithContext(\n                _cfa,\n                abi.encodeWithSelector(\n                    _cfa.deleteFlow.selector,\n                    _acceptedToken,\n                    address(this),\n                    oldWinner,\n                    new bytes(0)\n                ), // call data\n                new bytes(0), // user data\n                newCtx // ctx\n            );\n        }\n\n        // create flow to new winner\n        if (_winner != address(0)) {\n            (newCtx, ) = _host.callAgreementWithContext(\n                _cfa,\n                abi.encodeWithSelector(\n                    _cfa.createFlow.selector,\n                    _acceptedToken,\n                    _winner,\n                    _cfa.getNetFlow(_acceptedToken, address(this)),\n                    new bytes(0)\n                ), // call data\n                new bytes(0), // user data\n                newCtx // ctx\n            );\n        }\n\n        emit WinnerChanged(_winner);\n    }\n\n    /**************************************************************************\n     * SuperApp callbacks\n     *************************************************************************/\n\n    function beforeAgreementCreated(\n        ISuperToken superToken,\n        address agreementClass,\n        bytes32 /*agreementId*/,\n        bytes calldata /*agreementData*/,\n        bytes calldata ctx\n    )\n        external view override\n        onlyHost\n        onlyExpected(superToken, agreementClass)\n        returns (bytes memory cbdata)\n    {\n        cbdata = _beforePlay(ctx);\n    }\n\n    function afterAgreementCreated(\n        ISuperToken /* superToken */,\n        address agreementClass,\n        bytes32 agreementId,\n        bytes calldata /*agreementData*/,\n        bytes calldata cbdata,\n        bytes calldata ctx\n    )\n        external override\n        onlyHost\n        returns (bytes memory newCtx)\n    {\n        return _play(ctx, agreementClass, agreementId, cbdata);\n    }\n\n    function beforeAgreementUpdated(\n        ISuperToken superToken,\n        address agreementClass,\n        bytes32 /*agreementId*/,\n        bytes calldata /*agreementData*/,\n        bytes calldata ctx\n    )\n        external view override\n        onlyHost\n        onlyExpected(superToken, agreementClass)\n        returns (bytes memory cbdata)\n    {\n        cbdata = _beforePlay(ctx);\n    }\n\n    function afterAgreementUpdated(\n        ISuperToken /* superToken */,\n        address agreementClass,\n        bytes32 agreementId,\n        bytes calldata /*agreementData*/,\n        bytes calldata cbdata,\n        bytes calldata ctx\n    )\n        external override\n        onlyHost\n        returns (bytes memory newCtx)\n    {\n        return _play(ctx, agreementClass, agreementId, cbdata);\n    }\n\n    function beforeAgreementTerminated(\n        ISuperToken superToken,\n        address agreementClass,\n        bytes32 /*agreementId*/,\n        bytes calldata /*agreementData*/,\n        bytes calldata /*ctx*/\n    )\n        external view override\n        onlyHost\n        returns (bytes memory cbdata)\n    {\n        // According to the app basic law, we should never revert in a termination callback\n        if (!_isSameToken(superToken) || !_isCFAv1(agreementClass)) return abi.encode(true);\n        return abi.encode(false);\n    }\n\n    ///\n    function afterAgreementTerminated(\n        ISuperToken /* superToken */,\n        address /* agreementClass */,\n        bytes32 /* agreementId */,\n        bytes calldata /*agreementData*/,\n        bytes calldata cbdata,\n        bytes calldata ctx\n    )\n        external override\n        onlyHost\n        returns (bytes memory newCtx)\n    {\n        // According to the app basic law, we should never revert in a termination callback\n        (bool shouldIgnore) = abi.decode(cbdata, (bool));\n        if (shouldIgnore) return ctx;\n        return _quit(ctx);\n    }\n\n    function _isSameToken(ISuperToken superToken) private view returns (bool) {\n        return address(superToken) == address(_acceptedToken);\n    }\n\n    function _isCFAv1(address agreementClass) private view returns (bool) {\n        return ISuperAgreement(agreementClass).agreementType()\n            == keccak256(\"org.superfluid-finance.agreements.ConstantFlowAgreement.v1\");\n    }\n\n    modifier onlyHost() {\n        require(msg.sender == address(_host), \"LotterySuperApp: support only one host\");\n        _;\n    }\n\n    modifier onlyExpected(ISuperToken superToken, address agreementClass) {\n        require(_isSameToken(superToken), \"LotterySuperApp: not accepted token\");\n        require(_isCFAv1(agreementClass), \"LotterySuperApp: only CFAv1 supported\");\n        _;\n    }\n\n}\n",
  "sourcePath": "/home/hellwolf/Projects/superfluid/protocol-monorepo/examples/flowlottery/contracts/LotterySuperApp.sol",
  "compiler": {
    "name": "solc",
    "version": "0.7.6+commit.7338295f.Emscripten.clang"
  },
  "schemaVersion": "3.3.3",
  "updatedAt": "2021-01-27T22:16:46.410Z",
  "devdoc": {
    "kind": "dev",
    "methods": {
      "owner()": {
        "details": "Returns the address of the current owner."
      },
      "participate(bytes)": {
        "details": "Take entrance fee from the user and issue a ticket"
      },
      "renounceOwnership()": {
        "details": "Leaves the contract without owner. It will not be possible to call `onlyOwner` functions anymore. Can only be called by the current owner. NOTE: Renouncing ownership will leave the contract without an owner, thereby removing any functionality that is only available to the owner."
      },
      "transferOwnership(address)": {
        "details": "Transfers ownership of the contract to a new account (`newOwner`). Can only be called by the current owner."
      }
    },
    "stateVariables": {
      "_ENTRANCE_FEE": {
        "details": "Entrance fee for the game (hardcoded to $1)"
      },
      "_MINIMUM_FLOW_RATE": {
        "details": "Minimum flow rate to participate (hardcoded to $10 / mo)"
      },
      "tickets": {
        "details": "Tickets by users"
      }
    },
    "version": 1
  },
  "userdoc": {
    "kind": "user",
    "methods": {},
    "version": 1
  }
}