{
  "_format": "hh-sol-artifact-1",
  "contractName": "TradeableCashflow",
  "sourceName": "contracts/TradeableCashflow.sol",
  "abi": [
    {
      "inputs": [
        {
          "internalType": "address",
          "name": "owner",
          "type": "address"
        },
        {
          "internalType": "string",
          "name": "_name",
          "type": "string"
        },
        {
          "internalType": "string",
          "name": "_symbol",
          "type": "string"
        },
        {
          "internalType": "contract ISuperfluid",
          "name": "host",
          "type": "address"
        },
        {
          "internalType": "contract ISuperToken",
          "name": "acceptedToken",
          "type": "address"
        }
      ],
      "stateMutability": "nonpayable",
      "type": "constructor"
    },
    {
      "anonymous": false,
      "inputs": [
        {
          "indexed": true,
          "internalType": "address",
          "name": "owner",
          "type": "address"
        },
        {
          "indexed": true,
          "internalType": "address",
          "name": "approved",
          "type": "address"
        },
        {
          "indexed": true,
          "internalType": "uint256",
          "name": "tokenId",
          "type": "uint256"
        }
      ],
      "name": "Approval",
      "type": "event"
    },
    {
      "anonymous": false,
      "inputs": [
        {
          "indexed": true,
          "internalType": "address",
          "name": "owner",
          "type": "address"
        },
        {
          "indexed": true,
          "internalType": "address",
          "name": "operator",
          "type": "address"
        },
        {
          "indexed": false,
          "internalType": "bool",
          "name": "approved",
          "type": "bool"
        }
      ],
      "name": "ApprovalForAll",
      "type": "event"
    },
    {
      "anonymous": false,
      "inputs": [
        {
          "indexed": false,
          "internalType": "address",
          "name": "receiver",
          "type": "address"
        }
      ],
      "name": "ReceiverChanged",
      "type": "event"
    },
    {
      "anonymous": false,
      "inputs": [
        {
          "indexed": true,
          "internalType": "address",
          "name": "from",
          "type": "address"
        },
        {
          "indexed": true,
          "internalType": "address",
          "name": "to",
          "type": "address"
        },
        {
          "indexed": true,
          "internalType": "uint256",
          "name": "tokenId",
          "type": "uint256"
        }
      ],
      "name": "Transfer",
      "type": "event"
    },
    {
      "inputs": [],
      "name": "CFA_ID",
      "outputs": [
        {
          "internalType": "bytes32",
          "name": "",
          "type": "bytes32"
        }
      ],
      "stateMutability": "view",
      "type": "function"
    },
    {
      "inputs": [],
      "name": "_receiver",
      "outputs": [
        {
          "internalType": "address",
          "name": "",
          "type": "address"
        }
      ],
      "stateMutability": "view",
      "type": "function"
    },
    {
      "inputs": [
        {
          "internalType": "contract ISuperToken",
          "name": "_superToken",
          "type": "address"
        },
        {
          "internalType": "address",
          "name": "_agreementClass",
          "type": "address"
        },
        {
          "internalType": "bytes32",
          "name": "",
          "type": "bytes32"
        },
        {
          "internalType": "bytes",
          "name": "",
          "type": "bytes"
        },
        {
          "internalType": "bytes",
          "name": "",
          "type": "bytes"
        },
        {
          "internalType": "bytes",
          "name": "_ctx",
          "type": "bytes"
        }
      ],
      "name": "afterAgreementCreated",
      "outputs": [
        {
          "internalType": "bytes",
          "name": "newCtx",
          "type": "bytes"
        }
      ],
      "stateMutability": "nonpayable",
      "type": "function"
    },
    {
      "inputs": [
        {
          "internalType": "contract ISuperToken",
          "name": "_superToken",
          "type": "address"
        },
        {
          "internalType": "address",
          "name": "_agreementClass",
          "type": "address"
        },
        {
          "internalType": "bytes32",
          "name": "",
          "type": "bytes32"
        },
        {
          "internalType": "bytes",
          "name": "",
          "type": "bytes"
        },
        {
          "internalType": "bytes",
          "name": "",
          "type": "bytes"
        },
        {
          "internalType": "bytes",
          "name": "_ctx",
          "type": "bytes"
        }
      ],
      "name": "afterAgreementTerminated",
      "outputs": [
        {
          "internalType": "bytes",
          "name": "newCtx",
          "type": "bytes"
        }
      ],
      "stateMutability": "nonpayable",
      "type": "function"
    },
    {
      "inputs": [
        {
          "internalType": "contract ISuperToken",
          "name": "_superToken",
          "type": "address"
        },
        {
          "internalType": "address",
          "name": "_agreementClass",
          "type": "address"
        },
        {
          "internalType": "bytes32",
          "name": "",
          "type": "bytes32"
        },
        {
          "internalType": "bytes",
          "name": "",
          "type": "bytes"
        },
        {
          "internalType": "bytes",
          "name": "",
          "type": "bytes"
        },
        {
          "internalType": "bytes",
          "name": "_ctx",
          "type": "bytes"
        }
      ],
      "name": "afterAgreementUpdated",
      "outputs": [
        {
          "internalType": "bytes",
          "name": "newCtx",
          "type": "bytes"
        }
      ],
      "stateMutability": "nonpayable",
      "type": "function"
    },
    {
      "inputs": [
        {
          "internalType": "address",
          "name": "to",
          "type": "address"
        },
        {
          "internalType": "uint256",
          "name": "tokenId",
          "type": "uint256"
        }
      ],
      "name": "approve",
      "outputs": [],
      "stateMutability": "nonpayable",
      "type": "function"
    },
    {
      "inputs": [
        {
          "internalType": "address",
          "name": "owner",
          "type": "address"
        }
      ],
      "name": "balanceOf",
      "outputs": [
        {
          "internalType": "uint256",
          "name": "",
          "type": "uint256"
        }
      ],
      "stateMutability": "view",
      "type": "function"
    },
    {
      "inputs": [
        {
          "internalType": "contract ISuperToken",
          "name": "",
          "type": "address"
        },
        {
          "internalType": "address",
          "name": "",
          "type": "address"
        },
        {
          "internalType": "bytes32",
          "name": "",
          "type": "bytes32"
        },
        {
          "internalType": "bytes",
          "name": "",
          "type": "bytes"
        },
        {
          "internalType": "bytes",
          "name": "",
          "type": "bytes"
        }
      ],
      "name": "beforeAgreementCreated",
      "outputs": [
        {
          "internalType": "bytes",
          "name": "",
          "type": "bytes"
        }
      ],
      "stateMutability": "view",
      "type": "function"
    },
    {
      "inputs": [
        {
          "internalType": "contract ISuperToken",
          "name": "",
          "type": "address"
        },
        {
          "internalType": "address",
          "name": "",
          "type": "address"
        },
        {
          "internalType": "bytes32",
          "name": "",
          "type": "bytes32"
        },
        {
          "internalType": "bytes",
          "name": "",
          "type": "bytes"
        },
        {
          "internalType": "bytes",
          "name": "",
          "type": "bytes"
        }
      ],
      "name": "beforeAgreementTerminated",
      "outputs": [
        {
          "internalType": "bytes",
          "name": "",
          "type": "bytes"
        }
      ],
      "stateMutability": "view",
      "type": "function"
    },
    {
      "inputs": [
        {
          "internalType": "contract ISuperToken",
          "name": "",
          "type": "address"
        },
        {
          "internalType": "address",
          "name": "",
          "type": "address"
        },
        {
          "internalType": "bytes32",
          "name": "",
          "type": "bytes32"
        },
        {
          "internalType": "bytes",
          "name": "",
          "type": "bytes"
        },
        {
          "internalType": "bytes",
          "name": "",
          "type": "bytes"
        }
      ],
      "name": "beforeAgreementUpdated",
      "outputs": [
        {
          "internalType": "bytes",
          "name": "",
          "type": "bytes"
        }
      ],
      "stateMutability": "view",
      "type": "function"
    },
    {
      "inputs": [],
      "name": "cfaV1Lib",
      "outputs": [
        {
          "internalType": "contract ISuperfluid",
          "name": "host",
          "type": "address"
        },
        {
          "internalType": "contract IConstantFlowAgreementV1",
          "name": "cfa",
          "type": "address"
        }
      ],
      "stateMutability": "view",
      "type": "function"
    },
    {
      "inputs": [],
      "name": "currentReceiver",
      "outputs": [
        {
          "internalType": "uint256",
          "name": "startTime",
          "type": "uint256"
        },
        {
          "internalType": "address",
          "name": "receiver",
          "type": "address"
        },
        {
          "internalType": "int96",
          "name": "flowRate",
          "type": "int96"
        }
      ],
      "stateMutability": "view",
      "type": "function"
    },
    {
      "inputs": [
        {
          "internalType": "uint256",
          "name": "tokenId",
          "type": "uint256"
        }
      ],
      "name": "getApproved",
      "outputs": [
        {
          "internalType": "address",
          "name": "",
          "type": "address"
        }
      ],
      "stateMutability": "view",
      "type": "function"
    },
    {
      "inputs": [
        {
          "internalType": "address",
          "name": "owner",
          "type": "address"
        },
        {
          "internalType": "address",
          "name": "operator",
          "type": "address"
        }
      ],
      "name": "isApprovedForAll",
      "outputs": [
        {
          "internalType": "bool",
          "name": "",
          "type": "bool"
        }
      ],
      "stateMutability": "view",
      "type": "function"
    },
    {
      "inputs": [],
      "name": "name",
      "outputs": [
        {
          "internalType": "string",
          "name": "",
          "type": "string"
        }
      ],
      "stateMutability": "view",
      "type": "function"
    },
    {
      "inputs": [
        {
          "internalType": "uint256",
          "name": "tokenId",
          "type": "uint256"
        }
      ],
      "name": "ownerOf",
      "outputs": [
        {
          "internalType": "address",
          "name": "",
          "type": "address"
        }
      ],
      "stateMutability": "view",
      "type": "function"
    },
    {
      "inputs": [
        {
          "internalType": "address",
          "name": "from",
          "type": "address"
        },
        {
          "internalType": "address",
          "name": "to",
          "type": "address"
        },
        {
          "internalType": "uint256",
          "name": "tokenId",
          "type": "uint256"
        }
      ],
      "name": "safeTransferFrom",
      "outputs": [],
      "stateMutability": "nonpayable",
      "type": "function"
    },
    {
      "inputs": [
        {
          "internalType": "address",
          "name": "from",
          "type": "address"
        },
        {
          "internalType": "address",
          "name": "to",
          "type": "address"
        },
        {
          "internalType": "uint256",
          "name": "tokenId",
          "type": "uint256"
        },
        {
          "internalType": "bytes",
          "name": "_data",
          "type": "bytes"
        }
      ],
      "name": "safeTransferFrom",
      "outputs": [],
      "stateMutability": "nonpayable",
      "type": "function"
    },
    {
      "inputs": [
        {
          "internalType": "address",
          "name": "operator",
          "type": "address"
        },
        {
          "internalType": "bool",
          "name": "approved",
          "type": "bool"
        }
      ],
      "name": "setApprovalForAll",
      "outputs": [],
      "stateMutability": "nonpayable",
      "type": "function"
    },
    {
      "inputs": [
        {
          "internalType": "bytes4",
          "name": "interfaceId",
          "type": "bytes4"
        }
      ],
      "name": "supportsInterface",
      "outputs": [
        {
          "internalType": "bool",
          "name": "",
          "type": "bool"
        }
      ],
      "stateMutability": "view",
      "type": "function"
    },
    {
      "inputs": [],
      "name": "symbol",
      "outputs": [
        {
          "internalType": "string",
          "name": "",
          "type": "string"
        }
      ],
      "stateMutability": "view",
      "type": "function"
    },
    {
      "inputs": [
        {
          "internalType": "uint256",
          "name": "tokenId",
          "type": "uint256"
        }
      ],
      "name": "tokenURI",
      "outputs": [
        {
          "internalType": "string",
          "name": "",
          "type": "string"
        }
      ],
      "stateMutability": "view",
      "type": "function"
    },
    {
      "inputs": [
        {
          "internalType": "address",
          "name": "from",
          "type": "address"
        },
        {
          "internalType": "address",
          "name": "to",
          "type": "address"
        },
        {
          "internalType": "uint256",
          "name": "tokenId",
          "type": "uint256"
        }
      ],
      "name": "transferFrom",
      "outputs": [],
      "stateMutability": "nonpayable",
      "type": "function"
    }
  ],
  "bytecode": "0x60806040523480156200001157600080fd5b50604051620030fb380380620030fb833981016040819052620000349162000968565b8181868686816000908051906020019062000051929190620007ba565b50805162000067906001906020840190620007ba565b5050506001600160a01b03831662000083576200008362000a14565b6001600160a01b0382166200009c576200009c62000a14565b6001600160a01b038116620000b557620000b562000a14565b600880546001600160a01b038481166001600160a01b0319928316179092556009805484841692169190911790556040805180820182529185168083529051635b69006f60e11b81527fa9214cc96615e0085d3bb077758db69497dc2dce3b2b1e97bc93c3d18d83efd3600482015260208301919063b6d200de90602401602060405180830381865afa15801562000151573d6000803e3d6000fd5b505050506040513d601f19601f8201168201806040525081019062000177919062000a2a565b6001600160a01b039081169091528151600680549183166001600160a01b03199283161790556020909201516007805491831691909316179091556040516315a722b960e31b8152641500000001600482018190529185169063ad3915c890602401600060405180830381600087803b158015620001f457600080fd5b505af115801562000209573d6000803e3d6000fd5b5050505050505050620002248560016200022f60201b60201c565b505050505062000c8a565b6001600160a01b0382166200028b5760405162461bcd60e51b815260206004820181905260248201527f4552433732313a206d696e7420746f20746865207a65726f206164647265737360448201526064015b60405180910390fd5b6000818152600260205260409020546001600160a01b031615620002f25760405162461bcd60e51b815260206004820152601c60248201527f4552433732313a20746f6b656e20616c7265616479206d696e74656400000000604482015260640162000282565b620003006000838362000389565b6001600160a01b03821660009081526003602052604081208054600192906200032b90849062000a4a565b909155505060008181526002602052604080822080546001600160a01b0319166001600160a01b03861690811790915590518392907fddf252ad1be2c89b69c2b068fc378daa952ba7f163c4a11628f55a4df523b3ef908290a45050565b620003948262000399565b505050565b6001600160a01b038116620003f15760405162461bcd60e51b815260206004820152601c60248201527f4e6577207265636569766572206973207a65726f206164647265737300000000604482015260640162000282565b600654604051631e51d6a760e11b81526001600160a01b03838116600483015290911690633ca3ad4e90602401602060405180830381865afa1580156200043c573d6000803e3d6000fd5b505050506040513d601f19601f8201168201806040525081019062000462919062000a71565b15620004bc5760405162461bcd60e51b815260206004820152602260248201527f4e65772072656365697665722063616e206e6f74206265206120737570657241604482015261070760f41b606482015260840162000282565b6009546001600160a01b0390811690821603620004d65750565b600754600854600954604051631cd43d1160e31b81526001600160a01b0392831660048201523060248201529082166044820152600092919091169063e6a1e88890606401608060405180830381865afa15801562000539573d6000803e3d6000fd5b505050506040513d601f19601f820116820180604052508101906200055f919062000aad565b5050915050600081600b0b13156200063c57600954600854620005a09160069130916001600160a01b03908116911662000691602090811b62000c5e17901c565b60085460075460405163e8e7e2d160e01b81526001600160a01b03928316600482018190523060248301526200063c938693919291169063e8e7e2d190604401602060405180830381865afa158015620005fe573d6000803e3d6000fd5b505050506040513d601f19601f8201168201806040525081019062000624919062000aec565b60066200077260201b62000d3817909392919060201c565b600980546001600160a01b0319166001600160a01b0384169081179091556040519081527f7dfb1d59db37a3fd2e15e796c189dcab714cdbb18650d68a1de58f8fa60718c99060200160405180910390a15050565b835460018501546040805160008152602081019091526001600160a01b03928316926339255d5b921690635a5999e360e11b90620006d9908690899089906044810162000b38565b60408051601f198184030181529181526020820180516001600160e01b03166001600160e01b03199485161790525160e085901b909216825262000721929160040162000b78565b6000604051808303816000875af115801562000741573d6000803e3d6000fd5b505050506040513d6000823e601f3d908101601f191682016040526200076b919081019062000bc1565b5050505050565b835460018501546040805160008152602081019091526001600160a01b03928316926339255d5b92169063317e182f60e11b90620006d9908790899088906044810162000c16565b828054620007c89062000c4e565b90600052602060002090601f016020900481019282620007ec576000855562000837565b82601f106200080757805160ff191683800117855562000837565b8280016001018555821562000837579182015b82811115620008375782518255916020019190600101906200081a565b506200084592915062000849565b5090565b5b808211156200084557600081556001016200084a565b6001600160a01b03811681146200087657600080fd5b50565b634e487b7160e01b600052604160045260246000fd5b60005b83811015620008ac57818101518382015260200162000892565b83811115620008bc576000848401525b50505050565b60006001600160401b0380841115620008df57620008df62000879565b604051601f8501601f19908116603f011681019082821181831017156200090a576200090a62000879565b816040528093508581528686860111156200092457600080fd5b620009348660208301876200088f565b5050509392505050565b600082601f8301126200095057600080fd5b6200096183835160208501620008c2565b9392505050565b600080600080600060a086880312156200098157600080fd5b85516200098e8162000860565b60208701519095506001600160401b0380821115620009ac57600080fd5b620009ba89838a016200093e565b95506040880151915080821115620009d157600080fd5b50620009e0888289016200093e565b9350506060860151620009f38162000860565b608087015190925062000a068162000860565b809150509295509295909350565b634e487b7160e01b600052600160045260246000fd5b60006020828403121562000a3d57600080fd5b8151620009618162000860565b6000821982111562000a6c57634e487b7160e01b600052601160045260246000fd5b500190565b60006020828403121562000a8457600080fd5b815180151581146200096157600080fd5b8051600b81900b811462000aa857600080fd5b919050565b6000806000806080858703121562000ac457600080fd5b8451935062000ad66020860162000a95565b6040860151606090960151949790965092505050565b60006020828403121562000aff57600080fd5b620009618262000a95565b6000815180845262000b248160208601602086016200088f565b601f01601f19169290920160200192915050565b6001600160a01b03858116825284811660208301528316604082015260806060820181905260009062000b6e9083018462000b0a565b9695505050505050565b6001600160a01b038316815260606020820181905260009062000b9e9083018462000b0a565b8281036040938401526002815261060f60f31b6020820152919091019392505050565b60006020828403121562000bd457600080fd5b81516001600160401b0381111562000beb57600080fd5b8201601f8101841362000bfd57600080fd5b62000c0e84825160208401620008c2565b949350505050565b6001600160a01b03858116825284166020820152600b83900b604082015260806060820181905260009062000b6e9083018462000b0a565b600181811c9082168062000c6357607f821691505b60208210810362000c8457634e487b7160e01b600052602260045260246000fd5b50919050565b6124618062000c9a6000396000f3fe608060405234801561001057600080fd5b506004361061014d5760003560e01c806353c11f99116100c357806395d89b411161007c57806395d89b411461032a578063a22cb46514610332578063b88d4fde14610345578063c87b56dd14610358578063d86ed3e514610217578063e985e9c51461036b57600080fd5b806353c11f991461029157806355586a31146102a45780635f9e7d77146102de5780636352211e146102f157806370a0823114610304578063884d1f401461031757600080fd5b8063215eed0211610115578063215eed02146101e2578063230dbd291461021757806323b872dd1461022a57806328d2bf941461023d57806330d9c9151461026b57806342842e0e1461027e57600080fd5b806301ffc9a71461015257806302964ff11461017a57806306fdde03146101a5578063081812fc146101ba578063095ea7b3146101cd575b600080fd5b610165610160366004611a5f565b6103a7565b60405190151581526020015b60405180910390f35b60095461018d906001600160a01b031681565b6040516001600160a01b039091168152602001610171565b6101ad6103f9565b6040516101719190611ad4565b61018d6101c8366004611ae7565b61048b565b6101e06101db366004611b15565b610525565b005b6102097fa9214cc96615e0085d3bb077758db69497dc2dce3b2b1e97bc93c3d18d83efd381565b604051908152602001610171565b6101ad610225366004611b8a565b61063a565b6101e0610238366004611c55565b610745565b610245610776565b604080519384526001600160a01b039092166020840152600b0b90820152606001610171565b6101ad610279366004611c96565b61082c565b6101e061028c366004611c55565b61088f565b6101ad61029f366004611b8a565b6108aa565b6006546007546102be916001600160a01b03908116911682565b604080516001600160a01b03938416815292909116602083015201610171565b6101ad6102ec366004611c96565b610958565b61018d6102ff366004611ae7565b6109bf565b610209610312366004611d35565b610a36565b6101ad610325366004611c96565b610abd565b6101ad610b20565b6101e0610340366004611d60565b610b2f565b6101e0610353366004611e08565b610b3e565b6101ad610366366004611ae7565b610b76565b610165610379366004611eb7565b6001600160a01b03918216600090815260056020908152604080832093909416825291909152205460ff1690565b60006001600160e01b031982166380ac58cd60e01b14806103d857506001600160e01b03198216635b5e139f60e01b145b806103f357506301ffc9a760e01b6001600160e01b03198316145b92915050565b60606000805461040890611ee5565b80601f016020809104026020016040519081016040528092919081815260200182805461043490611ee5565b80156104815780601f1061045657610100808354040283529160200191610481565b820191906000526020600020905b81548152906001019060200180831161046457829003601f168201915b5050505050905090565b6000818152600260205260408120546001600160a01b03166105095760405162461bcd60e51b815260206004820152602c60248201527f4552433732313a20617070726f76656420717565727920666f72206e6f6e657860448201526b34b9ba32b73a103a37b5b2b760a11b60648201526084015b60405180910390fd5b506000908152600460205260409020546001600160a01b031690565b6000610530826109bf565b9050806001600160a01b0316836001600160a01b03160361059d5760405162461bcd60e51b815260206004820152602160248201527f4552433732313a20617070726f76616c20746f2063757272656e74206f776e656044820152603960f91b6064820152608401610500565b336001600160a01b03821614806105b957506105b98133610379565b61062b5760405162461bcd60e51b815260206004820152603860248201527f4552433732313a20617070726f76652063616c6c6572206973206e6f74206f7760448201527f6e6572206e6f7220617070726f76656420666f7220616c6c00000000000000006064820152608401610500565b6106358383610d7e565b505050565b60608989610656826008546001600160a01b0391821691161490565b6106a25760405162461bcd60e51b815260206004820152601f60248201527f5265646972656374416c6c3a206e6f7420616363657074656420746f6b656e006044820152606401610500565b6106ab81610dec565b6107015760405162461bcd60e51b815260206004820152602160248201527f5265646972656374416c6c3a206f6e6c7920434641763120737570706f7274656044820152601960fa1b6064820152608401610500565b6006546001600160a01b0316331461072b5760405162461bcd60e51b815260040161050090611f1f565b6107358585610e78565b9c9b505050505050505050505050565b61074f3382611054565b61076b5760405162461bcd60e51b815260040161050090611f61565b61063583838361114b565b600954600090819081906001600160a01b03161561082757600754600854600954604051631cd43d1160e31b81526001600160a01b039283166004820152306024820152908216604482015291169063e6a1e88890606401608060405180830381865afa1580156107eb573d6000803e3d6000fd5b505050506040513d601f19601f8201168201806040525081019061080f9190611fc9565b50506009549194506001600160a01b03909116925090505b909192565b60405162461bcd60e51b815260206004820152602f60248201527f556e737570706f727465642063616c6c6261636b202d204265666f726520416760448201526e1c99595b595b9d0810dc99585d1959608a1b6064820152606090608401610500565b61063583838360405180602001604052806000815250610b3e565b6006546060906001600160a01b031633146108d75760405162461bcd60e51b815260040161050090611f1f565b6008546001600160a01b038b811691161415806108fa57506108f889610dec565b155b1561093e5782828080601f01602080910402602001604051908101604052809392919081815260200183838082843760009201919091525092935061094b92505050565b6109488383610e78565b90505b9998505050505050505050565b60405162461bcd60e51b815260206004820152603360248201527f556e737570706f727465642063616c6c6261636b202d20204265666f7265204160448201527219dc99595b595b9d0815195c9b5a5b985d1959606a1b6064820152606090608401610500565b6000818152600260205260408120546001600160a01b0316806103f35760405162461bcd60e51b815260206004820152602960248201527f4552433732313a206f776e657220717565727920666f72206e6f6e657869737460448201526832b73a103a37b5b2b760b91b6064820152608401610500565b60006001600160a01b038216610aa15760405162461bcd60e51b815260206004820152602a60248201527f4552433732313a2062616c616e636520717565727920666f7220746865207a65604482015269726f206164647265737360b01b6064820152608401610500565b506001600160a01b031660009081526003602052604090205490565b60405162461bcd60e51b815260206004820152602f60248201527f556e737570706f727465642063616c6c6261636b202d204265666f726520416760448201526e1c99595b595b9d081d5c19185d1959608a1b6064820152606090608401610500565b60606001805461040890611ee5565b610b3a3383836112f2565b5050565b610b483383611054565b610b645760405162461bcd60e51b815260040161050090611f61565b610b70848484846113c0565b50505050565b6000818152600260205260409020546060906001600160a01b0316610bf55760405162461bcd60e51b815260206004820152602f60248201527f4552433732314d657461646174613a2055524920717565727920666f72206e6f60448201526e3732bc34b9ba32b73a103a37b5b2b760891b6064820152608401610500565b6000610c0c60408051602081019091526000815290565b90506000815111610c2c5760405180602001604052806000815250610c57565b80610c36846113f3565b604051602001610c47929190612005565b6040516020818303038152906040525b9392505050565b835460018501546040805160008152602081019091526001600160a01b03928316926339255d5b921690635a5999e360e11b90610ca49086908990899060448101612034565b60408051601f198184030181529181526020820180516001600160e01b03166001600160e01b03199485161790525160e085901b9092168252610cea9291600401612072565b6000604051808303816000875af1158015610d09573d6000803e3d6000fd5b505050506040513d6000823e601f3d908101601f19168201604052610d319190810190612105565b5050505050565b835460018501546040805160008152602081019091526001600160a01b03928316926339255d5b92169063317e182f60e11b90610ca4908790899088906044810161213a565b600081815260046020526040902080546001600160a01b0319166001600160a01b0384169081179091558190610db3826109bf565b6001600160a01b03167f8c5be1e5ebec7d5bd14f71427d1e84f3dd0314c0f7b2291e5b200ac8c7c3b92560405160405180910390a45050565b60007fa9214cc96615e0085d3bb077758db69497dc2dce3b2b1e97bc93c3d18d83efd3826001600160a01b0316637730599e6040518163ffffffff1660e01b8152600401602060405180830381865afa158015610e4d573d6000803e3d6000fd5b505050506040513d601f19601f82011682018060405250810190610e719190612170565b1492915050565b606082828080601f016020809104026020016040519081016040528093929190818152602001838380828437600092018290525060075460085460405163e8e7e2d160e01b81526001600160a01b03918216600482015230602482015296975091959116935063e8e7e2d192506044019050602060405180830381865afa158015610f07573d6000803e3d6000fd5b505050506040513d601f19601f82011682018060405250810190610f2b9190612189565b600754600854600954604051631cd43d1160e31b81526001600160a01b039283166004820152306024820152908216604482015292935060009291169063e6a1e88890606401608060405180830381865afa158015610f8e573d6000803e3d6000fd5b505050506040513d601f19601f82011682018060405250810190610fb29190611fc9565b505091505060008183610fc591906121ba565b9050600b81900b610ffa57600954600854610ff391600691879130916001600160a01b0391821691166114f4565b935061104b565b600b82900b1561102657600954600854610ff39160069187916001600160a01b039081169116856115d8565b6009546008546110489160069187916001600160a01b03908116911685611641565b93505b50505092915050565b6000818152600260205260408120546001600160a01b03166110cd5760405162461bcd60e51b815260206004820152602c60248201527f4552433732313a206f70657261746f7220717565727920666f72206e6f6e657860448201526b34b9ba32b73a103a37b5b2b760a11b6064820152608401610500565b60006110d8836109bf565b9050806001600160a01b0316846001600160a01b031614806111135750836001600160a01b03166111088461048b565b6001600160a01b0316145b8061114357506001600160a01b0380821660009081526005602090815260408083209388168352929052205460ff165b949350505050565b826001600160a01b031661115e826109bf565b6001600160a01b0316146111c25760405162461bcd60e51b815260206004820152602560248201527f4552433732313a207472616e736665722066726f6d20696e636f72726563742060448201526437bbb732b960d91b6064820152608401610500565b6001600160a01b0382166112245760405162461bcd60e51b8152602060048201526024808201527f4552433732313a207472616e7366657220746f20746865207a65726f206164646044820152637265737360e01b6064820152608401610500565b61122f838383611670565b61123a600082610d7e565b6001600160a01b0383166000908152600360205260408120805460019290611263908490612213565b90915550506001600160a01b038216600090815260036020526040812080546001929061129190849061222a565b909155505060008181526002602052604080822080546001600160a01b0319166001600160a01b0386811691821790925591518493918716917fddf252ad1be2c89b69c2b068fc378daa952ba7f163c4a11628f55a4df523b3ef91a4505050565b816001600160a01b0316836001600160a01b0316036113535760405162461bcd60e51b815260206004820152601960248201527f4552433732313a20617070726f766520746f2063616c6c6572000000000000006044820152606401610500565b6001600160a01b03838116600081815260056020908152604080832094871680845294825291829020805460ff191686151590811790915591519182527f17307eab39ab6107e8899845ad3d59bd9653f200f220920489ca2b5937696c31910160405180910390a3505050565b6113cb84848461114b565b6113d784848484611679565b610b705760405162461bcd60e51b815260040161050090612242565b60608160000361141a5750506040805180820190915260018152600360fc1b602082015290565b8160005b8115611444578061142e81612294565b915061143d9050600a836122c3565b915061141e565b60008167ffffffffffffffff81111561145f5761145f611d99565b6040519080825280601f01601f191660200182016040528015611489576020820181803683370190505b5090505b84156111435761149e600183612213565b91506114ab600a866122d7565b6114b690603061222a565b60f81b8183815181106114cb576114cb6122eb565b60200101906001600160f81b031916908160001a9053506114ed600a866122c3565b945061148d565b845460018601546040805160008152602081019091526060926001600160a01b0390811692634329d29392911690635a5999e360e11b9061153e9087908a908a9060448101612034565b60408051601f198184030181529181526020820180516001600160e01b03166001600160e01b03199485161790525160e085901b909216825261158692918a90600401612301565b6000604051808303816000875af11580156115a5573d6000803e3d6000fd5b505050506040513d6000823e601f3d908101601f191682016040526115cd919081019061235a565b509695505050505050565b845460018601546060916001600160a01b0390811691634329d29391166328104d3160e11b86888760005b6040519080825280601f01601f19166020018201604052801561162d576020820181803683370190505b5060405160240161153e949392919061213a565b845460018601546060916001600160a01b0390811691634329d293911663317e182f60e11b8688876000611603565b6106358261177a565b60006001600160a01b0384163b1561176f57604051630a85bd0160e11b81526001600160a01b0385169063150b7a02906116bd9033908990889088906004016123be565b6020604051808303816000875af19250505080156116f8575060408051601f3d908101601f191682019092526116f5918101906123f1565b60015b611755573d808015611726576040519150601f19603f3d011682016040523d82523d6000602084013e61172b565b606091505b50805160000361174d5760405162461bcd60e51b815260040161050090612242565b805181602001fd5b6001600160e01b031916630a85bd0160e11b149050611143565b506001949350505050565b6001600160a01b0381166117d05760405162461bcd60e51b815260206004820152601c60248201527f4e6577207265636569766572206973207a65726f2061646472657373000000006044820152606401610500565b600654604051631e51d6a760e11b81526001600160a01b03838116600483015290911690633ca3ad4e90602401602060405180830381865afa15801561181a573d6000803e3d6000fd5b505050506040513d601f19601f8201168201806040525081019061183e919061240e565b156118965760405162461bcd60e51b815260206004820152602260248201527f4e65772072656365697665722063616e206e6f74206265206120737570657241604482015261070760f41b6064820152608401610500565b6009546001600160a01b03908116908216036118af5750565b600754600854600954604051631cd43d1160e31b81526001600160a01b0392831660048201523060248201529082166044820152600092919091169063e6a1e88890606401608060405180830381865afa158015611911573d6000803e3d6000fd5b505050506040513d601f19601f820116820180604052508101906119359190611fc9565b5050915050600081600b0b13156119f1576009546008546119679160069130916001600160a01b039081169116610c5e565b60085460075460405163e8e7e2d160e01b81526001600160a01b03928316600482018190523060248301526119f1938693919291169063e8e7e2d190604401602060405180830381865afa1580156119c3573d6000803e3d6000fd5b505050506040513d601f19601f820116820180604052508101906119e79190612189565b6006929190610d38565b600980546001600160a01b0319166001600160a01b0384169081179091556040519081527f7dfb1d59db37a3fd2e15e796c189dcab714cdbb18650d68a1de58f8fa60718c99060200160405180910390a15050565b6001600160e01b031981168114611a5c57600080fd5b50565b600060208284031215611a7157600080fd5b8135610c5781611a46565b60005b83811015611a97578181015183820152602001611a7f565b83811115610b705750506000910152565b60008151808452611ac0816020860160208601611a7c565b601f01601f19169290920160200192915050565b602081526000610c576020830184611aa8565b600060208284031215611af957600080fd5b5035919050565b6001600160a01b0381168114611a5c57600080fd5b60008060408385031215611b2857600080fd5b8235611b3381611b00565b946020939093013593505050565b60008083601f840112611b5357600080fd5b50813567ffffffffffffffff811115611b6b57600080fd5b602083019150836020828501011115611b8357600080fd5b9250929050565b600080600080600080600080600060c08a8c031215611ba857600080fd5b8935611bb381611b00565b985060208a0135611bc381611b00565b975060408a0135965060608a013567ffffffffffffffff80821115611be757600080fd5b611bf38d838e01611b41565b909850965060808c0135915080821115611c0c57600080fd5b611c188d838e01611b41565b909650945060a08c0135915080821115611c3157600080fd5b50611c3e8c828d01611b41565b915080935050809150509295985092959850929598565b600080600060608486031215611c6a57600080fd5b8335611c7581611b00565b92506020840135611c8581611b00565b929592945050506040919091013590565b600080600080600080600060a0888a031215611cb157600080fd5b8735611cbc81611b00565b96506020880135611ccc81611b00565b955060408801359450606088013567ffffffffffffffff80821115611cf057600080fd5b611cfc8b838c01611b41565b909650945060808a0135915080821115611d1557600080fd5b50611d228a828b01611b41565b989b979a50959850939692959293505050565b600060208284031215611d4757600080fd5b8135610c5781611b00565b8015158114611a5c57600080fd5b60008060408385031215611d7357600080fd5b8235611d7e81611b00565b91506020830135611d8e81611d52565b809150509250929050565b634e487b7160e01b600052604160045260246000fd5b604051601f8201601f1916810167ffffffffffffffff81118282101715611dd857611dd8611d99565b604052919050565b600067ffffffffffffffff821115611dfa57611dfa611d99565b50601f01601f191660200190565b60008060008060808587031215611e1e57600080fd5b8435611e2981611b00565b93506020850135611e3981611b00565b925060408501359150606085013567ffffffffffffffff811115611e5c57600080fd5b8501601f81018713611e6d57600080fd5b8035611e80611e7b82611de0565b611daf565b818152886020838501011115611e9557600080fd5b8160208401602083013760006020838301015280935050505092959194509250565b60008060408385031215611eca57600080fd5b8235611ed581611b00565b91506020830135611d8e81611b00565b600181811c90821680611ef957607f821691505b602082108103611f1957634e487b7160e01b600052602260045260246000fd5b50919050565b60208082526022908201527f5265646972656374416c6c3a20737570706f7274206f6e6c79206f6e6520686f6040820152611cdd60f21b606082015260800190565b60208082526031908201527f4552433732313a207472616e736665722063616c6c6572206973206e6f74206f6040820152701ddb995c881b9bdc88185c1c1c9bdd9959607a1b606082015260800190565b8051600b81900b8114611fc457600080fd5b919050565b60008060008060808587031215611fdf57600080fd5b84519350611fef60208601611fb2565b6040860151606090960151949790965092505050565b60008351612017818460208801611a7c565b83519083019061202b818360208801611a7c565b01949350505050565b6001600160a01b03858116825284811660208301528316604082015260806060820181905260009061206890830184611aa8565b9695505050505050565b6001600160a01b038316815260606020820181905260009061209690830184611aa8565b82810360408401526120b7816002815261060f60f31b602082015260400190565b95945050505050565b600082601f8301126120d157600080fd5b81516120df611e7b82611de0565b8181528460208386010111156120f457600080fd5b611143826020830160208701611a7c565b60006020828403121561211757600080fd5b815167ffffffffffffffff81111561212e57600080fd5b611143848285016120c0565b6001600160a01b03858116825284166020820152600b83900b604082015260806060820181905260009061206890830184611aa8565b60006020828403121561218257600080fd5b5051919050565b60006020828403121561219b57600080fd5b610c5782611fb2565b634e487b7160e01b600052601160045260246000fd5b600081600b0b83600b0b60008212826b7fffffffffffffffffffffff038213811516156121e9576121e96121a4565b826b7fffffffffffffffffffffff1903821281161561220a5761220a6121a4565b50019392505050565b600082821015612225576122256121a4565b500390565b6000821982111561223d5761223d6121a4565b500190565b60208082526032908201527f4552433732313a207472616e7366657220746f206e6f6e20455243373231526560408201527131b2b4bb32b91034b6b83632b6b2b73a32b960711b606082015260800190565b6000600182016122a6576122a66121a4565b5060010190565b634e487b7160e01b600052601260045260246000fd5b6000826122d2576122d26122ad565b500490565b6000826122e6576122e66122ad565b500690565b634e487b7160e01b600052603260045260246000fd5b6001600160a01b038416815260806020820181905260009061232590830185611aa8565b8281036040840152612346816002815261060f60f31b602082015260400190565b905082810360608401526120688185611aa8565b6000806040838503121561236d57600080fd5b825167ffffffffffffffff8082111561238557600080fd5b612391868387016120c0565b935060208501519150808211156123a757600080fd5b506123b4858286016120c0565b9150509250929050565b6001600160a01b038581168252841660208201526040810183905260806060820181905260009061206890830184611aa8565b60006020828403121561240357600080fd5b8151610c5781611a46565b60006020828403121561242057600080fd5b8151610c5781611d5256fea2646970667358221220ec2c38a79d30651ce05df9803eff4cd0ccf8752cf93e1493432ae21f1fd28ef764736f6c634300080d0033",
  "linkReferences": {},
  "deployedLinkReferences": {}
}