{
  "address": "0x3Cd9683e441165A9c55d435eee1E7cD33c20CDF9",
  "abi": [
    {
      "inputs": [
        {
          "internalType": "string",
          "name": "_name",
          "type": "string"
        },
        {
          "internalType": "string",
          "name": "_symbol",
          "type": "string"
        },
        {
          "internalType": "contract ISuperfluid",
          "name": "host",
          "type": "address"
        },
        {
          "internalType": "contract IConstantFlowAgreementV1",
          "name": "cfa",
          "type": "address"
        },
        {
          "internalType": "contract ISuperToken",
          "name": "acceptedToken",
          "type": "address"
        }
      ],
      "stateMutability": "nonpayable",
      "type": "constructor"
    },
    {
      "anonymous": false,
      "inputs": [
        {
          "indexed": true,
          "internalType": "address",
          "name": "owner",
          "type": "address"
        },
        {
          "indexed": true,
          "internalType": "address",
          "name": "approved",
          "type": "address"
        },
        {
          "indexed": true,
          "internalType": "uint256",
          "name": "tokenId",
          "type": "uint256"
        }
      ],
      "name": "Approval",
      "type": "event"
    },
    {
      "anonymous": false,
      "inputs": [
        {
          "indexed": true,
          "internalType": "address",
          "name": "owner",
          "type": "address"
        },
        {
          "indexed": true,
          "internalType": "address",
          "name": "operator",
          "type": "address"
        },
        {
          "indexed": false,
          "internalType": "bool",
          "name": "approved",
          "type": "bool"
        }
      ],
      "name": "ApprovalForAll",
      "type": "event"
    },
    {
      "anonymous": false,
      "inputs": [
        {
          "indexed": false,
          "internalType": "uint256",
          "name": "tokenId",
          "type": "uint256"
        },
        {
          "indexed": false,
          "internalType": "address",
          "name": "receiver",
          "type": "address"
        },
        {
          "indexed": false,
          "internalType": "int96",
          "name": "flowRate",
          "type": "int96"
        }
      ],
      "name": "NFTIssued",
      "type": "event"
    },
    {
      "anonymous": false,
      "inputs": [
        {
          "indexed": true,
          "internalType": "address",
          "name": "previousOwner",
          "type": "address"
        },
        {
          "indexed": true,
          "internalType": "address",
          "name": "newOwner",
          "type": "address"
        }
      ],
      "name": "OwnershipTransferred",
      "type": "event"
    },
    {
      "anonymous": false,
      "inputs": [
        {
          "indexed": true,
          "internalType": "address",
          "name": "from",
          "type": "address"
        },
        {
          "indexed": true,
          "internalType": "address",
          "name": "to",
          "type": "address"
        },
        {
          "indexed": true,
          "internalType": "uint256",
          "name": "tokenId",
          "type": "uint256"
        }
      ],
      "name": "Transfer",
      "type": "event"
    },
    {
      "inputs": [],
      "name": "_acceptedToken",
      "outputs": [
        {
          "internalType": "contract ISuperToken",
          "name": "",
          "type": "address"
        }
      ],
      "stateMutability": "view",
      "type": "function"
    },
    {
      "inputs": [
        {
          "internalType": "address",
          "name": "to",
          "type": "address"
        },
        {
          "internalType": "uint256",
          "name": "tokenId",
          "type": "uint256"
        }
      ],
      "name": "approve",
      "outputs": [],
      "stateMutability": "nonpayable",
      "type": "function"
    },
    {
      "inputs": [
        {
          "internalType": "address",
          "name": "owner",
          "type": "address"
        }
      ],
      "name": "balanceOf",
      "outputs": [
        {
          "internalType": "uint256",
          "name": "",
          "type": "uint256"
        }
      ],
      "stateMutability": "view",
      "type": "function"
    },
    {
      "inputs": [
        {
          "internalType": "uint256",
          "name": "tokenId",
          "type": "uint256"
        }
      ],
      "name": "burnNFT",
      "outputs": [],
      "stateMutability": "nonpayable",
      "type": "function"
    },
    {
      "inputs": [
        {
          "internalType": "uint256",
          "name": "tokenId",
          "type": "uint256"
        },
        {
          "internalType": "int96",
          "name": "flowRate",
          "type": "int96"
        }
      ],
      "name": "editNFT",
      "outputs": [],
      "stateMutability": "nonpayable",
      "type": "function"
    },
    {
      "inputs": [
        {
          "internalType": "uint256",
          "name": "",
          "type": "uint256"
        }
      ],
      "name": "flowRates",
      "outputs": [
        {
          "internalType": "int96",
          "name": "",
          "type": "int96"
        }
      ],
      "stateMutability": "view",
      "type": "function"
    },
    {
      "inputs": [
        {
          "internalType": "uint256",
          "name": "tokenId",
          "type": "uint256"
        }
      ],
      "name": "getApproved",
      "outputs": [
        {
          "internalType": "address",
          "name": "",
          "type": "address"
        }
      ],
      "stateMutability": "view",
      "type": "function"
    },
    {
      "inputs": [
        {
          "internalType": "address",
          "name": "owner",
          "type": "address"
        },
        {
          "internalType": "address",
          "name": "operator",
          "type": "address"
        }
      ],
      "name": "isApprovedForAll",
      "outputs": [
        {
          "internalType": "bool",
          "name": "",
          "type": "bool"
        }
      ],
      "stateMutability": "view",
      "type": "function"
    },
    {
      "inputs": [
        {
          "internalType": "address",
          "name": "receiver",
          "type": "address"
        },
        {
          "internalType": "int96",
          "name": "flowRate",
          "type": "int96"
        }
      ],
      "name": "issueNFT",
      "outputs": [],
      "stateMutability": "nonpayable",
      "type": "function"
    },
    {
      "inputs": [
        {
          "internalType": "uint256",
          "name": "tokenId1",
          "type": "uint256"
        },
        {
          "internalType": "uint256",
          "name": "tokenId2",
          "type": "uint256"
        }
      ],
      "name": "mergeStreams",
      "outputs": [],
      "stateMutability": "nonpayable",
      "type": "function"
    },
    {
      "inputs": [],
      "name": "name",
      "outputs": [
        {
          "internalType": "string",
          "name": "",
          "type": "string"
        }
      ],
      "stateMutability": "view",
      "type": "function"
    },
    {
      "inputs": [],
      "name": "nextId",
      "outputs": [
        {
          "internalType": "uint256",
          "name": "",
          "type": "uint256"
        }
      ],
      "stateMutability": "view",
      "type": "function"
    },
    {
      "inputs": [],
      "name": "owner",
      "outputs": [
        {
          "internalType": "address",
          "name": "",
          "type": "address"
        }
      ],
      "stateMutability": "view",
      "type": "function"
    },
    {
      "inputs": [
        {
          "internalType": "uint256",
          "name": "tokenId",
          "type": "uint256"
        }
      ],
      "name": "ownerOf",
      "outputs": [
        {
          "internalType": "address",
          "name": "",
          "type": "address"
        }
      ],
      "stateMutability": "view",
      "type": "function"
    },
    {
      "inputs": [],
      "name": "renounceOwnership",
      "outputs": [],
      "stateMutability": "nonpayable",
      "type": "function"
    },
    {
      "inputs": [
        {
          "internalType": "address",
          "name": "from",
          "type": "address"
        },
        {
          "internalType": "address",
          "name": "to",
          "type": "address"
        },
        {
          "internalType": "uint256",
          "name": "tokenId",
          "type": "uint256"
        }
      ],
      "name": "safeTransferFrom",
      "outputs": [],
      "stateMutability": "nonpayable",
      "type": "function"
    },
    {
      "inputs": [
        {
          "internalType": "address",
          "name": "from",
          "type": "address"
        },
        {
          "internalType": "address",
          "name": "to",
          "type": "address"
        },
        {
          "internalType": "uint256",
          "name": "tokenId",
          "type": "uint256"
        },
        {
          "internalType": "bytes",
          "name": "_data",
          "type": "bytes"
        }
      ],
      "name": "safeTransferFrom",
      "outputs": [],
      "stateMutability": "nonpayable",
      "type": "function"
    },
    {
      "inputs": [
        {
          "internalType": "address",
          "name": "operator",
          "type": "address"
        },
        {
          "internalType": "bool",
          "name": "approved",
          "type": "bool"
        }
      ],
      "name": "setApprovalForAll",
      "outputs": [],
      "stateMutability": "nonpayable",
      "type": "function"
    },
    {
      "inputs": [
        {
          "internalType": "uint256",
          "name": "tokenId",
          "type": "uint256"
        },
        {
          "internalType": "int96",
          "name": "newTokenFlowRate",
          "type": "int96"
        }
      ],
      "name": "splitStream",
      "outputs": [],
      "stateMutability": "nonpayable",
      "type": "function"
    },
    {
      "inputs": [
        {
          "internalType": "bytes4",
          "name": "interfaceId",
          "type": "bytes4"
        }
      ],
      "name": "supportsInterface",
      "outputs": [
        {
          "internalType": "bool",
          "name": "",
          "type": "bool"
        }
      ],
      "stateMutability": "view",
      "type": "function"
    },
    {
      "inputs": [],
      "name": "symbol",
      "outputs": [
        {
          "internalType": "string",
          "name": "",
          "type": "string"
        }
      ],
      "stateMutability": "view",
      "type": "function"
    },
    {
      "inputs": [
        {
          "internalType": "uint256",
          "name": "tokenId",
          "type": "uint256"
        }
      ],
      "name": "tokenURI",
      "outputs": [
        {
          "internalType": "string",
          "name": "",
          "type": "string"
        }
      ],
      "stateMutability": "view",
      "type": "function"
    },
    {
      "inputs": [
        {
          "internalType": "address",
          "name": "from",
          "type": "address"
        },
        {
          "internalType": "address",
          "name": "to",
          "type": "address"
        },
        {
          "internalType": "uint256",
          "name": "tokenId",
          "type": "uint256"
        }
      ],
      "name": "transferFrom",
      "outputs": [],
      "stateMutability": "nonpayable",
      "type": "function"
    },
    {
      "inputs": [
        {
          "internalType": "address",
          "name": "newOwner",
          "type": "address"
        }
      ],
      "name": "transferOwnership",
      "outputs": [],
      "stateMutability": "nonpayable",
      "type": "function"
    }
  ],
  "transactionHash": "0x9bbc978529f2a6e1762908aa18067a712b1d376ede6982d38088fb7d8e19ca8b",
  "args": [
    "BudgetNFT Example",
    "SFBudget",
    "0xF0d7d1D47109bA426B9D8A3Cde1941327af1eea3",
    "0xECa8056809e7e8db04A8fF6e4E82cD889a46FE2F",
    "0xe3CB950Cb164a31C66e32c320A800D477019DCFF"
  ],
  "solcInputHash": "b8e5ef32d2ca682dc7e812ada4e088cc",
  "bytecode": "0x60806040523480156200001157600080fd5b5060405162002991380380620029918339810160408190526200003491620002de565b8451859085906200004d9060009060208501906200018d565b508051620000639060019060208401906200018d565b505050620000806200007a6200013760201b60201c565b6200013b565b600780546001600160a01b038086166001600160a01b0319928316179283905560088054868316908416179055600980548583169316929092179091556000600b5516620000de57634e487b7160e01b600052600160045260246000fd5b6008546001600160a01b03166200010557634e487b7160e01b600052600160045260246000fd5b6009546001600160a01b03166200012c57634e487b7160e01b600052600160045260246000fd5b5050505050620003f3565b3390565b600680546001600160a01b038381166001600160a01b0319831681179093556040519116919082907f8be0079c531659141344cd1fd0a4f28419497f9722a3daafe3b4186f6b6457e090600090a35050565b8280546200019b9062000387565b90600052602060002090601f016020900481019282620001bf57600085556200020a565b82601f10620001da57805160ff19168380011785556200020a565b828001600101855582156200020a579182015b828111156200020a578251825591602001919060010190620001ed565b50620002189291506200021c565b5090565b5b808211156200021857600081556001016200021d565b600082601f83011262000244578081fd5b81516001600160401b0380821115620002615762000261620003c4565b6040516020601f8401601f1916820181018381118382101715620002895762000289620003c4565b6040528382528584018101871015620002a0578485fd5b8492505b83831015620002c35785830181015182840182015291820191620002a4565b83831115620002d457848185840101525b5095945050505050565b600080600080600060a08688031215620002f6578081fd5b85516001600160401b03808211156200030d578283fd5b6200031b89838a0162000233565b9650602088015191508082111562000331578283fd5b50620003408882890162000233565b94505060408601516200035381620003da565b60608701519093506200036681620003da565b60808701519092506200037981620003da565b809150509295509295909350565b6002810460018216806200039c57607f821691505b60208210811415620003be57634e487b7160e01b600052602260045260246000fd5b50919050565b634e487b7160e01b600052604160045260246000fd5b6001600160a01b0381168114620003f057600080fd5b50565b61258e80620004036000396000f3fe608060405234801561001057600080fd5b50600436106101585760003560e01c806370a08231116100c3578063a22cb4651161007c578063a22cb465146102bd578063b88d4fde146102d0578063c87b56dd146102e3578063e925b2ab146102f6578063e985e9c514610309578063f2fde38b1461031c57610158565b806370a082311461025f578063715018a61461027257806379bcb8df1461027a5780638da5cb5b1461029a57806393a30c44146102a257806395d89b41146102b557610158565b80632890e0d7116101155780632890e0d7146101f65780632a081a061461020957806342842e0e1461021c5780634e5b3c7c1461022f57806361b8ce8c146102375780636352211e1461024c57610158565b806301ffc9a71461015d57806306fdde0314610186578063081812fc1461019b578063095ea7b3146101bb578063116614b0146101d057806323b872dd146101e3575b600080fd5b61017061016b3660046119fe565b61032f565b60405161017d9190611bef565b60405180910390f35b61018e610377565b60405161017d9190611cdc565b6101ae6101a9366004611aa9565b610409565b60405161017d9190611b9e565b6101ce6101c93660046119b9565b610455565b005b6101ce6101de366004611ac1565b6104ed565b6101ce6101f136600461187a565b6105bd565b6101ce610204366004611aa9565b6105f5565b6101ce61021736600461198e565b61067f565b6101ce61022a36600461187a565b6106c8565b6101ae6106e3565b61023f6106f2565b60405161017d91906122f0565b6101ae61025a366004611aa9565b6106f8565b61023f61026d36600461182e565b61072d565b6101ce610771565b61028d610288366004611aa9565b6107bc565b60405161017d9190611cce565b6101ae6107d1565b6101ce6102b0366004611ac1565b6107e0565b61018e610900565b6101ce6102cb366004611958565b61090f565b6101ce6102de3660046118b5565b6109dd565b61018e6102f1366004611aa9565b610a1c565b6101ce610304366004611b22565b610a9f565b610170610317366004611848565b610b87565b6101ce61032a36600461182e565b610bb5565b60006001600160e01b031982166380ac58cd60e01b148061036057506001600160e01b03198216635b5e139f60e01b145b8061036f575061036f82610c26565b90505b919050565b60606000805461038690612479565b80601f01602080910402602001604051908101604052809291908181526020018280546103b290612479565b80156103ff5780601f106103d4576101008083540402835291602001916103ff565b820191906000526020600020905b8154815290600101906020018083116103e257829003601f168201915b5050505050905090565b600061041482610c3f565b6104395760405162461bcd60e51b815260040161043090612068565b60405180910390fd5b506000908152600460205260409020546001600160a01b031690565b6000610460826106f8565b9050806001600160a01b0316836001600160a01b031614156104945760405162461bcd60e51b8152600401610430906121b6565b806001600160a01b03166104a6610c5c565b6001600160a01b031614806104c257506104c281610317610c5c565b6104de5760405162461bcd60e51b815260040161043090611f01565b6104e88383610c60565b505050565b6104f6826106f8565b6001600160a01b0316336001600160a01b0316146105265760405162461bcd60e51b8152600401610430906122bb565b6000828152600a6020526040902054600b90810b810b9082900b1261055d5760405162461bcd60e51b815260040161043090612227565b6000828152600a60205260408120805483929061057e908490600b0b6123e7565b92506101000a8154816001600160601b030219169083600b0b6001600160601b031602179055506105af3382610cce565b6105b93382610db3565b5050565b6105ce6105c8610c5c565b82610e9a565b6105ea5760405162461bcd60e51b81526004016104309061226a565b6104e8838383610f1f565b6105fd610c5c565b6001600160a01b031661060e6107d1565b6001600160a01b0316146106345760405162461bcd60e51b8152600401610430906120b4565b8061063e81610c3f565b61065a5760405162461bcd60e51b815260040161043090611cef565b6000828152600a6020526040902080546001600160601b03191690556105b98261104c565b610687610c5c565b6001600160a01b03166106986107d1565b6001600160a01b0316146106be5760405162461bcd60e51b8152600401610430906120b4565b6105b98282610db3565b6104e8838383604051806020016040528060008152506109dd565b6009546001600160a01b031681565b600b5481565b6000818152600260205260408120546001600160a01b03168061036f5760405162461bcd60e51b815260040161043090611fa8565b60006001600160a01b0382166107555760405162461bcd60e51b815260040161043090611f5e565b506001600160a01b031660009081526003602052604090205490565b610779610c5c565b6001600160a01b031661078a6107d1565b6001600160a01b0316146107b05760405162461bcd60e51b8152600401610430906120b4565b6107ba60006110f3565b565b600a60205260009081526040902054600b0b81565b6006546001600160a01b031690565b6107e8610c5c565b6001600160a01b03166107f96107d1565b6001600160a01b03161461081f5760405162461bcd60e51b8152600401610430906120b4565b8161082981610c3f565b6108455760405162461bcd60e51b815260040161043090611cef565b600082600b0b136108685760405162461bcd60e51b815260040161043090611eca565b6000610873846106f8565b905082600b0b600014156108a3576000848152600a602052604090205461089e908290600b0b610cce565b6108ca565b6000848152600a60205260409020546108ca9082906108c590600b0b866123e7565b611145565b50506000918252600a60205260409091208054600b9290920b6001600160601b03166001600160601b0319909216919091179055565b60606001805461038690612479565b610917610c5c565b6001600160a01b0316826001600160a01b031614156109485760405162461bcd60e51b815260040161043090611e47565b8060056000610955610c5c565b6001600160a01b03908116825260208083019390935260409182016000908120918716808252919093529120805460ff191692151592909217909155610999610c5c565b6001600160a01b03167f17307eab39ab6107e8899845ad3d59bd9653f200f220920489ca2b5937696c31836040516109d19190611bef565b60405180910390a35050565b6109ee6109e8610c5c565b83610e9a565b610a0a5760405162461bcd60e51b81526004016104309061226a565b610a16848484846111fa565b50505050565b6060610a2782610c3f565b610a435760405162461bcd60e51b815260040161043090612132565b6000610a4d61122d565b90506000815111610a6d5760405180602001604052806000815250610a98565b80610a778461123f565b604051602001610a88929190611b6f565b6040516020818303038152906040525b9392505050565b610aa8826106f8565b6001600160a01b0316336001600160a01b031614610ad85760405162461bcd60e51b815260040161043090612181565b610ae1816106f8565b6001600160a01b0316336001600160a01b031614610b115760405162461bcd60e51b815260040161043090612181565b6000818152600a6020526040808220548483529082208054600b92830b939192610b3d9185910b61236d565b8254600b9190910b6001600160601b039081166101009390930a92830292021916179055506000818152600a6020526040902080546001600160601b03191690556105b98161104c565b6001600160a01b03918216600090815260056020908152604080832093909416825291909152205460ff1690565b610bbd610c5c565b6001600160a01b0316610bce6107d1565b6001600160a01b031614610bf45760405162461bcd60e51b8152600401610430906120b4565b6001600160a01b038116610c1a5760405162461bcd60e51b815260040161043090611d86565b610c23816110f3565b50565b6001600160e01b031981166301ffc9a760e01b14919050565b6000908152600260205260409020546001600160a01b0316151590565b3390565b600081815260046020526040902080546001600160a01b0319166001600160a01b0384169081179091558190610c95826106f8565b6001600160a01b03167f8c5be1e5ebec7d5bd14f71427d1e84f3dd0314c0f7b2291e5b200ac8c7c3b92560405160405180910390a45050565b6001600160a01b038216301415610ce4576105b9565b600854600954604051631cd43d1160e31b81526000926001600160a01b039081169263e6a1e88892610d20929091169030908890600401611c41565b60806040518083038186803b158015610d3857600080fd5b505afa158015610d4c573d6000803e3d6000fd5b505050506040513d601f19601f82011682018060405250810190610d709190611ae5565b505091505081600b0b81600b0b1415610d9257610d8d308461135a565b6104e8565b81600b0b81600b0b13156104e8576104e883610dae84846123e7565b611441565b6001600160a01b038216301415610ddc5760405162461bcd60e51b8152600401610430906121f7565b600081600b0b13610dff5760405162461bcd60e51b815260040161043090611eca565b600b80546000908152600a602052604080822080546001600160601b0319166001600160601b0386860b161790558254808352918190205490517f6e89a354929848553af9a2898855fe0486bb36807f1512041a8fcf8e19f4a58493610e6a93928792910b906122f9565b60405180910390a1610e7e82600b546114d4565b6001600b6000828254610e9191906123bb565b90915550505050565b6000610ea582610c3f565b610ec15760405162461bcd60e51b815260040161043090611e7e565b6000610ecc836106f8565b9050806001600160a01b0316846001600160a01b03161480610f075750836001600160a01b0316610efc84610409565b6001600160a01b0316145b80610f175750610f178185610b87565b949350505050565b826001600160a01b0316610f32826106f8565b6001600160a01b031614610f585760405162461bcd60e51b8152600401610430906120e9565b6001600160a01b038216610f7e5760405162461bcd60e51b815260040161043090611e03565b610f898383836115b3565b610f94600082610c60565b6001600160a01b0383166000908152600360205260408120805460019290610fbd908490612436565b90915550506001600160a01b0382166000908152600360205260408120805460019290610feb9084906123bb565b909155505060008181526002602052604080822080546001600160a01b0319166001600160a01b0386811691821790925591518493918716917fddf252ad1be2c89b69c2b068fc378daa952ba7f163c4a11628f55a4df523b3ef91a4505050565b6000611057826106f8565b9050611065816000846115b3565b611070600083610c60565b6001600160a01b0381166000908152600360205260408120805460019290611099908490612436565b909155505060008281526002602052604080822080546001600160a01b0319169055518391906001600160a01b038416907fddf252ad1be2c89b69c2b068fc378daa952ba7f163c4a11628f55a4df523b3ef908390a45050565b600680546001600160a01b038381166001600160a01b0319831681179093556040519116919082907f8be0079c531659141344cd1fd0a4f28419497f9722a3daafe3b4186f6b6457e090600090a35050565b600854600954604051631cd43d1160e31b81526000926001600160a01b039081169263e6a1e88892611181929091169030908890600401611c41565b60806040518083038186803b15801561119957600080fd5b505afa1580156111ad573d6000803e3d6000fd5b505050506040513d601f19601f820116820180604052508101906111d19190611ae5565b505091505080600b0b600014156111ec57610d8d838361169d565b6104e883610dae848461236d565b611205848484610f1f565b611211848484846116f6565b610a165760405162461bcd60e51b815260040161043090611d34565b60408051602081019091526000815290565b60608161126457506040805180820190915260018152600360fc1b6020820152610372565b8160005b811561128e5780611278816124b4565b91506112879050600a836123d3565b9150611268565b60008167ffffffffffffffff8111156112b757634e487b7160e01b600052604160045260246000fd5b6040519080825280601f01601f1916602001820160405280156112e1576020820181803683370190505b5090505b8415610f17576112f6600183612436565b9150611303600a866124cf565b61130e9060306123bb565b60f81b81838151811061133157634e487b7160e01b600052603260045260246000fd5b60200101906001600160f81b031916908160001a905350611353600a866123d3565b94506112e5565b6007546008546009546040805160008152602081019091526001600160a01b03938416936339255d5b93811692635a5999e360e11b926113a592909116908890889060448101611c64565b60408051601f198184030181529181526020820180516001600160e01b03166001600160e01b03199485161790525160e085901b90921682526113eb9291600401611bfa565b600060405180830381600087803b15801561140557600080fd5b505af1158015611419573d6000803e3d6000fd5b505050506040513d6000823e601f3d908101601f191682016040526104e89190810190611a36565b6001600160a01b03821630148061145f57506001600160a01b038216155b15611469576105b9565b6007546008546009546001600160a01b03928316926339255d5b928116916328104d3160e11b9116868660005b6040519080825280601f01601f1916602001820160405280156114c0576020820181803683370190505b506040516024016113a59493929190611c98565b6001600160a01b0382166114fa5760405162461bcd60e51b815260040161043090612033565b61150381610c3f565b156115205760405162461bcd60e51b815260040161043090611dcc565b61152c600083836115b3565b6001600160a01b03821660009081526003602052604081208054600192906115559084906123bb565b909155505060008181526002602052604080822080546001600160a01b0319166001600160a01b03861690811790915590518392907fddf252ad1be2c89b69c2b068fc378daa952ba7f163c4a11628f55a4df523b3ef908290a45050565b600754604051631e51d6a760e11b81526001600160a01b0390911690633ca3ad4e906115e3908590600401611b9e565b60206040518083038186803b1580156115fb57600080fd5b505afa15801561160f573d6000803e3d6000fd5b505050506040513d601f19601f8201168201806040525081019061163391906119e2565b158061164757506001600160a01b03821630145b6116635760405162461bcd60e51b815260040161043090611ff1565b6000818152600a6020526040902054611680908490600b0b610cce565b6000818152600a60205260409020546104e8908390600b0b611145565b6001600160a01b0382163014806116bb57506001600160a01b038216155b156116c5576105b9565b6007546008546009546001600160a01b03928316926339255d5b9281169163317e182f60e11b911686866000611496565b600061170a846001600160a01b0316611811565b1561180657836001600160a01b031663150b7a02611726610c5c565b8786866040518563ffffffff1660e01b81526004016117489493929190611bb2565b602060405180830381600087803b15801561176257600080fd5b505af1925050508015611792575060408051601f3d908101601f1916820190925261178f91810190611a1a565b60015b6117ec573d8080156117c0576040519150601f19603f3d011682016040523d82523d6000602084013e6117c5565b606091505b5080516117e45760405162461bcd60e51b815260040161043090611d34565b805181602001fd5b6001600160e01b031916630a85bd0160e11b149050610f17565b506001949350505050565b3b151590565b80356001600160a01b038116811461037257600080fd5b60006020828403121561183f578081fd5b610a9882611817565b6000806040838503121561185a578081fd5b61186383611817565b915061187160208401611817565b90509250929050565b60008060006060848603121561188e578081fd5b61189784611817565b92506118a560208501611817565b9150604084013590509250925092565b600080600080608085870312156118ca578081fd5b6118d385611817565b93506118e160208601611817565b925060408501359150606085013567ffffffffffffffff811115611903578182fd5b8501601f81018713611913578182fd5b803561192661192182612345565b61231b565b81815288602083850101111561193a578384fd5b81602084016020830137908101602001929092525092959194509250565b6000806040838503121561196a578182fd5b61197383611817565b9150602083013561198381612525565b809150509250929050565b600080604083850312156119a0578182fd5b6119a983611817565b9150602083013561198381612549565b600080604083850312156119cb578182fd5b6119d483611817565b946020939093013593505050565b6000602082840312156119f3578081fd5b8151610a9881612525565b600060208284031215611a0f578081fd5b8135610a9881612533565b600060208284031215611a2b578081fd5b8151610a9881612533565b600060208284031215611a47578081fd5b815167ffffffffffffffff811115611a5d578182fd5b8201601f81018413611a6d578182fd5b8051611a7b61192182612345565b818152856020838501011115611a8f578384fd5b611aa082602083016020860161244d565b95945050505050565b600060208284031215611aba578081fd5b5035919050565b60008060408385031215611ad3578182fd5b82359150602083013561198381612549565b60008060008060808587031215611afa578182fd5b845193506020850151611b0c81612549565b6040860151606090960151949790965092505050565b60008060408385031215611b34578182fd5b50508035926020909101359150565b60008151808452611b5b81602086016020860161244d565b601f01601f19169290920160200192915050565b60008351611b8181846020880161244d565b835190830190611b9581836020880161244d565b01949350505050565b6001600160a01b0391909116815260200190565b6001600160a01b0385811682528416602082015260408101839052608060608201819052600090611be590830184611b43565b9695505050505050565b901515815260200190565b6001600160a01b0383168152606060208201819052600090611c1e90830184611b43565b8281036040938401526002815261060f60f31b6020820152919091019392505050565b6001600160a01b0393841681529183166020830152909116604082015260600190565b6001600160a01b038581168252848116602083015283166040820152608060608201819052600090611be590830184611b43565b6001600160a01b03858116825284166020820152600b83900b6040820152608060608201819052600090611be590830184611b43565b600b9190910b815260200190565b600060208252610a986020830184611b43565b60208082526025908201527f746f6b656e20646f65736e2774206578697374206f7220686173206265656e20604082015264189d5c9b9d60da1b606082015260800190565b60208082526032908201527f4552433732313a207472616e7366657220746f206e6f6e20455243373231526560408201527131b2b4bb32b91034b6b83632b6b2b73a32b960711b606082015260800190565b60208082526026908201527f4f776e61626c653a206e6577206f776e657220697320746865207a65726f206160408201526564647265737360d01b606082015260800190565b6020808252601c908201527f4552433732313a20746f6b656e20616c7265616479206d696e74656400000000604082015260600190565b60208082526024908201527f4552433732313a207472616e7366657220746f20746865207a65726f206164646040820152637265737360e01b606082015260800190565b60208082526019908201527f4552433732313a20617070726f766520746f2063616c6c657200000000000000604082015260600190565b6020808252602c908201527f4552433732313a206f70657261746f7220717565727920666f72206e6f6e657860408201526b34b9ba32b73a103a37b5b2b760a11b606082015260800190565b6020808252601a908201527f666c6f7752617465206d75737420626520706f73697469766521000000000000604082015260600190565b60208082526038908201527f4552433732313a20617070726f76652063616c6c6572206973206e6f74206f7760408201527f6e6572206e6f7220617070726f76656420666f7220616c6c0000000000000000606082015260800190565b6020808252602a908201527f4552433732313a2062616c616e636520717565727920666f7220746865207a65604082015269726f206164647265737360b01b606082015260800190565b60208082526029908201527f4552433732313a206f776e657220717565727920666f72206e6f6e657869737460408201526832b73a103a37b5b2b760b91b606082015260800190565b60208082526022908201527f4e65772072656365697665722063616e206e6f74206265206120737570657241604082015261070760f41b606082015260800190565b6020808252818101527f4552433732313a206d696e7420746f20746865207a65726f2061646472657373604082015260600190565b6020808252602c908201527f4552433732313a20617070726f76656420717565727920666f72206e6f6e657860408201526b34b9ba32b73a103a37b5b2b760a11b606082015260800190565b6020808252818101527f4f776e61626c653a2063616c6c6572206973206e6f7420746865206f776e6572604082015260600190565b60208082526029908201527f4552433732313a207472616e73666572206f6620746f6b656e2074686174206960408201526839903737ba1037bbb760b91b606082015260800190565b6020808252602f908201527f4552433732314d657461646174613a2055524920717565727920666f72206e6f60408201526e3732bc34b9ba32b73a103a37b5b2b760891b606082015260800190565b6020808252818101527f43616e2774206564697420736f6d656f6e6520656c736527732073747265616d604082015260600190565b60208082526021908201527f4552433732313a20617070726f76616c20746f2063757272656e74206f776e656040820152603960f91b606082015260800190565b602080825260169082015275497373756520746f2061206e6577206164647265737360501b604082015260600190565b60208082526023908201527f6e657720666c6f77206d757374206265206c657373207468616e206f6c6420666040820152626c6f7760e81b606082015260800190565b60208082526031908201527f4552433732313a207472616e736665722063616c6c6572206973206e6f74206f6040820152701ddb995c881b9bdc88185c1c1c9bdd9959607a1b606082015260800190565b6020808252818101527f63616e2774206564697420736f6d656f6e6520656c736527732073747265616d604082015260600190565b90815260200190565b9283526001600160a01b03919091166020830152600b0b604082015260600190565b60405181810167ffffffffffffffff8111828210171561233d5761233d61250f565b604052919050565b600067ffffffffffffffff82111561235f5761235f61250f565b50601f01601f191660200190565b600081600b0b83600b0b8282128260016001605f1b0303821381151615612396576123966124e3565b8260016001605f1b03190382128116156123b2576123b26124e3565b50019392505050565b600082198211156123ce576123ce6124e3565b500190565b6000826123e2576123e26124f9565b500490565b600081600b0b83600b0b8281128160016001605f1b031901831281151615612411576124116124e3565b8160016001605f1b0301831381161561242c5761242c6124e3565b5090039392505050565b600082821015612448576124486124e3565b500390565b60005b83811015612468578181015183820152602001612450565b83811115610a165750506000910152565b60028104600182168061248d57607f821691505b602082108114156124ae57634e487b7160e01b600052602260045260246000fd5b50919050565b60006000198214156124c8576124c86124e3565b5060010190565b6000826124de576124de6124f9565b500690565b634e487b7160e01b600052601160045260246000fd5b634e487b7160e01b600052601260045260246000fd5b634e487b7160e01b600052604160045260246000fd5b8015158114610c2357600080fd5b6001600160e01b031981168114610c2357600080fd5b80600b0b8114610c2357600080fdfea2646970667358221220b6d39d9ec49828fa0a5eff57b5ee2fb51c4b32dcc88504f038c7cf13a39400cb64736f6c63430008000033",
  "devdoc": {
    "kind": "dev",
    "methods": {
      "approve(address,uint256)": {
        "details": "See {IERC721-approve}."
      },
      "balanceOf(address)": {
        "details": "See {IERC721-balanceOf}."
      },
      "getApproved(uint256)": {
        "details": "See {IERC721-getApproved}."
      },
      "isApprovedForAll(address,address)": {
        "details": "See {IERC721-isApprovedForAll}."
      },
      "name()": {
        "details": "See {IERC721Metadata-name}."
      },
      "owner()": {
        "details": "Returns the address of the current owner."
      },
      "ownerOf(uint256)": {
        "details": "See {IERC721-ownerOf}."
      },
      "renounceOwnership()": {
        "details": "Leaves the contract without owner. It will not be possible to call `onlyOwner` functions anymore. Can only be called by the current owner. NOTE: Renouncing ownership will leave the contract without an owner, thereby removing any functionality that is only available to the owner."
      },
      "safeTransferFrom(address,address,uint256)": {
        "details": "See {IERC721-safeTransferFrom}."
      },
      "safeTransferFrom(address,address,uint256,bytes)": {
        "details": "See {IERC721-safeTransferFrom}."
      },
      "setApprovalForAll(address,bool)": {
        "details": "See {IERC721-setApprovalForAll}."
      },
      "supportsInterface(bytes4)": {
        "details": "See {IERC165-supportsInterface}."
      },
      "symbol()": {
        "details": "See {IERC721Metadata-symbol}."
      },
      "tokenURI(uint256)": {
        "details": "See {IERC721Metadata-tokenURI}."
      },
      "transferFrom(address,address,uint256)": {
        "details": "See {IERC721-transferFrom}."
      },
      "transferOwnership(address)": {
        "details": "Transfers ownership of the contract to a new account (`newOwner`). Can only be called by the current owner."
      }
    },
    "version": 1
  },
  "userdoc": {
    "kind": "user",
    "methods": {},
    "version": 1
  },
  "storageLayout": {
    "storage": [
      {
        "astId": 207,
        "contract": "contracts/BudgetNFT.sol:BudgetNFT",
        "label": "_name",
        "offset": 0,
        "slot": "0",
        "type": "t_string_storage"
      },
      {
        "astId": 209,
        "contract": "contracts/BudgetNFT.sol:BudgetNFT",
        "label": "_symbol",
        "offset": 0,
        "slot": "1",
        "type": "t_string_storage"
      },
      {
        "astId": 213,
        "contract": "contracts/BudgetNFT.sol:BudgetNFT",
        "label": "_owners",
        "offset": 0,
        "slot": "2",
        "type": "t_mapping(t_uint256,t_address)"
      },
      {
        "astId": 217,
        "contract": "contracts/BudgetNFT.sol:BudgetNFT",
        "label": "_balances",
        "offset": 0,
        "slot": "3",
        "type": "t_mapping(t_address,t_uint256)"
      },
      {
        "astId": 221,
        "contract": "contracts/BudgetNFT.sol:BudgetNFT",
        "label": "_tokenApprovals",
        "offset": 0,
        "slot": "4",
        "type": "t_mapping(t_uint256,t_address)"
      },
      {
        "astId": 227,
        "contract": "contracts/BudgetNFT.sol:BudgetNFT",
        "label": "_operatorApprovals",
        "offset": 0,
        "slot": "5",
        "type": "t_mapping(t_address,t_mapping(t_address,t_bool))"
      },
      {
        "astId": 7,
        "contract": "contracts/BudgetNFT.sol:BudgetNFT",
        "label": "_owner",
        "offset": 0,
        "slot": "6",
        "type": "t_address"
      },
      {
        "astId": 3767,
        "contract": "contracts/BudgetNFT.sol:BudgetNFT",
        "label": "_host",
        "offset": 0,
        "slot": "7",
        "type": "t_contract(ISuperfluid)3376"
      },
      {
        "astId": 3770,
        "contract": "contracts/BudgetNFT.sol:BudgetNFT",
        "label": "_cfa",
        "offset": 0,
        "slot": "8",
        "type": "t_contract(IConstantFlowAgreementV1)2046"
      },
      {
        "astId": 3773,
        "contract": "contracts/BudgetNFT.sol:BudgetNFT",
        "label": "_acceptedToken",
        "offset": 0,
        "slot": "9",
        "type": "t_contract(ISuperToken)2842"
      },
      {
        "astId": 3777,
        "contract": "contracts/BudgetNFT.sol:BudgetNFT",
        "label": "flowRates",
        "offset": 0,
        "slot": "10",
        "type": "t_mapping(t_uint256,t_int96)"
      },
      {
        "astId": 3779,
        "contract": "contracts/BudgetNFT.sol:BudgetNFT",
        "label": "nextId",
        "offset": 0,
        "slot": "11",
        "type": "t_uint256"
      }
    ],
    "types": {
      "t_address": {
        "encoding": "inplace",
        "label": "address",
        "numberOfBytes": "20"
      },
      "t_bool": {
        "encoding": "inplace",
        "label": "bool",
        "numberOfBytes": "1"
      },
      "t_contract(IConstantFlowAgreementV1)2046": {
        "encoding": "inplace",
        "label": "contract IConstantFlowAgreementV1",
        "numberOfBytes": "20"
      },
      "t_contract(ISuperToken)2842": {
        "encoding": "inplace",
        "label": "contract ISuperToken",
        "numberOfBytes": "20"
      },
      "t_contract(ISuperfluid)3376": {
        "encoding": "inplace",
        "label": "contract ISuperfluid",
        "numberOfBytes": "20"
      },
      "t_int96": {
        "encoding": "inplace",
        "label": "int96",
        "numberOfBytes": "12"
      },
      "t_mapping(t_address,t_bool)": {
        "encoding": "mapping",
        "key": "t_address",
        "label": "mapping(address => bool)",
        "numberOfBytes": "32",
        "value": "t_bool"
      },
      "t_mapping(t_address,t_mapping(t_address,t_bool))": {
        "encoding": "mapping",
        "key": "t_address",
        "label": "mapping(address => mapping(address => bool))",
        "numberOfBytes": "32",
        "value": "t_mapping(t_address,t_bool)"
      },
      "t_mapping(t_address,t_uint256)": {
        "encoding": "mapping",
        "key": "t_address",
        "label": "mapping(address => uint256)",
        "numberOfBytes": "32",
        "value": "t_uint256"
      },
      "t_mapping(t_uint256,t_address)": {
        "encoding": "mapping",
        "key": "t_uint256",
        "label": "mapping(uint256 => address)",
        "numberOfBytes": "32",
        "value": "t_address"
      },
      "t_mapping(t_uint256,t_int96)": {
        "encoding": "mapping",
        "key": "t_uint256",
        "label": "mapping(uint256 => int96)",
        "numberOfBytes": "32",
        "value": "t_int96"
      },
      "t_string_storage": {
        "encoding": "bytes",
        "label": "string",
        "numberOfBytes": "32"
      },
      "t_uint256": {
        "encoding": "inplace",
        "label": "uint256",
        "numberOfBytes": "32"
      }
    }
  }
}