{
  "address": "0xc335936FA331834bDe68beC5D2884c7E826204fB",
  "abi": [
    {
      "inputs": [
        {
          "internalType": "string",
          "name": "_name",
          "type": "string"
        },
        {
          "internalType": "string",
          "name": "_symbol",
          "type": "string"
        },
        {
          "internalType": "contract ISuperfluid",
          "name": "host",
          "type": "address"
        },
        {
          "internalType": "contract IConstantFlowAgreementV1",
          "name": "cfa",
          "type": "address"
        },
        {
          "internalType": "contract ISuperToken",
          "name": "acceptedToken",
          "type": "address"
        }
      ],
      "stateMutability": "nonpayable",
      "type": "constructor"
    },
    {
      "anonymous": false,
      "inputs": [
        {
          "indexed": true,
          "internalType": "address",
          "name": "owner",
          "type": "address"
        },
        {
          "indexed": true,
          "internalType": "address",
          "name": "approved",
          "type": "address"
        },
        {
          "indexed": true,
          "internalType": "uint256",
          "name": "tokenId",
          "type": "uint256"
        }
      ],
      "name": "Approval",
      "type": "event"
    },
    {
      "anonymous": false,
      "inputs": [
        {
          "indexed": true,
          "internalType": "address",
          "name": "owner",
          "type": "address"
        },
        {
          "indexed": true,
          "internalType": "address",
          "name": "operator",
          "type": "address"
        },
        {
          "indexed": false,
          "internalType": "bool",
          "name": "approved",
          "type": "bool"
        }
      ],
      "name": "ApprovalForAll",
      "type": "event"
    },
    {
      "anonymous": false,
      "inputs": [
        {
          "indexed": false,
          "internalType": "uint256",
          "name": "tokenId",
          "type": "uint256"
        },
        {
          "indexed": false,
          "internalType": "address",
          "name": "receiver",
          "type": "address"
        },
        {
          "indexed": false,
          "internalType": "int96",
          "name": "flowRate",
          "type": "int96"
        }
      ],
      "name": "NFTIssued",
      "type": "event"
    },
    {
      "anonymous": false,
      "inputs": [
        {
          "indexed": true,
          "internalType": "address",
          "name": "previousOwner",
          "type": "address"
        },
        {
          "indexed": true,
          "internalType": "address",
          "name": "newOwner",
          "type": "address"
        }
      ],
      "name": "OwnershipTransferred",
      "type": "event"
    },
    {
      "anonymous": false,
      "inputs": [
        {
          "indexed": true,
          "internalType": "address",
          "name": "from",
          "type": "address"
        },
        {
          "indexed": true,
          "internalType": "address",
          "name": "to",
          "type": "address"
        },
        {
          "indexed": true,
          "internalType": "uint256",
          "name": "tokenId",
          "type": "uint256"
        }
      ],
      "name": "Transfer",
      "type": "event"
    },
    {
      "inputs": [],
      "name": "_acceptedToken",
      "outputs": [
        {
          "internalType": "contract ISuperToken",
          "name": "",
          "type": "address"
        }
      ],
      "stateMutability": "view",
      "type": "function"
    },
    {
      "inputs": [
        {
          "internalType": "address",
          "name": "to",
          "type": "address"
        },
        {
          "internalType": "uint256",
          "name": "tokenId",
          "type": "uint256"
        }
      ],
      "name": "approve",
      "outputs": [],
      "stateMutability": "nonpayable",
      "type": "function"
    },
    {
      "inputs": [
        {
          "internalType": "address",
          "name": "owner",
          "type": "address"
        }
      ],
      "name": "balanceOf",
      "outputs": [
        {
          "internalType": "uint256",
          "name": "",
          "type": "uint256"
        }
      ],
      "stateMutability": "view",
      "type": "function"
    },
    {
      "inputs": [],
      "name": "baseURI",
      "outputs": [
        {
          "internalType": "string",
          "name": "",
          "type": "string"
        }
      ],
      "stateMutability": "view",
      "type": "function"
    },
    {
      "inputs": [
        {
          "internalType": "uint256",
          "name": "tokenId",
          "type": "uint256"
        }
      ],
      "name": "burnNFT",
      "outputs": [],
      "stateMutability": "nonpayable",
      "type": "function"
    },
    {
      "inputs": [
        {
          "internalType": "uint256",
          "name": "tokenId",
          "type": "uint256"
        },
        {
          "internalType": "int96",
          "name": "flowRate",
          "type": "int96"
        }
      ],
      "name": "editNFT",
      "outputs": [],
      "stateMutability": "nonpayable",
      "type": "function"
    },
    {
      "inputs": [
        {
          "internalType": "uint256",
          "name": "",
          "type": "uint256"
        }
      ],
      "name": "flowRates",
      "outputs": [
        {
          "internalType": "int96",
          "name": "",
          "type": "int96"
        }
      ],
      "stateMutability": "view",
      "type": "function"
    },
    {
      "inputs": [
        {
          "internalType": "uint256",
          "name": "tokenId",
          "type": "uint256"
        }
      ],
      "name": "getApproved",
      "outputs": [
        {
          "internalType": "address",
          "name": "",
          "type": "address"
        }
      ],
      "stateMutability": "view",
      "type": "function"
    },
    {
      "inputs": [
        {
          "internalType": "address",
          "name": "owner",
          "type": "address"
        },
        {
          "internalType": "address",
          "name": "operator",
          "type": "address"
        }
      ],
      "name": "isApprovedForAll",
      "outputs": [
        {
          "internalType": "bool",
          "name": "",
          "type": "bool"
        }
      ],
      "stateMutability": "view",
      "type": "function"
    },
    {
      "inputs": [
        {
          "internalType": "address",
          "name": "receiver",
          "type": "address"
        },
        {
          "internalType": "int96",
          "name": "flowRate",
          "type": "int96"
        }
      ],
      "name": "issueNFT",
      "outputs": [],
      "stateMutability": "nonpayable",
      "type": "function"
    },
    {
      "inputs": [
        {
          "internalType": "uint256",
          "name": "tokenId1",
          "type": "uint256"
        },
        {
          "internalType": "uint256",
          "name": "tokenId2",
          "type": "uint256"
        }
      ],
      "name": "mergeStreams",
      "outputs": [],
      "stateMutability": "nonpayable",
      "type": "function"
    },
    {
      "inputs": [],
      "name": "name",
      "outputs": [
        {
          "internalType": "string",
          "name": "",
          "type": "string"
        }
      ],
      "stateMutability": "view",
      "type": "function"
    },
    {
      "inputs": [],
      "name": "nextId",
      "outputs": [
        {
          "internalType": "uint256",
          "name": "",
          "type": "uint256"
        }
      ],
      "stateMutability": "view",
      "type": "function"
    },
    {
      "inputs": [],
      "name": "owner",
      "outputs": [
        {
          "internalType": "address",
          "name": "",
          "type": "address"
        }
      ],
      "stateMutability": "view",
      "type": "function"
    },
    {
      "inputs": [
        {
          "internalType": "uint256",
          "name": "tokenId",
          "type": "uint256"
        }
      ],
      "name": "ownerOf",
      "outputs": [
        {
          "internalType": "address",
          "name": "",
          "type": "address"
        }
      ],
      "stateMutability": "view",
      "type": "function"
    },
    {
      "inputs": [],
      "name": "renounceOwnership",
      "outputs": [],
      "stateMutability": "nonpayable",
      "type": "function"
    },
    {
      "inputs": [
        {
          "internalType": "address",
          "name": "from",
          "type": "address"
        },
        {
          "internalType": "address",
          "name": "to",
          "type": "address"
        },
        {
          "internalType": "uint256",
          "name": "tokenId",
          "type": "uint256"
        }
      ],
      "name": "safeTransferFrom",
      "outputs": [],
      "stateMutability": "nonpayable",
      "type": "function"
    },
    {
      "inputs": [
        {
          "internalType": "address",
          "name": "from",
          "type": "address"
        },
        {
          "internalType": "address",
          "name": "to",
          "type": "address"
        },
        {
          "internalType": "uint256",
          "name": "tokenId",
          "type": "uint256"
        },
        {
          "internalType": "bytes",
          "name": "_data",
          "type": "bytes"
        }
      ],
      "name": "safeTransferFrom",
      "outputs": [],
      "stateMutability": "nonpayable",
      "type": "function"
    },
    {
      "inputs": [
        {
          "internalType": "address",
          "name": "operator",
          "type": "address"
        },
        {
          "internalType": "bool",
          "name": "approved",
          "type": "bool"
        }
      ],
      "name": "setApprovalForAll",
      "outputs": [],
      "stateMutability": "nonpayable",
      "type": "function"
    },
    {
      "inputs": [
        {
          "internalType": "uint256",
          "name": "tokenId",
          "type": "uint256"
        },
        {
          "internalType": "int96",
          "name": "newTokenFlowRate",
          "type": "int96"
        }
      ],
      "name": "splitStream",
      "outputs": [],
      "stateMutability": "nonpayable",
      "type": "function"
    },
    {
      "inputs": [
        {
          "internalType": "bytes4",
          "name": "interfaceId",
          "type": "bytes4"
        }
      ],
      "name": "supportsInterface",
      "outputs": [
        {
          "internalType": "bool",
          "name": "",
          "type": "bool"
        }
      ],
      "stateMutability": "view",
      "type": "function"
    },
    {
      "inputs": [],
      "name": "symbol",
      "outputs": [
        {
          "internalType": "string",
          "name": "",
          "type": "string"
        }
      ],
      "stateMutability": "view",
      "type": "function"
    },
    {
      "inputs": [
        {
          "internalType": "uint256",
          "name": "index",
          "type": "uint256"
        }
      ],
      "name": "tokenByIndex",
      "outputs": [
        {
          "internalType": "uint256",
          "name": "",
          "type": "uint256"
        }
      ],
      "stateMutability": "view",
      "type": "function"
    },
    {
      "inputs": [
        {
          "internalType": "address",
          "name": "owner",
          "type": "address"
        },
        {
          "internalType": "uint256",
          "name": "index",
          "type": "uint256"
        }
      ],
      "name": "tokenOfOwnerByIndex",
      "outputs": [
        {
          "internalType": "uint256",
          "name": "",
          "type": "uint256"
        }
      ],
      "stateMutability": "view",
      "type": "function"
    },
    {
      "inputs": [
        {
          "internalType": "uint256",
          "name": "tokenId",
          "type": "uint256"
        }
      ],
      "name": "tokenURI",
      "outputs": [
        {
          "internalType": "string",
          "name": "",
          "type": "string"
        }
      ],
      "stateMutability": "view",
      "type": "function"
    },
    {
      "inputs": [],
      "name": "totalSupply",
      "outputs": [
        {
          "internalType": "uint256",
          "name": "",
          "type": "uint256"
        }
      ],
      "stateMutability": "view",
      "type": "function"
    },
    {
      "inputs": [
        {
          "internalType": "address",
          "name": "from",
          "type": "address"
        },
        {
          "internalType": "address",
          "name": "to",
          "type": "address"
        },
        {
          "internalType": "uint256",
          "name": "tokenId",
          "type": "uint256"
        }
      ],
      "name": "transferFrom",
      "outputs": [],
      "stateMutability": "nonpayable",
      "type": "function"
    },
    {
      "inputs": [
        {
          "internalType": "address",
          "name": "newOwner",
          "type": "address"
        }
      ],
      "name": "transferOwnership",
      "outputs": [],
      "stateMutability": "nonpayable",
      "type": "function"
    }
  ],
  "transactionHash": "0x6232c32195ab0b795c161b7fb349779a3c66ebd1391ea9490e33d83ead771d16",
  "args": [
    "BudgetNFT Example",
    "SFBudget",
    "0xF0d7d1D47109bA426B9D8A3Cde1941327af1eea3",
    "0xECa8056809e7e8db04A8fF6e4E82cD889a46FE2F",
    "0xe3CB950Cb164a31C66e32c320A800D477019DCFF"
  ],
  "solcInputHash": "8992113392fc1822e93b28dead057bbc",
  "bytecode": "0x60806040523480156200001157600080fd5b506040516200326738038062003267833981810160405260a08110156200003757600080fd5b81019080805160405193929190846401000000008211156200005857600080fd5b9083019060208201858111156200006e57600080fd5b82516401000000008111828201881017156200008957600080fd5b82525081516020918201929091019080838360005b83811015620000b85781810151838201526020016200009e565b50505050905090810190601f168015620000e65780820380516001836020036101000a031916815260200191505b50604052602001805160405193929190846401000000008211156200010a57600080fd5b9083019060208201858111156200012057600080fd5b82516401000000008111828201881017156200013b57600080fd5b82525081516020918201929091019080838360005b838110156200016a57818101518382015260200162000150565b50505050905090810190601f168015620001985780820380516001836020036101000a031916815260200191505b5060409081526020820151908201516060909201519093509091508484620001c76301ffc9a760e01b62000301565b8151620001dc9060069060208501906200038a565b508051620001f29060079060208401906200038a565b50620002056380ac58cd60e01b62000301565b62000217635b5e139f60e01b62000301565b6200022963780e9d6360e01b62000301565b50600090506200023862000386565b600a80546001600160a01b0319166001600160a01b038316908117909155604051919250906000907f8be0079c531659141344cd1fd0a4f28419497f9722a3daafe3b4186f6b6457e0908290a350600b80546001600160a01b038086166001600160a01b03199283161792839055600c8054868316908416179055600d80548583169316929092179091556000600f5516620002d057fe5b600c546001600160a01b0316620002e357fe5b600d546001600160a01b0316620002f657fe5b505050505062000426565b6001600160e01b0319808216141562000361576040805162461bcd60e51b815260206004820152601c60248201527f4552433136353a20696e76616c696420696e7465726661636520696400000000604482015290519081900360640190fd5b6001600160e01b0319166000908152602081905260409020805460ff19166001179055565b3390565b828054600181600116156101000203166002900490600052602060002090601f016020900481019282601f10620003cd57805160ff1916838001178555620003fd565b82800160010185558215620003fd579182015b82811115620003fd578251825591602001919060010190620003e0565b506200040b9291506200040f565b5090565b5b808211156200040b576000815560010162000410565b612e3180620004366000396000f3fe608060405234801561001057600080fd5b50600436106101c45760003560e01c80636352211e116100f957806395d89b4111610097578063c87b56dd11610071578063c87b56dd146105ea578063e925b2ab14610607578063e985e9c51461062a578063f2fde38b14610658576101c4565b806395d89b41146104ee578063a22cb465146104f6578063b88d4fde14610524576101c4565b8063715018a6116100d3578063715018a61461048457806379bcb8df1461048c5780638da5cb5b146104c057806393a30c44146104c8576101c4565b80636352211e146104395780636c0360eb1461045657806370a082311461045e576101c4565b80632890e0d71161016657806342842e0e1161014057806342842e0e146103d65780634e5b3c7c1461040c5780634f6ccce71461041457806361b8ce8c14610431576101c4565b80632890e0d71461035e5780632a081a061461037b5780632f745c59146103aa576101c4565b8063095ea7b3116101a2578063095ea7b3146102ba578063116614b0146102e857806318160ddd1461030e57806323b872dd14610328576101c4565b806301ffc9a7146101c957806306fdde0314610204578063081812fc14610281575b600080fd5b6101f0600480360360208110156101df57600080fd5b50356001600160e01b03191661067e565b604080519115158252519081900360200190f35b61020c6106a1565b6040805160208082528351818301528351919283929083019185019080838360005b8381101561024657818101518382015260200161022e565b50505050905090810190601f1680156102735780820380516001836020036101000a031916815260200191505b509250505060405180910390f35b61029e6004803603602081101561029757600080fd5b5035610737565b604080516001600160a01b039092168252519081900360200190f35b6102e6600480360360408110156102d057600080fd5b506001600160a01b038135169060200135610799565b005b6102e6600480360360408110156102fe57600080fd5b5080359060200135600b0b610874565b610316610982565b60408051918252519081900360200190f35b6102e66004803603606081101561033e57600080fd5b506001600160a01b03813581169160208101359091169060400135610993565b6102e66004803603602081101561037457600080fd5b50356109ea565b6102e66004803603604081101561039157600080fd5b506001600160a01b038135169060200135600b0b610ab6565b610316600480360360408110156103c057600080fd5b506001600160a01b038135169060200135610b22565b6102e6600480360360608110156103ec57600080fd5b506001600160a01b03813581169160208101359091169060400135610b4d565b61029e610b68565b6103166004803603602081101561042a57600080fd5b5035610b77565b610316610b8d565b61029e6004803603602081101561044f57600080fd5b5035610b93565b61020c610bbb565b6103166004803603602081101561047457600080fd5b50356001600160a01b0316610c1c565b6102e6610c84565b6104a9600480360360208110156104a257600080fd5b5035610d30565b60408051600b9290920b8252519081900360200190f35b61029e610d45565b6102e6600480360360408110156104de57600080fd5b5080359060200135600b0b610d54565b61020c610ee3565b6102e66004803603604081101561050c57600080fd5b506001600160a01b0381351690602001351515610f44565b6102e66004803603608081101561053a57600080fd5b6001600160a01b0382358116926020810135909116916040820135919081019060808101606082013564010000000081111561057557600080fd5b82018360208201111561058757600080fd5b803590602001918460018302840111640100000000831117156105a957600080fd5b91908080601f016020809104026020016040519081016040528093929190818152602001838380828437600092019190915250929550611049945050505050565b61020c6004803603602081101561060057600080fd5b50356110a7565b6102e66004803603604081101561061d57600080fd5b508035906020013561132a565b6101f06004803603604081101561064057600080fd5b506001600160a01b0381358116916020013516611458565b6102e66004803603602081101561066e57600080fd5b50356001600160a01b0316611486565b6001600160e01b0319811660009081526020819052604090205460ff165b919050565b60068054604080516020601f600260001961010060018816150201909516949094049384018190048102820181019092528281526060939092909183018282801561072d5780601f106107025761010080835404028352916020019161072d565b820191906000526020600020905b81548152906001019060200180831161071057829003601f168201915b5050505050905090565b600061074282611589565b61077d5760405162461bcd60e51b815260040180806020018281038252602c815260200180612ce3602c913960400191505060405180910390fd5b506000908152600460205260409020546001600160a01b031690565b60006107a482610b93565b9050806001600160a01b0316836001600160a01b031614156107f75760405162461bcd60e51b8152600401808060200182810382526021815260200180612d876021913960400191505060405180910390fd5b806001600160a01b0316610809611596565b6001600160a01b0316148061082a575061082a81610825611596565b611458565b6108655760405162461bcd60e51b8152600401808060200182810382526038815260200180612c146038913960400191505060405180910390fd5b61086f838361159a565b505050565b61087d82610b93565b6001600160a01b0316336001600160a01b0316146108e2576040805162461bcd60e51b815260206004820181905260248201527f63616e2774206564697420736f6d656f6e6520656c736527732073747265616d604482015290519081900360640190fd5b6000828152600e6020526040902054600b90810b810b9082900b126109385760405162461bcd60e51b8152600401808060200182810382526023815260200180612da86023913960400191505060405180910390fd5b6000828152600e602052604090208054600b81810b849003900b6001600160601b03166001600160601b03199091161790556109743382611608565b61097e33826116e9565b5050565b600061098e600261183f565b905090565b6109a461099e611596565b8261184a565b6109df5760405162461bcd60e51b8152600401808060200182810382526031815260200180612dcb6031913960400191505060405180910390fd5b61086f8383836118ee565b6109f2611596565b6001600160a01b0316610a03610d45565b6001600160a01b031614610a4c576040805162461bcd60e51b81526020600482018190526024820152600080516020612d0f833981519152604482015290519081900360640190fd5b80610a5681611589565b610a915760405162461bcd60e51b8152600401808060200182810382526025815260200180612b476025913960400191505060405180910390fd5b6000828152600e6020526040902080546001600160601b031916905561097e82611a3a565b610abe611596565b6001600160a01b0316610acf610d45565b6001600160a01b031614610b18576040805162461bcd60e51b81526020600482018190526024820152600080516020612d0f833981519152604482015290519081900360640190fd5b61097e82826116e9565b6001600160a01b0382166000908152600160205260408120610b449083611b07565b90505b92915050565b61086f83838360405180602001604052806000815250611049565b600d546001600160a01b031681565b600080610b85600284611b13565b509392505050565b600f5481565b6000610b4782604051806060016040528060298152602001612c766029913960029190611b2f565b60098054604080516020601f600260001961010060018816150201909516949094049384018190048102820181019092528281526060939092909183018282801561072d5780601f106107025761010080835404028352916020019161072d565b60006001600160a01b038216610c635760405162461bcd60e51b815260040180806020018281038252602a815260200180612c4c602a913960400191505060405180910390fd5b6001600160a01b0382166000908152600160205260409020610b479061183f565b610c8c611596565b6001600160a01b0316610c9d610d45565b6001600160a01b031614610ce6576040805162461bcd60e51b81526020600482018190526024820152600080516020612d0f833981519152604482015290519081900360640190fd5b600a546040516000916001600160a01b0316907f8be0079c531659141344cd1fd0a4f28419497f9722a3daafe3b4186f6b6457e0908390a3600a80546001600160a01b0319169055565b600e60205260009081526040902054600b0b81565b600a546001600160a01b031690565b610d5c611596565b6001600160a01b0316610d6d610d45565b6001600160a01b031614610db6576040805162461bcd60e51b81526020600482018190526024820152600080516020612d0f833981519152604482015290519081900360640190fd5b81610dc081611589565b610dfb5760405162461bcd60e51b8152600401808060200182810382526025815260200180612b476025913960400191505060405180910390fd5b600082600b0b13610e53576040805162461bcd60e51b815260206004820152601a60248201527f666c6f7752617465206d75737420626520706f73697469766521000000000000604482015290519081900360640190fd5b6000610e5e84610b93565b905082600b0b60001415610e8e576000848152600e6020526040902054610e89908290600b0b611608565b610ead565b6000848152600e6020526040902054610ead908290600b0b8503611b46565b50506000918252600e60205260409091208054600b9290920b6001600160601b03166001600160601b0319909216919091179055565b60078054604080516020601f600260001961010060018816150201909516949094049384018190048102820181019092528281526060939092909183018282801561072d5780601f106107025761010080835404028352916020019161072d565b610f4c611596565b6001600160a01b0316826001600160a01b03161415610fb2576040805162461bcd60e51b815260206004820152601960248201527f4552433732313a20617070726f766520746f2063616c6c657200000000000000604482015290519081900360640190fd5b8060056000610fbf611596565b6001600160a01b03908116825260208083019390935260409182016000908120918716808252919093529120805460ff191692151592909217909155611003611596565b6001600160a01b03167f17307eab39ab6107e8899845ad3d59bd9653f200f220920489ca2b5937696c318360405180821515815260200191505060405180910390a35050565b61105a611054611596565b8361184a565b6110955760405162461bcd60e51b8152600401808060200182810382526031815260200180612dcb6031913960400191505060405180910390fd5b6110a184848484611bf8565b50505050565b60606110b282611589565b6110ed5760405162461bcd60e51b815260040180806020018281038252602f815260200180612d58602f913960400191505060405180910390fd5b60008281526008602090815260409182902080548351601f60026000196101006001861615020190931692909204918201849004840281018401909452808452606093928301828280156111825780601f1061115757610100808354040283529160200191611182565b820191906000526020600020905b81548152906001019060200180831161116557829003601f168201915b505050505090506060611193610bbb565b90508051600014156111a75750905061069c565b8151156112685780826040516020018083805190602001908083835b602083106111e25780518252601f1990920191602091820191016111c3565b51815160209384036101000a600019018019909216911617905285519190930192850191508083835b6020831061122a5780518252601f19909201916020918201910161120b565b6001836020036101000a038019825116818451168082178552505050505050905001925050506040516020818303038152906040529250505061069c565b8061127285611c4a565b6040516020018083805190602001908083835b602083106112a45780518252601f199092019160209182019101611285565b51815160209384036101000a600019018019909216911617905285519190930192850191508083835b602083106112ec5780518252601f1990920191602091820191016112cd565b6001836020036101000a0380198251168184511680821785525050505050509050019250505060405160208183030381529060405292505050919050565b61133382610b93565b6001600160a01b0316336001600160a01b031614611398576040805162461bcd60e51b815260206004820181905260248201527f43616e2774206564697420736f6d656f6e6520656c736527732073747265616d604482015290519081900360640190fd5b6113a181610b93565b6001600160a01b0316336001600160a01b031614611406576040805162461bcd60e51b815260206004820181905260248201527f43616e2774206564697420736f6d656f6e6520656c736527732073747265616d604482015290519081900360640190fd5b6000818152600e602052604080822080548584529183208054600b81810b94810b9490940190930b6001600160601b03166001600160601b031993841617905591839052815416905561097e81611a3a565b6001600160a01b03918216600090815260056020908152604080832093909416825291909152205460ff1690565b61148e611596565b6001600160a01b031661149f610d45565b6001600160a01b0316146114e8576040805162461bcd60e51b81526020600482018190526024820152600080516020612d0f833981519152604482015290519081900360640190fd5b6001600160a01b03811661152d5760405162461bcd60e51b8152600401808060200182810382526026815260200180612b9e6026913960400191505060405180910390fd5b600a546040516001600160a01b038084169216907f8be0079c531659141344cd1fd0a4f28419497f9722a3daafe3b4186f6b6457e090600090a3600a80546001600160a01b0319166001600160a01b0392909216919091179055565b6000610b47600283611d25565b3390565b600081815260046020526040902080546001600160a01b0319166001600160a01b03841690811790915581906115cf82610b93565b6001600160a01b03167f8c5be1e5ebec7d5bd14f71427d1e84f3dd0314c0f7b2291e5b200ac8c7c3b92560405160405180910390a45050565b6001600160a01b03821630141561161e5761097e565b600c54600d5460408051631cd43d1160e31b81526001600160a01b03928316600482015230602482015285831660448201529051600093929092169163e6a1e88891606480820192608092909190829003018186803b15801561168057600080fd5b505afa158015611694573d6000803e3d6000fd5b505050506040513d60808110156116aa57600080fd5b50602001519050600b81810b9083900b14156116cf576116ca3084611d31565b61086f565b81600b0b81600b0b131561086f5761086f83838303611fde565b6001600160a01b038216301415611740576040805162461bcd60e51b8152602060048201526016602482015275497373756520746f2061206e6577206164647265737360501b604482015290519081900360640190fd5b600081600b0b13611798576040805162461bcd60e51b815260206004820152601a60248201527f666c6f7752617465206d75737420626520706f73697469766521000000000000604482015290519081900360640190fd5b600f80546000908152600e602090815260408083208054600b87810b6001600160601b03166001600160601b0319909216919091179091559354808452928190205481519384526001600160a01b0387169284019290925290830b90920b8183015290517f6e89a354929848553af9a2898855fe0486bb36807f1512041a8fcf8e19f4a5849181900360600190a161183282600f546120c6565b5050600f80546001019055565b6000610b47826121f4565b600061185582611589565b6118905760405162461bcd60e51b815260040180806020018281038252602c815260200180612be8602c913960400191505060405180910390fd5b600061189b83610b93565b9050806001600160a01b0316846001600160a01b031614806118d65750836001600160a01b03166118cb84610737565b6001600160a01b0316145b806118e657506118e68185611458565b949350505050565b826001600160a01b031661190182610b93565b6001600160a01b0316146119465760405162461bcd60e51b8152600401808060200182810382526029815260200180612d2f6029913960400191505060405180910390fd5b6001600160a01b03821661198b5760405162461bcd60e51b8152600401808060200182810382526024815260200180612bc46024913960400191505060405180910390fd5b6119968383836121f8565b6119a160008261159a565b6001600160a01b03831660009081526001602052604090206119c390826122fa565b506001600160a01b03821660009081526001602052604090206119e69082612306565b506119f360028284612312565b5080826001600160a01b0316846001600160a01b03167fddf252ad1be2c89b69c2b068fc378daa952ba7f163c4a11628f55a4df523b3ef60405160405180910390a4505050565b6000611a4582610b93565b9050611a53816000846121f8565b611a5e60008361159a565b6000828152600860205260409020546002600019610100600184161502019091160415611a9c576000828152600860205260408120611a9c91612ac4565b6001600160a01b0381166000908152600160205260409020611abe90836122fa565b50611aca600283612328565b5060405182906000906001600160a01b038416907fddf252ad1be2c89b69c2b068fc378daa952ba7f163c4a11628f55a4df523b3ef908390a45050565b6000610b448383612334565b6000808080611b228686612398565b9097909650945050505050565b6000611b3c848484612413565b90505b9392505050565b600c54600d5460408051631cd43d1160e31b81526001600160a01b03928316600482015230602482015285831660448201529051600093929092169163e6a1e88891606480820192608092909190829003018186803b158015611ba857600080fd5b505afa158015611bbc573d6000803e3d6000fd5b505050506040513d6080811015611bd257600080fd5b50602001519050600b81900b611bec576116ca83836124dd565b61086f83838301611fde565b611c038484846118ee565b611c0f84848484612537565b6110a15760405162461bcd60e51b8152600401808060200182810382526032815260200180612b6c6032913960400191505060405180910390fd5b606081611c6f57506040805180820190915260018152600360fc1b602082015261069c565b8160005b8115611c8757600101600a82049150611c73565b60608167ffffffffffffffff81118015611ca057600080fd5b506040519080825280601f01601f191660200182016040528015611ccb576020820181803683370190505b50859350905060001982015b8315611d1c57600a840660300160f81b82828060019003935081518110611cfa57fe5b60200101906001600160f81b031916908160001a905350600a84049350611cd7565b50949350505050565b6000610b44838361269f565b600b54600c54600d5460408051600080825260208201928390526001600160a01b039384166044830181815289861660648501528886166084850152608060a48501908152845160c48601819052988716986339255d5b989790971696635a5999e360e11b9693958c958c959194939260e4860192918190849084905b83811015611dc6578181015183820152602001611dae565b50505050905090810190601f168015611df35780820380516001836020036101000a031916815260200191505b5060408051601f198184030181529181526020820180516001600160e01b03166001600160e01b03199a8b16178152905160e08c901b90991689526001600160a01b038a1660048a01908152606060248b01908152835160648c01528351939a919950975060448101965060840194509250905080838360005b83811015611e85578181015183820152602001611e6d565b50505050905090810190601f168015611eb25780820380516001836020036101000a031916815260200191505b508381038252600281526020018061060f60f31b815250602001945050505050600060405180830381600087803b158015611eec57600080fd5b505af1158015611f00573d6000803e3d6000fd5b505050506040513d6000823e601f3d908101601f191682016040526020811015611f2957600080fd5b8101908080516040519392919084640100000000821115611f4957600080fd5b908301906020820185811115611f5e57600080fd5b8251640100000000811182820188101715611f7857600080fd5b82525081516020918201929091019080838360005b83811015611fa5578181015183820152602001611f8d565b50505050905090810190601f168015611fd25780820380516001836020036101000a031916815260200191505b50604052505050505050565b6001600160a01b038216301480611ffc57506001600160a01b038216155b156120065761097e565b600b54600c54600d546001600160a01b03928316926339255d5b928116916328104d3160e11b911686866000805b506040519080825280601f01601f19166020018201604052801561205f576020820181803683370190505b5060405160240180856001600160a01b03168152602001846001600160a01b0316815260200183600b0b8152602001806020018281038252838181518152602001915080519060200190808383600083811015611dc6578181015183820152602001611dae565b6001600160a01b038216612121576040805162461bcd60e51b815260206004820181905260248201527f4552433732313a206d696e7420746f20746865207a65726f2061646472657373604482015290519081900360640190fd5b61212a81611589565b1561217c576040805162461bcd60e51b815260206004820152601c60248201527f4552433732313a20746f6b656e20616c7265616479206d696e74656400000000604482015290519081900360640190fd5b612188600083836121f8565b6001600160a01b03821660009081526001602052604090206121aa9082612306565b506121b760028284612312565b5060405181906001600160a01b038416906000907fddf252ad1be2c89b69c2b068fc378daa952ba7f163c4a11628f55a4df523b3ef908290a45050565b5490565b600b5460408051631e51d6a760e11b81526001600160a01b03858116600483015291519190921691633ca3ad4e916024808301926020929190829003018186803b15801561224557600080fd5b505afa158015612259573d6000803e3d6000fd5b505050506040513d602081101561226f57600080fd5b5051158061228557506001600160a01b03821630145b6122c05760405162461bcd60e51b8152600401808060200182810382526022815260200180612c9f6022913960400191505060405180910390fd5b6000818152600e60205260409020546122dd908490600b0b611608565b6000818152600e602052604090205461086f908390600b0b611b46565b6000610b4483836126b7565b6000610b44838361277d565b6000611b3c84846001600160a01b0385166127c7565b6000610b44838361285e565b815460009082106123765760405162461bcd60e51b8152600401808060200182810382526022815260200180612b256022913960400191505060405180910390fd5b82600001828154811061238557fe5b9060005260206000200154905092915050565b8154600090819083106123dc5760405162461bcd60e51b8152600401808060200182810382526022815260200180612cc16022913960400191505060405180910390fd5b60008460000184815481106123ed57fe5b906000526020600020906002020190508060000154816001015492509250509250929050565b600082815260018401602052604081205482816124ae5760405162461bcd60e51b81526004018080602001828103825283818151815260200191508051906020019080838360005b8381101561247357818101518382015260200161245b565b50505050905090810190601f1680156124a05780820380516001836020036101000a031916815260200191505b509250505060405180910390fd5b508460000160018203815481106124c157fe5b9060005260206000209060020201600101549150509392505050565b6001600160a01b0382163014806124fb57506001600160a01b038216155b156125055761097e565b600b54600c54600d546001600160a01b03928316926339255d5b9281169163317e182f60e11b91168686600080612034565b600061254b846001600160a01b0316612932565b612557575060016118e6565b6060612665630a85bd0160e11b61256c611596565b88878760405160240180856001600160a01b03168152602001846001600160a01b0316815260200183815260200180602001828103825283818151815260200191508051906020019080838360005b838110156125d35781810151838201526020016125bb565b50505050905090810190601f1680156126005780820380516001836020036101000a031916815260200191505b5095505050505050604051602081830303815290604052906001600160e01b0319166020820180516001600160e01b038381831617835250505050604051806060016040528060328152602001612b6c603291396001600160a01b0388169190612938565b9050600081806020019051602081101561267e57600080fd5b50516001600160e01b031916630a85bd0160e11b1492505050949350505050565b60009081526001919091016020526040902054151590565b6000818152600183016020526040812054801561277357835460001980830191908101906000908790839081106126ea57fe5b906000526020600020015490508087600001848154811061270757fe5b60009182526020808320909101929092558281526001898101909252604090209084019055865487908061273757fe5b60019003818190600052602060002001600090559055866001016000878152602001908152602001600020600090556001945050505050610b47565b6000915050610b47565b6000612789838361269f565b6127bf57508154600181810184556000848152602080822090930184905584548482528286019093526040902091909155610b47565b506000610b47565b60008281526001840160205260408120548061282c575050604080518082018252838152602080820184815286546001818101895560008981528481209551600290930290950191825591519082015586548684528188019092529290912055611b3f565b8285600001600183038154811061283f57fe5b9060005260206000209060020201600101819055506000915050611b3f565b60008181526001830160205260408120548015612773578354600019808301919081019060009087908390811061289157fe5b90600052602060002090600202019050808760000184815481106128b157fe5b6000918252602080832084546002909302019182556001938401549184019190915583548252898301905260409020908401905586548790806128f057fe5b6000828152602080822060026000199094019384020182815560019081018390559290935588815289820190925260408220919091559450610b479350505050565b3b151590565b6060611b3c84846000858561294c85612932565b61299d576040805162461bcd60e51b815260206004820152601d60248201527f416464726573733a2063616c6c20746f206e6f6e2d636f6e7472616374000000604482015290519081900360640190fd5b60006060866001600160a01b031685876040518082805190602001908083835b602083106129dc5780518252601f1990920191602091820191016129bd565b6001836020036101000a03801982511681845116808217855250505050505090500191505060006040518083038185875af1925050503d8060008114612a3e576040519150601f19603f3d011682016040523d82523d6000602084013e612a43565b606091505b5091509150612a53828286612a5e565b979650505050505050565b60608315612a6d575081611b3f565b825115612a7d5782518084602001fd5b60405162461bcd60e51b815260206004820181815284516024840152845185939192839260440191908501908083836000831561247357818101518382015260200161245b565b50805460018160011615610100020316600290046000825580601f10612aea5750612b08565b601f016020900490600052602060002090810190612b089190612b0b565b50565b5b80821115612b205760008155600101612b0c565b509056fe456e756d657261626c655365743a20696e646578206f7574206f6620626f756e6473746f6b656e20646f65736e2774206578697374206f7220686173206265656e206275726e744552433732313a207472616e7366657220746f206e6f6e20455243373231526563656976657220696d706c656d656e7465724f776e61626c653a206e6577206f776e657220697320746865207a65726f20616464726573734552433732313a207472616e7366657220746f20746865207a65726f20616464726573734552433732313a206f70657261746f7220717565727920666f72206e6f6e6578697374656e7420746f6b656e4552433732313a20617070726f76652063616c6c6572206973206e6f74206f776e6572206e6f7220617070726f76656420666f7220616c6c4552433732313a2062616c616e636520717565727920666f7220746865207a65726f20616464726573734552433732313a206f776e657220717565727920666f72206e6f6e6578697374656e7420746f6b656e4e65772072656365697665722063616e206e6f742062652061207375706572417070456e756d657261626c654d61703a20696e646578206f7574206f6620626f756e64734552433732313a20617070726f76656420717565727920666f72206e6f6e6578697374656e7420746f6b656e4f776e61626c653a2063616c6c6572206973206e6f7420746865206f776e65724552433732313a207472616e73666572206f6620746f6b656e2074686174206973206e6f74206f776e4552433732314d657461646174613a2055524920717565727920666f72206e6f6e6578697374656e7420746f6b656e4552433732313a20617070726f76616c20746f2063757272656e74206f776e65726e657720666c6f77206d757374206265206c657373207468616e206f6c6420666c6f774552433732313a207472616e736665722063616c6c6572206973206e6f74206f776e6572206e6f7220617070726f766564a264697066735822122036bf713dc96d68aa92d1f25119749c70e5808bee81ac88d1ffbdb15efa0b866864736f6c63430007000033",
  "devdoc": {
    "kind": "dev",
    "methods": {
      "approve(address,uint256)": {
        "details": "See {IERC721-approve}."
      },
      "balanceOf(address)": {
        "details": "See {IERC721-balanceOf}."
      },
      "baseURI()": {
        "details": "Returns the base URI set via {_setBaseURI}. This will be automatically added as a prefix in {tokenURI} to each token's URI, or to the token ID if no specific URI is set for that token ID."
      },
      "getApproved(uint256)": {
        "details": "See {IERC721-getApproved}."
      },
      "isApprovedForAll(address,address)": {
        "details": "See {IERC721-isApprovedForAll}."
      },
      "name()": {
        "details": "See {IERC721Metadata-name}."
      },
      "owner()": {
        "details": "Returns the address of the current owner."
      },
      "ownerOf(uint256)": {
        "details": "See {IERC721-ownerOf}."
      },
      "renounceOwnership()": {
        "details": "Leaves the contract without owner. It will not be possible to call `onlyOwner` functions anymore. Can only be called by the current owner. NOTE: Renouncing ownership will leave the contract without an owner, thereby removing any functionality that is only available to the owner."
      },
      "safeTransferFrom(address,address,uint256)": {
        "details": "See {IERC721-safeTransferFrom}."
      },
      "safeTransferFrom(address,address,uint256,bytes)": {
        "details": "See {IERC721-safeTransferFrom}."
      },
      "setApprovalForAll(address,bool)": {
        "details": "See {IERC721-setApprovalForAll}."
      },
      "supportsInterface(bytes4)": {
        "details": "See {IERC165-supportsInterface}. Time complexity O(1), guaranteed to always use less than 30 000 gas."
      },
      "symbol()": {
        "details": "See {IERC721Metadata-symbol}."
      },
      "tokenByIndex(uint256)": {
        "details": "See {IERC721Enumerable-tokenByIndex}."
      },
      "tokenOfOwnerByIndex(address,uint256)": {
        "details": "See {IERC721Enumerable-tokenOfOwnerByIndex}."
      },
      "tokenURI(uint256)": {
        "details": "See {IERC721Metadata-tokenURI}."
      },
      "totalSupply()": {
        "details": "See {IERC721Enumerable-totalSupply}."
      },
      "transferFrom(address,address,uint256)": {
        "details": "See {IERC721-transferFrom}."
      },
      "transferOwnership(address)": {
        "details": "Transfers ownership of the contract to a new account (`newOwner`). Can only be called by the current owner."
      }
    },
    "version": 1
  },
  "userdoc": {
    "kind": "user",
    "methods": {},
    "version": 1
  },
  "storageLayout": {
    "storage": [
      {
        "astId": 123,
        "contract": "contracts/BudgetNFT.sol:BudgetNFT",
        "label": "_supportedInterfaces",
        "offset": 0,
        "slot": "0",
        "type": "t_mapping(t_bytes4,t_bool)"
      },
      {
        "astId": 657,
        "contract": "contracts/BudgetNFT.sol:BudgetNFT",
        "label": "_holderTokens",
        "offset": 0,
        "slot": "1",
        "type": "t_mapping(t_address,t_struct(UintSet)3182_storage)"
      },
      {
        "astId": 659,
        "contract": "contracts/BudgetNFT.sol:BudgetNFT",
        "label": "_tokenOwners",
        "offset": 0,
        "slot": "2",
        "type": "t_struct(UintToAddressMap)2559_storage"
      },
      {
        "astId": 663,
        "contract": "contracts/BudgetNFT.sol:BudgetNFT",
        "label": "_tokenApprovals",
        "offset": 0,
        "slot": "4",
        "type": "t_mapping(t_uint256,t_address)"
      },
      {
        "astId": 669,
        "contract": "contracts/BudgetNFT.sol:BudgetNFT",
        "label": "_operatorApprovals",
        "offset": 0,
        "slot": "5",
        "type": "t_mapping(t_address,t_mapping(t_address,t_bool))"
      },
      {
        "astId": 671,
        "contract": "contracts/BudgetNFT.sol:BudgetNFT",
        "label": "_name",
        "offset": 0,
        "slot": "6",
        "type": "t_string_storage"
      },
      {
        "astId": 673,
        "contract": "contracts/BudgetNFT.sol:BudgetNFT",
        "label": "_symbol",
        "offset": 0,
        "slot": "7",
        "type": "t_string_storage"
      },
      {
        "astId": 677,
        "contract": "contracts/BudgetNFT.sol:BudgetNFT",
        "label": "_tokenURIs",
        "offset": 0,
        "slot": "8",
        "type": "t_mapping(t_uint256,t_string_storage)"
      },
      {
        "astId": 679,
        "contract": "contracts/BudgetNFT.sol:BudgetNFT",
        "label": "_baseURI",
        "offset": 0,
        "slot": "9",
        "type": "t_string_storage"
      },
      {
        "astId": 7,
        "contract": "contracts/BudgetNFT.sol:BudgetNFT",
        "label": "_owner",
        "offset": 0,
        "slot": "10",
        "type": "t_address"
      },
      {
        "astId": 5181,
        "contract": "contracts/BudgetNFT.sol:BudgetNFT",
        "label": "_host",
        "offset": 0,
        "slot": "11",
        "type": "t_contract(ISuperfluid)4801"
      },
      {
        "astId": 5183,
        "contract": "contracts/BudgetNFT.sol:BudgetNFT",
        "label": "_cfa",
        "offset": 0,
        "slot": "12",
        "type": "t_contract(IConstantFlowAgreementV1)3525"
      },
      {
        "astId": 5185,
        "contract": "contracts/BudgetNFT.sol:BudgetNFT",
        "label": "_acceptedToken",
        "offset": 0,
        "slot": "13",
        "type": "t_contract(ISuperToken)4313"
      },
      {
        "astId": 5189,
        "contract": "contracts/BudgetNFT.sol:BudgetNFT",
        "label": "flowRates",
        "offset": 0,
        "slot": "14",
        "type": "t_mapping(t_uint256,t_int96)"
      },
      {
        "astId": 5191,
        "contract": "contracts/BudgetNFT.sol:BudgetNFT",
        "label": "nextId",
        "offset": 0,
        "slot": "15",
        "type": "t_uint256"
      }
    ],
    "types": {
      "t_address": {
        "encoding": "inplace",
        "label": "address",
        "numberOfBytes": "20"
      },
      "t_array(t_bytes32)dyn_storage": {
        "base": "t_bytes32",
        "encoding": "dynamic_array",
        "label": "bytes32[]",
        "numberOfBytes": "32"
      },
      "t_array(t_struct(MapEntry)2233_storage)dyn_storage": {
        "base": "t_struct(MapEntry)2233_storage",
        "encoding": "dynamic_array",
        "label": "struct EnumerableMap.MapEntry[]",
        "numberOfBytes": "32"
      },
      "t_bool": {
        "encoding": "inplace",
        "label": "bool",
        "numberOfBytes": "1"
      },
      "t_bytes32": {
        "encoding": "inplace",
        "label": "bytes32",
        "numberOfBytes": "32"
      },
      "t_bytes4": {
        "encoding": "inplace",
        "label": "bytes4",
        "numberOfBytes": "4"
      },
      "t_contract(IConstantFlowAgreementV1)3525": {
        "encoding": "inplace",
        "label": "contract IConstantFlowAgreementV1",
        "numberOfBytes": "20"
      },
      "t_contract(ISuperToken)4313": {
        "encoding": "inplace",
        "label": "contract ISuperToken",
        "numberOfBytes": "20"
      },
      "t_contract(ISuperfluid)4801": {
        "encoding": "inplace",
        "label": "contract ISuperfluid",
        "numberOfBytes": "20"
      },
      "t_int96": {
        "encoding": "inplace",
        "label": "int96",
        "numberOfBytes": "12"
      },
      "t_mapping(t_address,t_bool)": {
        "encoding": "mapping",
        "key": "t_address",
        "label": "mapping(address => bool)",
        "numberOfBytes": "32",
        "value": "t_bool"
      },
      "t_mapping(t_address,t_mapping(t_address,t_bool))": {
        "encoding": "mapping",
        "key": "t_address",
        "label": "mapping(address => mapping(address => bool))",
        "numberOfBytes": "32",
        "value": "t_mapping(t_address,t_bool)"
      },
      "t_mapping(t_address,t_struct(UintSet)3182_storage)": {
        "encoding": "mapping",
        "key": "t_address",
        "label": "mapping(address => struct EnumerableSet.UintSet)",
        "numberOfBytes": "32",
        "value": "t_struct(UintSet)3182_storage"
      },
      "t_mapping(t_bytes32,t_uint256)": {
        "encoding": "mapping",
        "key": "t_bytes32",
        "label": "mapping(bytes32 => uint256)",
        "numberOfBytes": "32",
        "value": "t_uint256"
      },
      "t_mapping(t_bytes4,t_bool)": {
        "encoding": "mapping",
        "key": "t_bytes4",
        "label": "mapping(bytes4 => bool)",
        "numberOfBytes": "32",
        "value": "t_bool"
      },
      "t_mapping(t_uint256,t_address)": {
        "encoding": "mapping",
        "key": "t_uint256",
        "label": "mapping(uint256 => address)",
        "numberOfBytes": "32",
        "value": "t_address"
      },
      "t_mapping(t_uint256,t_int96)": {
        "encoding": "mapping",
        "key": "t_uint256",
        "label": "mapping(uint256 => int96)",
        "numberOfBytes": "32",
        "value": "t_int96"
      },
      "t_mapping(t_uint256,t_string_storage)": {
        "encoding": "mapping",
        "key": "t_uint256",
        "label": "mapping(uint256 => string)",
        "numberOfBytes": "32",
        "value": "t_string_storage"
      },
      "t_string_storage": {
        "encoding": "bytes",
        "label": "string",
        "numberOfBytes": "32"
      },
      "t_struct(Map)2241_storage": {
        "encoding": "inplace",
        "label": "struct EnumerableMap.Map",
        "members": [
          {
            "astId": 2236,
            "contract": "contracts/BudgetNFT.sol:BudgetNFT",
            "label": "_entries",
            "offset": 0,
            "slot": "0",
            "type": "t_array(t_struct(MapEntry)2233_storage)dyn_storage"
          },
          {
            "astId": 2240,
            "contract": "contracts/BudgetNFT.sol:BudgetNFT",
            "label": "_indexes",
            "offset": 0,
            "slot": "1",
            "type": "t_mapping(t_bytes32,t_uint256)"
          }
        ],
        "numberOfBytes": "64"
      },
      "t_struct(MapEntry)2233_storage": {
        "encoding": "inplace",
        "label": "struct EnumerableMap.MapEntry",
        "members": [
          {
            "astId": 2230,
            "contract": "contracts/BudgetNFT.sol:BudgetNFT",
            "label": "_key",
            "offset": 0,
            "slot": "0",
            "type": "t_bytes32"
          },
          {
            "astId": 2232,
            "contract": "contracts/BudgetNFT.sol:BudgetNFT",
            "label": "_value",
            "offset": 0,
            "slot": "1",
            "type": "t_bytes32"
          }
        ],
        "numberOfBytes": "64"
      },
      "t_struct(Set)2796_storage": {
        "encoding": "inplace",
        "label": "struct EnumerableSet.Set",
        "members": [
          {
            "astId": 2791,
            "contract": "contracts/BudgetNFT.sol:BudgetNFT",
            "label": "_values",
            "offset": 0,
            "slot": "0",
            "type": "t_array(t_bytes32)dyn_storage"
          },
          {
            "astId": 2795,
            "contract": "contracts/BudgetNFT.sol:BudgetNFT",
            "label": "_indexes",
            "offset": 0,
            "slot": "1",
            "type": "t_mapping(t_bytes32,t_uint256)"
          }
        ],
        "numberOfBytes": "64"
      },
      "t_struct(UintSet)3182_storage": {
        "encoding": "inplace",
        "label": "struct EnumerableSet.UintSet",
        "members": [
          {
            "astId": 3181,
            "contract": "contracts/BudgetNFT.sol:BudgetNFT",
            "label": "_inner",
            "offset": 0,
            "slot": "0",
            "type": "t_struct(Set)2796_storage"
          }
        ],
        "numberOfBytes": "64"
      },
      "t_struct(UintToAddressMap)2559_storage": {
        "encoding": "inplace",
        "label": "struct EnumerableMap.UintToAddressMap",
        "members": [
          {
            "astId": 2558,
            "contract": "contracts/BudgetNFT.sol:BudgetNFT",
            "label": "_inner",
            "offset": 0,
            "slot": "0",
            "type": "t_struct(Map)2241_storage"
          }
        ],
        "numberOfBytes": "64"
      },
      "t_uint256": {
        "encoding": "inplace",
        "label": "uint256",
        "numberOfBytes": "32"
      }
    }
  }
}