{
  "address": "0x1114a6880EF8cE89Cf108830eaE2f3D66a4951ca",
  "abi": [
    {
      "inputs": [
        {
          "internalType": "address",
          "name": "owner",
          "type": "address"
        },
        {
          "internalType": "string",
          "name": "_name",
          "type": "string"
        },
        {
          "internalType": "string",
          "name": "_symbol",
          "type": "string"
        },
        {
          "internalType": "contract ISuperfluid",
          "name": "host",
          "type": "address"
        },
        {
          "internalType": "contract ISuperToken",
          "name": "acceptedToken",
          "type": "address"
        }
      ],
      "stateMutability": "nonpayable",
      "type": "constructor"
    },
    {
      "anonymous": false,
      "inputs": [
        {
          "indexed": true,
          "internalType": "address",
          "name": "owner",
          "type": "address"
        },
        {
          "indexed": true,
          "internalType": "address",
          "name": "approved",
          "type": "address"
        },
        {
          "indexed": true,
          "internalType": "uint256",
          "name": "tokenId",
          "type": "uint256"
        }
      ],
      "name": "Approval",
      "type": "event"
    },
    {
      "anonymous": false,
      "inputs": [
        {
          "indexed": true,
          "internalType": "address",
          "name": "owner",
          "type": "address"
        },
        {
          "indexed": true,
          "internalType": "address",
          "name": "operator",
          "type": "address"
        },
        {
          "indexed": false,
          "internalType": "bool",
          "name": "approved",
          "type": "bool"
        }
      ],
      "name": "ApprovalForAll",
      "type": "event"
    },
    {
      "anonymous": false,
      "inputs": [
        {
          "indexed": false,
          "internalType": "address",
          "name": "receiver",
          "type": "address"
        }
      ],
      "name": "ReceiverChanged",
      "type": "event"
    },
    {
      "anonymous": false,
      "inputs": [
        {
          "indexed": true,
          "internalType": "address",
          "name": "from",
          "type": "address"
        },
        {
          "indexed": true,
          "internalType": "address",
          "name": "to",
          "type": "address"
        },
        {
          "indexed": true,
          "internalType": "uint256",
          "name": "tokenId",
          "type": "uint256"
        }
      ],
      "name": "Transfer",
      "type": "event"
    },
    {
      "inputs": [],
      "name": "_receiver",
      "outputs": [
        {
          "internalType": "address",
          "name": "",
          "type": "address"
        }
      ],
      "stateMutability": "view",
      "type": "function"
    },
    {
      "inputs": [
        {
          "internalType": "contract ISuperToken",
          "name": "_superToken",
          "type": "address"
        },
        {
          "internalType": "address",
          "name": "_agreementClass",
          "type": "address"
        },
        {
          "internalType": "bytes32",
          "name": "",
          "type": "bytes32"
        },
        {
          "internalType": "bytes",
          "name": "",
          "type": "bytes"
        },
        {
          "internalType": "bytes",
          "name": "",
          "type": "bytes"
        },
        {
          "internalType": "bytes",
          "name": "_ctx",
          "type": "bytes"
        }
      ],
      "name": "afterAgreementCreated",
      "outputs": [
        {
          "internalType": "bytes",
          "name": "newCtx",
          "type": "bytes"
        }
      ],
      "stateMutability": "nonpayable",
      "type": "function"
    },
    {
      "inputs": [
        {
          "internalType": "contract ISuperToken",
          "name": "_superToken",
          "type": "address"
        },
        {
          "internalType": "address",
          "name": "_agreementClass",
          "type": "address"
        },
        {
          "internalType": "bytes32",
          "name": "",
          "type": "bytes32"
        },
        {
          "internalType": "bytes",
          "name": "",
          "type": "bytes"
        },
        {
          "internalType": "bytes",
          "name": "",
          "type": "bytes"
        },
        {
          "internalType": "bytes",
          "name": "_ctx",
          "type": "bytes"
        }
      ],
      "name": "afterAgreementTerminated",
      "outputs": [
        {
          "internalType": "bytes",
          "name": "newCtx",
          "type": "bytes"
        }
      ],
      "stateMutability": "nonpayable",
      "type": "function"
    },
    {
      "inputs": [
        {
          "internalType": "contract ISuperToken",
          "name": "_superToken",
          "type": "address"
        },
        {
          "internalType": "address",
          "name": "_agreementClass",
          "type": "address"
        },
        {
          "internalType": "bytes32",
          "name": "",
          "type": "bytes32"
        },
        {
          "internalType": "bytes",
          "name": "agreementData",
          "type": "bytes"
        },
        {
          "internalType": "bytes",
          "name": "",
          "type": "bytes"
        },
        {
          "internalType": "bytes",
          "name": "_ctx",
          "type": "bytes"
        }
      ],
      "name": "afterAgreementUpdated",
      "outputs": [
        {
          "internalType": "bytes",
          "name": "newCtx",
          "type": "bytes"
        }
      ],
      "stateMutability": "nonpayable",
      "type": "function"
    },
    {
      "inputs": [
        {
          "internalType": "address",
          "name": "to",
          "type": "address"
        },
        {
          "internalType": "uint256",
          "name": "tokenId",
          "type": "uint256"
        }
      ],
      "name": "approve",
      "outputs": [],
      "stateMutability": "nonpayable",
      "type": "function"
    },
    {
      "inputs": [
        {
          "internalType": "address",
          "name": "owner",
          "type": "address"
        }
      ],
      "name": "balanceOf",
      "outputs": [
        {
          "internalType": "uint256",
          "name": "",
          "type": "uint256"
        }
      ],
      "stateMutability": "view",
      "type": "function"
    },
    {
      "inputs": [],
      "name": "baseURI",
      "outputs": [
        {
          "internalType": "string",
          "name": "",
          "type": "string"
        }
      ],
      "stateMutability": "view",
      "type": "function"
    },
    {
      "inputs": [
        {
          "internalType": "contract ISuperToken",
          "name": "",
          "type": "address"
        },
        {
          "internalType": "address",
          "name": "",
          "type": "address"
        },
        {
          "internalType": "bytes32",
          "name": "",
          "type": "bytes32"
        },
        {
          "internalType": "bytes",
          "name": "",
          "type": "bytes"
        },
        {
          "internalType": "bytes",
          "name": "",
          "type": "bytes"
        }
      ],
      "name": "beforeAgreementCreated",
      "outputs": [
        {
          "internalType": "bytes",
          "name": "",
          "type": "bytes"
        }
      ],
      "stateMutability": "view",
      "type": "function"
    },
    {
      "inputs": [
        {
          "internalType": "contract ISuperToken",
          "name": "",
          "type": "address"
        },
        {
          "internalType": "address",
          "name": "",
          "type": "address"
        },
        {
          "internalType": "bytes32",
          "name": "",
          "type": "bytes32"
        },
        {
          "internalType": "bytes",
          "name": "",
          "type": "bytes"
        },
        {
          "internalType": "bytes",
          "name": "",
          "type": "bytes"
        }
      ],
      "name": "beforeAgreementTerminated",
      "outputs": [
        {
          "internalType": "bytes",
          "name": "",
          "type": "bytes"
        }
      ],
      "stateMutability": "view",
      "type": "function"
    },
    {
      "inputs": [
        {
          "internalType": "contract ISuperToken",
          "name": "",
          "type": "address"
        },
        {
          "internalType": "address",
          "name": "",
          "type": "address"
        },
        {
          "internalType": "bytes32",
          "name": "",
          "type": "bytes32"
        },
        {
          "internalType": "bytes",
          "name": "",
          "type": "bytes"
        },
        {
          "internalType": "bytes",
          "name": "",
          "type": "bytes"
        }
      ],
      "name": "beforeAgreementUpdated",
      "outputs": [
        {
          "internalType": "bytes",
          "name": "",
          "type": "bytes"
        }
      ],
      "stateMutability": "view",
      "type": "function"
    },
    {
      "inputs": [],
      "name": "cfaV1",
      "outputs": [
        {
          "internalType": "contract ISuperfluid",
          "name": "host",
          "type": "address"
        },
        {
          "internalType": "contract IConstantFlowAgreementV1",
          "name": "cfa",
          "type": "address"
        }
      ],
      "stateMutability": "view",
      "type": "function"
    },
    {
      "inputs": [],
      "name": "currentReceiver",
      "outputs": [
        {
          "internalType": "uint256",
          "name": "startTime",
          "type": "uint256"
        },
        {
          "internalType": "address",
          "name": "receiver",
          "type": "address"
        },
        {
          "internalType": "int96",
          "name": "flowRate",
          "type": "int96"
        }
      ],
      "stateMutability": "view",
      "type": "function"
    },
    {
      "inputs": [
        {
          "internalType": "uint256",
          "name": "tokenId",
          "type": "uint256"
        }
      ],
      "name": "getApproved",
      "outputs": [
        {
          "internalType": "address",
          "name": "",
          "type": "address"
        }
      ],
      "stateMutability": "view",
      "type": "function"
    },
    {
      "inputs": [
        {
          "internalType": "address",
          "name": "owner",
          "type": "address"
        },
        {
          "internalType": "address",
          "name": "operator",
          "type": "address"
        }
      ],
      "name": "isApprovedForAll",
      "outputs": [
        {
          "internalType": "bool",
          "name": "",
          "type": "bool"
        }
      ],
      "stateMutability": "view",
      "type": "function"
    },
    {
      "inputs": [],
      "name": "name",
      "outputs": [
        {
          "internalType": "string",
          "name": "",
          "type": "string"
        }
      ],
      "stateMutability": "view",
      "type": "function"
    },
    {
      "inputs": [
        {
          "internalType": "uint256",
          "name": "tokenId",
          "type": "uint256"
        }
      ],
      "name": "ownerOf",
      "outputs": [
        {
          "internalType": "address",
          "name": "",
          "type": "address"
        }
      ],
      "stateMutability": "view",
      "type": "function"
    },
    {
      "inputs": [
        {
          "internalType": "address",
          "name": "from",
          "type": "address"
        },
        {
          "internalType": "address",
          "name": "to",
          "type": "address"
        },
        {
          "internalType": "uint256",
          "name": "tokenId",
          "type": "uint256"
        }
      ],
      "name": "safeTransferFrom",
      "outputs": [],
      "stateMutability": "nonpayable",
      "type": "function"
    },
    {
      "inputs": [
        {
          "internalType": "address",
          "name": "from",
          "type": "address"
        },
        {
          "internalType": "address",
          "name": "to",
          "type": "address"
        },
        {
          "internalType": "uint256",
          "name": "tokenId",
          "type": "uint256"
        },
        {
          "internalType": "bytes",
          "name": "_data",
          "type": "bytes"
        }
      ],
      "name": "safeTransferFrom",
      "outputs": [],
      "stateMutability": "nonpayable",
      "type": "function"
    },
    {
      "inputs": [
        {
          "internalType": "address",
          "name": "operator",
          "type": "address"
        },
        {
          "internalType": "bool",
          "name": "approved",
          "type": "bool"
        }
      ],
      "name": "setApprovalForAll",
      "outputs": [],
      "stateMutability": "nonpayable",
      "type": "function"
    },
    {
      "inputs": [
        {
          "internalType": "bytes4",
          "name": "interfaceId",
          "type": "bytes4"
        }
      ],
      "name": "supportsInterface",
      "outputs": [
        {
          "internalType": "bool",
          "name": "",
          "type": "bool"
        }
      ],
      "stateMutability": "view",
      "type": "function"
    },
    {
      "inputs": [],
      "name": "symbol",
      "outputs": [
        {
          "internalType": "string",
          "name": "",
          "type": "string"
        }
      ],
      "stateMutability": "view",
      "type": "function"
    },
    {
      "inputs": [
        {
          "internalType": "uint256",
          "name": "index",
          "type": "uint256"
        }
      ],
      "name": "tokenByIndex",
      "outputs": [
        {
          "internalType": "uint256",
          "name": "",
          "type": "uint256"
        }
      ],
      "stateMutability": "view",
      "type": "function"
    },
    {
      "inputs": [
        {
          "internalType": "address",
          "name": "owner",
          "type": "address"
        },
        {
          "internalType": "uint256",
          "name": "index",
          "type": "uint256"
        }
      ],
      "name": "tokenOfOwnerByIndex",
      "outputs": [
        {
          "internalType": "uint256",
          "name": "",
          "type": "uint256"
        }
      ],
      "stateMutability": "view",
      "type": "function"
    },
    {
      "inputs": [
        {
          "internalType": "uint256",
          "name": "tokenId",
          "type": "uint256"
        }
      ],
      "name": "tokenURI",
      "outputs": [
        {
          "internalType": "string",
          "name": "",
          "type": "string"
        }
      ],
      "stateMutability": "view",
      "type": "function"
    },
    {
      "inputs": [],
      "name": "totalSupply",
      "outputs": [
        {
          "internalType": "uint256",
          "name": "",
          "type": "uint256"
        }
      ],
      "stateMutability": "view",
      "type": "function"
    },
    {
      "inputs": [
        {
          "internalType": "address",
          "name": "from",
          "type": "address"
        },
        {
          "internalType": "address",
          "name": "to",
          "type": "address"
        },
        {
          "internalType": "uint256",
          "name": "tokenId",
          "type": "uint256"
        }
      ],
      "name": "transferFrom",
      "outputs": [],
      "stateMutability": "nonpayable",
      "type": "function"
    }
  ],
  "transactionHash": "0x05beb379ff3196a37bd1797c9a5c38407a5c6fb06198195869c015af3f0aa301",
  "args": [
    "0x5966aa11c794893774a382d9a19743B8be6BFFd1",
    "Tradeable Cashflow",
    "TCF",
    "0xF0d7d1D47109bA426B9D8A3Cde1941327af1eea3",
    "0xe3cb950cb164a31c66e32c320a800d477019dcff"
  ],
  "numDeployments": 1,
  "solcInputHash": "95f719751862e02b6d676caf924c4442",
  "bytecode": "0x60806040523480156200001157600080fd5b5060405162003ec438038062003ec4833981810160405260a08110156200003757600080fd5b8151602083018051604051929492938301929190846401000000008211156200005f57600080fd5b9083019060208201858111156200007557600080fd5b82516401000000008111828201881017156200009057600080fd5b82525081516020918201929091019080838360005b83811015620000bf578181015183820152602001620000a5565b50505050905090810190601f168015620000ed5780820380516001836020036101000a031916815260200191505b50604052602001805160405193929190846401000000008211156200011157600080fd5b9083019060208201858111156200012757600080fd5b82516401000000008111828201881017156200014257600080fd5b82525081516020918201929091019080838360005b838110156200017157818101518382015260200162000157565b50505050905090810190601f1680156200019f5780820380516001836020036101000a031916815260200191505b506040908152602082015191015190925090508181868686620001c96301ffc9a760e01b62000400565b8151620001de90600690602085019062000b69565b508051620001f490600790602084019062000b69565b50620002076380ac58cd60e01b62000400565b62000219635b5e139f60e01b62000400565b6200022b63780e9d6360e01b62000400565b50506001600160a01b0383166200023e57fe5b6001600160a01b0382166200024f57fe5b6001600160a01b0381166200026057fe5b600c80546001600160a01b0319166001600160a01b038516908117909155604051635b69006f60e11b815263b6d200de90620002c1907fa9214cc96615e0085d3bb077758db69497dc2dce3b2b1e97bc93c3d18d83efd39060040162000dae565b60206040518083038186803b158015620002da57600080fd5b505afa158015620002ef573d6000803e3d6000fd5b505050506040513d601f19601f8201168201806040525081019062000315919062000ce8565b600d80546001600160a01b03199081166001600160a01b039384161791829055600e80548216868516179055600f80548216858516179055604080518082018252600c548516808252939094166020909401849052600a8054831684179055600b8054909216909317905590516315a722b960e31b8152641500000001919063ad3915c890620003aa90849060040162000dae565b600060405180830381600087803b158015620003c557600080fd5b505af1158015620003da573d6000803e3d6000fd5b5050505050505050620003f58560016200048560201b60201c565b505050505062000f57565b6001600160e01b0319808216141562000460576040805162461bcd60e51b815260206004820152601c60248201527f4552433136353a20696e76616c696420696e7465726661636520696400000000604482015290519081900360640190fd5b6001600160e01b0319166000908152602081905260409020805460ff19166001179055565b6001600160a01b038216620004e1576040805162461bcd60e51b815260206004820181905260248201527f4552433732313a206d696e7420746f20746865207a65726f2061646472657373604482015290519081900360640190fd5b620004ec81620005d9565b156200053f576040805162461bcd60e51b815260206004820152601c60248201527f4552433732313a20746f6b656e20616c7265616479206d696e74656400000000604482015290519081900360640190fd5b6200054d60008383620005fe565b6001600160a01b03821660009081526001602090815260409091206200057e918390620015696200060e821b17901c565b506200059c818360026200062560201b62001575179092919060201c565b5060405181906001600160a01b038416906000907fddf252ad1be2c89b69c2b068fc378daa952ba7f163c4a11628f55a4df523b3ef908290a45050565b6000620005f68260026200064760201b620015951790919060201c565b90505b919050565b620006098262000655565b505050565b60006200061c83836200092e565b90505b92915050565b60006200063d84846001600160a01b0385166200097d565b90505b9392505050565b60006200061c838362000a18565b6001600160a01b038116620006875760405162461bcd60e51b81526004016200067e9062000eab565b60405180910390fd5b600c54604051631e51d6a760e11b81526001600160a01b0390911690633ca3ad4e90620006b990849060040162000d9a565b60206040518083038186803b158015620006d257600080fd5b505afa158015620006e7573d6000803e3d6000fd5b505050506040513d601f19601f820116820180604052508101906200070d919062000c28565b156200072d5760405162461bcd60e51b81526004016200067e9062000ee2565b600f546001600160a01b03828116911614156200074a576200092b565b600d54600e54600f54604051631cd43d1160e31b81526000936001600160a01b039081169363e6a1e888936200078c9391831692309291169060040162000e1a565b60806040518083038186803b158015620007a557600080fd5b505afa158015620007ba573d6000803e3d6000fd5b505050506040513d601f19601f82011682018060405250810190620007e0919062000d2e565b5050915050600081600b0b1315620008ce57600f54600e546200082191600a9130916001600160a01b03908116911662000a30602090811b620015a117901c565b600e54600d5460405163e8e7e2d160e01b8152620008ce9285926001600160a01b039182169291169063e8e7e2d19062000862908490309060040162000e00565b60206040518083038186803b1580156200087b57600080fd5b505afa15801562000890573d6000803e3d6000fd5b505050506040513d601f19601f82011682018060405250810190620008b6919062000d11565b600a62000b2160201b6200168a17909392919060201c565b600f80546001600160a01b0319166001600160a01b0384811691909117918290556040517f7dfb1d59db37a3fd2e15e796c189dcab714cdbb18650d68a1de58f8fa60718c9926200092192169062000d9a565b60405180910390a1505b50565b60006200093c838362000a18565b62000974575081546001818101845560008481526020808220909301849055845484825282860190935260409020919091556200061f565b5060006200061f565b600082815260018401602052604081205480620009e457505060408051808201825283815260208082018481528654600181810189556000898152848120955160029093029095019182559151908201558654868452818801909252929091205562000640565b82856000016001830381548110620009f857fe5b906000526020600020906002020160010181905550600091505062000640565b60009081526001919091016020526040902054151590565b835460018501546040805160008152602081019091526001600160a01b03928316926339255d5b921690635a5999e360e11b9062000a78908690899089906044810162000e3d565b60408051601f198184030181529181526020820180516001600160e01b03166001600160e01b03199485161790525160e085901b909216825262000ac0929160040162000db7565b600060405180830381600087803b15801562000adb57600080fd5b505af115801562000af0573d6000803e3d6000fd5b505050506040513d6000823e601f3d908101601f1916820160405262000b1a919081019062000c4a565b5050505050565b835460018501546040805160008152602081019091526001600160a01b03928316926339255d5b92169063317e182f60e11b9062000a78908790899088906044810162000e73565b828054600181600116156101000203166002900490600052602060002090601f01602090048101928262000ba1576000855562000bec565b82601f1062000bbc57805160ff191683800117855562000bec565b8280016001018555821562000bec579182015b8281111562000bec57825182559160200191906001019062000bcf565b5062000bfa92915062000bfe565b5090565b5b8082111562000bfa576000815560010162000bff565b8051600b81900b8114620005f957600080fd5b60006020828403121562000c3a578081fd5b8151801515811462000640578182fd5b60006020828403121562000c5c578081fd5b81516001600160401b038082111562000c73578283fd5b818401915084601f83011262000c87578283fd5b81518181111562000c9457fe5b604051601f8201601f19168101602001838111828210171562000cb357fe5b60405281815283820160200187101562000ccb578485fd5b62000cde82602083016020870162000f24565b9695505050505050565b60006020828403121562000cfa578081fd5b81516001600160a01b038116811462000640578182fd5b60006020828403121562000d23578081fd5b6200061c8262000c15565b6000806000806080858703121562000d44578283fd5b8451935062000d566020860162000c15565b6040860151606090960151949790965092505050565b6000815180845262000d8681602086016020860162000f24565b601f01601f19169290920160200192915050565b6001600160a01b0391909116815260200190565b90815260200190565b6001600160a01b038316815260606020820181905260009062000ddd9083018462000d6c565b8281036040938401526002815261060f60f31b6020820152919091019392505050565b6001600160a01b0392831681529116602082015260400190565b6001600160a01b0393841681529183166020830152909116604082015260600190565b6001600160a01b03858116825284811660208301528316604082015260806060820181905260009062000cde9083018462000d6c565b6001600160a01b03858116825284166020820152600b83900b604082015260806060820181905260009062000cde9083018462000d6c565b6020808252601c908201527f4e6577207265636569766572206973207a65726f206164647265737300000000604082015260600190565b60208082526022908201527f4e65772072656365697665722063616e206e6f74206265206120737570657241604082015261070760f41b606082015260800190565b60005b8381101562000f4157818101518382015260200162000f27565b8381111562000f51576000848401525b50505050565b612f5d8062000f676000396000f3fe608060405234801561001057600080fd5b506004361061018e5760003560e01c806353c11f99116100de57806395d89b4111610097578063c87b56dd11610071578063c87b56dd146109f5578063d3112b2e14610a12578063d86ed3e5146102d4578063e985e9c514610a495761018e565b806395d89b41146108fb578063a22cb46514610903578063b88d4fde146109315761018e565b806353c11f99146105c65780635f9e7d77146106f45780636352211e146107d25780636c0360eb146107ef57806370a08231146107f7578063884d1f401461081d5761018e565b8063230dbd291161014b5780632f745c59116101255780632f745c591461046957806330d9c9151461049557806342842e0e146105735780634f6ccce7146105a95761018e565b8063230dbd29146102d457806323b872dd1461040257806328d2bf94146104385761018e565b806301ffc9a71461019357806302964ff1146101ce57806306fdde03146101f2578063081812fc1461026f578063095ea7b31461028c57806318160ddd146102ba575b600080fd5b6101ba600480360360208110156101a957600080fd5b50356001600160e01b031916610a77565b604080519115158252519081900360200190f35b6101d6610a9a565b604080516001600160a01b039092168252519081900360200190f35b6101fa610aa9565b6040805160208082528351818301528351919283929083019185019080838360005b8381101561023457818101518382015260200161021c565b50505050905090810190601f1680156102615780820380516001836020036101000a031916815260200191505b509250505060405180910390f35b6101d66004803603602081101561028557600080fd5b5035610b3f565b6102b8600480360360408110156102a257600080fd5b506001600160a01b038135169060200135610ba1565b005b6102c2610c7c565b60408051918252519081900360200190f35b6101fa600480360360c08110156102ea57600080fd5b6001600160a01b03823581169260208101359091169160408201359190810190608081016060820135600160201b81111561032457600080fd5b82018360208201111561033657600080fd5b803590602001918460018302840111600160201b8311171561035757600080fd5b919390929091602081019035600160201b81111561037457600080fd5b82018360208201111561038657600080fd5b803590602001918460018302840111600160201b831117156103a757600080fd5b919390929091602081019035600160201b8111156103c457600080fd5b8201836020820111156103d657600080fd5b803590602001918460018302840111600160201b831117156103f757600080fd5b509092509050610c8d565b6102b86004803603606081101561041857600080fd5b506001600160a01b03813581169160208101359091169060400135610d28565b610440610d7f565b604080519384526001600160a01b039092166020840152600b0b82820152519081900360600190f35b6102c26004803603604081101561047f57600080fd5b506001600160a01b038135169060200135610e42565b6101fa600480360360a08110156104ab57600080fd5b6001600160a01b03823581169260208101359091169160408201359190810190608081016060820135600160201b8111156104e557600080fd5b8201836020820111156104f757600080fd5b803590602001918460018302840111600160201b8311171561051857600080fd5b919390929091602081019035600160201b81111561053557600080fd5b82018360208201111561054757600080fd5b803590602001918460018302840111600160201b8311171561056857600080fd5b509092509050610e6d565b6102b86004803603606081101561058957600080fd5b506001600160a01b03813581169160208101359091169060400135610ea6565b6102c2600480360360208110156105bf57600080fd5b5035610ec1565b6101fa600480360360c08110156105dc57600080fd5b6001600160a01b03823581169260208101359091169160408201359190810190608081016060820135600160201b81111561061657600080fd5b82018360208201111561062857600080fd5b803590602001918460018302840111600160201b8311171561064957600080fd5b919390929091602081019035600160201b81111561066657600080fd5b82018360208201111561067857600080fd5b803590602001918460018302840111600160201b8311171561069957600080fd5b919390929091602081019035600160201b8111156106b657600080fd5b8201836020820111156106c857600080fd5b803590602001918460018302840111600160201b831117156106e957600080fd5b509092509050610ed7565b6101fa600480360360a081101561070a57600080fd5b6001600160a01b03823581169260208101359091169160408201359190810190608081016060820135600160201b81111561074457600080fd5b82018360208201111561075657600080fd5b803590602001918460018302840111600160201b8311171561077757600080fd5b919390929091602081019035600160201b81111561079457600080fd5b8201836020820111156107a657600080fd5b803590602001918460018302840111600160201b831117156107c757600080fd5b509092509050610f7d565b6101d6600480360360208110156107e857600080fd5b5035610fb6565b6101fa610fde565b6102c26004803603602081101561080d57600080fd5b50356001600160a01b031661103f565b6101fa600480360360a081101561083357600080fd5b6001600160a01b03823581169260208101359091169160408201359190810190608081016060820135600160201b81111561086d57600080fd5b82018360208201111561087f57600080fd5b803590602001918460018302840111600160201b831117156108a057600080fd5b919390929091602081019035600160201b8111156108bd57600080fd5b8201836020820111156108cf57600080fd5b803590602001918460018302840111600160201b831117156108f057600080fd5b5090925090506110a7565b6101fa6110e0565b6102b86004803603604081101561091957600080fd5b506001600160a01b0381351690602001351515611141565b6102b86004803603608081101561094757600080fd5b6001600160a01b03823581169260208101359091169160408201359190810190608081016060820135600160201b81111561098157600080fd5b82018360208201111561099357600080fd5b803590602001918460018302840111600160201b831117156109b457600080fd5b91908080601f016020809104026020016040519081016040528093929190818152602001838380828437600092019190915250929550611246945050505050565b6101fa60048036036020811015610a0b57600080fd5b50356112a4565b610a1a611525565b60405180836001600160a01b03168152602001826001600160a01b031681526020019250505060405180910390f35b6101ba60048036036040811015610a5f57600080fd5b506001600160a01b038135811691602001351661153b565b6001600160e01b0319811660009081526020819052604090205460ff165b919050565b600f546001600160a01b031681565b60068054604080516020601f6002600019610100600188161502019095169490940493840181900481028201810190925282815260609390929091830182828015610b355780601f10610b0a57610100808354040283529160200191610b35565b820191906000526020600020905b815481529060010190602001808311610b1857829003601f168201915b5050505050905090565b6000610b4a826116d0565b610b855760405162461bcd60e51b815260040180806020018281038252602c815260200180612df4602c913960400191505060405180910390fd5b506000908152600460205260409020546001600160a01b031690565b6000610bac82610fb6565b9050806001600160a01b0316836001600160a01b03161415610bff5760405162461bcd60e51b8152600401808060200182810382526021815260200180612e786021913960400191505060405180910390fd5b806001600160a01b0316610c116116dd565b6001600160a01b03161480610c325750610c3281610c2d6116dd565b61153b565b610c6d5760405162461bcd60e51b8152600401808060200182810382526038815260200180612d476038913960400191505060405180910390fd5b610c7783836116e1565b505050565b6000610c88600261174f565b905090565b60608989610c9a8261175a565b610cbf5760405162461bcd60e51b8152600401610cb690612b51565b60405180910390fd5b610cc88161176e565b610ce45760405162461bcd60e51b8152600401610cb690612b10565b600c546001600160a01b03163314610d0e5760405162461bcd60e51b8152600401610cb690612b88565b610d188585611809565b9c9b505050505050505050505050565b610d39610d336116dd565b826119f5565b610d745760405162461bcd60e51b8152600401808060200182810382526031815260200180612ec86031913960400191505060405180910390fd5b610c77838383611a99565b600f54600090819081906001600160a01b031615610e3d57600d54600e54600f54604051631cd43d1160e31b81526001600160a01b039384169363e6a1e88893610dd59390821692309290911690600401612a83565b60806040518083038186803b158015610ded57600080fd5b505afa158015610e01573d6000803e3d6000fd5b505050506040513d601f19601f82011682018060405250810190610e259190612951565b5050600f549194506001600160a01b03909116925090505b909192565b6001600160a01b0382166000908152600160205260408120610e649083611be5565b90505b92915050565b606060405162461bcd60e51b815260040180806020018281038252602f815260200180612ef9602f913960400191505060405180910390fd5b610c7783838360405180602001604052806000815250611246565b600080610ecf600284611bf1565b509392505050565b600c546060906001600160a01b03163314610f045760405162461bcd60e51b8152600401610cb690612b88565b610f0d8a61175a565b1580610f1f5750610f1d8961176e565b155b15610f635782828080601f016020809104026020016040519081016040528093929190818152602001838380828437600092019190915250929350610f7092505050565b610f6d8383611809565b90505b9998505050505050505050565b606060405162461bcd60e51b8152600401808060200182810382526033815260200180612cc46033913960400191505060405180910390fd5b6000610e6782604051806060016040528060298152602001612da96029913960029190611c0d565b60098054604080516020601f6002600019610100600188161502019095169490940493840181900481028201810190925282815260609390929091830182828015610b355780601f10610b0a57610100808354040283529160200191610b35565b60006001600160a01b0382166110865760405162461bcd60e51b815260040180806020018281038252602a815260200180612d7f602a913960400191505060405180910390fd5b6001600160a01b0382166000908152600160205260409020610e679061174f565b606060405162461bcd60e51b815260040180806020018281038252602f815260200180612e99602f913960400191505060405180910390fd5b60078054604080516020601f6002600019610100600188161502019095169490940493840181900481028201810190925282815260609390929091830182828015610b355780601f10610b0a57610100808354040283529160200191610b35565b6111496116dd565b6001600160a01b0316826001600160a01b031614156111af576040805162461bcd60e51b815260206004820152601960248201527f4552433732313a20617070726f766520746f2063616c6c657200000000000000604482015290519081900360640190fd5b80600560006111bc6116dd565b6001600160a01b03908116825260208083019390935260409182016000908120918716808252919093529120805460ff1916921515929092179091556112006116dd565b6001600160a01b03167f17307eab39ab6107e8899845ad3d59bd9653f200f220920489ca2b5937696c318360405180821515815260200191505060405180910390a35050565b6112576112516116dd565b836119f5565b6112925760405162461bcd60e51b8152600401808060200182810382526031815260200180612ec86031913960400191505060405180910390fd5b61129e84848484611c1a565b50505050565b60606112af826116d0565b6112ea5760405162461bcd60e51b815260040180806020018281038252602f815260200180612e49602f913960400191505060405180910390fd5b60008281526008602090815260408083208054825160026001831615610100026000190190921691909104601f81018590048502820185019093528281529290919083018282801561137d5780601f106113525761010080835404028352916020019161137d565b820191906000526020600020905b81548152906001019060200180831161136057829003601f168201915b50505050509050600061138e610fde565b90508051600014156113a257509050610a95565b8151156114635780826040516020018083805190602001908083835b602083106113dd5780518252601f1990920191602091820191016113be565b51815160209384036101000a600019018019909216911617905285519190930192850191508083835b602083106114255780518252601f199092019160209182019101611406565b6001836020036101000a0380198251168184511680821785525050505050509050019250505060405160208183030381529060405292505050610a95565b8061146d85611c6c565b6040516020018083805190602001908083835b6020831061149f5780518252601f199092019160209182019101611480565b51815160209384036101000a600019018019909216911617905285519190930192850191508083835b602083106114e75780518252601f1990920191602091820191016114c8565b6001836020036101000a0380198251168184511680821785525050505050509050019250505060405160208183030381529060405292505050919050565b600a54600b546001600160a01b03918216911682565b6001600160a01b03918216600090815260056020908152604080832093909416825291909152205460ff1690565b6000610e648383611d47565b600061158b84846001600160a01b038516611d91565b90505b9392505050565b6000610e648383611e28565b835460018501546040805160008152602081019091526001600160a01b03928316926339255d5b921690635a5999e360e11b906115e79086908990899060448101612aa6565b60408051601f198184030181529181526020820180516001600160e01b03166001600160e01b03199485161790525160e085901b909216825261162d92916004016129e1565b600060405180830381600087803b15801561164757600080fd5b505af115801561165b573d6000803e3d6000fd5b505050506040513d6000823e601f3d908101601f1916820160405261168391908101906128a3565b5050505050565b835460018501546040805160008152602081019091526001600160a01b03928316926339255d5b92169063317e182f60e11b906115e79087908990889060448101612ada565b6000610e67600283611595565b3390565b600081815260046020526040902080546001600160a01b0319166001600160a01b038416908117909155819061171682610fb6565b6001600160a01b03167f8c5be1e5ebec7d5bd14f71427d1e84f3dd0314c0f7b2291e5b200ac8c7c3b92560405160405180910390a45050565b6000610e6782611e40565b600e546001600160a01b0390811691161490565b60007fa9214cc96615e0085d3bb077758db69497dc2dce3b2b1e97bc93c3d18d83efd3826001600160a01b0316637730599e6040518163ffffffff1660e01b815260040160206040518083038186803b1580156117ca57600080fd5b505afa1580156117de573d6000803e3d6000fd5b505050506040513d601f19601f82011682018060405250810190611802919061288b565b1492915050565b606082828080601f0160208091040260200160405190810160405280939291908181526020018383808284376000920182905250600d54600e5460405163e8e7e2d160e01b815296975091956001600160a01b03918216955063e8e7e2d1945061187b93509116903090600401612a69565b60206040518083038186803b15801561189357600080fd5b505afa1580156118a7573d6000803e3d6000fd5b505050506040513d601f19601f820116820180604052508101906118cb9190612937565b600d54600e54600f54604051631cd43d1160e31b81529394506000936001600160a01b039384169363e6a1e8889361190f9390821692309290911690600401612a83565b60806040518083038186803b15801561192757600080fd5b505afa15801561193b573d6000803e3d6000fd5b505050506040513d601f19601f8201168201806040525081019061195f9190612951565b509092505050818101600b81900b61199b57600f54600e5461199491600a91879130916001600160a01b039182169116611e44565b93506119ec565b600b82900b156119c757600f54600e5461199491600a9187916001600160a01b03908116911685611f37565b600f54600e546119e991600a9187916001600160a01b03908116911685611fa2565b93505b50505092915050565b6000611a00826116d0565b611a3b5760405162461bcd60e51b815260040180806020018281038252602c815260200180612d1b602c913960400191505060405180910390fd5b6000611a4683610fb6565b9050806001600160a01b0316846001600160a01b03161480611a815750836001600160a01b0316611a7684610b3f565b6001600160a01b0316145b80611a915750611a91818561153b565b949350505050565b826001600160a01b0316611aac82610fb6565b6001600160a01b031614611af15760405162461bcd60e51b8152600401808060200182810382526029815260200180612e206029913960400191505060405180910390fd5b6001600160a01b038216611b365760405162461bcd60e51b8152600401808060200182810382526024815260200180612cf76024913960400191505060405180910390fd5b611b41838383611fd2565b611b4c6000826116e1565b6001600160a01b0383166000908152600160205260409020611b6e9082611fdb565b506001600160a01b0382166000908152600160205260409020611b919082611569565b50611b9e60028284611575565b5080826001600160a01b0316846001600160a01b03167fddf252ad1be2c89b69c2b068fc378daa952ba7f163c4a11628f55a4df523b3ef60405160405180910390a4505050565b6000610e648383611fe7565b6000808080611c00868661204b565b9097909650945050505050565b600061158b8484846120c6565b611c25848484611a99565b611c3184848484612190565b61129e5760405162461bcd60e51b8152600401808060200182810382526032815260200180612c926032913960400191505060405180910390fd5b606081611c9157506040805180820190915260018152600360fc1b6020820152610a95565b8160005b8115611ca957600101600a82049150611c95565b60008167ffffffffffffffff81118015611cc257600080fd5b506040519080825280601f01601f191660200182016040528015611ced576020820181803683370190505b50859350905060001982015b8315611d3e57600a840660300160f81b82828060019003935081518110611d1c57fe5b60200101906001600160f81b031916908160001a905350600a84049350611cf9565b50949350505050565b6000611d538383611e28565b611d8957508154600181810184556000848152602080822090930184905584548482528286019093526040902091909155610e67565b506000610e67565b600082815260018401602052604081205480611df657505060408051808201825283815260208082018481528654600181810189556000898152848120955160029093029095019182559151908201558654868452818801909252929091205561158e565b82856000016001830381548110611e0957fe5b906000526020600020906002020160010181905550600091505061158e565b60009081526001919091016020526040902054151590565b5490565b845460018601546040805160008152602081019091526060926001600160a01b0390811692634329d29392911690635a5999e360e11b90611e8e9087908a908a9060448101612aa6565b60408051601f198184030181529181526020820180516001600160e01b03166001600160e01b03199485161790525160e085901b9092168252611ed692918a90600401612a16565b600060405180830381600087803b158015611ef057600080fd5b505af1158015611f04573d6000803e3d6000fd5b505050506040513d6000823e601f3d908101601f19168201604052611f2c91908101906128d6565b509695505050505050565b845460018601546060916001600160a01b0390811691634329d29391166328104d3160e11b8688876000805b506040519080825280601f01601f191660200182016040528015611f8e576020820181803683370190505b50604051602401611e8e9493929190612ada565b845460018601546060916001600160a01b0390811691634329d293911663317e182f60e11b868887600080611f63565b610c77826122f8565b6000610e64838361258e565b815460009082106120295760405162461bcd60e51b8152600401808060200182810382526022815260200180612c706022913960400191505060405180910390fd5b82600001828154811061203857fe5b9060005260206000200154905092915050565b81546000908190831061208f5760405162461bcd60e51b8152600401808060200182810382526022815260200180612dd26022913960400191505060405180910390fd5b60008460000184815481106120a057fe5b906000526020600020906002020190508060000154816001015492509250509250929050565b600082815260018401602052604081205482816121615760405162461bcd60e51b81526004018080602001828103825283818151815260200191508051906020019080838360005b8381101561212657818101518382015260200161210e565b50505050905090810190601f1680156121535780820380516001836020036101000a031916815260200191505b509250505060405180910390fd5b5084600001600182038154811061217457fe5b9060005260206000209060020201600101549150509392505050565b60006121a4846001600160a01b0316612654565b6121b057506001611a91565b60006122be630a85bd0160e11b6121c56116dd565b88878760405160240180856001600160a01b03168152602001846001600160a01b0316815260200183815260200180602001828103825283818151815260200191508051906020019080838360005b8381101561222c578181015183820152602001612214565b50505050905090810190601f1680156122595780820380516001836020036101000a031916815260200191505b5095505050505050604051602081830303815290604052906001600160e01b0319166020820180516001600160e01b038381831617835250505050604051806060016040528060328152602001612c92603291396001600160a01b038816919061265a565b905060008180602001905160208110156122d757600080fd5b50516001600160e01b031916630a85bd0160e11b1492505050949350505050565b6001600160a01b03811661231e5760405162461bcd60e51b8152600401610cb690612bca565b600c54604051631e51d6a760e11b81526001600160a01b0390911690633ca3ad4e9061234e9084906004016129cd565b60206040518083038186803b15801561236657600080fd5b505afa15801561237a573d6000803e3d6000fd5b505050506040513d601f19601f8201168201806040525081019061239e919061286b565b156123bb5760405162461bcd60e51b8152600401610cb690612c01565b600f546001600160a01b03828116911614156123d65761258b565b600d54600e54600f54604051631cd43d1160e31b81526000936001600160a01b039081169363e6a1e8889361241693918316923092911690600401612a83565b60806040518083038186803b15801561242e57600080fd5b505afa158015612442573d6000803e3d6000fd5b505050506040513d601f19601f820116820180604052508101906124669190612951565b5050915050600081600b0b131561253057600f54600e5461249891600a9130916001600160a01b0390811691166115a1565b600e54600d5460405163e8e7e2d160e01b81526125309285926001600160a01b039182169291169063e8e7e2d1906124d69084903090600401612a69565b60206040518083038186803b1580156124ee57600080fd5b505afa158015612502573d6000803e3d6000fd5b505050506040513d601f19601f820116820180604052508101906125269190612937565b600a92919061168a565b600f80546001600160a01b0319166001600160a01b0384811691909117918290556040517f7dfb1d59db37a3fd2e15e796c189dcab714cdbb18650d68a1de58f8fa60718c9926125819216906129cd565b60405180910390a1505b50565b6000818152600183016020526040812054801561264a57835460001980830191908101906000908790839081106125c157fe5b90600052602060002001549050808760000184815481106125de57fe5b60009182526020808320909101929092558281526001898101909252604090209084019055865487908061260e57fe5b60019003818190600052602060002001600090559055866001016000878152602001908152602001600020600090556001945050505050610e67565b6000915050610e67565b3b151590565b606061158b84846000858561266e85612654565b6126bf576040805162461bcd60e51b815260206004820152601d60248201527f416464726573733a2063616c6c20746f206e6f6e2d636f6e7472616374000000604482015290519081900360640190fd5b600080866001600160a01b031685876040518082805190602001908083835b602083106126fd5780518252601f1990920191602091820191016126de565b6001836020036101000a03801982511681845116808217855250505050505090500191505060006040518083038185875af1925050503d806000811461275f576040519150601f19603f3d011682016040523d82523d6000602084013e612764565b606091505b509150915061277482828661277f565b979650505050505050565b6060831561278e57508161158e565b82511561279e5782518084602001fd5b60405162461bcd60e51b815260206004820181815284516024840152845185939192839260440191908501908083836000831561212657818101518382015260200161210e565b600082601f8301126127f5578081fd5b815167ffffffffffffffff8082111561280a57fe5b604051601f8301601f19168101602001828111828210171561282857fe5b60405282815284830160200186101561283f578384fd5b612850836020830160208801612c43565b95945050505050565b8051600b81900b8114610a9557600080fd5b60006020828403121561287c578081fd5b8151801515811461158e578182fd5b60006020828403121561289c578081fd5b5051919050565b6000602082840312156128b4578081fd5b815167ffffffffffffffff8111156128ca578182fd5b611a91848285016127e5565b600080604083850312156128e8578081fd5b825167ffffffffffffffff808211156128ff578283fd5b61290b868387016127e5565b93506020850151915080821115612920578283fd5b5061292d858286016127e5565b9150509250929050565b600060208284031215612948578081fd5b610e6482612859565b60008060008060808587031215612966578182fd5b8451935061297660208601612859565b6040860151606090960151949790965092505050565b600081518084526129a4816020860160208601612c43565b601f01601f19169290920160200192915050565b6002815261060f60f31b602082015260400190565b6001600160a01b0391909116815260200190565b6001600160a01b0383168152606060208201819052600090612a059083018461298c565b8281036040840152612850816129b8565b6001600160a01b0384168152608060208201819052600090612a3a9083018561298c565b8281036040840152612a4b816129b8565b90508281036060840152612a5f818561298c565b9695505050505050565b6001600160a01b0392831681529116602082015260400190565b6001600160a01b0393841681529183166020830152909116604082015260600190565b6001600160a01b038581168252848116602083015283166040820152608060608201819052600090612a5f9083018461298c565b6001600160a01b03858116825284166020820152600b83900b6040820152608060608201819052600090612a5f9083018461298c565b60208082526021908201527f5265646972656374416c6c3a206f6e6c7920434641763120737570706f7274656040820152601960fa1b606082015260800190565b6020808252601f908201527f5265646972656374416c6c3a206e6f7420616363657074656420746f6b656e00604082015260600190565b60208082526022908201527f5265646972656374416c6c3a20737570706f7274206f6e6c79206f6e6520686f6040820152611cdd60f21b606082015260800190565b6020808252601c908201527f4e6577207265636569766572206973207a65726f206164647265737300000000604082015260600190565b60208082526022908201527f4e65772072656365697665722063616e206e6f74206265206120737570657241604082015261070760f41b606082015260800190565b60005b83811015612c5e578181015183820152602001612c46565b8381111561129e575050600091015256fe456e756d657261626c655365743a20696e646578206f7574206f6620626f756e64734552433732313a207472616e7366657220746f206e6f6e20455243373231526563656976657220696d706c656d656e746572556e737570706f727465642063616c6c6261636b202d20204265666f72652041677265656d656e74205465726d696e617465644552433732313a207472616e7366657220746f20746865207a65726f20616464726573734552433732313a206f70657261746f7220717565727920666f72206e6f6e6578697374656e7420746f6b656e4552433732313a20617070726f76652063616c6c6572206973206e6f74206f776e6572206e6f7220617070726f76656420666f7220616c6c4552433732313a2062616c616e636520717565727920666f7220746865207a65726f20616464726573734552433732313a206f776e657220717565727920666f72206e6f6e6578697374656e7420746f6b656e456e756d657261626c654d61703a20696e646578206f7574206f6620626f756e64734552433732313a20617070726f76656420717565727920666f72206e6f6e6578697374656e7420746f6b656e4552433732313a207472616e73666572206f6620746f6b656e2074686174206973206e6f74206f776e4552433732314d657461646174613a2055524920717565727920666f72206e6f6e6578697374656e7420746f6b656e4552433732313a20617070726f76616c20746f2063757272656e74206f776e6572556e737570706f727465642063616c6c6261636b202d204265666f72652041677265656d656e7420757064617465644552433732313a207472616e736665722063616c6c6572206973206e6f74206f776e6572206e6f7220617070726f766564556e737570706f727465642063616c6c6261636b202d204265666f72652041677265656d656e742043726561746564a26469706673582212205fdafe8c31ec9344699ce4e944f929e13db7827d2e577370c59443d3a1c38d5f64736f6c63430007060033",
  "devdoc": {
    "kind": "dev",
    "methods": {
      "approve(address,uint256)": {
        "details": "See {IERC721-approve}."
      },
      "balanceOf(address)": {
        "details": "See {IERC721-balanceOf}."
      },
      "baseURI()": {
        "details": "Returns the base URI set via {_setBaseURI}. This will be automatically added as a prefix in {tokenURI} to each token's URI, or to the token ID if no specific URI is set for that token ID."
      },
      "getApproved(uint256)": {
        "details": "See {IERC721-getApproved}."
      },
      "isApprovedForAll(address,address)": {
        "details": "See {IERC721-isApprovedForAll}."
      },
      "name()": {
        "details": "See {IERC721Metadata-name}."
      },
      "ownerOf(uint256)": {
        "details": "See {IERC721-ownerOf}."
      },
      "safeTransferFrom(address,address,uint256)": {
        "details": "See {IERC721-safeTransferFrom}."
      },
      "safeTransferFrom(address,address,uint256,bytes)": {
        "details": "See {IERC721-safeTransferFrom}."
      },
      "setApprovalForAll(address,bool)": {
        "details": "See {IERC721-setApprovalForAll}."
      },
      "supportsInterface(bytes4)": {
        "details": "See {IERC165-supportsInterface}. Time complexity O(1), guaranteed to always use less than 30 000 gas."
      },
      "symbol()": {
        "details": "See {IERC721Metadata-symbol}."
      },
      "tokenByIndex(uint256)": {
        "details": "See {IERC721Enumerable-tokenByIndex}."
      },
      "tokenOfOwnerByIndex(address,uint256)": {
        "details": "See {IERC721Enumerable-tokenOfOwnerByIndex}."
      },
      "tokenURI(uint256)": {
        "details": "See {IERC721Metadata-tokenURI}."
      },
      "totalSupply()": {
        "details": "See {IERC721Enumerable-totalSupply}."
      },
      "transferFrom(address,address,uint256)": {
        "details": "See {IERC721-transferFrom}."
      }
    },
    "version": 1
  },
  "userdoc": {
    "kind": "user",
    "methods": {},
    "version": 1
  },
  "storageLayout": {
    "storage": [
      {
        "astId": 13,
        "contract": "contracts/TradeableCashflow.sol:TradeableCashflow",
        "label": "_supportedInterfaces",
        "offset": 0,
        "slot": "0",
        "type": "t_mapping(t_bytes4,t_bool)"
      },
      {
        "astId": 547,
        "contract": "contracts/TradeableCashflow.sol:TradeableCashflow",
        "label": "_holderTokens",
        "offset": 0,
        "slot": "1",
        "type": "t_mapping(t_address,t_struct(UintSet)3072_storage)"
      },
      {
        "astId": 549,
        "contract": "contracts/TradeableCashflow.sol:TradeableCashflow",
        "label": "_tokenOwners",
        "offset": 0,
        "slot": "2",
        "type": "t_struct(UintToAddressMap)2449_storage"
      },
      {
        "astId": 553,
        "contract": "contracts/TradeableCashflow.sol:TradeableCashflow",
        "label": "_tokenApprovals",
        "offset": 0,
        "slot": "4",
        "type": "t_mapping(t_uint256,t_address)"
      },
      {
        "astId": 559,
        "contract": "contracts/TradeableCashflow.sol:TradeableCashflow",
        "label": "_operatorApprovals",
        "offset": 0,
        "slot": "5",
        "type": "t_mapping(t_address,t_mapping(t_address,t_bool))"
      },
      {
        "astId": 561,
        "contract": "contracts/TradeableCashflow.sol:TradeableCashflow",
        "label": "_name",
        "offset": 0,
        "slot": "6",
        "type": "t_string_storage"
      },
      {
        "astId": 563,
        "contract": "contracts/TradeableCashflow.sol:TradeableCashflow",
        "label": "_symbol",
        "offset": 0,
        "slot": "7",
        "type": "t_string_storage"
      },
      {
        "astId": 567,
        "contract": "contracts/TradeableCashflow.sol:TradeableCashflow",
        "label": "_tokenURIs",
        "offset": 0,
        "slot": "8",
        "type": "t_mapping(t_uint256,t_string_storage)"
      },
      {
        "astId": 569,
        "contract": "contracts/TradeableCashflow.sol:TradeableCashflow",
        "label": "_baseURI",
        "offset": 0,
        "slot": "9",
        "type": "t_string_storage"
      },
      {
        "astId": 5773,
        "contract": "contracts/TradeableCashflow.sol:TradeableCashflow",
        "label": "cfaV1",
        "offset": 0,
        "slot": "10",
        "type": "t_struct(InitData)3267_storage"
      },
      {
        "astId": 5775,
        "contract": "contracts/TradeableCashflow.sol:TradeableCashflow",
        "label": "_host",
        "offset": 0,
        "slot": "12",
        "type": "t_contract(ISuperfluid)5356"
      },
      {
        "astId": 5777,
        "contract": "contracts/TradeableCashflow.sol:TradeableCashflow",
        "label": "_cfa",
        "offset": 0,
        "slot": "13",
        "type": "t_contract(IConstantFlowAgreementV1)4051"
      },
      {
        "astId": 5779,
        "contract": "contracts/TradeableCashflow.sol:TradeableCashflow",
        "label": "_acceptedToken",
        "offset": 0,
        "slot": "14",
        "type": "t_contract(ISuperToken)4860"
      },
      {
        "astId": 5781,
        "contract": "contracts/TradeableCashflow.sol:TradeableCashflow",
        "label": "_receiver",
        "offset": 0,
        "slot": "15",
        "type": "t_address"
      }
    ],
    "types": {
      "t_address": {
        "encoding": "inplace",
        "label": "address",
        "numberOfBytes": "20"
      },
      "t_array(t_bytes32)dyn_storage": {
        "base": "t_bytes32",
        "encoding": "dynamic_array",
        "label": "bytes32[]",
        "numberOfBytes": "32"
      },
      "t_array(t_struct(MapEntry)2123_storage)dyn_storage": {
        "base": "t_struct(MapEntry)2123_storage",
        "encoding": "dynamic_array",
        "label": "struct EnumerableMap.MapEntry[]",
        "numberOfBytes": "32"
      },
      "t_bool": {
        "encoding": "inplace",
        "label": "bool",
        "numberOfBytes": "1"
      },
      "t_bytes32": {
        "encoding": "inplace",
        "label": "bytes32",
        "numberOfBytes": "32"
      },
      "t_bytes4": {
        "encoding": "inplace",
        "label": "bytes4",
        "numberOfBytes": "4"
      },
      "t_contract(IConstantFlowAgreementV1)4051": {
        "encoding": "inplace",
        "label": "contract IConstantFlowAgreementV1",
        "numberOfBytes": "20"
      },
      "t_contract(ISuperToken)4860": {
        "encoding": "inplace",
        "label": "contract ISuperToken",
        "numberOfBytes": "20"
      },
      "t_contract(ISuperfluid)5356": {
        "encoding": "inplace",
        "label": "contract ISuperfluid",
        "numberOfBytes": "20"
      },
      "t_mapping(t_address,t_bool)": {
        "encoding": "mapping",
        "key": "t_address",
        "label": "mapping(address => bool)",
        "numberOfBytes": "32",
        "value": "t_bool"
      },
      "t_mapping(t_address,t_mapping(t_address,t_bool))": {
        "encoding": "mapping",
        "key": "t_address",
        "label": "mapping(address => mapping(address => bool))",
        "numberOfBytes": "32",
        "value": "t_mapping(t_address,t_bool)"
      },
      "t_mapping(t_address,t_struct(UintSet)3072_storage)": {
        "encoding": "mapping",
        "key": "t_address",
        "label": "mapping(address => struct EnumerableSet.UintSet)",
        "numberOfBytes": "32",
        "value": "t_struct(UintSet)3072_storage"
      },
      "t_mapping(t_bytes32,t_uint256)": {
        "encoding": "mapping",
        "key": "t_bytes32",
        "label": "mapping(bytes32 => uint256)",
        "numberOfBytes": "32",
        "value": "t_uint256"
      },
      "t_mapping(t_bytes4,t_bool)": {
        "encoding": "mapping",
        "key": "t_bytes4",
        "label": "mapping(bytes4 => bool)",
        "numberOfBytes": "32",
        "value": "t_bool"
      },
      "t_mapping(t_uint256,t_address)": {
        "encoding": "mapping",
        "key": "t_uint256",
        "label": "mapping(uint256 => address)",
        "numberOfBytes": "32",
        "value": "t_address"
      },
      "t_mapping(t_uint256,t_string_storage)": {
        "encoding": "mapping",
        "key": "t_uint256",
        "label": "mapping(uint256 => string)",
        "numberOfBytes": "32",
        "value": "t_string_storage"
      },
      "t_string_storage": {
        "encoding": "bytes",
        "label": "string",
        "numberOfBytes": "32"
      },
      "t_struct(InitData)3267_storage": {
        "encoding": "inplace",
        "label": "struct CFAv1Library.InitData",
        "members": [
          {
            "astId": 3264,
            "contract": "contracts/TradeableCashflow.sol:TradeableCashflow",
            "label": "host",
            "offset": 0,
            "slot": "0",
            "type": "t_contract(ISuperfluid)5356"
          },
          {
            "astId": 3266,
            "contract": "contracts/TradeableCashflow.sol:TradeableCashflow",
            "label": "cfa",
            "offset": 0,
            "slot": "1",
            "type": "t_contract(IConstantFlowAgreementV1)4051"
          }
        ],
        "numberOfBytes": "64"
      },
      "t_struct(Map)2131_storage": {
        "encoding": "inplace",
        "label": "struct EnumerableMap.Map",
        "members": [
          {
            "astId": 2126,
            "contract": "contracts/TradeableCashflow.sol:TradeableCashflow",
            "label": "_entries",
            "offset": 0,
            "slot": "0",
            "type": "t_array(t_struct(MapEntry)2123_storage)dyn_storage"
          },
          {
            "astId": 2130,
            "contract": "contracts/TradeableCashflow.sol:TradeableCashflow",
            "label": "_indexes",
            "offset": 0,
            "slot": "1",
            "type": "t_mapping(t_bytes32,t_uint256)"
          }
        ],
        "numberOfBytes": "64"
      },
      "t_struct(MapEntry)2123_storage": {
        "encoding": "inplace",
        "label": "struct EnumerableMap.MapEntry",
        "members": [
          {
            "astId": 2120,
            "contract": "contracts/TradeableCashflow.sol:TradeableCashflow",
            "label": "_key",
            "offset": 0,
            "slot": "0",
            "type": "t_bytes32"
          },
          {
            "astId": 2122,
            "contract": "contracts/TradeableCashflow.sol:TradeableCashflow",
            "label": "_value",
            "offset": 0,
            "slot": "1",
            "type": "t_bytes32"
          }
        ],
        "numberOfBytes": "64"
      },
      "t_struct(Set)2686_storage": {
        "encoding": "inplace",
        "label": "struct EnumerableSet.Set",
        "members": [
          {
            "astId": 2681,
            "contract": "contracts/TradeableCashflow.sol:TradeableCashflow",
            "label": "_values",
            "offset": 0,
            "slot": "0",
            "type": "t_array(t_bytes32)dyn_storage"
          },
          {
            "astId": 2685,
            "contract": "contracts/TradeableCashflow.sol:TradeableCashflow",
            "label": "_indexes",
            "offset": 0,
            "slot": "1",
            "type": "t_mapping(t_bytes32,t_uint256)"
          }
        ],
        "numberOfBytes": "64"
      },
      "t_struct(UintSet)3072_storage": {
        "encoding": "inplace",
        "label": "struct EnumerableSet.UintSet",
        "members": [
          {
            "astId": 3071,
            "contract": "contracts/TradeableCashflow.sol:TradeableCashflow",
            "label": "_inner",
            "offset": 0,
            "slot": "0",
            "type": "t_struct(Set)2686_storage"
          }
        ],
        "numberOfBytes": "64"
      },
      "t_struct(UintToAddressMap)2449_storage": {
        "encoding": "inplace",
        "label": "struct EnumerableMap.UintToAddressMap",
        "members": [
          {
            "astId": 2448,
            "contract": "contracts/TradeableCashflow.sol:TradeableCashflow",
            "label": "_inner",
            "offset": 0,
            "slot": "0",
            "type": "t_struct(Map)2131_storage"
          }
        ],
        "numberOfBytes": "64"
      },
      "t_uint256": {
        "encoding": "inplace",
        "label": "uint256",
        "numberOfBytes": "32"
      }
    }
  }
}