{
  "_format": "hh-sol-artifact-1",
  "contractName": "RedirectAllOption",
  "sourceName": "contracts/RedirectAllOption.sol",
  "abi": [
    {
      "inputs": [
        {
          "internalType": "contract ISuperfluid",
          "name": "host",
          "type": "address"
        },
        {
          "internalType": "contract IConstantFlowAgreementV1",
          "name": "cfa",
          "type": "address"
        },
        {
          "internalType": "contract ISuperToken",
          "name": "acceptedToken",
          "type": "address"
        },
        {
          "internalType": "address",
          "name": "receiver",
          "type": "address"
        }
      ],
      "stateMutability": "nonpayable",
      "type": "constructor"
    },
    {
      "anonymous": false,
      "inputs": [
        {
          "indexed": false,
          "internalType": "address",
          "name": "receiver",
          "type": "address"
        }
      ],
      "name": "ReceiverChanged",
      "type": "event"
    },
    {
      "inputs": [],
      "name": "_DAI",
      "outputs": [
        {
          "internalType": "contract ERC20",
          "name": "",
          "type": "address"
        }
      ],
      "stateMutability": "view",
      "type": "function"
    },
    {
      "inputs": [],
      "name": "_acceptedToken",
      "outputs": [
        {
          "internalType": "contract ISuperToken",
          "name": "",
          "type": "address"
        }
      ],
      "stateMutability": "view",
      "type": "function"
    },
    {
      "inputs": [],
      "name": "_expirationDate",
      "outputs": [
        {
          "internalType": "uint256",
          "name": "",
          "type": "uint256"
        }
      ],
      "stateMutability": "view",
      "type": "function"
    },
    {
      "inputs": [],
      "name": "_priceFeed",
      "outputs": [
        {
          "internalType": "contract AggregatorV3Interface",
          "name": "",
          "type": "address"
        }
      ],
      "stateMutability": "view",
      "type": "function"
    },
    {
      "inputs": [],
      "name": "_priceFeedDecimals",
      "outputs": [
        {
          "internalType": "uint8",
          "name": "",
          "type": "uint8"
        }
      ],
      "stateMutability": "view",
      "type": "function"
    },
    {
      "inputs": [],
      "name": "_receiver",
      "outputs": [
        {
          "internalType": "address",
          "name": "",
          "type": "address"
        }
      ],
      "stateMutability": "view",
      "type": "function"
    },
    {
      "inputs": [],
      "name": "_requiredFlowRate",
      "outputs": [
        {
          "internalType": "int96",
          "name": "",
          "type": "int96"
        }
      ],
      "stateMutability": "view",
      "type": "function"
    },
    {
      "inputs": [],
      "name": "_strikePrice",
      "outputs": [
        {
          "internalType": "int256",
          "name": "",
          "type": "int256"
        }
      ],
      "stateMutability": "view",
      "type": "function"
    },
    {
      "inputs": [],
      "name": "_underlyingAmount",
      "outputs": [
        {
          "internalType": "uint256",
          "name": "",
          "type": "uint256"
        }
      ],
      "stateMutability": "view",
      "type": "function"
    },
    {
      "inputs": [],
      "name": "_underlyingAsset",
      "outputs": [
        {
          "internalType": "contract ERC20",
          "name": "",
          "type": "address"
        }
      ],
      "stateMutability": "view",
      "type": "function"
    },
    {
      "inputs": [],
      "name": "_underlyingDecimals",
      "outputs": [
        {
          "internalType": "uint8",
          "name": "",
          "type": "uint8"
        }
      ],
      "stateMutability": "view",
      "type": "function"
    },
    {
      "inputs": [
        {
          "internalType": "contract ISuperToken",
          "name": "_superToken",
          "type": "address"
        },
        {
          "internalType": "address",
          "name": "_agreementClass",
          "type": "address"
        },
        {
          "internalType": "bytes32",
          "name": "",
          "type": "bytes32"
        },
        {
          "internalType": "bytes",
          "name": "",
          "type": "bytes"
        },
        {
          "internalType": "bytes",
          "name": "",
          "type": "bytes"
        },
        {
          "internalType": "bytes",
          "name": "_ctx",
          "type": "bytes"
        }
      ],
      "name": "afterAgreementCreated",
      "outputs": [
        {
          "internalType": "bytes",
          "name": "newCtx",
          "type": "bytes"
        }
      ],
      "stateMutability": "nonpayable",
      "type": "function"
    },
    {
      "inputs": [
        {
          "internalType": "contract ISuperToken",
          "name": "_superToken",
          "type": "address"
        },
        {
          "internalType": "address",
          "name": "_agreementClass",
          "type": "address"
        },
        {
          "internalType": "bytes32",
          "name": "",
          "type": "bytes32"
        },
        {
          "internalType": "bytes",
          "name": "",
          "type": "bytes"
        },
        {
          "internalType": "bytes",
          "name": "",
          "type": "bytes"
        },
        {
          "internalType": "bytes",
          "name": "_ctx",
          "type": "bytes"
        }
      ],
      "name": "afterAgreementTerminated",
      "outputs": [
        {
          "internalType": "bytes",
          "name": "newCtx",
          "type": "bytes"
        }
      ],
      "stateMutability": "nonpayable",
      "type": "function"
    },
    {
      "inputs": [
        {
          "internalType": "contract ISuperToken",
          "name": "_superToken",
          "type": "address"
        },
        {
          "internalType": "address",
          "name": "_agreementClass",
          "type": "address"
        },
        {
          "internalType": "bytes32",
          "name": "",
          "type": "bytes32"
        },
        {
          "internalType": "bytes",
          "name": "",
          "type": "bytes"
        },
        {
          "internalType": "bytes",
          "name": "",
          "type": "bytes"
        },
        {
          "internalType": "bytes",
          "name": "_ctx",
          "type": "bytes"
        }
      ],
      "name": "afterAgreementUpdated",
      "outputs": [
        {
          "internalType": "bytes",
          "name": "newCtx",
          "type": "bytes"
        }
      ],
      "stateMutability": "nonpayable",
      "type": "function"
    },
    {
      "inputs": [
        {
          "internalType": "contract ISuperToken",
          "name": "",
          "type": "address"
        },
        {
          "internalType": "address",
          "name": "",
          "type": "address"
        },
        {
          "internalType": "bytes32",
          "name": "",
          "type": "bytes32"
        },
        {
          "internalType": "bytes",
          "name": "",
          "type": "bytes"
        },
        {
          "internalType": "bytes",
          "name": "",
          "type": "bytes"
        }
      ],
      "name": "beforeAgreementCreated",
      "outputs": [
        {
          "internalType": "bytes",
          "name": "",
          "type": "bytes"
        }
      ],
      "stateMutability": "view",
      "type": "function"
    },
    {
      "inputs": [
        {
          "internalType": "contract ISuperToken",
          "name": "",
          "type": "address"
        },
        {
          "internalType": "address",
          "name": "",
          "type": "address"
        },
        {
          "internalType": "bytes32",
          "name": "",
          "type": "bytes32"
        },
        {
          "internalType": "bytes",
          "name": "",
          "type": "bytes"
        },
        {
          "internalType": "bytes",
          "name": "",
          "type": "bytes"
        }
      ],
      "name": "beforeAgreementTerminated",
      "outputs": [
        {
          "internalType": "bytes",
          "name": "",
          "type": "bytes"
        }
      ],
      "stateMutability": "view",
      "type": "function"
    },
    {
      "inputs": [
        {
          "internalType": "contract ISuperToken",
          "name": "",
          "type": "address"
        },
        {
          "internalType": "address",
          "name": "",
          "type": "address"
        },
        {
          "internalType": "bytes32",
          "name": "",
          "type": "bytes32"
        },
        {
          "internalType": "bytes",
          "name": "",
          "type": "bytes"
        },
        {
          "internalType": "bytes",
          "name": "",
          "type": "bytes"
        }
      ],
      "name": "beforeAgreementUpdated",
      "outputs": [
        {
          "internalType": "bytes",
          "name": "",
          "type": "bytes"
        }
      ],
      "stateMutability": "view",
      "type": "function"
    },
    {
      "inputs": [
        {
          "internalType": "contract ERC20",
          "name": "underlyingAsset",
          "type": "address"
        },
        {
          "internalType": "uint256",
          "name": "underlyingAmount",
          "type": "uint256"
        },
        {
          "internalType": "uint8",
          "name": "underlyingDecimals",
          "type": "uint8"
        },
        {
          "internalType": "contract AggregatorV3Interface",
          "name": "priceFeed",
          "type": "address"
        },
        {
          "internalType": "uint8",
          "name": "priceFeedDecimals",
          "type": "uint8"
        },
        {
          "internalType": "int96",
          "name": "requiredFlowRate",
          "type": "int96"
        },
        {
          "internalType": "uint256",
          "name": "expirationDate",
          "type": "uint256"
        },
        {
          "internalType": "int256",
          "name": "strikePrice",
          "type": "int256"
        }
      ],
      "name": "createOption",
      "outputs": [],
      "stateMutability": "nonpayable",
      "type": "function"
    },
    {
      "inputs": [],
      "name": "currentReceiver",
      "outputs": [
        {
          "internalType": "uint256",
          "name": "startTime",
          "type": "uint256"
        },
        {
          "internalType": "address",
          "name": "receiver",
          "type": "address"
        },
        {
          "internalType": "int96",
          "name": "flowRate",
          "type": "int96"
        }
      ],
      "stateMutability": "view",
      "type": "function"
    },
    {
      "inputs": [],
      "name": "exerciseOption",
      "outputs": [],
      "stateMutability": "nonpayable",
      "type": "function"
    },
    {
      "inputs": [],
      "name": "optionActive",
      "outputs": [
        {
          "internalType": "bool",
          "name": "",
          "type": "bool"
        }
      ],
      "stateMutability": "view",
      "type": "function"
    },
    {
      "inputs": [],
      "name": "optionReady",
      "outputs": [
        {
          "internalType": "bool",
          "name": "",
          "type": "bool"
        }
      ],
      "stateMutability": "view",
      "type": "function"
    }
  ],
  "bytecode": "0x608060405260028054610100600160a81b0319167415f0ca26781c3852f8166ed2ebce5d18265cceb7001790553480156200003957600080fd5b506040516200216c3803806200216c8339810160408190526200005c9162000235565b6001600160a01b0384166200007057600080fd5b6001600160a01b0383166200008457600080fd5b6001600160a01b0382166200009857600080fd5b6001600160a01b038116620000ac57600080fd5b604051631e51d6a760e11b81526001600160a01b03851690633ca3ad4e90620000da9084906004016200029c565b60206040518083038186803b158015620000f357600080fd5b505afa15801562000108573d6000803e3d6000fd5b505050506040513d601f19601f820116820180604052508101906200012e91906200020c565b156200013957600080fd5b60078054600880546001600160a01b038781166001600160a01b03199283161790925560098054878416908316179055600a8054868416921691909117905561ffff198188166201000090810262010000600160b01b03199094169390931716928390556040516315a722b960e31b81526415000000019392909204169063ad3915c890620001cd908490600401620002b0565b600060405180830381600087803b158015620001e857600080fd5b505af1158015620001fd573d6000803e3d6000fd5b505050505050505050620002d2565b6000602082840312156200021e578081fd5b815180151581146200022e578182fd5b9392505050565b600080600080608085870312156200024b578283fd5b84516200025881620002b9565b60208601519094506200026b81620002b9565b60408601519093506200027e81620002b9565b60608601519092506200029181620002b9565b939692955090935050565b6001600160a01b0391909116815260200190565b90815260200190565b6001600160a01b0381168114620002cf57600080fd5b50565b611e8a80620002e26000396000f3fe608060405234801561001057600080fd5b50600436106101425760003560e01c80635c78db46116100b8578063ad0081841161007c578063ad00818414610264578063c17a80e91461026c578063d86ed3e514610274578063db10b64214610287578063e9997cdd1461028f578063fcedc2c1146102a457610142565b80635c78db46146102195780635f9e7d771461022157806361c83a451461023457806382776b6214610249578063884d1f401461025157610142565b806330d9c9151161010a57806330d9c915146101c6578063352fd128146101d95780634e5b3c7c146101e157806353c11f99146101e95780635838048d146101fc5780635c2fad3b1461021157610142565b806302964ff11461014757806316c9b88014610165578063230dbd291461017a578063243c04651461019a57806328d2bf94146101af575b600080fd5b61014f6102ac565b60405161015c9190611995565b60405180910390f35b61016d6102bb565b60405161015c9190611b37565b61018d6101883660046116ea565b6102c1565b60405161015c9190611a3a565b6101a2610480565b60405161015c9190611a00565b6101b761048e565b60405161015c93929190611d97565b61018d6101d436600461164e565b610551565b61016d61056b565b61014f610571565b61018d6101f73660046116ea565b610580565b610204610751565b60405161015c9190611db9565b61016d61075a565b61014f610760565b61018d61022f36600461164e565b61076f565b6102476102423660046115c3565b610789565b005b61014f610843565b61018d61025f36600461164e565b610852565b61020461086c565b61014f61087c565b61018d6102823660046116ea565b610890565b610247610a8a565b610297610e11565b60405161015c9190611b40565b6101a2610e1a565b600a546001600160a01b031681565b60045481565b606089896102ce82610e23565b6102f35760405162461bcd60e51b81526004016102ea90611b8f565b60405180910390fd5b6102fc81610e37565b6103185760405162461bcd60e51b81526004016102ea90611b4e565b6007546201000090046001600160a01b031633146103485760405162461bcd60e51b81526004016102ea90611c19565b600854600954604051631cd43d1160e31b81526000926001600160a01b039081169263e6a1e88892610384929091169033903090600401611aaa565b60806040518083038186803b15801561039c57600080fd5b505afa1580156103b0573d6000803e3d6000fd5b505050506040513d601f19601f820116820180604052508101906103d491906118db565b5050600554909250600b90810b810b9083900b12801591506103f7575060065442105b801561040a575060075460ff1615156001145b801561041e5750600754610100900460ff16155b156104305761042b610ed2565b610465565b60075460ff61010090910416151560011480156104585750600554600b90810b810b9082900b125b1561046557610465610f70565b61046f868661100b565b9d9c50505050505050505050505050565b600754610100900460ff1681565b600a54600090819081906001600160a01b03161561054c57600854600954600a54604051631cd43d1160e31b81526001600160a01b039384169363e6a1e888936104e49390821692309290911690600401611aaa565b60806040518083038186803b1580156104fc57600080fd5b505afa158015610510573d6000803e3d6000fd5b505050506040513d601f19601f8201168201806040525081019061053491906118db565b5050600a549194506001600160a01b03909116925090505b909192565b606060405162461bcd60e51b81526004016102ea90611d11565b60015481565b6009546001600160a01b031681565b6007546060906201000090046001600160a01b031633146105b35760405162461bcd60e51b81526004016102ea90611c19565b6105bc8a610e23565b15806105ce57506105cc89610e37565b155b156106125782828080601f01602080910402602001604051908101604052809392919081815260200183838082843760009201919091525092935061074492505050565b426006556007805461ffff19169055600054600a5460015460405163a9059cbb60e01b81526001600160a01b039384169363a9059cbb93610658939116916004016119e7565b602060405180830381600087803b15801561067257600080fd5b505af19250505080156106a2575060408051601f3d908101601f1916820190925261069f91810190611523565b60015b61073557600054600a5460015460405163095ea7b360e01b81526001600160a01b039384169363095ea7b3936106dd939116916004016119e7565b602060405180830381600087803b1580156106f757600080fd5b505af115801561070b573d6000803e3d6000fd5b505050506040513d601f19601f8201168201806040525081019061072f9190611523565b50610737565b505b610741838361100b565b90505b9998505050505050505050565b60025460ff1681565b60065481565b6003546001600160a01b031681565b606060405162461bcd60e51b81526004016102ea90611bc6565b600a546001600160a01b031633146107a057600080fd5b600080546001600160a01b03199081166001600160a01b039a8b161790915560019788556002805460ff1990811660ff998a161790915560038054909216969099169590951760ff60a01b1916600160a01b949096169390930294909417909255600455600580546bffffffffffffffffffffffff19166bffffffffffffffffffffffff600b9390930b9290921691909117905560065560078054909216179055565b6000546001600160a01b031681565b606060405162461bcd60e51b81526004016102ea90611cc2565b600354600160a01b900460ff1681565b60025461010090046001600160a01b031681565b6060898961089d82610e23565b6108b95760405162461bcd60e51b81526004016102ea90611b8f565b6108c281610e37565b6108de5760405162461bcd60e51b81526004016102ea90611b4e565b6007546201000090046001600160a01b0316331461090e5760405162461bcd60e51b81526004016102ea90611c19565b6109166113cb565b600754604051631fb6491d60e11b8152620100009091046001600160a01b031690633f6c923a9061094d9089908990600401611a0b565b60006040518083038186803b15801561096557600080fd5b505afa158015610979573d6000803e3d6000fd5b505050506040513d6000823e601f3d908101601f191682016040526109a191908101906117cd565b6060810151600854600954604051631cd43d1160e31b815293945091926000926001600160a01b039283169263e6a1e888926109e7929091169086903090600401611aaa565b60806040518083038186803b1580156109ff57600080fd5b505afa158015610a13573d6000803e3d6000fd5b505050506040513d601f19601f82011682018060405250810190610a3791906118db565b5050600554909250600b90810b810b9083900b1280159150610a60575060075460ff1615156001145b15610a6d57610a6d610ed2565b610a77888861100b565b9f9e505050505050505050505050505050565b60048054600254604051636eb1769f60e11b815291926101009091046001600160a01b03169163dd62ed3e91610ac49133913091016119a9565b60206040518083038186803b158015610adc57600080fd5b505afa158015610af0573d6000803e3d6000fd5b505050506040513d601f19601f82011682018060405250810190610b14919061154a565b1015610b325760405162461bcd60e51b81526004016102ea90611d60565b6006544210610b4857610b43610f70565b610e0f565b60035460408051633fabe5a360e21b815290516000926001600160a01b03169163feaf968c9160048083019260a0929190829003018186803b158015610b8d57600080fd5b505afa158015610ba1573d6000803e3d6000fd5b505050506040513d601f19601f82011682018060405250810190610bc59190611918565b505060025460035492945060ff908116600160a01b90930416919091149150610c0790505760035460025460ff600160a01b909204821691160360ff16600a0a025b600854600954604051631cd43d1160e31b81526000926001600160a01b039081169263e6a1e88892610c43929091169033903090600401611aaa565b60806040518083038186803b158015610c5b57600080fd5b505afa158015610c6f573d6000803e3d6000fd5b505050506040513d601f19601f82011682018060405250810190610c9391906118db565b5050915050600454821215610cba5760405162461bcd60e51b81526004016102ea90611c5b565b600554600b90810b810b9082900b1215610ce65760405162461bcd60e51b81526004016102ea90611c92565b600254600a54600480546040516323b872dd60e01b81526001600160a01b036101009095048516946323b872dd94610d2794339491909216929091016119c3565b602060405180830381600087803b158015610d4157600080fd5b505af1158015610d55573d6000803e3d6000fd5b505050506040513d601f19601f82011682018060405250810190610d799190611523565b5060005460015460405163a9059cbb60e01b81526001600160a01b039092169163a9059cbb91610dae913391906004016119e7565b602060405180830381600087803b158015610dc857600080fd5b505af1158015610ddc573d6000803e3d6000fd5b505050506040513d601f19601f82011682018060405250810190610e009190611523565b50506007805461ffff19169055505b565b600554600b0b81565b60075460ff1681565b6009546001600160a01b0390811691161490565b60007fa9214cc96615e0085d3bb077758db69497dc2dce3b2b1e97bc93c3d18d83efd3826001600160a01b0316637730599e6040518163ffffffff1660e01b815260040160206040518083038186803b158015610e9357600080fd5b505afa158015610ea7573d6000803e3d6000fd5b505050506040513d601f19601f82011682018060405250810190610ecb919061154a565b1492915050565b600054600a546001546040516323b872dd60e01b81526001600160a01b03938416936323b872dd93610f0c939116913091906004016119c3565b602060405180830381600087803b158015610f2657600080fd5b505af1158015610f3a573d6000803e3d6000fd5b505050506040513d601f19601f82011682018060405250810190610f5e9190611523565b506007805461ff001916610100179055565b600054600a5460015460405163a9059cbb60e01b81526001600160a01b039384169363a9059cbb93610fa7939116916004016119e7565b602060405180830381600087803b158015610fc157600080fd5b505af1158015610fd5573d6000803e3d6000fd5b505050506040513d601f19601f82011682018060405250810190610ff99190611523565b50426006556007805461ffff19169055565b606082828080601f016020809104026020016040519081016040528093929190818152602001838380828437600092018290525060085460095460405163e8e7e2d160e01b815296975091956001600160a01b03918216955063e8e7e2d1945061107d935091169030906004016119a9565b60206040518083038186803b15801561109557600080fd5b505afa1580156110a9573d6000803e3d6000fd5b505050506040513d601f19601f820116820180604052508101906110cd91906117b1565b600854600954600a54604051631cd43d1160e31b81529394506000936001600160a01b039384169363e6a1e888936111119390821692309290911690600401611aaa565b60806040518083038186803b15801561112957600080fd5b505afa15801561113d573d6000803e3d6000fd5b505050506040513d601f19601f8201168201806040525081019061116191906118db565b509092505050818101600b81900b61126e57600754600854600954600a546040805160008152602081019091526001600160a01b0362010000909504851694634329d29394811693635a5999e360e11b936111c89391831692309291169060448101611acd565b60408051601f198184030181529181526020820180516001600160e01b03166001600160e01b03199485161790525160e085901b909216825261121092918990600401611a4d565b600060405180830381600087803b15801561122a57600080fd5b505af115801561123e573d6000803e3d6000fd5b505050506040513d6000823e601f3d908101601f191682016040526112669190810190611562565b5093506113c2565b600b82900b156112cc57600754600854600954600a546040805160008152602081019091526001600160a01b0362010000909504851694634329d293948116936328104d3160e11b936111c893918316921690889060448101611b01565b600754600854600954600a546040805160008152602081019091526001600160a01b0362010000909504851694634329d2939481169363317e182f60e11b9361132093918316921690889060448101611b01565b60408051601f198184030181529181526020820180516001600160e01b03166001600160e01b03199485161790525160e085901b909216825261136892918990600401611a4d565b600060405180830381600087803b15801561138257600080fd5b505af1158015611396573d6000803e3d6000fd5b505050506040513d6000823e601f3d908101601f191682016040526113be9190810190611562565b5093505b50505092915050565b604080516101608101825260008082526020820181905291810182905260608082018390526080820183905260a082015260c0810182905260e081018290526101008101829052610120810182905261014081019190915290565b805161143181611e1e565b92915050565b80516001600160e01b03198116811461143157600080fd5b60008083601f840112611460578182fd5b50813567ffffffffffffffff811115611477578182fd5b60208301915083602082850101111561148f57600080fd5b9250929050565b600082601f8301126114a6578081fd5b815167ffffffffffffffff8111156114bc578182fd5b6114cf601f8201601f1916602001611dc7565b91508082528360208285010111156114e657600080fd5b6114f7816020840160208601611dee565b5092915050565b805169ffffffffffffffffffff8116811461143157600080fd5b805161143181611e45565b600060208284031215611534578081fd5b81518015158114611543578182fd5b9392505050565b60006020828403121561155b578081fd5b5051919050565b60008060408385031215611574578081fd5b825167ffffffffffffffff8082111561158b578283fd5b61159786838701611496565b935060208501519150808211156115ac578283fd5b506115b985828601611496565b9150509250929050565b600080600080600080600080610100898b0312156115df578384fd5b88356115ea81611e1e565b975060208901359650604089013561160181611e45565b9550606089013561161181611e1e565b9450608089013561162181611e45565b935060a089013561163181611e36565b979a969950949793969295929450505060c08201359160e0013590565b600080600080600080600060a0888a031215611668578081fd5b873561167381611e1e565b9650602088013561168381611e1e565b955060408801359450606088013567ffffffffffffffff808211156116a6578283fd5b6116b28b838c0161144f565b909650945060808a01359150808211156116ca578283fd5b506116d78a828b0161144f565b989b979a50959850939692959293505050565b600080600080600080600080600060c08a8c031215611707578283fd5b893561171281611e1e565b985060208a013561172281611e1e565b975060408a0135965060608a013567ffffffffffffffff80821115611745578485fd5b6117518d838e0161144f565b909850965060808c0135915080821115611769578485fd5b6117758d838e0161144f565b909650945060a08c013591508082111561178d578283fd5b5061179a8c828d0161144f565b915080935050809150509295985092959850929598565b6000602082840312156117c2578081fd5b815161154381611e36565b6000602082840312156117de578081fd5b815167ffffffffffffffff808211156117f5578283fd5b818401915061016080838703121561180b578384fd5b61181481611dc7565b90506118208684611518565b815261182f8660208501611518565b60208201526040830151604082015261184b8660608501611426565b606082015261185d8660808501611437565b608082015260a083015182811115611873578485fd5b61187f87828601611496565b60a08301525060c083015160c082015260e083015160e08201526101009150818301518282015261012091506118b786838501611426565b8282015261014091506118cc86838501611426565b91810191909152949350505050565b600080600080608085870312156118f0578182fd5b84519350602085015161190281611e36565b6040860151606090960151949790965092505050565b600080600080600060a0868803121561192f578283fd5b61193987876114fe565b945060208601519350604086015192506060860151915061195d87608088016114fe565b90509295509295909350565b60008151808452611981816020860160208601611dee565b601f01601f19169290920160200192915050565b6001600160a01b0391909116815260200190565b6001600160a01b0392831681529116602082015260400190565b6001600160a01b039384168152919092166020820152604081019190915260600190565b6001600160a01b03929092168252602082015260400190565b901515815260200190565b60006020825282602083015282846040840137818301604090810191909152601f909201601f19160101919050565b6000602082526115436020830184611969565b6001600160a01b0384168152608060208201819052600090611a7190830185611969565b8281038060408501526002825261060f60f31b602083015260408101606085015250611aa06040820185611969565b9695505050505050565b6001600160a01b0393841681529183166020830152909116604082015260600190565b6001600160a01b038581168252848116602083015283166040820152608060608201819052600090611aa090830184611969565b6001600160a01b03858116825284166020820152600b83900b6040820152608060608201819052600090611aa090830184611969565b90815260200190565b600b9190910b815260200190565b60208082526021908201527f5265646972656374416c6c3a206f6e6c7920434641763120737570706f7274656040820152601960fa1b606082015260800190565b6020808252601f908201527f5265646972656374416c6c3a206e6f7420616363657074656420746f6b656e00604082015260600190565b60208082526033908201527f556e737570706f727465642063616c6c6261636b202d20204265666f7265204160408201527219dc99595b595b9d0815195c9b5a5b985d1959606a1b606082015260800190565b60208082526022908201527f5265646972656374416c6c3a20737570706f7274206f6e6c79206f6e6520686f6040820152611cdd60f21b606082015260800190565b60208082526017908201527f6f7074696f6e206f7574206f6620746865206d6f6e6579000000000000000000604082015260600190565b602080825260169082015275696e73756666696369656e7420666c6f77207261746560501b604082015260600190565b6020808252602f908201527f556e737570706f727465642063616c6c6261636b202d204265666f726520416760408201526e1c99595b595b9d081d5c19185d1959608a1b606082015260800190565b6020808252602f908201527f556e737570706f727465642063616c6c6261636b202d204265666f726520416760408201526e1c99595b595b9d0810dc99585d1959608a1b606082015260800190565b60208082526017908201527f6d7573742063616c6c20617070726f7665206669727374000000000000000000604082015260600190565b9283526001600160a01b03919091166020830152600b0b604082015260600190565b60ff91909116815260200190565b60405181810167ffffffffffffffff81118282101715611de657600080fd5b604052919050565b60005b83811015611e09578181015183820152602001611df1565b83811115611e18576000848401525b50505050565b6001600160a01b0381168114611e3357600080fd5b50565b80600b0b8114611e3357600080fd5b60ff81168114611e3357600080fdfea26469706673582212206e4db0cedd763c4d099d05253af66b66570fab82121b3b1b4c0ae2dfecc5da6364736f6c63430007000033",
  "linkReferences": {},
  "deployedLinkReferences": {}
}