{
  "_format": "hh-sol-artifact-1",
  "contractName": "TradeableCashflowOption",
  "sourceName": "contracts/TradeableCashflowOption.sol",
  "abi": [
    {
      "inputs": [
        {
          "internalType": "address",
          "name": "owner",
          "type": "address"
        },
        {
          "internalType": "string",
          "name": "_name",
          "type": "string"
        },
        {
          "internalType": "string",
          "name": "_symbol",
          "type": "string"
        },
        {
          "internalType": "contract ISuperfluid",
          "name": "host",
          "type": "address"
        },
        {
          "internalType": "contract IConstantFlowAgreementV1",
          "name": "cfa",
          "type": "address"
        },
        {
          "internalType": "contract ISuperToken",
          "name": "acceptedToken",
          "type": "address"
        },
        {
          "internalType": "contract ERC20",
          "name": "dai",
          "type": "address"
        }
      ],
      "stateMutability": "nonpayable",
      "type": "constructor"
    },
    {
      "anonymous": false,
      "inputs": [
        {
          "indexed": true,
          "internalType": "address",
          "name": "owner",
          "type": "address"
        },
        {
          "indexed": true,
          "internalType": "address",
          "name": "approved",
          "type": "address"
        },
        {
          "indexed": true,
          "internalType": "uint256",
          "name": "tokenId",
          "type": "uint256"
        }
      ],
      "name": "Approval",
      "type": "event"
    },
    {
      "anonymous": false,
      "inputs": [
        {
          "indexed": true,
          "internalType": "address",
          "name": "owner",
          "type": "address"
        },
        {
          "indexed": true,
          "internalType": "address",
          "name": "operator",
          "type": "address"
        },
        {
          "indexed": false,
          "internalType": "bool",
          "name": "approved",
          "type": "bool"
        }
      ],
      "name": "ApprovalForAll",
      "type": "event"
    },
    {
      "anonymous": false,
      "inputs": [
        {
          "indexed": false,
          "internalType": "address",
          "name": "receiver",
          "type": "address"
        }
      ],
      "name": "ReceiverChanged",
      "type": "event"
    },
    {
      "anonymous": false,
      "inputs": [
        {
          "indexed": true,
          "internalType": "address",
          "name": "from",
          "type": "address"
        },
        {
          "indexed": true,
          "internalType": "address",
          "name": "to",
          "type": "address"
        },
        {
          "indexed": true,
          "internalType": "uint256",
          "name": "tokenId",
          "type": "uint256"
        }
      ],
      "name": "Transfer",
      "type": "event"
    },
    {
      "inputs": [],
      "name": "_acceptedToken",
      "outputs": [
        {
          "internalType": "contract ISuperToken",
          "name": "",
          "type": "address"
        }
      ],
      "stateMutability": "view",
      "type": "function"
    },
    {
      "inputs": [],
      "name": "_dai",
      "outputs": [
        {
          "internalType": "contract ERC20",
          "name": "",
          "type": "address"
        }
      ],
      "stateMutability": "view",
      "type": "function"
    },
    {
      "inputs": [],
      "name": "_expirationDate",
      "outputs": [
        {
          "internalType": "uint256",
          "name": "",
          "type": "uint256"
        }
      ],
      "stateMutability": "view",
      "type": "function"
    },
    {
      "inputs": [],
      "name": "_priceFeed",
      "outputs": [
        {
          "internalType": "contract AggregatorV3Interface",
          "name": "",
          "type": "address"
        }
      ],
      "stateMutability": "view",
      "type": "function"
    },
    {
      "inputs": [],
      "name": "_priceFeedDecimals",
      "outputs": [
        {
          "internalType": "uint8",
          "name": "",
          "type": "uint8"
        }
      ],
      "stateMutability": "view",
      "type": "function"
    },
    {
      "inputs": [],
      "name": "_receiver",
      "outputs": [
        {
          "internalType": "address",
          "name": "",
          "type": "address"
        }
      ],
      "stateMutability": "view",
      "type": "function"
    },
    {
      "inputs": [],
      "name": "_requiredFlowRate",
      "outputs": [
        {
          "internalType": "int96",
          "name": "",
          "type": "int96"
        }
      ],
      "stateMutability": "view",
      "type": "function"
    },
    {
      "inputs": [],
      "name": "_strikePrice",
      "outputs": [
        {
          "internalType": "int256",
          "name": "",
          "type": "int256"
        }
      ],
      "stateMutability": "view",
      "type": "function"
    },
    {
      "inputs": [],
      "name": "_underlyingAmount",
      "outputs": [
        {
          "internalType": "uint256",
          "name": "",
          "type": "uint256"
        }
      ],
      "stateMutability": "view",
      "type": "function"
    },
    {
      "inputs": [],
      "name": "_underlyingAsset",
      "outputs": [
        {
          "internalType": "contract ERC20",
          "name": "",
          "type": "address"
        }
      ],
      "stateMutability": "view",
      "type": "function"
    },
    {
      "inputs": [],
      "name": "_underlyingDecimals",
      "outputs": [
        {
          "internalType": "uint8",
          "name": "",
          "type": "uint8"
        }
      ],
      "stateMutability": "view",
      "type": "function"
    },
    {
      "inputs": [
        {
          "internalType": "contract ISuperToken",
          "name": "_superToken",
          "type": "address"
        },
        {
          "internalType": "address",
          "name": "_agreementClass",
          "type": "address"
        },
        {
          "internalType": "bytes32",
          "name": "",
          "type": "bytes32"
        },
        {
          "internalType": "bytes",
          "name": "",
          "type": "bytes"
        },
        {
          "internalType": "bytes",
          "name": "",
          "type": "bytes"
        },
        {
          "internalType": "bytes",
          "name": "_ctx",
          "type": "bytes"
        }
      ],
      "name": "afterAgreementCreated",
      "outputs": [
        {
          "internalType": "bytes",
          "name": "newCtx",
          "type": "bytes"
        }
      ],
      "stateMutability": "nonpayable",
      "type": "function"
    },
    {
      "inputs": [
        {
          "internalType": "contract ISuperToken",
          "name": "_superToken",
          "type": "address"
        },
        {
          "internalType": "address",
          "name": "_agreementClass",
          "type": "address"
        },
        {
          "internalType": "bytes32",
          "name": "",
          "type": "bytes32"
        },
        {
          "internalType": "bytes",
          "name": "",
          "type": "bytes"
        },
        {
          "internalType": "bytes",
          "name": "",
          "type": "bytes"
        },
        {
          "internalType": "bytes",
          "name": "_ctx",
          "type": "bytes"
        }
      ],
      "name": "afterAgreementTerminated",
      "outputs": [
        {
          "internalType": "bytes",
          "name": "newCtx",
          "type": "bytes"
        }
      ],
      "stateMutability": "nonpayable",
      "type": "function"
    },
    {
      "inputs": [
        {
          "internalType": "contract ISuperToken",
          "name": "_superToken",
          "type": "address"
        },
        {
          "internalType": "address",
          "name": "_agreementClass",
          "type": "address"
        },
        {
          "internalType": "bytes32",
          "name": "",
          "type": "bytes32"
        },
        {
          "internalType": "bytes",
          "name": "",
          "type": "bytes"
        },
        {
          "internalType": "bytes",
          "name": "",
          "type": "bytes"
        },
        {
          "internalType": "bytes",
          "name": "_ctx",
          "type": "bytes"
        }
      ],
      "name": "afterAgreementUpdated",
      "outputs": [
        {
          "internalType": "bytes",
          "name": "newCtx",
          "type": "bytes"
        }
      ],
      "stateMutability": "nonpayable",
      "type": "function"
    },
    {
      "inputs": [
        {
          "internalType": "address",
          "name": "to",
          "type": "address"
        },
        {
          "internalType": "uint256",
          "name": "tokenId",
          "type": "uint256"
        }
      ],
      "name": "approve",
      "outputs": [],
      "stateMutability": "nonpayable",
      "type": "function"
    },
    {
      "inputs": [
        {
          "internalType": "address",
          "name": "owner",
          "type": "address"
        }
      ],
      "name": "balanceOf",
      "outputs": [
        {
          "internalType": "uint256",
          "name": "",
          "type": "uint256"
        }
      ],
      "stateMutability": "view",
      "type": "function"
    },
    {
      "inputs": [],
      "name": "baseURI",
      "outputs": [
        {
          "internalType": "string",
          "name": "",
          "type": "string"
        }
      ],
      "stateMutability": "view",
      "type": "function"
    },
    {
      "inputs": [
        {
          "internalType": "contract ISuperToken",
          "name": "",
          "type": "address"
        },
        {
          "internalType": "address",
          "name": "",
          "type": "address"
        },
        {
          "internalType": "bytes32",
          "name": "",
          "type": "bytes32"
        },
        {
          "internalType": "bytes",
          "name": "",
          "type": "bytes"
        },
        {
          "internalType": "bytes",
          "name": "",
          "type": "bytes"
        }
      ],
      "name": "beforeAgreementCreated",
      "outputs": [
        {
          "internalType": "bytes",
          "name": "",
          "type": "bytes"
        }
      ],
      "stateMutability": "view",
      "type": "function"
    },
    {
      "inputs": [
        {
          "internalType": "contract ISuperToken",
          "name": "",
          "type": "address"
        },
        {
          "internalType": "address",
          "name": "",
          "type": "address"
        },
        {
          "internalType": "bytes32",
          "name": "",
          "type": "bytes32"
        },
        {
          "internalType": "bytes",
          "name": "",
          "type": "bytes"
        },
        {
          "internalType": "bytes",
          "name": "",
          "type": "bytes"
        }
      ],
      "name": "beforeAgreementTerminated",
      "outputs": [
        {
          "internalType": "bytes",
          "name": "",
          "type": "bytes"
        }
      ],
      "stateMutability": "view",
      "type": "function"
    },
    {
      "inputs": [
        {
          "internalType": "contract ISuperToken",
          "name": "",
          "type": "address"
        },
        {
          "internalType": "address",
          "name": "",
          "type": "address"
        },
        {
          "internalType": "bytes32",
          "name": "",
          "type": "bytes32"
        },
        {
          "internalType": "bytes",
          "name": "",
          "type": "bytes"
        },
        {
          "internalType": "bytes",
          "name": "",
          "type": "bytes"
        }
      ],
      "name": "beforeAgreementUpdated",
      "outputs": [
        {
          "internalType": "bytes",
          "name": "",
          "type": "bytes"
        }
      ],
      "stateMutability": "view",
      "type": "function"
    },
    {
      "inputs": [
        {
          "internalType": "contract ERC20",
          "name": "underlyingAsset",
          "type": "address"
        },
        {
          "internalType": "uint256",
          "name": "underlyingAmount",
          "type": "uint256"
        },
        {
          "internalType": "uint8",
          "name": "underlyingDecimals",
          "type": "uint8"
        },
        {
          "internalType": "contract AggregatorV3Interface",
          "name": "priceFeed",
          "type": "address"
        },
        {
          "internalType": "uint8",
          "name": "priceFeedDecimals",
          "type": "uint8"
        },
        {
          "internalType": "int96",
          "name": "requiredFlowRate",
          "type": "int96"
        },
        {
          "internalType": "uint256",
          "name": "expirationDate",
          "type": "uint256"
        },
        {
          "internalType": "int256",
          "name": "strikePrice",
          "type": "int256"
        }
      ],
      "name": "createOption",
      "outputs": [],
      "stateMutability": "nonpayable",
      "type": "function"
    },
    {
      "inputs": [],
      "name": "currentReceiver",
      "outputs": [
        {
          "internalType": "uint256",
          "name": "startTime",
          "type": "uint256"
        },
        {
          "internalType": "address",
          "name": "receiver",
          "type": "address"
        },
        {
          "internalType": "int96",
          "name": "flowRate",
          "type": "int96"
        }
      ],
      "stateMutability": "view",
      "type": "function"
    },
    {
      "inputs": [],
      "name": "exerciseOption",
      "outputs": [],
      "stateMutability": "nonpayable",
      "type": "function"
    },
    {
      "inputs": [
        {
          "internalType": "uint256",
          "name": "tokenId",
          "type": "uint256"
        }
      ],
      "name": "getApproved",
      "outputs": [
        {
          "internalType": "address",
          "name": "",
          "type": "address"
        }
      ],
      "stateMutability": "view",
      "type": "function"
    },
    {
      "inputs": [
        {
          "internalType": "address",
          "name": "owner",
          "type": "address"
        },
        {
          "internalType": "address",
          "name": "operator",
          "type": "address"
        }
      ],
      "name": "isApprovedForAll",
      "outputs": [
        {
          "internalType": "bool",
          "name": "",
          "type": "bool"
        }
      ],
      "stateMutability": "view",
      "type": "function"
    },
    {
      "inputs": [],
      "name": "name",
      "outputs": [
        {
          "internalType": "string",
          "name": "",
          "type": "string"
        }
      ],
      "stateMutability": "view",
      "type": "function"
    },
    {
      "inputs": [],
      "name": "optionActive",
      "outputs": [
        {
          "internalType": "bool",
          "name": "",
          "type": "bool"
        }
      ],
      "stateMutability": "view",
      "type": "function"
    },
    {
      "inputs": [],
      "name": "optionReady",
      "outputs": [
        {
          "internalType": "bool",
          "name": "",
          "type": "bool"
        }
      ],
      "stateMutability": "view",
      "type": "function"
    },
    {
      "inputs": [
        {
          "internalType": "uint256",
          "name": "tokenId",
          "type": "uint256"
        }
      ],
      "name": "ownerOf",
      "outputs": [
        {
          "internalType": "address",
          "name": "",
          "type": "address"
        }
      ],
      "stateMutability": "view",
      "type": "function"
    },
    {
      "inputs": [
        {
          "internalType": "address",
          "name": "from",
          "type": "address"
        },
        {
          "internalType": "address",
          "name": "to",
          "type": "address"
        },
        {
          "internalType": "uint256",
          "name": "tokenId",
          "type": "uint256"
        }
      ],
      "name": "safeTransferFrom",
      "outputs": [],
      "stateMutability": "nonpayable",
      "type": "function"
    },
    {
      "inputs": [
        {
          "internalType": "address",
          "name": "from",
          "type": "address"
        },
        {
          "internalType": "address",
          "name": "to",
          "type": "address"
        },
        {
          "internalType": "uint256",
          "name": "tokenId",
          "type": "uint256"
        },
        {
          "internalType": "bytes",
          "name": "_data",
          "type": "bytes"
        }
      ],
      "name": "safeTransferFrom",
      "outputs": [],
      "stateMutability": "nonpayable",
      "type": "function"
    },
    {
      "inputs": [
        {
          "internalType": "address",
          "name": "operator",
          "type": "address"
        },
        {
          "internalType": "bool",
          "name": "approved",
          "type": "bool"
        }
      ],
      "name": "setApprovalForAll",
      "outputs": [],
      "stateMutability": "nonpayable",
      "type": "function"
    },
    {
      "inputs": [
        {
          "internalType": "bytes4",
          "name": "interfaceId",
          "type": "bytes4"
        }
      ],
      "name": "supportsInterface",
      "outputs": [
        {
          "internalType": "bool",
          "name": "",
          "type": "bool"
        }
      ],
      "stateMutability": "view",
      "type": "function"
    },
    {
      "inputs": [],
      "name": "symbol",
      "outputs": [
        {
          "internalType": "string",
          "name": "",
          "type": "string"
        }
      ],
      "stateMutability": "view",
      "type": "function"
    },
    {
      "inputs": [
        {
          "internalType": "uint256",
          "name": "index",
          "type": "uint256"
        }
      ],
      "name": "tokenByIndex",
      "outputs": [
        {
          "internalType": "uint256",
          "name": "",
          "type": "uint256"
        }
      ],
      "stateMutability": "view",
      "type": "function"
    },
    {
      "inputs": [
        {
          "internalType": "address",
          "name": "owner",
          "type": "address"
        },
        {
          "internalType": "uint256",
          "name": "index",
          "type": "uint256"
        }
      ],
      "name": "tokenOfOwnerByIndex",
      "outputs": [
        {
          "internalType": "uint256",
          "name": "",
          "type": "uint256"
        }
      ],
      "stateMutability": "view",
      "type": "function"
    },
    {
      "inputs": [
        {
          "internalType": "uint256",
          "name": "tokenId",
          "type": "uint256"
        }
      ],
      "name": "tokenURI",
      "outputs": [
        {
          "internalType": "string",
          "name": "",
          "type": "string"
        }
      ],
      "stateMutability": "view",
      "type": "function"
    },
    {
      "inputs": [],
      "name": "totalSupply",
      "outputs": [
        {
          "internalType": "uint256",
          "name": "",
          "type": "uint256"
        }
      ],
      "stateMutability": "view",
      "type": "function"
    },
    {
      "inputs": [
        {
          "internalType": "address",
          "name": "from",
          "type": "address"
        },
        {
          "internalType": "address",
          "name": "to",
          "type": "address"
        },
        {
          "internalType": "uint256",
          "name": "tokenId",
          "type": "uint256"
        }
      ],
      "name": "transferFrom",
      "outputs": [],
      "stateMutability": "nonpayable",
      "type": "function"
    }
  ],
  "bytecode": "0x60806040523480156200001157600080fd5b5060405162004a7a38038062004a7a833981016040819052620000349162000ac2565b838383838a8a8a6200004d6301ffc9a760e01b62000296565b81516200006290600690602085019062000992565b5080516200007890600790602084019062000992565b506200008b6380ac58cd60e01b62000296565b6200009d635b5e139f60e01b62000296565b620000af63780e9d6360e01b62000296565b50506001600160a01b038516620000c557600080fd5b6001600160a01b038416620000d957600080fd5b6001600160a01b038316620000ed57600080fd5b6001600160a01b0381166200010157600080fd5b604051631e51d6a760e11b81526001600160a01b03861690633ca3ad4e906200012f90849060040162000c79565b60206040518083038186803b1580156200014857600080fd5b505afa1580156200015d573d6000803e3d6000fd5b505050506040513d601f19601f8201168201806040525081019062000183919062000b96565b156200018e57600080fd5b60118054601280546001600160a01b03199081166001600160a01b0389811691909117909255601380548216888416179055600c8054610100600160a81b031916610100888516021790556014805490911685831617905562010000600160b01b03199091166201000088831681029190911761ffff1916928390556040516315a722b960e31b815264150000000193919091049091169063ad3915c8906200023c90849060040162000e2e565b600060405180830381600087803b1580156200025757600080fd5b505af11580156200026c573d6000803e3d6000fd5b5050505050505050505062000289876001620002f160201b60201c565b5050505050505062000e80565b6001600160e01b03198082161415620002cc5760405162461bcd60e51b8152600401620002c39062000d8b565b60405180910390fd5b6001600160e01b0319166000908152602081905260409020805460ff19166001179055565b6001600160a01b0382166200031a5760405162461bcd60e51b8152600401620002c39062000df9565b6200032581620003df565b15620003455760405162461bcd60e51b8152600401620002c39062000dc2565b620003536000838362000402565b6001600160a01b0382166000908152600160209081526040909120620003849183906200180d62000412821b17901c565b50620003a2818360026200042760201b62001819179092919060201c565b5060405181906001600160a01b038416906000907fddf252ad1be2c89b69c2b068fc378daa952ba7f163c4a11628f55a4df523b3ef908290a45050565b6000620003fc8260026200044760201b620018391790919060201c565b92915050565b6200040d8262000455565b505050565b600062000420838362000890565b9392505050565b60006200043f84846001600160a01b038516620008df565b949350505050565b60006200042083836200097a565b6001600160a01b0381166200046957600080fd5b601154604051631e51d6a760e11b8152620100009091046001600160a01b031690633ca3ad4e90620004a090849060040162000c79565b60206040518083038186803b158015620004b957600080fd5b505afa158015620004ce573d6000803e3d6000fd5b505050506040513d601f19601f82011682018060405250810190620004f4919062000b96565b15620004ff57600080fd5b6014546001600160a01b03828116911614156200051c576200088d565b601254601354601454604051631cd43d1160e31b81526000936001600160a01b039081169363e6a1e888936200055e9391831692309291169060040162000cf0565b60806040518083038186803b1580156200057757600080fd5b505afa1580156200058c573d6000803e3d6000fd5b505050506040513d601f19601f82011682018060405250810190620005b2919062000c0c565b5050915050600081600b0b131562000830576011546012546013546014546040805160008152602081019091526001600160a01b03620100009095048516946339255d5b94811693635a5999e360e11b936200061b939183169230929116906044810162000d13565b60408051601f198184030181529181526020820180516001600160e01b03166001600160e01b03199485161790525160e085901b909216825262000663929160040162000c8d565b600060405180830381600087803b1580156200067e57600080fd5b505af115801562000693573d6000803e3d6000fd5b505050506040513d6000823e601f3d908101601f19168201604052620006bd919081019062000bb8565b5060115460125460135460405163e8e7e2d160e01b81526001600160a01b03620100009094048416936339255d5b9381169263317e182f60e11b929116908790849063e8e7e2d19062000717908590309060040162000cd6565b60206040518083038186803b1580156200073057600080fd5b505afa15801562000745573d6000803e3d6000fd5b505050506040513d601f19601f820116820180604052508101906200076b919062000bee565b6040805160008152602081019091526200078c939291906044810162000d53565b60408051601f198184030181529181526020820180516001600160e01b03166001600160e01b03199485161790525160e085901b9092168252620007d4929160040162000c8d565b600060405180830381600087803b158015620007ef57600080fd5b505af115801562000804573d6000803e3d6000fd5b505050506040513d6000823e601f3d908101601f191682016040526200082e919081019062000bb8565b505b601480546001600160a01b0319166001600160a01b0384811691909117918290556040517f7dfb1d59db37a3fd2e15e796c189dcab714cdbb18650d68a1de58f8fa60718c9926200088392169062000c79565b60405180910390a1505b50565b60006200089e83836200097a565b620008d657508154600181810184556000848152602080822090930184905584548482528286019093526040902091909155620003fc565b506000620003fc565b6000828152600184016020526040812054806200094657505060408051808201825283815260208082018481528654600181810189556000898152848120955160029093029095019182559151908201558654868452818801909252929091205562000420565b828560000160018303815481106200095a57fe5b906000526020600020906002020160010181905550600091505062000420565b60009081526001919091016020526040902054151590565b828054600181600116156101000203166002900490600052602060002090601f016020900481019282601f10620009d557805160ff191683800117855562000a05565b8280016001018555821562000a05579182015b8281111562000a05578251825591602001919060010190620009e8565b5062000a1392915062000a17565b5090565b5b8082111562000a13576000815560010162000a18565b600082601f83011262000a3f578081fd5b81516001600160401b038082111562000a56578283fd5b604051601f8301601f19168101602001828111828210171562000a77578485fd5b60405282815292508284830160200186101562000a9357600080fd5b62000aa683602083016020880162000e37565b50505092915050565b8051600b81900b8114620003fc57600080fd5b600080600080600080600060e0888a03121562000add578283fd5b875162000aea8162000e6a565b60208901519097506001600160401b038082111562000b07578485fd5b62000b158b838c0162000a2e565b975060408a015191508082111562000b2b578485fd5b5062000b3a8a828b0162000a2e565b955050606088015162000b4d8162000e6a565b608089015190945062000b608162000e6a565b60a089015190935062000b738162000e6a565b60c089015190925062000b868162000e6a565b8091505092959891949750929550565b60006020828403121562000ba8578081fd5b8151801515811462000420578182fd5b60006020828403121562000bca578081fd5b81516001600160401b0381111562000be0578182fd5b6200043f8482850162000a2e565b60006020828403121562000c00578081fd5b62000420838362000aaf565b6000806000806080858703121562000c22578384fd5b8451935062000c35866020870162000aaf565b6040860151606090960151949790965092505050565b6000815180845262000c6581602086016020860162000e37565b601f01601f19169290920160200192915050565b6001600160a01b0391909116815260200190565b6001600160a01b038316815260606020820181905260009062000cb39083018462000c4b565b8281036040938401526002815261060f60f31b6020820152919091019392505050565b6001600160a01b0392831681529116602082015260400190565b6001600160a01b0393841681529183166020830152909116604082015260600190565b6001600160a01b03858116825284811660208301528316604082015260806060820181905260009062000d499083018462000c4b565b9695505050505050565b6001600160a01b03858116825284166020820152600b83900b604082015260806060820181905260009062000d499083018462000c4b565b6020808252601c908201527f4552433136353a20696e76616c696420696e7465726661636520696400000000604082015260600190565b6020808252601c908201527f4552433732313a20746f6b656e20616c7265616479206d696e74656400000000604082015260600190565b6020808252818101527f4552433732313a206d696e7420746f20746865207a65726f2061646472657373604082015260600190565b90815260200190565b60005b8381101562000e5457818101518382015260200162000e3a565b8381111562000e64576000848401525b50505050565b6001600160a01b03811681146200088d57600080fd5b613bea8062000e906000396000f3fe608060405234801561001057600080fd5b506004361061023d5760003560e01c80635c2fad3b1161013b57806395d89b41116100b8578063d86ed3e51161007c578063d86ed3e514610473578063db10b64214610486578063e985e9c51461048e578063e9997cdd146104a1578063fcedc2c1146104b65761023d565b806395d89b411461042a578063a22cb46514610432578063ad00818414610445578063b88d4fde1461044d578063c87b56dd146104605761023d565b80636c0360eb116100ff5780636c0360eb146103ec57806370a08231146103f457806377f78ad31461040757806382776b621461040f578063884d1f40146104175761023d565b80635c2fad3b146103a35780635c78db46146103ab5780635f9e7d77146103b357806361c83a45146103c65780636352211e146103d95761023d565b8063243c0465116101c957806342842e0e1161018d57806342842e0e1461034d5780634e5b3c7c146103605780634f6ccce71461036857806353c11f991461037b5780635838048d1461038e5761023d565b8063243c04651461030057806328d2bf94146103085780632f745c591461031f57806330d9c91514610332578063352fd128146103455761023d565b8063095ea7b311610210578063095ea7b3146102a857806316c9b880146102bd57806318160ddd146102d2578063230dbd29146102da57806323b872dd146102ed5761023d565b806301ffc9a71461024257806302964ff11461026b57806306fdde0314610280578063081812fc14610295575b600080fd5b610255610250366004612ceb565b6104be565b60405161026291906132a9565b60405180910390f35b6102736104e1565b6040516102629190613201565b6102886104f0565b60405161026291906132e3565b6102736102a33660046130cf565b610586565b6102bb6102b6366004612c8c565b6105d2565b005b6102c561066a565b604051610262919061340a565b6102c5610670565b6102886102e8366004612ede565b610681565b6102bb6102fb366004612b7d565b610837565b61025561086f565b61031061087d565b60405161026293929190613a5b565b6102c561032d366004612c8c565b610940565b610288610340366004612e42565b61096b565b6102c5610985565b6102bb61035b366004612b7d565b61098b565b6102736109a6565b6102c56103763660046130cf565b6109b5565b610288610389366004612ede565b6109cb565b610396610b9c565b6040516102629190613a7d565b6102c5610ba5565b610273610bab565b6102886103c1366004612e42565b610bba565b6102bb6103d4366004612db7565b610bd4565b6102736103e73660046130cf565b610c8f565b610288610cb7565b6102c5610402366004612b29565b610d18565b610273610d61565b610273610d75565b610288610425366004612e42565b610d84565b610288610d9e565b6102bb610440366004612c5f565b610dff565b610396610ecd565b6102bb61045b366004612bbd565b610edd565b61028861046e3660046130cf565b610f1c565b610288610481366004612ede565b611062565b6102bb61125c565b61025561049c366004612b45565b6117cd565b6104a96117fb565b6040516102629190613413565b610255611804565b6001600160e01b0319811660009081526020819052604090205460ff165b919050565b6014546001600160a01b031681565b60068054604080516020601f600260001961010060018816150201909516949094049384018190048102820181019092528281526060939092909183018282801561057c5780601f106105515761010080835404028352916020019161057c565b820191906000526020600020905b81548152906001019060200180831161055f57829003601f168201915b5050505050905090565b600061059182611845565b6105b65760405162461bcd60e51b81526004016105ad906137d9565b60405180910390fd5b506000908152600460205260409020546001600160a01b031690565b60006105dd82610c8f565b9050806001600160a01b0316836001600160a01b031614156106115760405162461bcd60e51b81526004016105ad906138bd565b806001600160a01b0316610623611852565b6001600160a01b0316148061063f575061063f8161049c611852565b61065b5760405162461bcd60e51b81526004016105ad906136f0565b6106658383611856565b505050565b600e5481565b600061067c60026118c4565b905090565b6060898961068e826118cf565b6106aa5760405162461bcd60e51b81526004016105ad906134f6565b6106b3816118e3565b6106cf5760405162461bcd60e51b81526004016105ad90613463565b6011546201000090046001600160a01b031633146106ff5760405162461bcd60e51b81526004016105ad90613580565b601254601354604051631cd43d1160e31b81526000926001600160a01b039081169263e6a1e8889261073b92909116903390309060040161337d565b60806040518083038186803b15801561075357600080fd5b505afa158015610767573d6000803e3d6000fd5b505050506040513d601f19601f8201168201806040525081019061078b91906130e7565b5050600f54909250600b90810b810b9083900b12801591506107ae575060105442105b80156107c1575060115460ff1615156001145b80156107d55750601154610100900460ff16155b156107e7576107e261197e565b61081c565b60115460ff610100909104161515600114801561080f5750600f54600b90810b810b9082900b125b1561081c5761081c611a1c565b6108268686611ab7565b9d9c50505050505050505050505050565b610848610842611852565b82611e77565b6108645760405162461bcd60e51b81526004016105ad9061394d565b610665838383611efc565b601154610100900460ff1681565b601454600090819081906001600160a01b03161561093b57601254601354601454604051631cd43d1160e31b81526001600160a01b039384169363e6a1e888936108d3939082169230929091169060040161337d565b60806040518083038186803b1580156108eb57600080fd5b505afa1580156108ff573d6000803e3d6000fd5b505050506040513d601f19601f8201168201806040525081019061092391906130e7565b50506014549194506001600160a01b03909116925090505b909192565b6001600160a01b0382166000908152600160205260408120610962908361200a565b90505b92915050565b606060405162461bcd60e51b81526004016105ad906139d5565b600b5481565b61066583838360405180602001604052806000815250610edd565b6013546001600160a01b031681565b6000806109c3600284612016565b509392505050565b6011546060906201000090046001600160a01b031633146109fe5760405162461bcd60e51b81526004016105ad90613580565b610a078a6118cf565b1580610a195750610a17896118e3565b155b15610a5d5782828080601f016020809104026020016040519081016040528093929190818152602001838380828437600092019190915250929350610b8f92505050565b426010556011805461ffff19169055600a54601454600b5460405163a9059cbb60e01b81526001600160a01b039384169363a9059cbb93610aa393911691600401613290565b602060405180830381600087803b158015610abd57600080fd5b505af1925050508015610aed575060408051601f3d908101601f19168201909252610aea91810190612cb7565b60015b610b8057600a54601454600b5460405163095ea7b360e01b81526001600160a01b039384169363095ea7b393610b2893911691600401613290565b602060405180830381600087803b158015610b4257600080fd5b505af1158015610b56573d6000803e3d6000fd5b505050506040513d601f19601f82011682018060405250810190610b7a9190612cb7565b50610b82565b505b610b8c8383611ab7565b90505b9998505050505050505050565b600c5460ff1681565b60105481565b600d546001600160a01b031681565b606060405162461bcd60e51b81526004016105ad9061352d565b6014546001600160a01b03163314610beb57600080fd5b600a80546001600160a01b03199081166001600160a01b039a8b1617909155600b978855600c805460ff1990811660ff998a1617909155600d8054909216969099169590951760ff60a01b1916600160a01b949096169390930294909417909255600e55600f80546bffffffffffffffffffffffff19166bffffffffffffffffffffffff9290940b9190911692909217909155601055601180549091166001179055565b600061096582604051806060016040528060298152602001613b8c6029913960029190612034565b60098054604080516020601f600260001961010060018816150201909516949094049384018190048102820181019092528281526060939092909183018282801561057c5780601f106105515761010080835404028352916020019161057c565b60006001600160a01b038216610d405760405162461bcd60e51b81526004016105ad9061374d565b6001600160a01b0382166000908152600160205260409020610965906118c4565b600c5461010090046001600160a01b031681565b600a546001600160a01b031681565b606060405162461bcd60e51b81526004016105ad906138fe565b60078054604080516020601f600260001961010060018816150201909516949094049384018190048102820181019092528281526060939092909183018282801561057c5780601f106105515761010080835404028352916020019161057c565b610e07611852565b6001600160a01b0316826001600160a01b03161415610e385760405162461bcd60e51b81526004016105ad9061366d565b8060056000610e45611852565b6001600160a01b03908116825260208083019390935260409182016000908120918716808252919093529120805460ff191692151592909217909155610e89611852565b6001600160a01b03167f17307eab39ab6107e8899845ad3d59bd9653f200f220920489ca2b5937696c3183604051610ec191906132a9565b60405180910390a35050565b600d54600160a01b900460ff1681565b610eee610ee8611852565b83611e77565b610f0a5760405162461bcd60e51b81526004016105ad9061394d565b610f1684848484612041565b50505050565b6060610f2782611845565b610f435760405162461bcd60e51b81526004016105ad9061386e565b60008281526008602090815260409182902080548351601f6002600019610100600186161502019093169290920491820184900484028101840190945280845260609392830182828015610fd85780601f10610fad57610100808354040283529160200191610fd8565b820191906000526020600020905b815481529060010190602001808311610fbb57829003601f168201915b505050505090506060610fe9610cb7565b9050805160001415610ffd575090506104dc565b81511561102f5780826040516020016110179291906131d2565b604051602081830303815290604052925050506104dc565b8061103985612074565b60405160200161104a9291906131d2565b60405160208183030381529060405292505050919050565b6060898961106f826118cf565b61108b5760405162461bcd60e51b81526004016105ad906134f6565b611094816118e3565b6110b05760405162461bcd60e51b81526004016105ad90613463565b6011546201000090046001600160a01b031633146110e05760405162461bcd60e51b81526004016105ad90613580565b6110e8612a08565b601154604051631fb6491d60e11b8152620100009091046001600160a01b031690633f6c923a9061111f90899089906004016132b4565b60006040518083038186803b15801561113757600080fd5b505afa15801561114b573d6000803e3d6000fd5b505050506040513d6000823e601f3d908101601f191682016040526111739190810190612fc1565b6060810151601254601354604051631cd43d1160e31b815293945091926000926001600160a01b039283169263e6a1e888926111b992909116908690309060040161337d565b60806040518083038186803b1580156111d157600080fd5b505afa1580156111e5573d6000803e3d6000fd5b505050506040513d601f19601f8201168201806040525081019061120991906130e7565b5050600f54909250600b90810b810b9083900b1280159150611232575060115460ff1615156001145b1561123f5761123f61197e565b6112498888611ab7565b9f9e505050505050505050505050505050565b600e54600c54604051636eb1769f60e11b81526101009091046001600160a01b03169063dd62ed3e906112959033903090600401613215565b60206040518083038186803b1580156112ad57600080fd5b505afa1580156112c1573d6000803e3d6000fd5b505050506040513d601f19601f820116820180604052508101906112e59190612cd3565b10156113035760405162461bcd60e51b81526004016105ad90613a24565b601054421061131957611314611a1c565b6117cb565b600d5460408051633fabe5a360e21b815290516000926001600160a01b03169163feaf968c9160048083019260a0929190829003018186803b15801561135e57600080fd5b505afa158015611372573d6000803e3d6000fd5b505050506040513d601f19601f820116820180604052508101906113969190613124565b5050600c54600d5492945060ff908116600160a01b909304169190911491506113e4905057600d54600c5460ff600160a01b9092048216908216031660008112156113df576000035b600a0a025b601254601354604051631cd43d1160e31b81526000926001600160a01b039081169263e6a1e8889261142092909116903390309060040161337d565b60806040518083038186803b15801561143857600080fd5b505afa15801561144c573d6000803e3d6000fd5b505050506040513d601f19601f8201168201806040525081019061147091906130e7565b5050915050600e548212156114975760405162461bcd60e51b81526004016105ad906135c2565b600f54600b90810b810b9082900b12156114c35760405162461bcd60e51b81526004016105ad906135f9565b600c54601454600e546040516323b872dd60e01b81526101009093046001600160a01b03908116936323b872dd936115039333939091169160040161322f565b602060405180830381600087803b15801561151d57600080fd5b505af1158015611531573d6000803e3d6000fd5b505050506040513d601f19601f820116820180604052508101906115559190612cb7565b50600a54600b5460405163a9059cbb60e01b81526001600160a01b039092169163a9059cbb9161158a91339190600401613290565b602060405180830381600087803b1580156115a457600080fd5b505af11580156115b8573d6000803e3d6000fd5b505050506040513d601f19601f820116820180604052508101906115dc9190612cb7565b506011546012546013546014546040805160008152602081019091526001600160a01b03620100009095048516946339255d5b94811693635a5999e360e11b9361163293918316923092911690604481016133a0565b60408051601f198184030181529181526020820180516001600160e01b03166001600160e01b03199485161790525160e085901b909216825261167892916004016132f6565b600060405180830381600087803b15801561169257600080fd5b505af11580156116a6573d6000803e3d6000fd5b505050506040513d6000823e601f3d908101601f191682016040526116ce9190810190612d23565b506011546012546013546040805160008152602081019091526001600160a01b03620100009094048416936339255d5b93811692635a5999e360e11b92611720929091169033903090604481016133a0565b60408051601f198184030181529181526020820180516001600160e01b03166001600160e01b03199485161790525160e085901b909216825261176692916004016132f6565b600060405180830381600087803b15801561178057600080fd5b505af1158015611794573d6000803e3d6000fd5b505050506040513d6000823e601f3d908101601f191682016040526117bc9190810190612d23565b50506011805461ffff19169055505b565b6001600160a01b03918216600090815260056020908152604080832093909416825291909152205460ff1690565b600f54600b0b81565b60115460ff1681565b6000610962838361214f565b600061182f84846001600160a01b038516612199565b90505b9392505050565b60006109628383612230565b6000610965600283611839565b3390565b600081815260046020526040902080546001600160a01b0319166001600160a01b038416908117909155819061188b82610c8f565b6001600160a01b03167f8c5be1e5ebec7d5bd14f71427d1e84f3dd0314c0f7b2291e5b200ac8c7c3b92560405160405180910390a45050565b600061096582612248565b6013546001600160a01b0390811691161490565b60007fa9214cc96615e0085d3bb077758db69497dc2dce3b2b1e97bc93c3d18d83efd3826001600160a01b0316637730599e6040518163ffffffff1660e01b815260040160206040518083038186803b15801561193f57600080fd5b505afa158015611953573d6000803e3d6000fd5b505050506040513d601f19601f820116820180604052508101906119779190612cd3565b1492915050565b600a54601454600b546040516323b872dd60e01b81526001600160a01b03938416936323b872dd936119b89391169130919060040161322f565b602060405180830381600087803b1580156119d257600080fd5b505af11580156119e6573d6000803e3d6000fd5b505050506040513d601f19601f82011682018060405250810190611a0a9190612cb7565b506011805461ff001916610100179055565b600a54601454600b5460405163a9059cbb60e01b81526001600160a01b039384169363a9059cbb93611a5393911691600401613290565b602060405180830381600087803b158015611a6d57600080fd5b505af1158015611a81573d6000803e3d6000fd5b505050506040513d601f19601f82011682018060405250810190611aa59190612cb7565b50426010556011805461ffff19169055565b606082828080601f016020809104026020016040519081016040528093929190818152602001838380828437600092018290525060125460135460405163e8e7e2d160e01b815296975091956001600160a01b03918216955063e8e7e2d19450611b2993509116903090600401613215565b60206040518083038186803b158015611b4157600080fd5b505afa158015611b55573d6000803e3d6000fd5b505050506040513d601f19601f82011682018060405250810190611b799190612fa5565b601254601354601454604051631cd43d1160e31b81529394506000936001600160a01b039384169363e6a1e88893611bbd939082169230929091169060040161337d565b60806040518083038186803b158015611bd557600080fd5b505afa158015611be9573d6000803e3d6000fd5b505050506040513d601f19601f82011682018060405250810190611c0d91906130e7565b509092505050818101600b81900b611d1a576011546012546013546014546040805160008152602081019091526001600160a01b0362010000909504851694634329d29394811693635a5999e360e11b93611c7493918316923092911690604481016133a0565b60408051601f198184030181529181526020820180516001600160e01b03166001600160e01b03199485161790525160e085901b9092168252611cbc92918990600401613334565b600060405180830381600087803b158015611cd657600080fd5b505af1158015611cea573d6000803e3d6000fd5b505050506040513d6000823e601f3d908101601f19168201604052611d129190810190612d56565b509350611e6e565b600b82900b15611d78576011546012546013546014546040805160008152602081019091526001600160a01b0362010000909504851694634329d293948116936328104d3160e11b93611c74939183169216908890604481016133d4565b6011546012546013546014546040805160008152602081019091526001600160a01b0362010000909504851694634329d2939481169363317e182f60e11b93611dcc939183169216908890604481016133d4565b60408051601f198184030181529181526020820180516001600160e01b03166001600160e01b03199485161790525160e085901b9092168252611e1492918990600401613334565b600060405180830381600087803b158015611e2e57600080fd5b505af1158015611e42573d6000803e3d6000fd5b505050506040513d6000823e601f3d908101601f19168201604052611e6a9190810190612d56565b5093505b50505092915050565b6000611e8282611845565b611e9e5760405162461bcd60e51b81526004016105ad906136a4565b6000611ea983610c8f565b9050806001600160a01b0316846001600160a01b03161480611ee45750836001600160a01b0316611ed984610586565b6001600160a01b0316145b80611ef45750611ef481856117cd565b949350505050565b826001600160a01b0316611f0f82610c8f565b6001600160a01b031614611f355760405162461bcd60e51b81526004016105ad90613825565b6001600160a01b038216611f5b5760405162461bcd60e51b81526004016105ad90613629565b611f6683838361224c565b611f71600082611856565b6001600160a01b0383166000908152600160205260409020611f939082612255565b506001600160a01b0382166000908152600160205260409020611fb6908261180d565b50611fc360028284611819565b5080826001600160a01b0316846001600160a01b03167fddf252ad1be2c89b69c2b068fc378daa952ba7f163c4a11628f55a4df523b3ef60405160405180910390a4505050565b60006109628383612261565b600080808061202586866122a6565b909450925050505b9250929050565b600061182f848484612302565b61204c848484611efc565b61205884848484612361565b610f165760405162461bcd60e51b81526004016105ad906134a4565b60608161209957506040805180820190915260018152600360fc1b60208201526104dc565b8160005b81156120b157600101600a8204915061209d565b60608167ffffffffffffffff811180156120ca57600080fd5b506040519080825280601f01601f1916602001820160405280156120f5576020820181803683370190505b50859350905060001982015b831561214657600a840660300160f81b8282806001900393508151811061212457fe5b60200101906001600160f81b031916908160001a905350600a84049350612101565b50949350505050565b600061215b8383612230565b61219157508154600181810184556000848152602080822090930184905584548482528286019093526040902091909155610965565b506000610965565b6000828152600184016020526040812054806121fe575050604080518082018252838152602080820184815286546001818101895560008981528481209551600290930290950191825591519082015586548684528188019092529290912055611832565b8285600001600183038154811061221157fe5b9060005260206000209060020201600101819055506000915050611832565b60009081526001919091016020526040902054151590565b5490565b61066582612440565b60006109628383612852565b815460009082106122845760405162461bcd60e51b81526004016105ad90613421565b82600001828154811061229357fe5b9060005260206000200154905092915050565b8154600090819083106122cb5760405162461bcd60e51b81526004016105ad90613797565b60008460000184815481106122dc57fe5b906000526020600020906002020190508060000154816001015492509250509250929050565b600082815260018401602052604081205482816123325760405162461bcd60e51b81526004016105ad91906132e3565b5084600001600182038154811061234557fe5b9060005260206000209060020201600101549150509392505050565b6000612375846001600160a01b031661291f565b61238157506001611ef4565b6060612409630a85bd0160e11b612396611852565b8887876040516024016123ac9493929190613253565b604051602081830303815290604052906001600160e01b0319166020820180516001600160e01b038381831617835250505050604051806060016040528060328152602001613b5a603291396001600160a01b0388169190612925565b90506000818060200190518101906124219190612d07565b6001600160e01b031916630a85bd0160e11b1492505050949350505050565b6001600160a01b03811661245357600080fd5b601154604051631e51d6a760e11b8152620100009091046001600160a01b031690633ca3ad4e90612488908490600401613201565b60206040518083038186803b1580156124a057600080fd5b505afa1580156124b4573d6000803e3d6000fd5b505050506040513d601f19601f820116820180604052508101906124d89190612cb7565b156124e257600080fd5b6014546001600160a01b03828116911614156124fd5761284f565b601254601354601454604051631cd43d1160e31b81526000936001600160a01b039081169363e6a1e8889361253d9391831692309291169060040161337d565b60806040518083038186803b15801561255557600080fd5b505afa158015612569573d6000803e3d6000fd5b505050506040513d601f19601f8201168201806040525081019061258d91906130e7565b5050915050600081600b0b13156127f4576011546012546013546014546040805160008152602081019091526001600160a01b03620100009095048516946339255d5b94811693635a5999e360e11b936125f393918316923092911690604481016133a0565b60408051601f198184030181529181526020820180516001600160e01b03166001600160e01b03199485161790525160e085901b909216825261263992916004016132f6565b600060405180830381600087803b15801561265357600080fd5b505af1158015612667573d6000803e3d6000fd5b505050506040513d6000823e601f3d908101601f1916820160405261268f9190810190612d23565b5060115460125460135460405163e8e7e2d160e01b81526001600160a01b03620100009094048416936339255d5b9381169263317e182f60e11b929116908790849063e8e7e2d1906126e79085903090600401613215565b60206040518083038186803b1580156126ff57600080fd5b505afa158015612713573d6000803e3d6000fd5b505050506040513d601f19601f820116820180604052508101906127379190612fa5565b60408051600081526020810190915261275693929190604481016133d4565b60408051601f198184030181529181526020820180516001600160e01b03166001600160e01b03199485161790525160e085901b909216825261279c92916004016132f6565b600060405180830381600087803b1580156127b657600080fd5b505af11580156127ca573d6000803e3d6000fd5b505050506040513d6000823e601f3d908101601f191682016040526127f29190810190612d23565b505b601480546001600160a01b0319166001600160a01b0384811691909117918290556040517f7dfb1d59db37a3fd2e15e796c189dcab714cdbb18650d68a1de58f8fa60718c992612845921690613201565b60405180910390a1505b50565b6000818152600183016020526040812054801561290e578354600019808301919081019060009087908390811061288557fe5b90600052602060002001549050808760000184815481106128a257fe5b6000918252602080832090910192909255828152600189810190925260409020908401905586548790806128d257fe5b60019003818190600052602060002001600090559055866001016000878152602001908152602001600020600090556001945050505050610965565b6000915050610965565b5092915050565b3b151590565b606061182f8484600085856129398561291f565b6129555760405162461bcd60e51b81526004016105ad9061399e565b60006060866001600160a01b0316858760405161297291906131b6565b60006040518083038185875af1925050503d80600081146129af576040519150601f19603f3d011682016040523d82523d6000602084013e6129b4565b606091505b50915091506129c48282866129cf565b979650505050505050565b606083156129de575081611832565b8251156129ee5782518084602001fd5b8160405162461bcd60e51b81526004016105ad91906132e3565b604080516101608101825260008082526020820181905291810182905260608082018390526080820183905260a082015260c0810182905260e081018290526101008101829052610120810182905261014081019190915290565b805161096581613b02565b805161096581613b25565b60008083601f840112612a8a578182fd5b50813567ffffffffffffffff811115612aa1578182fd5b60208301915083602082850101111561202d57600080fd5b600082601f830112612ac9578081fd5b8151612adc612ad782613ab2565b613a8b565b9150808252836020828501011115612af357600080fd5b612918816020840160208601613ad6565b805169ffffffffffffffffffff8116811461096557600080fd5b805161096581613b4a565b600060208284031215612b3a578081fd5b813561183281613b02565b60008060408385031215612b57578081fd5b8235612b6281613b02565b91506020830135612b7281613b02565b809150509250929050565b600080600060608486031215612b91578081fd5b8335612b9c81613b02565b92506020840135612bac81613b02565b929592945050506040919091013590565b60008060008060808587031215612bd2578182fd5b8435612bdd81613b02565b93506020850135612bed81613b02565b925060408501359150606085013567ffffffffffffffff811115612c0f578182fd5b8501601f81018713612c1f578182fd5b8035612c2d612ad782613ab2565b818152886020838501011115612c41578384fd5b81602084016020830137908101602001929092525092959194509250565b60008060408385031215612c71578182fd5b8235612c7c81613b02565b91506020830135612b7281613b17565b60008060408385031215612c9e578182fd5b8235612ca981613b02565b946020939093013593505050565b600060208284031215612cc8578081fd5b815161183281613b17565b600060208284031215612ce4578081fd5b5051919050565b600060208284031215612cfc578081fd5b813561183281613b25565b600060208284031215612d18578081fd5b815161183281613b25565b600060208284031215612d34578081fd5b815167ffffffffffffffff811115612d4a578182fd5b611ef484828501612ab9565b60008060408385031215612d68578182fd5b825167ffffffffffffffff80821115612d7f578384fd5b612d8b86838701612ab9565b93506020850151915080821115612da0578283fd5b50612dad85828601612ab9565b9150509250929050565b600080600080600080600080610100898b031215612dd3578586fd5b8835612dde81613b02565b9750602089013596506040890135612df581613b4a565b95506060890135612e0581613b02565b94506080890135612e1581613b4a565b935060a0890135612e2581613b3b565b979a969950949793969295929450505060c08201359160e0013590565b600080600080600080600060a0888a031215612e5c578081fd5b8735612e6781613b02565b96506020880135612e7781613b02565b955060408801359450606088013567ffffffffffffffff80821115612e9a578283fd5b612ea68b838c01612a79565b909650945060808a0135915080821115612ebe578283fd5b50612ecb8a828b01612a79565b989b979a50959850939692959293505050565b600080600080600080600080600060c08a8c031215612efb578283fd5b8935612f0681613b02565b985060208a0135612f1681613b02565b975060408a0135965060608a013567ffffffffffffffff80821115612f39578485fd5b612f458d838e01612a79565b909850965060808c0135915080821115612f5d578485fd5b612f698d838e01612a79565b909650945060a08c0135915080821115612f81578283fd5b50612f8e8c828d01612a79565b915080935050809150509295985092959850929598565b600060208284031215612fb6578081fd5b815161183281613b3b565b600060208284031215612fd2578081fd5b815167ffffffffffffffff80821115612fe9578283fd5b8184019150610160808387031215612fff578384fd5b61300881613a8b565b90506130148684612b1e565b81526130238660208501612b1e565b60208201526040830151604082015261303f8660608501612a63565b60608201526130518660808501612a6e565b608082015260a083015182811115613067578485fd5b61307387828601612ab9565b60a08301525060c083015160c082015260e083015160e08201526101009150818301518282015261012091506130ab86838501612a63565b8282015261014091506130c086838501612a63565b91810191909152949350505050565b6000602082840312156130e0578081fd5b5035919050565b600080600080608085870312156130fc578182fd5b84519350602085015161310e81613b3b565b6040860151606090960151949790965092505050565b600080600080600060a0868803121561313b578283fd5b6131458787612b04565b94506020860151935060408601519250606086015191506131698760808801612b04565b90509295509295909350565b6000815180845261318d816020860160208601613ad6565b601f01601f19169290920160200192915050565b6002815261060f60f31b602082015260400190565b600082516131c8818460208701613ad6565b9190910192915050565b600083516131e4818460208801613ad6565b8351908301906131f8818360208801613ad6565b01949350505050565b6001600160a01b0391909116815260200190565b6001600160a01b0392831681529116602082015260400190565b6001600160a01b039384168152919092166020820152604081019190915260600190565b6001600160a01b038581168252841660208201526040810183905260806060820181905260009061328690830184613175565b9695505050505050565b6001600160a01b03929092168252602082015260400190565b901515815260200190565b60006020825282602083015282846040840137818301604090810191909152601f909201601f19160101919050565b6000602082526109626020830184613175565b6001600160a01b038316815260606020820181905260009061331a90830184613175565b828103604084015261332b816131a1565b95945050505050565b6001600160a01b038416815260806020820181905260009061335890830185613175565b8281036040840152613369816131a1565b905082810360608401526132868185613175565b6001600160a01b0393841681529183166020830152909116604082015260600190565b6001600160a01b03858116825284811660208301528316604082015260806060820181905260009061328690830184613175565b6001600160a01b03858116825284166020820152600b83900b604082015260806060820181905260009061328690830184613175565b90815260200190565b600b9190910b815260200190565b60208082526022908201527f456e756d657261626c655365743a20696e646578206f7574206f6620626f756e604082015261647360f01b606082015260800190565b60208082526021908201527f5265646972656374416c6c3a206f6e6c7920434641763120737570706f7274656040820152601960fa1b606082015260800190565b60208082526032908201527f4552433732313a207472616e7366657220746f206e6f6e20455243373231526560408201527131b2b4bb32b91034b6b83632b6b2b73a32b960711b606082015260800190565b6020808252601f908201527f5265646972656374416c6c3a206e6f7420616363657074656420746f6b656e00604082015260600190565b60208082526033908201527f556e737570706f727465642063616c6c6261636b202d20204265666f7265204160408201527219dc99595b595b9d0815195c9b5a5b985d1959606a1b606082015260800190565b60208082526022908201527f5265646972656374416c6c3a20737570706f7274206f6e6c79206f6e6520686f6040820152611cdd60f21b606082015260800190565b60208082526017908201527f6f7074696f6e206f7574206f6620746865206d6f6e6579000000000000000000604082015260600190565b602080825260169082015275696e73756666696369656e7420666c6f77207261746560501b604082015260600190565b60208082526024908201527f4552433732313a207472616e7366657220746f20746865207a65726f206164646040820152637265737360e01b606082015260800190565b60208082526019908201527f4552433732313a20617070726f766520746f2063616c6c657200000000000000604082015260600190565b6020808252602c908201527f4552433732313a206f70657261746f7220717565727920666f72206e6f6e657860408201526b34b9ba32b73a103a37b5b2b760a11b606082015260800190565b60208082526038908201527f4552433732313a20617070726f76652063616c6c6572206973206e6f74206f7760408201527f6e6572206e6f7220617070726f76656420666f7220616c6c0000000000000000606082015260800190565b6020808252602a908201527f4552433732313a2062616c616e636520717565727920666f7220746865207a65604082015269726f206164647265737360b01b606082015260800190565b60208082526022908201527f456e756d657261626c654d61703a20696e646578206f7574206f6620626f756e604082015261647360f01b606082015260800190565b6020808252602c908201527f4552433732313a20617070726f76656420717565727920666f72206e6f6e657860408201526b34b9ba32b73a103a37b5b2b760a11b606082015260800190565b60208082526029908201527f4552433732313a207472616e73666572206f6620746f6b656e2074686174206960408201526839903737ba1037bbb760b91b606082015260800190565b6020808252602f908201527f4552433732314d657461646174613a2055524920717565727920666f72206e6f60408201526e3732bc34b9ba32b73a103a37b5b2b760891b606082015260800190565b60208082526021908201527f4552433732313a20617070726f76616c20746f2063757272656e74206f776e656040820152603960f91b606082015260800190565b6020808252602f908201527f556e737570706f727465642063616c6c6261636b202d204265666f726520416760408201526e1c99595b595b9d081d5c19185d1959608a1b606082015260800190565b60208082526031908201527f4552433732313a207472616e736665722063616c6c6572206973206e6f74206f6040820152701ddb995c881b9bdc88185c1c1c9bdd9959607a1b606082015260800190565b6020808252601d908201527f416464726573733a2063616c6c20746f206e6f6e2d636f6e7472616374000000604082015260600190565b6020808252602f908201527f556e737570706f727465642063616c6c6261636b202d204265666f726520416760408201526e1c99595b595b9d0810dc99585d1959608a1b606082015260800190565b60208082526017908201527f6d7573742063616c6c20617070726f7665206669727374000000000000000000604082015260600190565b9283526001600160a01b03919091166020830152600b0b604082015260600190565b60ff91909116815260200190565b60405181810167ffffffffffffffff81118282101715613aaa57600080fd5b604052919050565b600067ffffffffffffffff821115613ac8578081fd5b50601f01601f191660200190565b60005b83811015613af1578181015183820152602001613ad9565b83811115610f165750506000910152565b6001600160a01b038116811461284f57600080fd5b801515811461284f57600080fd5b6001600160e01b03198116811461284f57600080fd5b80600b0b811461284f57600080fd5b60ff8116811461284f57600080fdfe4552433732313a207472616e7366657220746f206e6f6e20455243373231526563656976657220696d706c656d656e7465724552433732313a206f776e657220717565727920666f72206e6f6e6578697374656e7420746f6b656ea264697066735822122050183eacfafc278f6729ebb8a0d332ff3eadbe2a4ad1e41af84f175c3ba6c69464736f6c63430007000033",
  "linkReferences": {},
  "deployedLinkReferences": {}
}