{
  "_format": "hh-sol-artifact-1",
  "contractName": "RedirectAllCallOption",
  "sourceName": "contracts/RedirectAllCallOption.sol",
  "abi": [
    {
      "inputs": [
        {
          "internalType": "contract ISuperfluid",
          "name": "host",
          "type": "address"
        },
        {
          "internalType": "contract IConstantFlowAgreementV1",
          "name": "cfa",
          "type": "address"
        },
        {
          "internalType": "contract ISuperToken",
          "name": "acceptedToken",
          "type": "address"
        },
        {
          "internalType": "contract ERC20",
          "name": "dai",
          "type": "address"
        },
        {
          "internalType": "address",
          "name": "receiver",
          "type": "address"
        }
      ],
      "stateMutability": "nonpayable",
      "type": "constructor"
    },
    {
      "anonymous": false,
      "inputs": [
        {
          "indexed": false,
          "internalType": "address",
          "name": "receiver",
          "type": "address"
        }
      ],
      "name": "ReceiverChanged",
      "type": "event"
    },
    {
      "inputs": [],
      "name": "_acceptedToken",
      "outputs": [
        {
          "internalType": "contract ISuperToken",
          "name": "",
          "type": "address"
        }
      ],
      "stateMutability": "view",
      "type": "function"
    },
    {
      "inputs": [],
      "name": "_dai",
      "outputs": [
        {
          "internalType": "contract ERC20",
          "name": "",
          "type": "address"
        }
      ],
      "stateMutability": "view",
      "type": "function"
    },
    {
      "inputs": [],
      "name": "_expirationDate",
      "outputs": [
        {
          "internalType": "uint256",
          "name": "",
          "type": "uint256"
        }
      ],
      "stateMutability": "view",
      "type": "function"
    },
    {
      "inputs": [],
      "name": "_priceFeed",
      "outputs": [
        {
          "internalType": "contract AggregatorV3Interface",
          "name": "",
          "type": "address"
        }
      ],
      "stateMutability": "view",
      "type": "function"
    },
    {
      "inputs": [],
      "name": "_priceFeedDecimals",
      "outputs": [
        {
          "internalType": "uint8",
          "name": "",
          "type": "uint8"
        }
      ],
      "stateMutability": "view",
      "type": "function"
    },
    {
      "inputs": [],
      "name": "_receiver",
      "outputs": [
        {
          "internalType": "address",
          "name": "",
          "type": "address"
        }
      ],
      "stateMutability": "view",
      "type": "function"
    },
    {
      "inputs": [],
      "name": "_requiredFlowRate",
      "outputs": [
        {
          "internalType": "int96",
          "name": "",
          "type": "int96"
        }
      ],
      "stateMutability": "view",
      "type": "function"
    },
    {
      "inputs": [],
      "name": "_strikePrice",
      "outputs": [
        {
          "internalType": "int256",
          "name": "",
          "type": "int256"
        }
      ],
      "stateMutability": "view",
      "type": "function"
    },
    {
      "inputs": [],
      "name": "_underlyingAmount",
      "outputs": [
        {
          "internalType": "uint256",
          "name": "",
          "type": "uint256"
        }
      ],
      "stateMutability": "view",
      "type": "function"
    },
    {
      "inputs": [],
      "name": "_underlyingAsset",
      "outputs": [
        {
          "internalType": "contract ERC20",
          "name": "",
          "type": "address"
        }
      ],
      "stateMutability": "view",
      "type": "function"
    },
    {
      "inputs": [],
      "name": "_underlyingDecimals",
      "outputs": [
        {
          "internalType": "uint8",
          "name": "",
          "type": "uint8"
        }
      ],
      "stateMutability": "view",
      "type": "function"
    },
    {
      "inputs": [
        {
          "internalType": "contract ISuperToken",
          "name": "_superToken",
          "type": "address"
        },
        {
          "internalType": "address",
          "name": "_agreementClass",
          "type": "address"
        },
        {
          "internalType": "bytes32",
          "name": "",
          "type": "bytes32"
        },
        {
          "internalType": "bytes",
          "name": "",
          "type": "bytes"
        },
        {
          "internalType": "bytes",
          "name": "",
          "type": "bytes"
        },
        {
          "internalType": "bytes",
          "name": "_ctx",
          "type": "bytes"
        }
      ],
      "name": "afterAgreementCreated",
      "outputs": [
        {
          "internalType": "bytes",
          "name": "newCtx",
          "type": "bytes"
        }
      ],
      "stateMutability": "nonpayable",
      "type": "function"
    },
    {
      "inputs": [
        {
          "internalType": "contract ISuperToken",
          "name": "_superToken",
          "type": "address"
        },
        {
          "internalType": "address",
          "name": "_agreementClass",
          "type": "address"
        },
        {
          "internalType": "bytes32",
          "name": "",
          "type": "bytes32"
        },
        {
          "internalType": "bytes",
          "name": "",
          "type": "bytes"
        },
        {
          "internalType": "bytes",
          "name": "",
          "type": "bytes"
        },
        {
          "internalType": "bytes",
          "name": "_ctx",
          "type": "bytes"
        }
      ],
      "name": "afterAgreementTerminated",
      "outputs": [
        {
          "internalType": "bytes",
          "name": "newCtx",
          "type": "bytes"
        }
      ],
      "stateMutability": "nonpayable",
      "type": "function"
    },
    {
      "inputs": [
        {
          "internalType": "contract ISuperToken",
          "name": "_superToken",
          "type": "address"
        },
        {
          "internalType": "address",
          "name": "_agreementClass",
          "type": "address"
        },
        {
          "internalType": "bytes32",
          "name": "",
          "type": "bytes32"
        },
        {
          "internalType": "bytes",
          "name": "",
          "type": "bytes"
        },
        {
          "internalType": "bytes",
          "name": "",
          "type": "bytes"
        },
        {
          "internalType": "bytes",
          "name": "_ctx",
          "type": "bytes"
        }
      ],
      "name": "afterAgreementUpdated",
      "outputs": [
        {
          "internalType": "bytes",
          "name": "newCtx",
          "type": "bytes"
        }
      ],
      "stateMutability": "nonpayable",
      "type": "function"
    },
    {
      "inputs": [
        {
          "internalType": "contract ISuperToken",
          "name": "",
          "type": "address"
        },
        {
          "internalType": "address",
          "name": "",
          "type": "address"
        },
        {
          "internalType": "bytes32",
          "name": "",
          "type": "bytes32"
        },
        {
          "internalType": "bytes",
          "name": "",
          "type": "bytes"
        },
        {
          "internalType": "bytes",
          "name": "",
          "type": "bytes"
        }
      ],
      "name": "beforeAgreementCreated",
      "outputs": [
        {
          "internalType": "bytes",
          "name": "",
          "type": "bytes"
        }
      ],
      "stateMutability": "view",
      "type": "function"
    },
    {
      "inputs": [
        {
          "internalType": "contract ISuperToken",
          "name": "",
          "type": "address"
        },
        {
          "internalType": "address",
          "name": "",
          "type": "address"
        },
        {
          "internalType": "bytes32",
          "name": "",
          "type": "bytes32"
        },
        {
          "internalType": "bytes",
          "name": "",
          "type": "bytes"
        },
        {
          "internalType": "bytes",
          "name": "",
          "type": "bytes"
        }
      ],
      "name": "beforeAgreementTerminated",
      "outputs": [
        {
          "internalType": "bytes",
          "name": "",
          "type": "bytes"
        }
      ],
      "stateMutability": "view",
      "type": "function"
    },
    {
      "inputs": [
        {
          "internalType": "contract ISuperToken",
          "name": "",
          "type": "address"
        },
        {
          "internalType": "address",
          "name": "",
          "type": "address"
        },
        {
          "internalType": "bytes32",
          "name": "",
          "type": "bytes32"
        },
        {
          "internalType": "bytes",
          "name": "",
          "type": "bytes"
        },
        {
          "internalType": "bytes",
          "name": "",
          "type": "bytes"
        }
      ],
      "name": "beforeAgreementUpdated",
      "outputs": [
        {
          "internalType": "bytes",
          "name": "",
          "type": "bytes"
        }
      ],
      "stateMutability": "view",
      "type": "function"
    },
    {
      "inputs": [
        {
          "internalType": "contract ERC20",
          "name": "underlyingAsset",
          "type": "address"
        },
        {
          "internalType": "uint256",
          "name": "underlyingAmount",
          "type": "uint256"
        },
        {
          "internalType": "uint8",
          "name": "underlyingDecimals",
          "type": "uint8"
        },
        {
          "internalType": "contract AggregatorV3Interface",
          "name": "priceFeed",
          "type": "address"
        },
        {
          "internalType": "uint8",
          "name": "priceFeedDecimals",
          "type": "uint8"
        },
        {
          "internalType": "int96",
          "name": "requiredFlowRate",
          "type": "int96"
        },
        {
          "internalType": "uint256",
          "name": "expirationDate",
          "type": "uint256"
        },
        {
          "internalType": "int256",
          "name": "strikePrice",
          "type": "int256"
        }
      ],
      "name": "createOption",
      "outputs": [],
      "stateMutability": "nonpayable",
      "type": "function"
    },
    {
      "inputs": [],
      "name": "currentReceiver",
      "outputs": [
        {
          "internalType": "uint256",
          "name": "startTime",
          "type": "uint256"
        },
        {
          "internalType": "address",
          "name": "receiver",
          "type": "address"
        },
        {
          "internalType": "int96",
          "name": "flowRate",
          "type": "int96"
        }
      ],
      "stateMutability": "view",
      "type": "function"
    },
    {
      "inputs": [],
      "name": "exerciseOption",
      "outputs": [],
      "stateMutability": "nonpayable",
      "type": "function"
    },
    {
      "inputs": [],
      "name": "optionActive",
      "outputs": [
        {
          "internalType": "bool",
          "name": "",
          "type": "bool"
        }
      ],
      "stateMutability": "view",
      "type": "function"
    },
    {
      "inputs": [],
      "name": "optionReady",
      "outputs": [
        {
          "internalType": "bool",
          "name": "",
          "type": "bool"
        }
      ],
      "stateMutability": "view",
      "type": "function"
    }
  ],
  "bytecode": "0x60806040523480156200001157600080fd5b50604051620023e7380380620023e7833981016040819052620000349162000228565b6001600160a01b0385166200004857600080fd5b6001600160a01b0384166200005c57600080fd5b6001600160a01b0383166200007057600080fd5b6001600160a01b0381166200008457600080fd5b604051631e51d6a760e11b81526001600160a01b03861690633ca3ad4e90620000b2908490600401620002a7565b60206040518083038186803b158015620000cb57600080fd5b505afa158015620000e0573d6000803e3d6000fd5b505050506040513d601f19601f82011682018060405250810190620001069190620001ff565b156200011157600080fd5b60078054600880546001600160a01b03199081166001600160a01b038981169190911790925560098054821688841617905560028054610100600160a81b03191661010088851602179055600a805490911685831617905562010000600160b01b03199091166201000088831681029190911761ffff1916928390556040516315a722b960e31b815264150000000193919091049091169063ad3915c890620001bf908490600401620002bb565b600060405180830381600087803b158015620001da57600080fd5b505af1158015620001ef573d6000803e3d6000fd5b50505050505050505050620002dd565b60006020828403121562000211578081fd5b8151801515811462000221578182fd5b9392505050565b600080600080600060a0868803121562000240578081fd5b85516200024d81620002c4565b60208701519095506200026081620002c4565b60408701519094506200027381620002c4565b60608701519093506200028681620002c4565b60808701519092506200029981620002c4565b809150509295509295909350565b6001600160a01b0391909116815260200190565b90815260200190565b6001600160a01b0381168114620002da57600080fd5b50565b6120fa80620002ed6000396000f3fe608060405234801561001057600080fd5b50600436106101425760003560e01c80635c78db46116100b8578063884d1f401161007c578063884d1f4014610259578063ad0081841461026c578063d86ed3e514610274578063db10b64214610287578063e9997cdd1461028f578063fcedc2c1146102a457610142565b80635c78db46146102195780635f9e7d771461022157806361c83a451461023457806377f78ad31461024957806382776b621461025157610142565b806330d9c9151161010a57806330d9c915146101c6578063352fd128146101d95780634e5b3c7c146101e157806353c11f99146101e95780635838048d146101fc5780635c2fad3b1461021157610142565b806302964ff11461014757806316c9b88014610165578063230dbd291461017a578063243c04651461019a57806328d2bf94146101af575b600080fd5b61014f6102ac565b60405161015c9190611bd1565b60405180910390f35b61016d6102bb565b60405161015c9190611da7565b61018d610188366004611911565b6102c1565b60405161015c9190611c76565b6101a2610480565b60405161015c9190611c3c565b6101b761048e565b60405161015c93929190612007565b61018d6101d4366004611875565b610551565b61016d61056b565b61014f610571565b61018d6101f7366004611911565b610580565b610204610751565b60405161015c9190612029565b61016d61075a565b61014f610760565b61018d61022f366004611875565b61076f565b6102476102423660046117ea565b610789565b005b61014f610843565b61014f610857565b61018d610267366004611875565b610866565b610204610880565b61018d610282366004611911565b610890565b610247610a8a565b610297610ffd565b60405161015c9190611db0565b6101a2611006565b600a546001600160a01b031681565b60045481565b606089896102ce8261100f565b6102f35760405162461bcd60e51b81526004016102ea90611dff565b60405180910390fd5b6102fc81611023565b6103185760405162461bcd60e51b81526004016102ea90611dbe565b6007546201000090046001600160a01b031633146103485760405162461bcd60e51b81526004016102ea90611e89565b600854600954604051631cd43d1160e31b81526000926001600160a01b039081169263e6a1e88892610384929091169033903090600401611d1a565b60806040518083038186803b15801561039c57600080fd5b505afa1580156103b0573d6000803e3d6000fd5b505050506040513d601f19601f820116820180604052508101906103d49190611b02565b5050600554909250600b90810b810b9083900b12801591506103f7575060065442105b801561040a575060075460ff1615156001145b801561041e5750600754610100900460ff16155b156104305761042b6110be565b610465565b60075460ff61010090910416151560011480156104585750600554600b90810b810b9082900b125b156104655761046561115c565b61046f86866111f7565b9d9c50505050505050505050505050565b600754610100900460ff1681565b600a54600090819081906001600160a01b03161561054c57600854600954600a54604051631cd43d1160e31b81526001600160a01b039384169363e6a1e888936104e49390821692309290911690600401611d1a565b60806040518083038186803b1580156104fc57600080fd5b505afa158015610510573d6000803e3d6000fd5b505050506040513d601f19601f820116820180604052508101906105349190611b02565b5050600a549194506001600160a01b03909116925090505b909192565b606060405162461bcd60e51b81526004016102ea90611f81565b60015481565b6009546001600160a01b031681565b6007546060906201000090046001600160a01b031633146105b35760405162461bcd60e51b81526004016102ea90611e89565b6105bc8a61100f565b15806105ce57506105cc89611023565b155b156106125782828080601f01602080910402602001604051908101604052809392919081815260200183838082843760009201919091525092935061074492505050565b426006556007805461ffff19169055600054600a5460015460405163a9059cbb60e01b81526001600160a01b039384169363a9059cbb9361065893911691600401611c23565b602060405180830381600087803b15801561067257600080fd5b505af19250505080156106a2575060408051601f3d908101601f1916820190925261069f9181019061170f565b60015b61073557600054600a5460015460405163095ea7b360e01b81526001600160a01b039384169363095ea7b3936106dd93911691600401611c23565b602060405180830381600087803b1580156106f757600080fd5b505af115801561070b573d6000803e3d6000fd5b505050506040513d601f19601f8201168201806040525081019061072f919061170f565b50610737565b505b61074183836111f7565b90505b9998505050505050505050565b60025460ff1681565b60065481565b6003546001600160a01b031681565b606060405162461bcd60e51b81526004016102ea90611e36565b600a546001600160a01b031633146107a057600080fd5b600080546001600160a01b03199081166001600160a01b039a8b161790915560019788556002805460ff1990811660ff998a161790915560038054909216969099169590951760ff60a01b1916600160a01b949096169390930294909417909255600455600580546bffffffffffffffffffffffff19166bffffffffffffffffffffffff600b9390930b9290921691909117905560065560078054909216179055565b60025461010090046001600160a01b031681565b6000546001600160a01b031681565b606060405162461bcd60e51b81526004016102ea90611f32565b600354600160a01b900460ff1681565b6060898961089d8261100f565b6108b95760405162461bcd60e51b81526004016102ea90611dff565b6108c281611023565b6108de5760405162461bcd60e51b81526004016102ea90611dbe565b6007546201000090046001600160a01b0316331461090e5760405162461bcd60e51b81526004016102ea90611e89565b6109166115b7565b600754604051631fb6491d60e11b8152620100009091046001600160a01b031690633f6c923a9061094d9089908990600401611c47565b60006040518083038186803b15801561096557600080fd5b505afa158015610979573d6000803e3d6000fd5b505050506040513d6000823e601f3d908101601f191682016040526109a191908101906119f4565b6060810151600854600954604051631cd43d1160e31b815293945091926000926001600160a01b039283169263e6a1e888926109e7929091169086903090600401611d1a565b60806040518083038186803b1580156109ff57600080fd5b505afa158015610a13573d6000803e3d6000fd5b505050506040513d601f19601f82011682018060405250810190610a379190611b02565b5050600554909250600b90810b810b9083900b1280159150610a60575060075460ff1615156001145b15610a6d57610a6d6110be565b610a7788886111f7565b9f9e505050505050505050505050505050565b60048054600254604051636eb1769f60e11b815291926101009091046001600160a01b03169163dd62ed3e91610ac4913391309101611be5565b60206040518083038186803b158015610adc57600080fd5b505afa158015610af0573d6000803e3d6000fd5b505050506040513d601f19601f82011682018060405250810190610b149190611736565b1015610b325760405162461bcd60e51b81526004016102ea90611fd0565b6006544210610b4857610b4361115c565b610ffb565b60035460408051633fabe5a360e21b815290516000926001600160a01b03169163feaf968c9160048083019260a0929190829003018186803b158015610b8d57600080fd5b505afa158015610ba1573d6000803e3d6000fd5b505050506040513d601f19601f82011682018060405250810190610bc59190611b3f565b505060025460035492945060ff908116600160a01b90930416919091149150610c1390505760035460025460ff600160a01b909204821690821603166000811215610c0e576000035b600a0a025b600854600954604051631cd43d1160e31b81526000926001600160a01b039081169263e6a1e88892610c4f929091169033903090600401611d1a565b60806040518083038186803b158015610c6757600080fd5b505afa158015610c7b573d6000803e3d6000fd5b505050506040513d601f19601f82011682018060405250810190610c9f9190611b02565b5050915050600454821215610cc65760405162461bcd60e51b81526004016102ea90611ecb565b600554600b90810b810b9082900b1215610cf25760405162461bcd60e51b81526004016102ea90611f02565b600254600a54600480546040516323b872dd60e01b81526001600160a01b036101009095048516946323b872dd94610d339433949190921692909101611bff565b602060405180830381600087803b158015610d4d57600080fd5b505af1158015610d61573d6000803e3d6000fd5b505050506040513d601f19601f82011682018060405250810190610d85919061170f565b5060005460015460405163a9059cbb60e01b81526001600160a01b039092169163a9059cbb91610dba91339190600401611c23565b602060405180830381600087803b158015610dd457600080fd5b505af1158015610de8573d6000803e3d6000fd5b505050506040513d601f19601f82011682018060405250810190610e0c919061170f565b50600754600854600954600a546040805160008152602081019091526001600160a01b03620100009095048516946339255d5b94811693635a5999e360e11b93610e629391831692309291169060448101611d3d565b60408051601f198184030181529181526020820180516001600160e01b03166001600160e01b03199485161790525160e085901b9092168252610ea89291600401611c89565b600060405180830381600087803b158015610ec257600080fd5b505af1158015610ed6573d6000803e3d6000fd5b505050506040513d6000823e601f3d908101601f19168201604052610efe919081019061174e565b506007546008546009546040805160008152602081019091526001600160a01b03620100009094048416936339255d5b93811692635a5999e360e11b92610f5092909116903390309060448101611d3d565b60408051601f198184030181529181526020820180516001600160e01b03166001600160e01b03199485161790525160e085901b9092168252610f969291600401611c89565b600060405180830381600087803b158015610fb057600080fd5b505af1158015610fc4573d6000803e3d6000fd5b505050506040513d6000823e601f3d908101601f19168201604052610fec919081019061174e565b50506007805461ffff19169055505b565b600554600b0b81565b60075460ff1681565b6009546001600160a01b0390811691161490565b60007fa9214cc96615e0085d3bb077758db69497dc2dce3b2b1e97bc93c3d18d83efd3826001600160a01b0316637730599e6040518163ffffffff1660e01b815260040160206040518083038186803b15801561107f57600080fd5b505afa158015611093573d6000803e3d6000fd5b505050506040513d601f19601f820116820180604052508101906110b79190611736565b1492915050565b600054600a546001546040516323b872dd60e01b81526001600160a01b03938416936323b872dd936110f893911691309190600401611bff565b602060405180830381600087803b15801561111257600080fd5b505af1158015611126573d6000803e3d6000fd5b505050506040513d601f19601f8201168201806040525081019061114a919061170f565b506007805461ff001916610100179055565b600054600a5460015460405163a9059cbb60e01b81526001600160a01b039384169363a9059cbb9361119393911691600401611c23565b602060405180830381600087803b1580156111ad57600080fd5b505af11580156111c1573d6000803e3d6000fd5b505050506040513d601f19601f820116820180604052508101906111e5919061170f565b50426006556007805461ffff19169055565b606082828080601f016020809104026020016040519081016040528093929190818152602001838380828437600092018290525060085460095460405163e8e7e2d160e01b815296975091956001600160a01b03918216955063e8e7e2d1945061126993509116903090600401611be5565b60206040518083038186803b15801561128157600080fd5b505afa158015611295573d6000803e3d6000fd5b505050506040513d601f19601f820116820180604052508101906112b991906119d8565b600854600954600a54604051631cd43d1160e31b81529394506000936001600160a01b039384169363e6a1e888936112fd9390821692309290911690600401611d1a565b60806040518083038186803b15801561131557600080fd5b505afa158015611329573d6000803e3d6000fd5b505050506040513d601f19601f8201168201806040525081019061134d9190611b02565b509092505050818101600b81900b61145a57600754600854600954600a546040805160008152602081019091526001600160a01b0362010000909504851694634329d29394811693635a5999e360e11b936113b49391831692309291169060448101611d3d565b60408051601f198184030181529181526020820180516001600160e01b03166001600160e01b03199485161790525160e085901b90921682526113fc92918990600401611cc7565b600060405180830381600087803b15801561141657600080fd5b505af115801561142a573d6000803e3d6000fd5b505050506040513d6000823e601f3d908101601f191682016040526114529190810190611789565b5093506115ae565b600b82900b156114b857600754600854600954600a546040805160008152602081019091526001600160a01b0362010000909504851694634329d293948116936328104d3160e11b936113b493918316921690889060448101611d71565b600754600854600954600a546040805160008152602081019091526001600160a01b0362010000909504851694634329d2939481169363317e182f60e11b9361150c93918316921690889060448101611d71565b60408051601f198184030181529181526020820180516001600160e01b03166001600160e01b03199485161790525160e085901b909216825261155492918990600401611cc7565b600060405180830381600087803b15801561156e57600080fd5b505af1158015611582573d6000803e3d6000fd5b505050506040513d6000823e601f3d908101601f191682016040526115aa9190810190611789565b5093505b50505092915050565b604080516101608101825260008082526020820181905291810182905260608082018390526080820183905260a082015260c0810182905260e081018290526101008101829052610120810182905261014081019190915290565b805161161d8161208e565b92915050565b80516001600160e01b03198116811461161d57600080fd5b60008083601f84011261164c578182fd5b50813567ffffffffffffffff811115611663578182fd5b60208301915083602082850101111561167b57600080fd5b9250929050565b600082601f830112611692578081fd5b815167ffffffffffffffff8111156116a8578182fd5b6116bb601f8201601f1916602001612037565b91508082528360208285010111156116d257600080fd5b6116e381602084016020860161205e565b5092915050565b805169ffffffffffffffffffff8116811461161d57600080fd5b805161161d816120b5565b600060208284031215611720578081fd5b8151801515811461172f578182fd5b9392505050565b600060208284031215611747578081fd5b5051919050565b60006020828403121561175f578081fd5b815167ffffffffffffffff811115611775578182fd5b61178184828501611682565b949350505050565b6000806040838503121561179b578081fd5b825167ffffffffffffffff808211156117b2578283fd5b6117be86838701611682565b935060208501519150808211156117d3578283fd5b506117e085828601611682565b9150509250929050565b600080600080600080600080610100898b031215611806578384fd5b88356118118161208e565b9750602089013596506040890135611828816120b5565b955060608901356118388161208e565b94506080890135611848816120b5565b935060a0890135611858816120a6565b979a969950949793969295929450505060c08201359160e0013590565b600080600080600080600060a0888a03121561188f578081fd5b873561189a8161208e565b965060208801356118aa8161208e565b955060408801359450606088013567ffffffffffffffff808211156118cd578283fd5b6118d98b838c0161163b565b909650945060808a01359150808211156118f1578283fd5b506118fe8a828b0161163b565b989b979a50959850939692959293505050565b600080600080600080600080600060c08a8c03121561192e578283fd5b89356119398161208e565b985060208a01356119498161208e565b975060408a0135965060608a013567ffffffffffffffff8082111561196c578485fd5b6119788d838e0161163b565b909850965060808c0135915080821115611990578485fd5b61199c8d838e0161163b565b909650945060a08c01359150808211156119b4578283fd5b506119c18c828d0161163b565b915080935050809150509295985092959850929598565b6000602082840312156119e9578081fd5b815161172f816120a6565b600060208284031215611a05578081fd5b815167ffffffffffffffff80821115611a1c578283fd5b8184019150610160808387031215611a32578384fd5b611a3b81612037565b9050611a478684611704565b8152611a568660208501611704565b602082015260408301516040820152611a728660608501611612565b6060820152611a848660808501611623565b608082015260a083015182811115611a9a578485fd5b611aa687828601611682565b60a08301525060c083015160c082015260e083015160e0820152610100915081830151828201526101209150611ade86838501611612565b828201526101409150611af386838501611612565b91810191909152949350505050565b60008060008060808587031215611b17578182fd5b845193506020850151611b29816120a6565b6040860151606090960151949790965092505050565b600080600080600060a08688031215611b56578283fd5b611b6087876116ea565b9450602086015193506040860151925060608601519150611b8487608088016116ea565b90509295509295909350565b60008151808452611ba881602086016020860161205e565b601f01601f19169290920160200192915050565b6002815261060f60f31b602082015260400190565b6001600160a01b0391909116815260200190565b6001600160a01b0392831681529116602082015260400190565b6001600160a01b039384168152919092166020820152604081019190915260600190565b6001600160a01b03929092168252602082015260400190565b901515815260200190565b60006020825282602083015282846040840137818301604090810191909152601f909201601f19160101919050565b60006020825261172f6020830184611b90565b6001600160a01b0383168152606060208201819052600090611cad90830184611b90565b8281036040840152611cbe81611bbc565b95945050505050565b6001600160a01b0384168152608060208201819052600090611ceb90830185611b90565b8281036040840152611cfc81611bbc565b90508281036060840152611d108185611b90565b9695505050505050565b6001600160a01b0393841681529183166020830152909116604082015260600190565b6001600160a01b038581168252848116602083015283166040820152608060608201819052600090611d1090830184611b90565b6001600160a01b03858116825284166020820152600b83900b6040820152608060608201819052600090611d1090830184611b90565b90815260200190565b600b9190910b815260200190565b60208082526021908201527f5265646972656374416c6c3a206f6e6c7920434641763120737570706f7274656040820152601960fa1b606082015260800190565b6020808252601f908201527f5265646972656374416c6c3a206e6f7420616363657074656420746f6b656e00604082015260600190565b60208082526033908201527f556e737570706f727465642063616c6c6261636b202d20204265666f7265204160408201527219dc99595b595b9d0815195c9b5a5b985d1959606a1b606082015260800190565b60208082526022908201527f5265646972656374416c6c3a20737570706f7274206f6e6c79206f6e6520686f6040820152611cdd60f21b606082015260800190565b60208082526017908201527f6f7074696f6e206f7574206f6620746865206d6f6e6579000000000000000000604082015260600190565b602080825260169082015275696e73756666696369656e7420666c6f77207261746560501b604082015260600190565b6020808252602f908201527f556e737570706f727465642063616c6c6261636b202d204265666f726520416760408201526e1c99595b595b9d081d5c19185d1959608a1b606082015260800190565b6020808252602f908201527f556e737570706f727465642063616c6c6261636b202d204265666f726520416760408201526e1c99595b595b9d0810dc99585d1959608a1b606082015260800190565b60208082526017908201527f6d7573742063616c6c20617070726f7665206669727374000000000000000000604082015260600190565b9283526001600160a01b03919091166020830152600b0b604082015260600190565b60ff91909116815260200190565b60405181810167ffffffffffffffff8111828210171561205657600080fd5b604052919050565b60005b83811015612079578181015183820152602001612061565b83811115612088576000848401525b50505050565b6001600160a01b03811681146120a357600080fd5b50565b80600b0b81146120a357600080fd5b60ff811681146120a357600080fdfea26469706673582212200d97c2da5bc9317da0f8060ac1623d39657aa43769abc0d2e178f8767f43d50a64736f6c63430007000033",
  "linkReferences": {},
  "deployedLinkReferences": {}
}