{
  "_format": "hh-sol-artifact-1",
  "contractName": "RedirectAll",
  "sourceName": "contracts/RedirectAll.sol",
  "abi": [
    {
      "inputs": [
        {
          "internalType": "contract ISuperfluid",
          "name": "host",
          "type": "address"
        },
        {
          "internalType": "contract ISuperToken",
          "name": "acceptedToken",
          "type": "address"
        },
        {
          "internalType": "address",
          "name": "receiver",
          "type": "address"
        }
      ],
      "stateMutability": "nonpayable",
      "type": "constructor"
    },
    {
      "anonymous": false,
      "inputs": [
        {
          "indexed": false,
          "internalType": "address",
          "name": "receiver",
          "type": "address"
        }
      ],
      "name": "ReceiverChanged",
      "type": "event"
    },
    {
      "inputs": [],
      "name": "_receiver",
      "outputs": [
        {
          "internalType": "address",
          "name": "",
          "type": "address"
        }
      ],
      "stateMutability": "view",
      "type": "function"
    },
    {
      "inputs": [
        {
          "internalType": "contract ISuperToken",
          "name": "_superToken",
          "type": "address"
        },
        {
          "internalType": "address",
          "name": "_agreementClass",
          "type": "address"
        },
        {
          "internalType": "bytes32",
          "name": "",
          "type": "bytes32"
        },
        {
          "internalType": "bytes",
          "name": "",
          "type": "bytes"
        },
        {
          "internalType": "bytes",
          "name": "",
          "type": "bytes"
        },
        {
          "internalType": "bytes",
          "name": "_ctx",
          "type": "bytes"
        }
      ],
      "name": "afterAgreementCreated",
      "outputs": [
        {
          "internalType": "bytes",
          "name": "newCtx",
          "type": "bytes"
        }
      ],
      "stateMutability": "nonpayable",
      "type": "function"
    },
    {
      "inputs": [
        {
          "internalType": "contract ISuperToken",
          "name": "_superToken",
          "type": "address"
        },
        {
          "internalType": "address",
          "name": "_agreementClass",
          "type": "address"
        },
        {
          "internalType": "bytes32",
          "name": "",
          "type": "bytes32"
        },
        {
          "internalType": "bytes",
          "name": "",
          "type": "bytes"
        },
        {
          "internalType": "bytes",
          "name": "",
          "type": "bytes"
        },
        {
          "internalType": "bytes",
          "name": "_ctx",
          "type": "bytes"
        }
      ],
      "name": "afterAgreementTerminated",
      "outputs": [
        {
          "internalType": "bytes",
          "name": "newCtx",
          "type": "bytes"
        }
      ],
      "stateMutability": "nonpayable",
      "type": "function"
    },
    {
      "inputs": [
        {
          "internalType": "contract ISuperToken",
          "name": "_superToken",
          "type": "address"
        },
        {
          "internalType": "address",
          "name": "_agreementClass",
          "type": "address"
        },
        {
          "internalType": "bytes32",
          "name": "",
          "type": "bytes32"
        },
        {
          "internalType": "bytes",
          "name": "agreementData",
          "type": "bytes"
        },
        {
          "internalType": "bytes",
          "name": "",
          "type": "bytes"
        },
        {
          "internalType": "bytes",
          "name": "_ctx",
          "type": "bytes"
        }
      ],
      "name": "afterAgreementUpdated",
      "outputs": [
        {
          "internalType": "bytes",
          "name": "newCtx",
          "type": "bytes"
        }
      ],
      "stateMutability": "nonpayable",
      "type": "function"
    },
    {
      "inputs": [
        {
          "internalType": "contract ISuperToken",
          "name": "",
          "type": "address"
        },
        {
          "internalType": "address",
          "name": "",
          "type": "address"
        },
        {
          "internalType": "bytes32",
          "name": "",
          "type": "bytes32"
        },
        {
          "internalType": "bytes",
          "name": "",
          "type": "bytes"
        },
        {
          "internalType": "bytes",
          "name": "",
          "type": "bytes"
        }
      ],
      "name": "beforeAgreementCreated",
      "outputs": [
        {
          "internalType": "bytes",
          "name": "",
          "type": "bytes"
        }
      ],
      "stateMutability": "view",
      "type": "function"
    },
    {
      "inputs": [
        {
          "internalType": "contract ISuperToken",
          "name": "",
          "type": "address"
        },
        {
          "internalType": "address",
          "name": "",
          "type": "address"
        },
        {
          "internalType": "bytes32",
          "name": "",
          "type": "bytes32"
        },
        {
          "internalType": "bytes",
          "name": "",
          "type": "bytes"
        },
        {
          "internalType": "bytes",
          "name": "",
          "type": "bytes"
        }
      ],
      "name": "beforeAgreementTerminated",
      "outputs": [
        {
          "internalType": "bytes",
          "name": "",
          "type": "bytes"
        }
      ],
      "stateMutability": "view",
      "type": "function"
    },
    {
      "inputs": [
        {
          "internalType": "contract ISuperToken",
          "name": "",
          "type": "address"
        },
        {
          "internalType": "address",
          "name": "",
          "type": "address"
        },
        {
          "internalType": "bytes32",
          "name": "",
          "type": "bytes32"
        },
        {
          "internalType": "bytes",
          "name": "",
          "type": "bytes"
        },
        {
          "internalType": "bytes",
          "name": "",
          "type": "bytes"
        }
      ],
      "name": "beforeAgreementUpdated",
      "outputs": [
        {
          "internalType": "bytes",
          "name": "",
          "type": "bytes"
        }
      ],
      "stateMutability": "view",
      "type": "function"
    },
    {
      "inputs": [],
      "name": "cfaV1",
      "outputs": [
        {
          "internalType": "contract ISuperfluid",
          "name": "host",
          "type": "address"
        },
        {
          "internalType": "contract IConstantFlowAgreementV1",
          "name": "cfa",
          "type": "address"
        }
      ],
      "stateMutability": "view",
      "type": "function"
    },
    {
      "inputs": [],
      "name": "currentReceiver",
      "outputs": [
        {
          "internalType": "uint256",
          "name": "startTime",
          "type": "uint256"
        },
        {
          "internalType": "address",
          "name": "receiver",
          "type": "address"
        },
        {
          "internalType": "int96",
          "name": "flowRate",
          "type": "int96"
        }
      ],
      "stateMutability": "view",
      "type": "function"
    }
  ],
  "bytecode": "0x60806040523480156200001157600080fd5b506040516200112938038062001129833981016040819052620000349162000213565b6001600160a01b0383166200004557fe5b6001600160a01b0382166200005657fe5b6001600160a01b0381166200006757fe5b600280546001600160a01b0319166001600160a01b038516908117909155604051635b69006f60e11b815263b6d200de90620000c8907fa9214cc96615e0085d3bb077758db69497dc2dce3b2b1e97bc93c3d18d83efd39060040162000266565b60206040518083038186803b158015620000e157600080fd5b505afa158015620000f6573d6000803e3d6000fd5b505050506040513d601f19601f820116820180604052508101906200011c9190620001ed565b600380546001600160a01b03199081166001600160a01b0393841617918290556004805482168685161781556005805483168686161790556040805180820182526002548616808252949095166020909501859052600080548416851790556001805490931690941790915591516315a722b960e31b81526415000000019263ad3915c891620001af9185910162000266565b600060405180830381600087803b158015620001ca57600080fd5b505af1158015620001df573d6000803e3d6000fd5b505050505050505062000288565b600060208284031215620001ff578081fd5b81516200020c816200026f565b9392505050565b60008060006060848603121562000228578182fd5b835162000235816200026f565b602085015190935062000248816200026f565b60408501519092506200025b816200026f565b809150509250925092565b90815260200190565b6001600160a01b03811681146200028557600080fd5b50565b610e9180620002986000396000f3fe608060405234801561001057600080fd5b50600436106100935760003560e01c806353c11f991161006657806353c11f99146101005780635f9e7d7714610113578063884d1f4014610126578063d3112b2e14610139578063d86ed3e5146100b657610093565b806302964ff114610098578063230dbd29146100b657806328d2bf94146100d657806330d9c915146100ed575b600080fd5b6100a061014f565b6040516100ad9190610b7b565b60405180910390f35b6100c96100c4366004610a2c565b61015e565b6040516100ad9190610b8f565b6100de6101f9565b6040516100ad93929190610d60565b6100c96100fb366004610990565b6102b9565b6100c961010e366004610a2c565b6102f2565b6100c9610121366004610990565b610398565b6100c9610134366004610990565b6103d1565b61014161040a565b6040516100ad929190610bff565b6005546001600160a01b031681565b6060898961016b82610420565b6101905760405162461bcd60e51b815260040161018790610ce7565b60405180910390fd5b61019981610437565b6101b55760405162461bcd60e51b815260040161018790610ca6565b6002546001600160a01b031633146101df5760405162461bcd60e51b815260040161018790610d1e565b6101e985856104d2565b9c9b505050505050505050505050565b600554600090819081906001600160a01b0316156102b45760035460048054600554604051631cd43d1160e31b81526001600160a01b039485169463e6a1e8889461024c94821693309392169101610c19565b60806040518083038186803b15801561026457600080fd5b505afa158015610278573d6000803e3d6000fd5b505050506040513d601f19601f8201168201806040525081019061029c9190610b14565b50506005549194506001600160a01b03909116925090505b909192565b606060405162461bcd60e51b815260040180806020018281038252602f815260200180610e2d602f913960400191505060405180910390fd5b6002546060906001600160a01b0316331461031f5760405162461bcd60e51b815260040161018790610d1e565b6103288a610420565b158061033a575061033889610437565b155b1561037e5782828080601f01602080910402602001604051908101604052809392919081815260200183838082843760009201919091525092935061038b92505050565b61038883836104d2565b90505b9998505050505050505050565b606060405162461bcd60e51b8152600401808060200182810382526033815260200180610dcb6033913960400191505060405180910390fd5b606060405162461bcd60e51b815260040180806020018281038252602f815260200180610dfe602f913960400191505060405180910390fd5b6000546001546001600160a01b03918216911682565b6004546001600160a01b038281169116145b919050565b60007fa9214cc96615e0085d3bb077758db69497dc2dce3b2b1e97bc93c3d18d83efd3826001600160a01b0316637730599e6040518163ffffffff1660e01b815260040160206040518083038186803b15801561049357600080fd5b505afa1580156104a7573d6000803e3d6000fd5b505050506040513d601f19601f820116820180604052508101906104cb9190610917565b1492915050565b606082828080601f01602080910402602001604051908101604052809392919081815260200183838082843760009201829052506003546004805460405163e8e7e2d160e01b815297985092966001600160a01b03928316965063e8e7e2d1955061054594509290911691309101610bff565b60206040518083038186803b15801561055d57600080fd5b505afa158015610571573d6000803e3d6000fd5b505050506040513d601f19601f820116820180604052508101906105959190610af3565b60035460048054600554604051631cd43d1160e31b81529495506000946001600160a01b039485169463e6a1e888946105d694821693309392169101610c19565b60806040518083038186803b1580156105ee57600080fd5b505afa158015610602573d6000803e3d6000fd5b505050506040513d601f19601f820116820180604052508101906106269190610b14565b509092505050818101600b81900b6106625760055460045461065b91600091879130916001600160a01b0391821691166106bc565b93506106b3565b600b82900b1561068e5760055460045461065b9160009187916001600160a01b039081169116856107af565b6005546004546106b09160009187916001600160a01b0390811691168561081a565b93505b50505092915050565b845460018601546040805160008152602081019091526060926001600160a01b0390811692634329d29392911690635a5999e360e11b906107069087908a908a9060448101610c3c565b60408051601f198184030181529181526020820180516001600160e01b03166001600160e01b03199485161790525160e085901b909216825261074e92918a90600401610ba2565b600060405180830381600087803b15801561076857600080fd5b505af115801561077c573d6000803e3d6000fd5b505050506040513d6000823e601f3d908101601f191682016040526107a4919081019061092f565b509695505050505050565b845460018601546060916001600160a01b0390811691634329d29391166328104d3160e11b8688876000805b506040519080825280601f01601f191660200182016040528015610806576020820181803683370190505b506040516024016107069493929190610c70565b845460018601546060916001600160a01b0390811691634329d293911663317e182f60e11b8688876000806107db565b60008083601f84011261085b578182fd5b50813567ffffffffffffffff811115610872578182fd5b60208301915083602082850101111561088a57600080fd5b9250929050565b600082601f8301126108a1578081fd5b815167ffffffffffffffff808211156108b657fe5b604051601f8301601f1916810160200182811182821017156108d457fe5b6040528281528483016020018610156108eb578384fd5b6108fc836020830160208801610d82565b95945050505050565b8051600b81900b811461043257600080fd5b600060208284031215610928578081fd5b5051919050565b60008060408385031215610941578081fd5b825167ffffffffffffffff80821115610958578283fd5b61096486838701610891565b93506020850151915080821115610979578283fd5b5061098685828601610891565b9150509250929050565b600080600080600080600060a0888a0312156109aa578283fd5b87356109b581610db2565b965060208801356109c581610db2565b955060408801359450606088013567ffffffffffffffff808211156109e8578485fd5b6109f48b838c0161084a565b909650945060808a0135915080821115610a0c578384fd5b50610a198a828b0161084a565b989b979a50959850939692959293505050565b600080600080600080600080600060c08a8c031215610a49578182fd5b8935610a5481610db2565b985060208a0135610a6481610db2565b975060408a0135965060608a013567ffffffffffffffff80821115610a87578384fd5b610a938d838e0161084a565b909850965060808c0135915080821115610aab578384fd5b610ab78d838e0161084a565b909650945060a08c0135915080821115610acf578384fd5b50610adc8c828d0161084a565b915080935050809150509295985092959850929598565b600060208284031215610b04578081fd5b610b0d82610905565b9392505050565b60008060008060808587031215610b29578384fd5b84519350610b3960208601610905565b6040860151606090960151949790965092505050565b60008151808452610b67816020860160208601610d82565b601f01601f19169290920160200192915050565b6001600160a01b0391909116815260200190565b600060208252610b0d6020830184610b4f565b6001600160a01b0384168152608060208201819052600090610bc690830185610b4f565b8281038060408501526002825261060f60f31b602083015260408101606085015250610bf56040820185610b4f565b9695505050505050565b6001600160a01b0392831681529116602082015260400190565b6001600160a01b0393841681529183166020830152909116604082015260600190565b6001600160a01b038581168252848116602083015283166040820152608060608201819052600090610bf590830184610b4f565b6001600160a01b03858116825284166020820152600b83900b6040820152608060608201819052600090610bf590830184610b4f565b60208082526021908201527f5265646972656374416c6c3a206f6e6c7920434641763120737570706f7274656040820152601960fa1b606082015260800190565b6020808252601f908201527f5265646972656374416c6c3a206e6f7420616363657074656420746f6b656e00604082015260600190565b60208082526022908201527f5265646972656374416c6c3a20737570706f7274206f6e6c79206f6e6520686f6040820152611cdd60f21b606082015260800190565b9283526001600160a01b03919091166020830152600b0b604082015260600190565b60005b83811015610d9d578181015183820152602001610d85565b83811115610dac576000848401525b50505050565b6001600160a01b0381168114610dc757600080fd5b5056fe556e737570706f727465642063616c6c6261636b202d20204265666f72652041677265656d656e74205465726d696e61746564556e737570706f727465642063616c6c6261636b202d204265666f72652041677265656d656e742075706461746564556e737570706f727465642063616c6c6261636b202d204265666f72652041677265656d656e742043726561746564a2646970667358221220257a93464dfc3987fad3adfa68dc6e7dda6bd3324d4f46f08da16a36a1935d3f64736f6c63430007060033",
  "linkReferences": {},
  "deployedLinkReferences": {}
}