{
  "address": "0x0eE8455537ca7A304F803A49E6BdF07774a21194",
  "abi": [
    {
      "inputs": [
        {
          "internalType": "address",
          "name": "owner",
          "type": "address"
        },
        {
          "internalType": "string",
          "name": "_name",
          "type": "string"
        },
        {
          "internalType": "string",
          "name": "_symbol",
          "type": "string"
        },
        {
          "internalType": "contract ISuperfluid",
          "name": "host",
          "type": "address"
        },
        {
          "internalType": "contract IConstantFlowAgreementV1",
          "name": "cfa",
          "type": "address"
        },
        {
          "internalType": "contract ISuperToken",
          "name": "acceptedToken",
          "type": "address"
        }
      ],
      "stateMutability": "nonpayable",
      "type": "constructor"
    },
    {
      "anonymous": false,
      "inputs": [
        {
          "indexed": true,
          "internalType": "address",
          "name": "owner",
          "type": "address"
        },
        {
          "indexed": true,
          "internalType": "address",
          "name": "approved",
          "type": "address"
        },
        {
          "indexed": true,
          "internalType": "uint256",
          "name": "tokenId",
          "type": "uint256"
        }
      ],
      "name": "Approval",
      "type": "event"
    },
    {
      "anonymous": false,
      "inputs": [
        {
          "indexed": true,
          "internalType": "address",
          "name": "owner",
          "type": "address"
        },
        {
          "indexed": true,
          "internalType": "address",
          "name": "operator",
          "type": "address"
        },
        {
          "indexed": false,
          "internalType": "bool",
          "name": "approved",
          "type": "bool"
        }
      ],
      "name": "ApprovalForAll",
      "type": "event"
    },
    {
      "anonymous": false,
      "inputs": [
        {
          "indexed": false,
          "internalType": "address",
          "name": "receiver",
          "type": "address"
        }
      ],
      "name": "ReceiverChanged",
      "type": "event"
    },
    {
      "anonymous": false,
      "inputs": [
        {
          "indexed": true,
          "internalType": "address",
          "name": "from",
          "type": "address"
        },
        {
          "indexed": true,
          "internalType": "address",
          "name": "to",
          "type": "address"
        },
        {
          "indexed": true,
          "internalType": "uint256",
          "name": "tokenId",
          "type": "uint256"
        }
      ],
      "name": "Transfer",
      "type": "event"
    },
    {
      "inputs": [],
      "name": "_DAI",
      "outputs": [
        {
          "internalType": "contract ERC20",
          "name": "",
          "type": "address"
        }
      ],
      "stateMutability": "view",
      "type": "function"
    },
    {
      "inputs": [],
      "name": "_acceptedToken",
      "outputs": [
        {
          "internalType": "contract ISuperToken",
          "name": "",
          "type": "address"
        }
      ],
      "stateMutability": "view",
      "type": "function"
    },
    {
      "inputs": [],
      "name": "_expirationDate",
      "outputs": [
        {
          "internalType": "uint256",
          "name": "",
          "type": "uint256"
        }
      ],
      "stateMutability": "view",
      "type": "function"
    },
    {
      "inputs": [],
      "name": "_priceFeed",
      "outputs": [
        {
          "internalType": "contract AggregatorV3Interface",
          "name": "",
          "type": "address"
        }
      ],
      "stateMutability": "view",
      "type": "function"
    },
    {
      "inputs": [],
      "name": "_priceFeedDecimals",
      "outputs": [
        {
          "internalType": "uint8",
          "name": "",
          "type": "uint8"
        }
      ],
      "stateMutability": "view",
      "type": "function"
    },
    {
      "inputs": [],
      "name": "_receiver",
      "outputs": [
        {
          "internalType": "address",
          "name": "",
          "type": "address"
        }
      ],
      "stateMutability": "view",
      "type": "function"
    },
    {
      "inputs": [],
      "name": "_requiredFlowRate",
      "outputs": [
        {
          "internalType": "int96",
          "name": "",
          "type": "int96"
        }
      ],
      "stateMutability": "view",
      "type": "function"
    },
    {
      "inputs": [],
      "name": "_strikePrice",
      "outputs": [
        {
          "internalType": "int256",
          "name": "",
          "type": "int256"
        }
      ],
      "stateMutability": "view",
      "type": "function"
    },
    {
      "inputs": [],
      "name": "_underlyingAmount",
      "outputs": [
        {
          "internalType": "uint256",
          "name": "",
          "type": "uint256"
        }
      ],
      "stateMutability": "view",
      "type": "function"
    },
    {
      "inputs": [],
      "name": "_underlyingAsset",
      "outputs": [
        {
          "internalType": "contract ERC20",
          "name": "",
          "type": "address"
        }
      ],
      "stateMutability": "view",
      "type": "function"
    },
    {
      "inputs": [],
      "name": "_underlyingDecimals",
      "outputs": [
        {
          "internalType": "uint8",
          "name": "",
          "type": "uint8"
        }
      ],
      "stateMutability": "view",
      "type": "function"
    },
    {
      "inputs": [
        {
          "internalType": "contract ISuperToken",
          "name": "_superToken",
          "type": "address"
        },
        {
          "internalType": "address",
          "name": "_agreementClass",
          "type": "address"
        },
        {
          "internalType": "bytes32",
          "name": "",
          "type": "bytes32"
        },
        {
          "internalType": "bytes",
          "name": "",
          "type": "bytes"
        },
        {
          "internalType": "bytes",
          "name": "",
          "type": "bytes"
        },
        {
          "internalType": "bytes",
          "name": "_ctx",
          "type": "bytes"
        }
      ],
      "name": "afterAgreementCreated",
      "outputs": [
        {
          "internalType": "bytes",
          "name": "newCtx",
          "type": "bytes"
        }
      ],
      "stateMutability": "nonpayable",
      "type": "function"
    },
    {
      "inputs": [
        {
          "internalType": "contract ISuperToken",
          "name": "_superToken",
          "type": "address"
        },
        {
          "internalType": "address",
          "name": "_agreementClass",
          "type": "address"
        },
        {
          "internalType": "bytes32",
          "name": "",
          "type": "bytes32"
        },
        {
          "internalType": "bytes",
          "name": "",
          "type": "bytes"
        },
        {
          "internalType": "bytes",
          "name": "",
          "type": "bytes"
        },
        {
          "internalType": "bytes",
          "name": "_ctx",
          "type": "bytes"
        }
      ],
      "name": "afterAgreementTerminated",
      "outputs": [
        {
          "internalType": "bytes",
          "name": "newCtx",
          "type": "bytes"
        }
      ],
      "stateMutability": "nonpayable",
      "type": "function"
    },
    {
      "inputs": [
        {
          "internalType": "contract ISuperToken",
          "name": "_superToken",
          "type": "address"
        },
        {
          "internalType": "address",
          "name": "_agreementClass",
          "type": "address"
        },
        {
          "internalType": "bytes32",
          "name": "",
          "type": "bytes32"
        },
        {
          "internalType": "bytes",
          "name": "",
          "type": "bytes"
        },
        {
          "internalType": "bytes",
          "name": "",
          "type": "bytes"
        },
        {
          "internalType": "bytes",
          "name": "_ctx",
          "type": "bytes"
        }
      ],
      "name": "afterAgreementUpdated",
      "outputs": [
        {
          "internalType": "bytes",
          "name": "newCtx",
          "type": "bytes"
        }
      ],
      "stateMutability": "nonpayable",
      "type": "function"
    },
    {
      "inputs": [
        {
          "internalType": "address",
          "name": "to",
          "type": "address"
        },
        {
          "internalType": "uint256",
          "name": "tokenId",
          "type": "uint256"
        }
      ],
      "name": "approve",
      "outputs": [],
      "stateMutability": "nonpayable",
      "type": "function"
    },
    {
      "inputs": [
        {
          "internalType": "address",
          "name": "owner",
          "type": "address"
        }
      ],
      "name": "balanceOf",
      "outputs": [
        {
          "internalType": "uint256",
          "name": "",
          "type": "uint256"
        }
      ],
      "stateMutability": "view",
      "type": "function"
    },
    {
      "inputs": [],
      "name": "baseURI",
      "outputs": [
        {
          "internalType": "string",
          "name": "",
          "type": "string"
        }
      ],
      "stateMutability": "view",
      "type": "function"
    },
    {
      "inputs": [
        {
          "internalType": "contract ISuperToken",
          "name": "",
          "type": "address"
        },
        {
          "internalType": "address",
          "name": "",
          "type": "address"
        },
        {
          "internalType": "bytes32",
          "name": "",
          "type": "bytes32"
        },
        {
          "internalType": "bytes",
          "name": "",
          "type": "bytes"
        },
        {
          "internalType": "bytes",
          "name": "",
          "type": "bytes"
        }
      ],
      "name": "beforeAgreementCreated",
      "outputs": [
        {
          "internalType": "bytes",
          "name": "",
          "type": "bytes"
        }
      ],
      "stateMutability": "view",
      "type": "function"
    },
    {
      "inputs": [
        {
          "internalType": "contract ISuperToken",
          "name": "",
          "type": "address"
        },
        {
          "internalType": "address",
          "name": "",
          "type": "address"
        },
        {
          "internalType": "bytes32",
          "name": "",
          "type": "bytes32"
        },
        {
          "internalType": "bytes",
          "name": "",
          "type": "bytes"
        },
        {
          "internalType": "bytes",
          "name": "",
          "type": "bytes"
        }
      ],
      "name": "beforeAgreementTerminated",
      "outputs": [
        {
          "internalType": "bytes",
          "name": "",
          "type": "bytes"
        }
      ],
      "stateMutability": "view",
      "type": "function"
    },
    {
      "inputs": [
        {
          "internalType": "contract ISuperToken",
          "name": "",
          "type": "address"
        },
        {
          "internalType": "address",
          "name": "",
          "type": "address"
        },
        {
          "internalType": "bytes32",
          "name": "",
          "type": "bytes32"
        },
        {
          "internalType": "bytes",
          "name": "",
          "type": "bytes"
        },
        {
          "internalType": "bytes",
          "name": "",
          "type": "bytes"
        }
      ],
      "name": "beforeAgreementUpdated",
      "outputs": [
        {
          "internalType": "bytes",
          "name": "",
          "type": "bytes"
        }
      ],
      "stateMutability": "view",
      "type": "function"
    },
    {
      "inputs": [
        {
          "internalType": "contract ERC20",
          "name": "underlyingAsset",
          "type": "address"
        },
        {
          "internalType": "uint256",
          "name": "underlyingAmount",
          "type": "uint256"
        },
        {
          "internalType": "uint8",
          "name": "underlyingDecimals",
          "type": "uint8"
        },
        {
          "internalType": "contract AggregatorV3Interface",
          "name": "priceFeed",
          "type": "address"
        },
        {
          "internalType": "uint8",
          "name": "priceFeedDecimals",
          "type": "uint8"
        },
        {
          "internalType": "int96",
          "name": "requiredFlowRate",
          "type": "int96"
        },
        {
          "internalType": "uint256",
          "name": "expirationDate",
          "type": "uint256"
        },
        {
          "internalType": "int256",
          "name": "strikePrice",
          "type": "int256"
        }
      ],
      "name": "createOption",
      "outputs": [],
      "stateMutability": "nonpayable",
      "type": "function"
    },
    {
      "inputs": [],
      "name": "currentReceiver",
      "outputs": [
        {
          "internalType": "uint256",
          "name": "startTime",
          "type": "uint256"
        },
        {
          "internalType": "address",
          "name": "receiver",
          "type": "address"
        },
        {
          "internalType": "int96",
          "name": "flowRate",
          "type": "int96"
        }
      ],
      "stateMutability": "view",
      "type": "function"
    },
    {
      "inputs": [],
      "name": "exerciseOption",
      "outputs": [],
      "stateMutability": "nonpayable",
      "type": "function"
    },
    {
      "inputs": [
        {
          "internalType": "uint256",
          "name": "tokenId",
          "type": "uint256"
        }
      ],
      "name": "getApproved",
      "outputs": [
        {
          "internalType": "address",
          "name": "",
          "type": "address"
        }
      ],
      "stateMutability": "view",
      "type": "function"
    },
    {
      "inputs": [
        {
          "internalType": "address",
          "name": "owner",
          "type": "address"
        },
        {
          "internalType": "address",
          "name": "operator",
          "type": "address"
        }
      ],
      "name": "isApprovedForAll",
      "outputs": [
        {
          "internalType": "bool",
          "name": "",
          "type": "bool"
        }
      ],
      "stateMutability": "view",
      "type": "function"
    },
    {
      "inputs": [],
      "name": "name",
      "outputs": [
        {
          "internalType": "string",
          "name": "",
          "type": "string"
        }
      ],
      "stateMutability": "view",
      "type": "function"
    },
    {
      "inputs": [],
      "name": "optionActive",
      "outputs": [
        {
          "internalType": "bool",
          "name": "",
          "type": "bool"
        }
      ],
      "stateMutability": "view",
      "type": "function"
    },
    {
      "inputs": [],
      "name": "optionReady",
      "outputs": [
        {
          "internalType": "bool",
          "name": "",
          "type": "bool"
        }
      ],
      "stateMutability": "view",
      "type": "function"
    },
    {
      "inputs": [
        {
          "internalType": "uint256",
          "name": "tokenId",
          "type": "uint256"
        }
      ],
      "name": "ownerOf",
      "outputs": [
        {
          "internalType": "address",
          "name": "",
          "type": "address"
        }
      ],
      "stateMutability": "view",
      "type": "function"
    },
    {
      "inputs": [
        {
          "internalType": "address",
          "name": "from",
          "type": "address"
        },
        {
          "internalType": "address",
          "name": "to",
          "type": "address"
        },
        {
          "internalType": "uint256",
          "name": "tokenId",
          "type": "uint256"
        }
      ],
      "name": "safeTransferFrom",
      "outputs": [],
      "stateMutability": "nonpayable",
      "type": "function"
    },
    {
      "inputs": [
        {
          "internalType": "address",
          "name": "from",
          "type": "address"
        },
        {
          "internalType": "address",
          "name": "to",
          "type": "address"
        },
        {
          "internalType": "uint256",
          "name": "tokenId",
          "type": "uint256"
        },
        {
          "internalType": "bytes",
          "name": "_data",
          "type": "bytes"
        }
      ],
      "name": "safeTransferFrom",
      "outputs": [],
      "stateMutability": "nonpayable",
      "type": "function"
    },
    {
      "inputs": [
        {
          "internalType": "address",
          "name": "operator",
          "type": "address"
        },
        {
          "internalType": "bool",
          "name": "approved",
          "type": "bool"
        }
      ],
      "name": "setApprovalForAll",
      "outputs": [],
      "stateMutability": "nonpayable",
      "type": "function"
    },
    {
      "inputs": [
        {
          "internalType": "bytes4",
          "name": "interfaceId",
          "type": "bytes4"
        }
      ],
      "name": "supportsInterface",
      "outputs": [
        {
          "internalType": "bool",
          "name": "",
          "type": "bool"
        }
      ],
      "stateMutability": "view",
      "type": "function"
    },
    {
      "inputs": [],
      "name": "symbol",
      "outputs": [
        {
          "internalType": "string",
          "name": "",
          "type": "string"
        }
      ],
      "stateMutability": "view",
      "type": "function"
    },
    {
      "inputs": [
        {
          "internalType": "uint256",
          "name": "index",
          "type": "uint256"
        }
      ],
      "name": "tokenByIndex",
      "outputs": [
        {
          "internalType": "uint256",
          "name": "",
          "type": "uint256"
        }
      ],
      "stateMutability": "view",
      "type": "function"
    },
    {
      "inputs": [
        {
          "internalType": "address",
          "name": "owner",
          "type": "address"
        },
        {
          "internalType": "uint256",
          "name": "index",
          "type": "uint256"
        }
      ],
      "name": "tokenOfOwnerByIndex",
      "outputs": [
        {
          "internalType": "uint256",
          "name": "",
          "type": "uint256"
        }
      ],
      "stateMutability": "view",
      "type": "function"
    },
    {
      "inputs": [
        {
          "internalType": "uint256",
          "name": "tokenId",
          "type": "uint256"
        }
      ],
      "name": "tokenURI",
      "outputs": [
        {
          "internalType": "string",
          "name": "",
          "type": "string"
        }
      ],
      "stateMutability": "view",
      "type": "function"
    },
    {
      "inputs": [],
      "name": "totalSupply",
      "outputs": [
        {
          "internalType": "uint256",
          "name": "",
          "type": "uint256"
        }
      ],
      "stateMutability": "view",
      "type": "function"
    },
    {
      "inputs": [
        {
          "internalType": "address",
          "name": "from",
          "type": "address"
        },
        {
          "internalType": "address",
          "name": "to",
          "type": "address"
        },
        {
          "internalType": "uint256",
          "name": "tokenId",
          "type": "uint256"
        }
      ],
      "name": "transferFrom",
      "outputs": [],
      "stateMutability": "nonpayable",
      "type": "function"
    }
  ],
  "transactionHash": "0x10263dca2332b7dfab4eec39b1bd76fc96aa1da2661e5b381e9372f4488d5ec5",
  "args": [
    "0x5966aa11c794893774a382d9a19743B8be6BFFd1",
    "super option",
    "OPTx",
    "0xeD5B5b32110c3Ded02a07c8b8e97513FAfb883B6",
    "0xF4C5310E51F6079F601a5fb7120bC72a70b96e2A",
    "0x745861AeD1EEe363b4AaA5F1994Be40b1e05Ff90"
  ],
  "solcInputHash": "022841842c57091961e3d08f5aae8fb0",
  "bytecode": "0x6080604052600c8054610100600160a81b0319167415f0ca26781c3852f8166ed2ebce5d18265cceb7001790553480156200003957600080fd5b5060405162004882380380620048828339810160408190526200005c9162000acd565b828282888888620000746301ffc9a760e01b620002a1565b8151620000899060069060208501906200099d565b5080516200009f9060079060208401906200099d565b50620000b26380ac58cd60e01b620002a1565b620000c4635b5e139f60e01b620002a1565b620000d663780e9d6360e01b620002a1565b50506001600160a01b038416620000ec57600080fd5b6001600160a01b0383166200010057600080fd5b6001600160a01b0382166200011457600080fd5b6001600160a01b0381166200012857600080fd5b604051631e51d6a760e11b81526001600160a01b03851690633ca3ad4e906200015690849060040162000c6d565b60206040518083038186803b1580156200016f57600080fd5b505afa15801562000184573d6000803e3d6000fd5b505050506040513d601f19601f82011682018060405250810190620001aa919062000b8a565b15620001b557600080fd5b60118054601280546001600160a01b038781166001600160a01b0319928316179092556013805487841690831617905560148054868416921691909117905561ffff198188166201000090810262010000600160b01b03199094169390931716928390556040516315a722b960e31b81526415000000019392909204169063ad3915c8906200024990849060040162000e22565b600060405180830381600087803b1580156200026457600080fd5b505af115801562000279573d6000803e3d6000fd5b50505050505050505062000295866001620002fc60201b60201c565b50505050505062000e74565b6001600160e01b03198082161415620002d75760405162461bcd60e51b8152600401620002ce9062000d7f565b60405180910390fd5b6001600160e01b0319166000908152602081905260409020805460ff19166001179055565b6001600160a01b038216620003255760405162461bcd60e51b8152600401620002ce9062000ded565b6200033081620003ea565b15620003505760405162461bcd60e51b8152600401620002ce9062000db6565b6200035e600083836200040d565b6001600160a01b03821660009081526001602090815260409091206200038f918390620016216200041d821b17901c565b50620003ad818360026200043260201b6200162d179092919060201c565b5060405181906001600160a01b038416906000907fddf252ad1be2c89b69c2b068fc378daa952ba7f163c4a11628f55a4df523b3ef908290a45050565b6000620004078260026200045260201b6200164d1790919060201c565b92915050565b620004188262000460565b505050565b60006200042b83836200089b565b9392505050565b60006200044a84846001600160a01b038516620008ea565b949350505050565b60006200042b838362000985565b6001600160a01b0381166200047457600080fd5b601154604051631e51d6a760e11b8152620100009091046001600160a01b031690633ca3ad4e90620004ab90849060040162000c6d565b60206040518083038186803b158015620004c457600080fd5b505afa158015620004d9573d6000803e3d6000fd5b505050506040513d601f19601f82011682018060405250810190620004ff919062000b8a565b156200050a57600080fd5b6014546001600160a01b0382811691161415620005275762000898565b601254601354601454604051631cd43d1160e31b81526000936001600160a01b039081169363e6a1e88893620005699391831692309291169060040162000ce4565b60806040518083038186803b1580156200058257600080fd5b505afa15801562000597573d6000803e3d6000fd5b505050506040513d601f19601f82011682018060405250810190620005bd919062000c00565b5050915050600081600b0b13156200083b576011546012546013546014546040805160008152602081019091526001600160a01b03620100009095048516946339255d5b94811693635a5999e360e11b9362000626939183169230929116906044810162000d07565b60408051601f198184030181529181526020820180516001600160e01b03166001600160e01b03199485161790525160e085901b90921682526200066e929160040162000c81565b600060405180830381600087803b1580156200068957600080fd5b505af11580156200069e573d6000803e3d6000fd5b505050506040513d6000823e601f3d908101601f19168201604052620006c8919081019062000bac565b5060115460125460135460405163e8e7e2d160e01b81526001600160a01b03620100009094048416936339255d5b9381169263317e182f60e11b929116908790849063e8e7e2d19062000722908590309060040162000cca565b60206040518083038186803b1580156200073b57600080fd5b505afa15801562000750573d6000803e3d6000fd5b505050506040513d601f19601f8201168201806040525081019062000776919062000be2565b60408051600081526020810190915262000797939291906044810162000d47565b60408051601f198184030181529181526020820180516001600160e01b03166001600160e01b03199485161790525160e085901b9092168252620007df929160040162000c81565b600060405180830381600087803b158015620007fa57600080fd5b505af11580156200080f573d6000803e3d6000fd5b505050506040513d6000823e601f3d908101601f1916820160405262000839919081019062000bac565b505b601480546001600160a01b0319166001600160a01b0384811691909117918290556040517f7dfb1d59db37a3fd2e15e796c189dcab714cdbb18650d68a1de58f8fa60718c9926200088e92169062000c6d565b60405180910390a1505b50565b6000620008a9838362000985565b620008e15750815460018181018455600084815260208082209093018490558454848252828601909352604090209190915562000407565b50600062000407565b600082815260018401602052604081205480620009515750506040805180820182528381526020808201848152865460018181018955600089815284812095516002909302909501918255915190820155865486845281880190925292909120556200042b565b828560000160018303815481106200096557fe5b90600052602060002090600202016001018190555060009150506200042b565b60009081526001919091016020526040902054151590565b828054600181600116156101000203166002900490600052602060002090601f016020900481019282601f10620009e057805160ff191683800117855562000a10565b8280016001018555821562000a10579182015b8281111562000a10578251825591602001919060010190620009f3565b5062000a1e92915062000a22565b5090565b5b8082111562000a1e576000815560010162000a23565b600082601f83011262000a4a578081fd5b81516001600160401b038082111562000a61578283fd5b604051601f8301601f19168101602001828111828210171562000a82578485fd5b60405282815292508284830160200186101562000a9e57600080fd5b62000ab183602083016020880162000e2b565b50505092915050565b8051600b81900b81146200040757600080fd5b60008060008060008060c0878903121562000ae6578182fd5b865162000af38162000e5e565b60208801519096506001600160401b038082111562000b10578384fd5b62000b1e8a838b0162000a39565b9650604089015191508082111562000b34578384fd5b5062000b4389828a0162000a39565b945050606087015162000b568162000e5e565b608088015190935062000b698162000e5e565b60a088015190925062000b7c8162000e5e565b809150509295509295509295565b60006020828403121562000b9c578081fd5b815180151581146200042b578182fd5b60006020828403121562000bbe578081fd5b81516001600160401b0381111562000bd4578182fd5b6200044a8482850162000a39565b60006020828403121562000bf4578081fd5b6200042b838362000aba565b6000806000806080858703121562000c16578384fd5b8451935062000c29866020870162000aba565b6040860151606090960151949790965092505050565b6000815180845262000c5981602086016020860162000e2b565b601f01601f19169290920160200192915050565b6001600160a01b0391909116815260200190565b6001600160a01b038316815260606020820181905260009062000ca79083018462000c3f565b8281036040938401526002815261060f60f31b6020820152919091019392505050565b6001600160a01b0392831681529116602082015260400190565b6001600160a01b0393841681529183166020830152909116604082015260600190565b6001600160a01b03858116825284811660208301528316604082015260806060820181905260009062000d3d9083018462000c3f565b9695505050505050565b6001600160a01b03858116825284166020820152600b83900b604082015260806060820181905260009062000d3d9083018462000c3f565b6020808252601c908201527f4552433136353a20696e76616c696420696e7465726661636520696400000000604082015260600190565b6020808252601c908201527f4552433732313a20746f6b656e20616c7265616479206d696e74656400000000604082015260600190565b6020808252818101527f4552433732313a206d696e7420746f20746865207a65726f2061646472657373604082015260600190565b90815260200190565b60005b8381101562000e4857818101518382015260200162000e2e565b8381111562000e58576000848401525b50505050565b6001600160a01b03811681146200089857600080fd5b6139fe8062000e846000396000f3fe608060405234801561001057600080fd5b506004361061023d5760003560e01c80635c2fad3b1161013b578063a22cb465116100b8578063d86ed3e51161007c578063d86ed3e514610473578063db10b64214610486578063e985e9c51461048e578063e9997cdd146104a1578063fcedc2c1146104b65761023d565b8063a22cb4651461042a578063ad0081841461043d578063b88d4fde14610445578063c17a80e914610458578063c87b56dd146104605761023d565b80636c0360eb116100ff5780636c0360eb146103ec57806370a08231146103f457806382776b6214610407578063884d1f401461040f57806395d89b41146104225761023d565b80635c2fad3b146103a35780635c78db46146103ab5780635f9e7d77146103b357806361c83a45146103c65780636352211e146103d95761023d565b8063243c0465116101c957806342842e0e1161018d57806342842e0e1461034d5780634e5b3c7c146103605780634f6ccce71461036857806353c11f991461037b5780635838048d1461038e5761023d565b8063243c04651461030057806328d2bf94146103085780632f745c591461031f57806330d9c91514610332578063352fd128146103455761023d565b8063095ea7b311610210578063095ea7b3146102a857806316c9b880146102bd57806318160ddd146102d2578063230dbd29146102da57806323b872dd146102ed5761023d565b806301ffc9a71461024257806302964ff11461026b57806306fdde0314610280578063081812fc14610295575b600080fd5b610255610250366004612aff565b6104be565b60405161026291906130bd565b60405180910390f35b6102736104e1565b6040516102629190613015565b6102886104f0565b60405161026291906130f7565b6102736102a3366004612ee3565b610586565b6102bb6102b6366004612aa0565b6105d2565b005b6102c561066a565b604051610262919061321e565b6102c5610670565b6102886102e8366004612cf2565b610681565b6102bb6102fb366004612991565b610837565b61025561086f565b61031061087d565b6040516102629392919061386f565b6102c561032d366004612aa0565b610940565b610288610340366004612c56565b61096b565b6102c5610985565b6102bb61035b366004612991565b61098b565b6102736109a6565b6102c5610376366004612ee3565b6109b5565b610288610389366004612cf2565b6109cb565b610396610b9c565b6040516102629190613891565b6102c5610ba5565b610273610bab565b6102886103c1366004612c56565b610bba565b6102bb6103d4366004612bcb565b610bd4565b6102736103e7366004612ee3565b610c8f565b610288610cb7565b6102c561040236600461293d565b610d18565b610273610d61565b61028861041d366004612c56565b610d70565b610288610d8a565b6102bb610438366004612a73565b610deb565b610396610eb9565b6102bb6104533660046129d1565b610ec9565b610273610f08565b61028861046e366004612ee3565b610f1c565b610288610481366004612cf2565b611062565b6102bb61125c565b61025561049c366004612959565b6115e1565b6104a961160f565b6040516102629190613227565b610255611618565b6001600160e01b0319811660009081526020819052604090205460ff165b919050565b6014546001600160a01b031681565b60068054604080516020601f600260001961010060018816150201909516949094049384018190048102820181019092528281526060939092909183018282801561057c5780601f106105515761010080835404028352916020019161057c565b820191906000526020600020905b81548152906001019060200180831161055f57829003601f168201915b5050505050905090565b600061059182611659565b6105b65760405162461bcd60e51b81526004016105ad906135ed565b60405180910390fd5b506000908152600460205260409020546001600160a01b031690565b60006105dd82610c8f565b9050806001600160a01b0316836001600160a01b031614156106115760405162461bcd60e51b81526004016105ad906136d1565b806001600160a01b0316610623611666565b6001600160a01b0316148061063f575061063f8161049c611666565b61065b5760405162461bcd60e51b81526004016105ad90613504565b610665838361166a565b505050565b600e5481565b600061067c60026116d8565b905090565b6060898961068e826116e3565b6106aa5760405162461bcd60e51b81526004016105ad9061330a565b6106b3816116f7565b6106cf5760405162461bcd60e51b81526004016105ad90613277565b6011546201000090046001600160a01b031633146106ff5760405162461bcd60e51b81526004016105ad90613394565b601254601354604051631cd43d1160e31b81526000926001600160a01b039081169263e6a1e8889261073b929091169033903090600401613191565b60806040518083038186803b15801561075357600080fd5b505afa158015610767573d6000803e3d6000fd5b505050506040513d601f19601f8201168201806040525081019061078b9190612efb565b5050600f54909250600b90810b810b9083900b12801591506107ae575060105442105b80156107c1575060115460ff1615156001145b80156107d55750601154610100900460ff16155b156107e7576107e2611792565b61081c565b60115460ff610100909104161515600114801561080f5750600f54600b90810b810b9082900b125b1561081c5761081c611830565b61082686866118cb565b9d9c50505050505050505050505050565b610848610842611666565b82611c8b565b6108645760405162461bcd60e51b81526004016105ad90613761565b610665838383611d10565b601154610100900460ff1681565b601454600090819081906001600160a01b03161561093b57601254601354601454604051631cd43d1160e31b81526001600160a01b039384169363e6a1e888936108d39390821692309290911690600401613191565b60806040518083038186803b1580156108eb57600080fd5b505afa1580156108ff573d6000803e3d6000fd5b505050506040513d601f19601f820116820180604052508101906109239190612efb565b50506014549194506001600160a01b03909116925090505b909192565b6001600160a01b03821660009081526001602052604081206109629083611e1e565b90505b92915050565b606060405162461bcd60e51b81526004016105ad906137e9565b600b5481565b61066583838360405180602001604052806000815250610ec9565b6013546001600160a01b031681565b6000806109c3600284611e2a565b509392505050565b6011546060906201000090046001600160a01b031633146109fe5760405162461bcd60e51b81526004016105ad90613394565b610a078a6116e3565b1580610a195750610a17896116f7565b155b15610a5d5782828080601f016020809104026020016040519081016040528093929190818152602001838380828437600092019190915250929350610b8f92505050565b426010556011805461ffff19169055600a54601454600b5460405163a9059cbb60e01b81526001600160a01b039384169363a9059cbb93610aa3939116916004016130a4565b602060405180830381600087803b158015610abd57600080fd5b505af1925050508015610aed575060408051601f3d908101601f19168201909252610aea91810190612acb565b60015b610b8057600a54601454600b5460405163095ea7b360e01b81526001600160a01b039384169363095ea7b393610b28939116916004016130a4565b602060405180830381600087803b158015610b4257600080fd5b505af1158015610b56573d6000803e3d6000fd5b505050506040513d601f19601f82011682018060405250810190610b7a9190612acb565b50610b82565b505b610b8c83836118cb565b90505b9998505050505050505050565b600c5460ff1681565b60105481565b600d546001600160a01b031681565b606060405162461bcd60e51b81526004016105ad90613341565b6014546001600160a01b03163314610beb57600080fd5b600a80546001600160a01b03199081166001600160a01b039a8b1617909155600b978855600c805460ff1990811660ff998a1617909155600d8054909216969099169590951760ff60a01b1916600160a01b949096169390930294909417909255600e55600f80546bffffffffffffffffffffffff19166bffffffffffffffffffffffff9290940b9190911692909217909155601055601180549091166001179055565b6000610965826040518060600160405280602981526020016139a06029913960029190611e48565b60098054604080516020601f600260001961010060018816150201909516949094049384018190048102820181019092528281526060939092909183018282801561057c5780601f106105515761010080835404028352916020019161057c565b60006001600160a01b038216610d405760405162461bcd60e51b81526004016105ad90613561565b6001600160a01b0382166000908152600160205260409020610965906116d8565b600a546001600160a01b031681565b606060405162461bcd60e51b81526004016105ad90613712565b60078054604080516020601f600260001961010060018816150201909516949094049384018190048102820181019092528281526060939092909183018282801561057c5780601f106105515761010080835404028352916020019161057c565b610df3611666565b6001600160a01b0316826001600160a01b03161415610e245760405162461bcd60e51b81526004016105ad90613481565b8060056000610e31611666565b6001600160a01b03908116825260208083019390935260409182016000908120918716808252919093529120805460ff191692151592909217909155610e75611666565b6001600160a01b03167f17307eab39ab6107e8899845ad3d59bd9653f200f220920489ca2b5937696c3183604051610ead91906130bd565b60405180910390a35050565b600d54600160a01b900460ff1681565b610eda610ed4611666565b83611c8b565b610ef65760405162461bcd60e51b81526004016105ad90613761565b610f0284848484611e55565b50505050565b600c5461010090046001600160a01b031681565b6060610f2782611659565b610f435760405162461bcd60e51b81526004016105ad90613682565b60008281526008602090815260409182902080548351601f6002600019610100600186161502019093169290920491820184900484028101840190945280845260609392830182828015610fd85780601f10610fad57610100808354040283529160200191610fd8565b820191906000526020600020905b815481529060010190602001808311610fbb57829003601f168201915b505050505090506060610fe9610cb7565b9050805160001415610ffd575090506104dc565b81511561102f578082604051602001611017929190612fe6565b604051602081830303815290604052925050506104dc565b8061103985611e88565b60405160200161104a929190612fe6565b60405160208183030381529060405292505050919050565b6060898961106f826116e3565b61108b5760405162461bcd60e51b81526004016105ad9061330a565b611094816116f7565b6110b05760405162461bcd60e51b81526004016105ad90613277565b6011546201000090046001600160a01b031633146110e05760405162461bcd60e51b81526004016105ad90613394565b6110e861281c565b601154604051631fb6491d60e11b8152620100009091046001600160a01b031690633f6c923a9061111f90899089906004016130c8565b60006040518083038186803b15801561113757600080fd5b505afa15801561114b573d6000803e3d6000fd5b505050506040513d6000823e601f3d908101601f191682016040526111739190810190612dd5565b6060810151601254601354604051631cd43d1160e31b815293945091926000926001600160a01b039283169263e6a1e888926111b9929091169086903090600401613191565b60806040518083038186803b1580156111d157600080fd5b505afa1580156111e5573d6000803e3d6000fd5b505050506040513d601f19601f820116820180604052508101906112099190612efb565b5050600f54909250600b90810b810b9083900b1280159150611232575060115460ff1615156001145b1561123f5761123f611792565b61124988886118cb565b9f9e505050505050505050505050505050565b600e54600c54604051636eb1769f60e11b81526101009091046001600160a01b03169063dd62ed3e906112959033903090600401613029565b60206040518083038186803b1580156112ad57600080fd5b505afa1580156112c1573d6000803e3d6000fd5b505050506040513d601f19601f820116820180604052508101906112e59190612ae7565b10156113035760405162461bcd60e51b81526004016105ad90613838565b601054421061131957611314611830565b6115df565b600d5460408051633fabe5a360e21b815290516000926001600160a01b03169163feaf968c9160048083019260a0929190829003018186803b15801561135e57600080fd5b505afa158015611372573d6000803e3d6000fd5b505050506040513d601f19601f820116820180604052508101906113969190612f38565b5050600c54600d5492945060ff908116600160a01b909304169190911491506113d8905057600d54600c5460ff600160a01b909204821691160360ff16600a0a025b601254601354604051631cd43d1160e31b81526000926001600160a01b039081169263e6a1e88892611414929091169033903090600401613191565b60806040518083038186803b15801561142c57600080fd5b505afa158015611440573d6000803e3d6000fd5b505050506040513d601f19601f820116820180604052508101906114649190612efb565b5050915050600e5482121561148b5760405162461bcd60e51b81526004016105ad906133d6565b600f54600b90810b810b9082900b12156114b75760405162461bcd60e51b81526004016105ad9061340d565b600c54601454600e546040516323b872dd60e01b81526101009093046001600160a01b03908116936323b872dd936114f793339390911691600401613043565b602060405180830381600087803b15801561151157600080fd5b505af1158015611525573d6000803e3d6000fd5b505050506040513d601f19601f820116820180604052508101906115499190612acb565b50600a54600b5460405163a9059cbb60e01b81526001600160a01b039092169163a9059cbb9161157e913391906004016130a4565b602060405180830381600087803b15801561159857600080fd5b505af11580156115ac573d6000803e3d6000fd5b505050506040513d601f19601f820116820180604052508101906115d09190612acb565b50506011805461ffff19169055505b565b6001600160a01b03918216600090815260056020908152604080832093909416825291909152205460ff1690565b600f54600b0b81565b60115460ff1681565b60006109628383611f63565b600061164384846001600160a01b038516611fad565b90505b9392505050565b60006109628383612044565b600061096560028361164d565b3390565b600081815260046020526040902080546001600160a01b0319166001600160a01b038416908117909155819061169f82610c8f565b6001600160a01b03167f8c5be1e5ebec7d5bd14f71427d1e84f3dd0314c0f7b2291e5b200ac8c7c3b92560405160405180910390a45050565b60006109658261205c565b6013546001600160a01b0390811691161490565b60007fa9214cc96615e0085d3bb077758db69497dc2dce3b2b1e97bc93c3d18d83efd3826001600160a01b0316637730599e6040518163ffffffff1660e01b815260040160206040518083038186803b15801561175357600080fd5b505afa158015611767573d6000803e3d6000fd5b505050506040513d601f19601f8201168201806040525081019061178b9190612ae7565b1492915050565b600a54601454600b546040516323b872dd60e01b81526001600160a01b03938416936323b872dd936117cc93911691309190600401613043565b602060405180830381600087803b1580156117e657600080fd5b505af11580156117fa573d6000803e3d6000fd5b505050506040513d601f19601f8201168201806040525081019061181e9190612acb565b506011805461ff001916610100179055565b600a54601454600b5460405163a9059cbb60e01b81526001600160a01b039384169363a9059cbb93611867939116916004016130a4565b602060405180830381600087803b15801561188157600080fd5b505af1158015611895573d6000803e3d6000fd5b505050506040513d601f19601f820116820180604052508101906118b99190612acb565b50426010556011805461ffff19169055565b606082828080601f016020809104026020016040519081016040528093929190818152602001838380828437600092018290525060125460135460405163e8e7e2d160e01b815296975091956001600160a01b03918216955063e8e7e2d1945061193d93509116903090600401613029565b60206040518083038186803b15801561195557600080fd5b505afa158015611969573d6000803e3d6000fd5b505050506040513d601f19601f8201168201806040525081019061198d9190612db9565b601254601354601454604051631cd43d1160e31b81529394506000936001600160a01b039384169363e6a1e888936119d19390821692309290911690600401613191565b60806040518083038186803b1580156119e957600080fd5b505afa1580156119fd573d6000803e3d6000fd5b505050506040513d601f19601f82011682018060405250810190611a219190612efb565b509092505050818101600b81900b611b2e576011546012546013546014546040805160008152602081019091526001600160a01b0362010000909504851694634329d29394811693635a5999e360e11b93611a8893918316923092911690604481016131b4565b60408051601f198184030181529181526020820180516001600160e01b03166001600160e01b03199485161790525160e085901b9092168252611ad092918990600401613148565b600060405180830381600087803b158015611aea57600080fd5b505af1158015611afe573d6000803e3d6000fd5b505050506040513d6000823e601f3d908101601f19168201604052611b269190810190612b6a565b509350611c82565b600b82900b15611b8c576011546012546013546014546040805160008152602081019091526001600160a01b0362010000909504851694634329d293948116936328104d3160e11b93611a88939183169216908890604481016131e8565b6011546012546013546014546040805160008152602081019091526001600160a01b0362010000909504851694634329d2939481169363317e182f60e11b93611be0939183169216908890604481016131e8565b60408051601f198184030181529181526020820180516001600160e01b03166001600160e01b03199485161790525160e085901b9092168252611c2892918990600401613148565b600060405180830381600087803b158015611c4257600080fd5b505af1158015611c56573d6000803e3d6000fd5b505050506040513d6000823e601f3d908101601f19168201604052611c7e9190810190612b6a565b5093505b50505092915050565b6000611c9682611659565b611cb25760405162461bcd60e51b81526004016105ad906134b8565b6000611cbd83610c8f565b9050806001600160a01b0316846001600160a01b03161480611cf85750836001600160a01b0316611ced84610586565b6001600160a01b0316145b80611d085750611d0881856115e1565b949350505050565b826001600160a01b0316611d2382610c8f565b6001600160a01b031614611d495760405162461bcd60e51b81526004016105ad90613639565b6001600160a01b038216611d6f5760405162461bcd60e51b81526004016105ad9061343d565b611d7a838383612060565b611d8560008261166a565b6001600160a01b0383166000908152600160205260409020611da79082612069565b506001600160a01b0382166000908152600160205260409020611dca9082611621565b50611dd76002828461162d565b5080826001600160a01b0316846001600160a01b03167fddf252ad1be2c89b69c2b068fc378daa952ba7f163c4a11628f55a4df523b3ef60405160405180910390a4505050565b60006109628383612075565b6000808080611e3986866120ba565b909450925050505b9250929050565b6000611643848484612116565b611e60848484611d10565b611e6c84848484612175565b610f025760405162461bcd60e51b81526004016105ad906132b8565b606081611ead57506040805180820190915260018152600360fc1b60208201526104dc565b8160005b8115611ec557600101600a82049150611eb1565b60608167ffffffffffffffff81118015611ede57600080fd5b506040519080825280601f01601f191660200182016040528015611f09576020820181803683370190505b50859350905060001982015b8315611f5a57600a840660300160f81b82828060019003935081518110611f3857fe5b60200101906001600160f81b031916908160001a905350600a84049350611f15565b50949350505050565b6000611f6f8383612044565b611fa557508154600181810184556000848152602080822090930184905584548482528286019093526040902091909155610965565b506000610965565b600082815260018401602052604081205480612012575050604080518082018252838152602080820184815286546001818101895560008981528481209551600290930290950191825591519082015586548684528188019092529290912055611646565b8285600001600183038154811061202557fe5b9060005260206000209060020201600101819055506000915050611646565b60009081526001919091016020526040902054151590565b5490565b61066582612254565b60006109628383612666565b815460009082106120985760405162461bcd60e51b81526004016105ad90613235565b8260000182815481106120a757fe5b9060005260206000200154905092915050565b8154600090819083106120df5760405162461bcd60e51b81526004016105ad906135ab565b60008460000184815481106120f057fe5b906000526020600020906002020190508060000154816001015492509250509250929050565b600082815260018401602052604081205482816121465760405162461bcd60e51b81526004016105ad91906130f7565b5084600001600182038154811061215957fe5b9060005260206000209060020201600101549150509392505050565b6000612189846001600160a01b0316612733565b61219557506001611d08565b606061221d630a85bd0160e11b6121aa611666565b8887876040516024016121c09493929190613067565b604051602081830303815290604052906001600160e01b0319166020820180516001600160e01b03838183161783525050505060405180606001604052806032815260200161396e603291396001600160a01b0388169190612739565b90506000818060200190518101906122359190612b1b565b6001600160e01b031916630a85bd0160e11b1492505050949350505050565b6001600160a01b03811661226757600080fd5b601154604051631e51d6a760e11b8152620100009091046001600160a01b031690633ca3ad4e9061229c908490600401613015565b60206040518083038186803b1580156122b457600080fd5b505afa1580156122c8573d6000803e3d6000fd5b505050506040513d601f19601f820116820180604052508101906122ec9190612acb565b156122f657600080fd5b6014546001600160a01b038281169116141561231157612663565b601254601354601454604051631cd43d1160e31b81526000936001600160a01b039081169363e6a1e8889361235193918316923092911690600401613191565b60806040518083038186803b15801561236957600080fd5b505afa15801561237d573d6000803e3d6000fd5b505050506040513d601f19601f820116820180604052508101906123a19190612efb565b5050915050600081600b0b1315612608576011546012546013546014546040805160008152602081019091526001600160a01b03620100009095048516946339255d5b94811693635a5999e360e11b9361240793918316923092911690604481016131b4565b60408051601f198184030181529181526020820180516001600160e01b03166001600160e01b03199485161790525160e085901b909216825261244d929160040161310a565b600060405180830381600087803b15801561246757600080fd5b505af115801561247b573d6000803e3d6000fd5b505050506040513d6000823e601f3d908101601f191682016040526124a39190810190612b37565b5060115460125460135460405163e8e7e2d160e01b81526001600160a01b03620100009094048416936339255d5b9381169263317e182f60e11b929116908790849063e8e7e2d1906124fb9085903090600401613029565b60206040518083038186803b15801561251357600080fd5b505afa158015612527573d6000803e3d6000fd5b505050506040513d601f19601f8201168201806040525081019061254b9190612db9565b60408051600081526020810190915261256a93929190604481016131e8565b60408051601f198184030181529181526020820180516001600160e01b03166001600160e01b03199485161790525160e085901b90921682526125b0929160040161310a565b600060405180830381600087803b1580156125ca57600080fd5b505af11580156125de573d6000803e3d6000fd5b505050506040513d6000823e601f3d908101601f191682016040526126069190810190612b37565b505b601480546001600160a01b0319166001600160a01b0384811691909117918290556040517f7dfb1d59db37a3fd2e15e796c189dcab714cdbb18650d68a1de58f8fa60718c992612659921690613015565b60405180910390a1505b50565b60008181526001830160205260408120548015612722578354600019808301919081019060009087908390811061269957fe5b90600052602060002001549050808760000184815481106126b657fe5b6000918252602080832090910192909255828152600189810190925260409020908401905586548790806126e657fe5b60019003818190600052602060002001600090559055866001016000878152602001908152602001600020600090556001945050505050610965565b6000915050610965565b5092915050565b3b151590565b606061164384846000858561274d85612733565b6127695760405162461bcd60e51b81526004016105ad906137b2565b60006060866001600160a01b031685876040516127869190612fca565b60006040518083038185875af1925050503d80600081146127c3576040519150601f19603f3d011682016040523d82523d6000602084013e6127c8565b606091505b50915091506127d88282866127e3565b979650505050505050565b606083156127f2575081611646565b8251156128025782518084602001fd5b8160405162461bcd60e51b81526004016105ad91906130f7565b604080516101608101825260008082526020820181905291810182905260608082018390526080820183905260a082015260c0810182905260e081018290526101008101829052610120810182905261014081019190915290565b805161096581613916565b805161096581613939565b60008083601f84011261289e578182fd5b50813567ffffffffffffffff8111156128b5578182fd5b602083019150836020828501011115611e4157600080fd5b600082601f8301126128dd578081fd5b81516128f06128eb826138c6565b61389f565b915080825283602082850101111561290757600080fd5b61272c8160208401602086016138ea565b805169ffffffffffffffffffff8116811461096557600080fd5b80516109658161395e565b60006020828403121561294e578081fd5b813561164681613916565b6000806040838503121561296b578081fd5b823561297681613916565b9150602083013561298681613916565b809150509250929050565b6000806000606084860312156129a5578081fd5b83356129b081613916565b925060208401356129c081613916565b929592945050506040919091013590565b600080600080608085870312156129e6578182fd5b84356129f181613916565b93506020850135612a0181613916565b925060408501359150606085013567ffffffffffffffff811115612a23578182fd5b8501601f81018713612a33578182fd5b8035612a416128eb826138c6565b818152886020838501011115612a55578384fd5b81602084016020830137908101602001929092525092959194509250565b60008060408385031215612a85578182fd5b8235612a9081613916565b915060208301356129868161392b565b60008060408385031215612ab2578182fd5b8235612abd81613916565b946020939093013593505050565b600060208284031215612adc578081fd5b81516116468161392b565b600060208284031215612af8578081fd5b5051919050565b600060208284031215612b10578081fd5b813561164681613939565b600060208284031215612b2c578081fd5b815161164681613939565b600060208284031215612b48578081fd5b815167ffffffffffffffff811115612b5e578182fd5b611d08848285016128cd565b60008060408385031215612b7c578182fd5b825167ffffffffffffffff80821115612b93578384fd5b612b9f868387016128cd565b93506020850151915080821115612bb4578283fd5b50612bc1858286016128cd565b9150509250929050565b600080600080600080600080610100898b031215612be7578586fd5b8835612bf281613916565b9750602089013596506040890135612c098161395e565b95506060890135612c1981613916565b94506080890135612c298161395e565b935060a0890135612c398161394f565b979a969950949793969295929450505060c08201359160e0013590565b600080600080600080600060a0888a031215612c70578081fd5b8735612c7b81613916565b96506020880135612c8b81613916565b955060408801359450606088013567ffffffffffffffff80821115612cae578283fd5b612cba8b838c0161288d565b909650945060808a0135915080821115612cd2578283fd5b50612cdf8a828b0161288d565b989b979a50959850939692959293505050565b600080600080600080600080600060c08a8c031215612d0f578283fd5b8935612d1a81613916565b985060208a0135612d2a81613916565b975060408a0135965060608a013567ffffffffffffffff80821115612d4d578485fd5b612d598d838e0161288d565b909850965060808c0135915080821115612d71578485fd5b612d7d8d838e0161288d565b909650945060a08c0135915080821115612d95578283fd5b50612da28c828d0161288d565b915080935050809150509295985092959850929598565b600060208284031215612dca578081fd5b81516116468161394f565b600060208284031215612de6578081fd5b815167ffffffffffffffff80821115612dfd578283fd5b8184019150610160808387031215612e13578384fd5b612e1c8161389f565b9050612e288684612932565b8152612e378660208501612932565b602082015260408301516040820152612e538660608501612877565b6060820152612e658660808501612882565b608082015260a083015182811115612e7b578485fd5b612e87878286016128cd565b60a08301525060c083015160c082015260e083015160e0820152610100915081830151828201526101209150612ebf86838501612877565b828201526101409150612ed486838501612877565b91810191909152949350505050565b600060208284031215612ef4578081fd5b5035919050565b60008060008060808587031215612f10578182fd5b845193506020850151612f228161394f565b6040860151606090960151949790965092505050565b600080600080600060a08688031215612f4f578283fd5b612f598787612918565b9450602086015193506040860151925060608601519150612f7d8760808801612918565b90509295509295909350565b60008151808452612fa18160208601602086016138ea565b601f01601f19169290920160200192915050565b6002815261060f60f31b602082015260400190565b60008251612fdc8184602087016138ea565b9190910192915050565b60008351612ff88184602088016138ea565b83519083019061300c8183602088016138ea565b01949350505050565b6001600160a01b0391909116815260200190565b6001600160a01b0392831681529116602082015260400190565b6001600160a01b039384168152919092166020820152604081019190915260600190565b6001600160a01b038581168252841660208201526040810183905260806060820181905260009061309a90830184612f89565b9695505050505050565b6001600160a01b03929092168252602082015260400190565b901515815260200190565b60006020825282602083015282846040840137818301604090810191909152601f909201601f19160101919050565b6000602082526109626020830184612f89565b6001600160a01b038316815260606020820181905260009061312e90830184612f89565b828103604084015261313f81612fb5565b95945050505050565b6001600160a01b038416815260806020820181905260009061316c90830185612f89565b828103604084015261317d81612fb5565b9050828103606084015261309a8185612f89565b6001600160a01b0393841681529183166020830152909116604082015260600190565b6001600160a01b03858116825284811660208301528316604082015260806060820181905260009061309a90830184612f89565b6001600160a01b03858116825284166020820152600b83900b604082015260806060820181905260009061309a90830184612f89565b90815260200190565b600b9190910b815260200190565b60208082526022908201527f456e756d657261626c655365743a20696e646578206f7574206f6620626f756e604082015261647360f01b606082015260800190565b60208082526021908201527f5265646972656374416c6c3a206f6e6c7920434641763120737570706f7274656040820152601960fa1b606082015260800190565b60208082526032908201527f4552433732313a207472616e7366657220746f206e6f6e20455243373231526560408201527131b2b4bb32b91034b6b83632b6b2b73a32b960711b606082015260800190565b6020808252601f908201527f5265646972656374416c6c3a206e6f7420616363657074656420746f6b656e00604082015260600190565b60208082526033908201527f556e737570706f727465642063616c6c6261636b202d20204265666f7265204160408201527219dc99595b595b9d0815195c9b5a5b985d1959606a1b606082015260800190565b60208082526022908201527f5265646972656374416c6c3a20737570706f7274206f6e6c79206f6e6520686f6040820152611cdd60f21b606082015260800190565b60208082526017908201527f6f7074696f6e206f7574206f6620746865206d6f6e6579000000000000000000604082015260600190565b602080825260169082015275696e73756666696369656e7420666c6f77207261746560501b604082015260600190565b60208082526024908201527f4552433732313a207472616e7366657220746f20746865207a65726f206164646040820152637265737360e01b606082015260800190565b60208082526019908201527f4552433732313a20617070726f766520746f2063616c6c657200000000000000604082015260600190565b6020808252602c908201527f4552433732313a206f70657261746f7220717565727920666f72206e6f6e657860408201526b34b9ba32b73a103a37b5b2b760a11b606082015260800190565b60208082526038908201527f4552433732313a20617070726f76652063616c6c6572206973206e6f74206f7760408201527f6e6572206e6f7220617070726f76656420666f7220616c6c0000000000000000606082015260800190565b6020808252602a908201527f4552433732313a2062616c616e636520717565727920666f7220746865207a65604082015269726f206164647265737360b01b606082015260800190565b60208082526022908201527f456e756d657261626c654d61703a20696e646578206f7574206f6620626f756e604082015261647360f01b606082015260800190565b6020808252602c908201527f4552433732313a20617070726f76656420717565727920666f72206e6f6e657860408201526b34b9ba32b73a103a37b5b2b760a11b606082015260800190565b60208082526029908201527f4552433732313a207472616e73666572206f6620746f6b656e2074686174206960408201526839903737ba1037bbb760b91b606082015260800190565b6020808252602f908201527f4552433732314d657461646174613a2055524920717565727920666f72206e6f60408201526e3732bc34b9ba32b73a103a37b5b2b760891b606082015260800190565b60208082526021908201527f4552433732313a20617070726f76616c20746f2063757272656e74206f776e656040820152603960f91b606082015260800190565b6020808252602f908201527f556e737570706f727465642063616c6c6261636b202d204265666f726520416760408201526e1c99595b595b9d081d5c19185d1959608a1b606082015260800190565b60208082526031908201527f4552433732313a207472616e736665722063616c6c6572206973206e6f74206f6040820152701ddb995c881b9bdc88185c1c1c9bdd9959607a1b606082015260800190565b6020808252601d908201527f416464726573733a2063616c6c20746f206e6f6e2d636f6e7472616374000000604082015260600190565b6020808252602f908201527f556e737570706f727465642063616c6c6261636b202d204265666f726520416760408201526e1c99595b595b9d0810dc99585d1959608a1b606082015260800190565b60208082526017908201527f6d7573742063616c6c20617070726f7665206669727374000000000000000000604082015260600190565b9283526001600160a01b03919091166020830152600b0b604082015260600190565b60ff91909116815260200190565b60405181810167ffffffffffffffff811182821017156138be57600080fd5b604052919050565b600067ffffffffffffffff8211156138dc578081fd5b50601f01601f191660200190565b60005b838110156139055781810151838201526020016138ed565b83811115610f025750506000910152565b6001600160a01b038116811461266357600080fd5b801515811461266357600080fd5b6001600160e01b03198116811461266357600080fd5b80600b0b811461266357600080fd5b60ff8116811461266357600080fdfe4552433732313a207472616e7366657220746f206e6f6e20455243373231526563656976657220696d706c656d656e7465724552433732313a206f776e657220717565727920666f72206e6f6e6578697374656e7420746f6b656ea2646970667358221220ef6bfc04c7fb8a52db6262178313010eacf19152f85b43aa38125252159e7b5064736f6c63430007000033",
  "devdoc": {
    "kind": "dev",
    "methods": {
      "approve(address,uint256)": {
        "details": "See {IERC721-approve}."
      },
      "balanceOf(address)": {
        "details": "See {IERC721-balanceOf}."
      },
      "baseURI()": {
        "details": "Returns the base URI set via {_setBaseURI}. This will be automatically added as a prefix in {tokenURI} to each token's URI, or to the token ID if no specific URI is set for that token ID."
      },
      "getApproved(uint256)": {
        "details": "See {IERC721-getApproved}."
      },
      "isApprovedForAll(address,address)": {
        "details": "See {IERC721-isApprovedForAll}."
      },
      "name()": {
        "details": "See {IERC721Metadata-name}."
      },
      "ownerOf(uint256)": {
        "details": "See {IERC721-ownerOf}."
      },
      "safeTransferFrom(address,address,uint256)": {
        "details": "See {IERC721-safeTransferFrom}."
      },
      "safeTransferFrom(address,address,uint256,bytes)": {
        "details": "See {IERC721-safeTransferFrom}."
      },
      "setApprovalForAll(address,bool)": {
        "details": "See {IERC721-setApprovalForAll}."
      },
      "supportsInterface(bytes4)": {
        "details": "See {IERC165-supportsInterface}. Time complexity O(1), guaranteed to always use less than 30 000 gas."
      },
      "symbol()": {
        "details": "See {IERC721Metadata-symbol}."
      },
      "tokenByIndex(uint256)": {
        "details": "See {IERC721Enumerable-tokenByIndex}."
      },
      "tokenOfOwnerByIndex(address,uint256)": {
        "details": "See {IERC721Enumerable-tokenOfOwnerByIndex}."
      },
      "tokenURI(uint256)": {
        "details": "See {IERC721Metadata-tokenURI}."
      },
      "totalSupply()": {
        "details": "See {IERC721Enumerable-totalSupply}."
      },
      "transferFrom(address,address,uint256)": {
        "details": "See {IERC721-transferFrom}."
      }
    },
    "version": 1
  },
  "userdoc": {
    "kind": "user",
    "methods": {},
    "version": 1
  },
  "storageLayout": {
    "storage": [
      {
        "astId": 59,
        "contract": "contracts/TradeableCashflowOption.sol:TradeableCashflowOption",
        "label": "_supportedInterfaces",
        "offset": 0,
        "slot": "0",
        "type": "t_mapping(t_bytes4,t_bool)"
      },
      {
        "astId": 1096,
        "contract": "contracts/TradeableCashflowOption.sol:TradeableCashflowOption",
        "label": "_holderTokens",
        "offset": 0,
        "slot": "1",
        "type": "t_mapping(t_address,t_struct(UintSet)3621_storage)"
      },
      {
        "astId": 1098,
        "contract": "contracts/TradeableCashflowOption.sol:TradeableCashflowOption",
        "label": "_tokenOwners",
        "offset": 0,
        "slot": "2",
        "type": "t_struct(UintToAddressMap)2998_storage"
      },
      {
        "astId": 1102,
        "contract": "contracts/TradeableCashflowOption.sol:TradeableCashflowOption",
        "label": "_tokenApprovals",
        "offset": 0,
        "slot": "4",
        "type": "t_mapping(t_uint256,t_address)"
      },
      {
        "astId": 1108,
        "contract": "contracts/TradeableCashflowOption.sol:TradeableCashflowOption",
        "label": "_operatorApprovals",
        "offset": 0,
        "slot": "5",
        "type": "t_mapping(t_address,t_mapping(t_address,t_bool))"
      },
      {
        "astId": 1110,
        "contract": "contracts/TradeableCashflowOption.sol:TradeableCashflowOption",
        "label": "_name",
        "offset": 0,
        "slot": "6",
        "type": "t_string_storage"
      },
      {
        "astId": 1112,
        "contract": "contracts/TradeableCashflowOption.sol:TradeableCashflowOption",
        "label": "_symbol",
        "offset": 0,
        "slot": "7",
        "type": "t_string_storage"
      },
      {
        "astId": 1116,
        "contract": "contracts/TradeableCashflowOption.sol:TradeableCashflowOption",
        "label": "_tokenURIs",
        "offset": 0,
        "slot": "8",
        "type": "t_mapping(t_uint256,t_string_storage)"
      },
      {
        "astId": 1118,
        "contract": "contracts/TradeableCashflowOption.sol:TradeableCashflowOption",
        "label": "_baseURI",
        "offset": 0,
        "slot": "9",
        "type": "t_string_storage"
      },
      {
        "astId": 5764,
        "contract": "contracts/TradeableCashflowOption.sol:TradeableCashflowOption",
        "label": "_underlyingAsset",
        "offset": 0,
        "slot": "10",
        "type": "t_contract(ERC20)972"
      },
      {
        "astId": 5766,
        "contract": "contracts/TradeableCashflowOption.sol:TradeableCashflowOption",
        "label": "_underlyingAmount",
        "offset": 0,
        "slot": "11",
        "type": "t_uint256"
      },
      {
        "astId": 5768,
        "contract": "contracts/TradeableCashflowOption.sol:TradeableCashflowOption",
        "label": "_underlyingDecimals",
        "offset": 0,
        "slot": "12",
        "type": "t_uint8"
      },
      {
        "astId": 5773,
        "contract": "contracts/TradeableCashflowOption.sol:TradeableCashflowOption",
        "label": "_DAI",
        "offset": 1,
        "slot": "12",
        "type": "t_contract(ERC20)972"
      },
      {
        "astId": 5775,
        "contract": "contracts/TradeableCashflowOption.sol:TradeableCashflowOption",
        "label": "_priceFeed",
        "offset": 0,
        "slot": "13",
        "type": "t_contract(AggregatorV3Interface)45"
      },
      {
        "astId": 5777,
        "contract": "contracts/TradeableCashflowOption.sol:TradeableCashflowOption",
        "label": "_priceFeedDecimals",
        "offset": 20,
        "slot": "13",
        "type": "t_uint8"
      },
      {
        "astId": 5779,
        "contract": "contracts/TradeableCashflowOption.sol:TradeableCashflowOption",
        "label": "_strikePrice",
        "offset": 0,
        "slot": "14",
        "type": "t_int256"
      },
      {
        "astId": 5781,
        "contract": "contracts/TradeableCashflowOption.sol:TradeableCashflowOption",
        "label": "_requiredFlowRate",
        "offset": 0,
        "slot": "15",
        "type": "t_int96"
      },
      {
        "astId": 5783,
        "contract": "contracts/TradeableCashflowOption.sol:TradeableCashflowOption",
        "label": "_expirationDate",
        "offset": 0,
        "slot": "16",
        "type": "t_uint256"
      },
      {
        "astId": 5785,
        "contract": "contracts/TradeableCashflowOption.sol:TradeableCashflowOption",
        "label": "optionReady",
        "offset": 0,
        "slot": "17",
        "type": "t_bool"
      },
      {
        "astId": 5787,
        "contract": "contracts/TradeableCashflowOption.sol:TradeableCashflowOption",
        "label": "optionActive",
        "offset": 1,
        "slot": "17",
        "type": "t_bool"
      },
      {
        "astId": 5789,
        "contract": "contracts/TradeableCashflowOption.sol:TradeableCashflowOption",
        "label": "_host",
        "offset": 2,
        "slot": "17",
        "type": "t_contract(ISuperfluid)5382"
      },
      {
        "astId": 5791,
        "contract": "contracts/TradeableCashflowOption.sol:TradeableCashflowOption",
        "label": "_cfa",
        "offset": 0,
        "slot": "18",
        "type": "t_contract(IConstantFlowAgreementV1)4106"
      },
      {
        "astId": 5793,
        "contract": "contracts/TradeableCashflowOption.sol:TradeableCashflowOption",
        "label": "_acceptedToken",
        "offset": 0,
        "slot": "19",
        "type": "t_contract(ISuperToken)4894"
      },
      {
        "astId": 5795,
        "contract": "contracts/TradeableCashflowOption.sol:TradeableCashflowOption",
        "label": "_receiver",
        "offset": 0,
        "slot": "20",
        "type": "t_address"
      }
    ],
    "types": {
      "t_address": {
        "encoding": "inplace",
        "label": "address",
        "numberOfBytes": "20"
      },
      "t_array(t_bytes32)dyn_storage": {
        "base": "t_bytes32",
        "encoding": "dynamic_array",
        "label": "bytes32[]",
        "numberOfBytes": "32"
      },
      "t_array(t_struct(MapEntry)2672_storage)dyn_storage": {
        "base": "t_struct(MapEntry)2672_storage",
        "encoding": "dynamic_array",
        "label": "struct EnumerableMap.MapEntry[]",
        "numberOfBytes": "32"
      },
      "t_bool": {
        "encoding": "inplace",
        "label": "bool",
        "numberOfBytes": "1"
      },
      "t_bytes32": {
        "encoding": "inplace",
        "label": "bytes32",
        "numberOfBytes": "32"
      },
      "t_bytes4": {
        "encoding": "inplace",
        "label": "bytes4",
        "numberOfBytes": "4"
      },
      "t_contract(AggregatorV3Interface)45": {
        "encoding": "inplace",
        "label": "contract AggregatorV3Interface",
        "numberOfBytes": "20"
      },
      "t_contract(ERC20)972": {
        "encoding": "inplace",
        "label": "contract ERC20",
        "numberOfBytes": "20"
      },
      "t_contract(IConstantFlowAgreementV1)4106": {
        "encoding": "inplace",
        "label": "contract IConstantFlowAgreementV1",
        "numberOfBytes": "20"
      },
      "t_contract(ISuperToken)4894": {
        "encoding": "inplace",
        "label": "contract ISuperToken",
        "numberOfBytes": "20"
      },
      "t_contract(ISuperfluid)5382": {
        "encoding": "inplace",
        "label": "contract ISuperfluid",
        "numberOfBytes": "20"
      },
      "t_int256": {
        "encoding": "inplace",
        "label": "int256",
        "numberOfBytes": "32"
      },
      "t_int96": {
        "encoding": "inplace",
        "label": "int96",
        "numberOfBytes": "12"
      },
      "t_mapping(t_address,t_bool)": {
        "encoding": "mapping",
        "key": "t_address",
        "label": "mapping(address => bool)",
        "numberOfBytes": "32",
        "value": "t_bool"
      },
      "t_mapping(t_address,t_mapping(t_address,t_bool))": {
        "encoding": "mapping",
        "key": "t_address",
        "label": "mapping(address => mapping(address => bool))",
        "numberOfBytes": "32",
        "value": "t_mapping(t_address,t_bool)"
      },
      "t_mapping(t_address,t_struct(UintSet)3621_storage)": {
        "encoding": "mapping",
        "key": "t_address",
        "label": "mapping(address => struct EnumerableSet.UintSet)",
        "numberOfBytes": "32",
        "value": "t_struct(UintSet)3621_storage"
      },
      "t_mapping(t_bytes32,t_uint256)": {
        "encoding": "mapping",
        "key": "t_bytes32",
        "label": "mapping(bytes32 => uint256)",
        "numberOfBytes": "32",
        "value": "t_uint256"
      },
      "t_mapping(t_bytes4,t_bool)": {
        "encoding": "mapping",
        "key": "t_bytes4",
        "label": "mapping(bytes4 => bool)",
        "numberOfBytes": "32",
        "value": "t_bool"
      },
      "t_mapping(t_uint256,t_address)": {
        "encoding": "mapping",
        "key": "t_uint256",
        "label": "mapping(uint256 => address)",
        "numberOfBytes": "32",
        "value": "t_address"
      },
      "t_mapping(t_uint256,t_string_storage)": {
        "encoding": "mapping",
        "key": "t_uint256",
        "label": "mapping(uint256 => string)",
        "numberOfBytes": "32",
        "value": "t_string_storage"
      },
      "t_string_storage": {
        "encoding": "bytes",
        "label": "string",
        "numberOfBytes": "32"
      },
      "t_struct(Map)2680_storage": {
        "encoding": "inplace",
        "label": "struct EnumerableMap.Map",
        "members": [
          {
            "astId": 2675,
            "contract": "contracts/TradeableCashflowOption.sol:TradeableCashflowOption",
            "label": "_entries",
            "offset": 0,
            "slot": "0",
            "type": "t_array(t_struct(MapEntry)2672_storage)dyn_storage"
          },
          {
            "astId": 2679,
            "contract": "contracts/TradeableCashflowOption.sol:TradeableCashflowOption",
            "label": "_indexes",
            "offset": 0,
            "slot": "1",
            "type": "t_mapping(t_bytes32,t_uint256)"
          }
        ],
        "numberOfBytes": "64"
      },
      "t_struct(MapEntry)2672_storage": {
        "encoding": "inplace",
        "label": "struct EnumerableMap.MapEntry",
        "members": [
          {
            "astId": 2669,
            "contract": "contracts/TradeableCashflowOption.sol:TradeableCashflowOption",
            "label": "_key",
            "offset": 0,
            "slot": "0",
            "type": "t_bytes32"
          },
          {
            "astId": 2671,
            "contract": "contracts/TradeableCashflowOption.sol:TradeableCashflowOption",
            "label": "_value",
            "offset": 0,
            "slot": "1",
            "type": "t_bytes32"
          }
        ],
        "numberOfBytes": "64"
      },
      "t_struct(Set)3235_storage": {
        "encoding": "inplace",
        "label": "struct EnumerableSet.Set",
        "members": [
          {
            "astId": 3230,
            "contract": "contracts/TradeableCashflowOption.sol:TradeableCashflowOption",
            "label": "_values",
            "offset": 0,
            "slot": "0",
            "type": "t_array(t_bytes32)dyn_storage"
          },
          {
            "astId": 3234,
            "contract": "contracts/TradeableCashflowOption.sol:TradeableCashflowOption",
            "label": "_indexes",
            "offset": 0,
            "slot": "1",
            "type": "t_mapping(t_bytes32,t_uint256)"
          }
        ],
        "numberOfBytes": "64"
      },
      "t_struct(UintSet)3621_storage": {
        "encoding": "inplace",
        "label": "struct EnumerableSet.UintSet",
        "members": [
          {
            "astId": 3620,
            "contract": "contracts/TradeableCashflowOption.sol:TradeableCashflowOption",
            "label": "_inner",
            "offset": 0,
            "slot": "0",
            "type": "t_struct(Set)3235_storage"
          }
        ],
        "numberOfBytes": "64"
      },
      "t_struct(UintToAddressMap)2998_storage": {
        "encoding": "inplace",
        "label": "struct EnumerableMap.UintToAddressMap",
        "members": [
          {
            "astId": 2997,
            "contract": "contracts/TradeableCashflowOption.sol:TradeableCashflowOption",
            "label": "_inner",
            "offset": 0,
            "slot": "0",
            "type": "t_struct(Map)2680_storage"
          }
        ],
        "numberOfBytes": "64"
      },
      "t_uint256": {
        "encoding": "inplace",
        "label": "uint256",
        "numberOfBytes": "32"
      },
      "t_uint8": {
        "encoding": "inplace",
        "label": "uint8",
        "numberOfBytes": "1"
      }
    }
  }
}