{
  "_format": "hh-sol-artifact-1",
  "contractName": "RedirectAll",
  "sourceName": "contracts/RedirectAll.sol",
  "abi": [
    {
      "inputs": [
        {
          "internalType": "contract ISuperfluid",
          "name": "host",
          "type": "address"
        },
        {
          "internalType": "contract ISuperToken",
          "name": "acceptedToken",
          "type": "address"
        },
        {
          "internalType": "address",
          "name": "receiver",
          "type": "address"
        }
      ],
      "stateMutability": "nonpayable",
      "type": "constructor"
    },
    {
      "anonymous": false,
      "inputs": [
        {
          "indexed": false,
          "internalType": "address",
          "name": "receiver",
          "type": "address"
        }
      ],
      "name": "ReceiverChanged",
      "type": "event"
    },
    {
      "inputs": [],
      "name": "CFA_ID",
      "outputs": [
        {
          "internalType": "bytes32",
          "name": "",
          "type": "bytes32"
        }
      ],
      "stateMutability": "view",
      "type": "function"
    },
    {
      "inputs": [],
      "name": "_receiver",
      "outputs": [
        {
          "internalType": "address",
          "name": "",
          "type": "address"
        }
      ],
      "stateMutability": "view",
      "type": "function"
    },
    {
      "inputs": [
        {
          "internalType": "contract ISuperToken",
          "name": "_superToken",
          "type": "address"
        },
        {
          "internalType": "address",
          "name": "_agreementClass",
          "type": "address"
        },
        {
          "internalType": "bytes32",
          "name": "",
          "type": "bytes32"
        },
        {
          "internalType": "bytes",
          "name": "",
          "type": "bytes"
        },
        {
          "internalType": "bytes",
          "name": "",
          "type": "bytes"
        },
        {
          "internalType": "bytes",
          "name": "_ctx",
          "type": "bytes"
        }
      ],
      "name": "afterAgreementCreated",
      "outputs": [
        {
          "internalType": "bytes",
          "name": "newCtx",
          "type": "bytes"
        }
      ],
      "stateMutability": "nonpayable",
      "type": "function"
    },
    {
      "inputs": [
        {
          "internalType": "contract ISuperToken",
          "name": "_superToken",
          "type": "address"
        },
        {
          "internalType": "address",
          "name": "_agreementClass",
          "type": "address"
        },
        {
          "internalType": "bytes32",
          "name": "",
          "type": "bytes32"
        },
        {
          "internalType": "bytes",
          "name": "",
          "type": "bytes"
        },
        {
          "internalType": "bytes",
          "name": "",
          "type": "bytes"
        },
        {
          "internalType": "bytes",
          "name": "_ctx",
          "type": "bytes"
        }
      ],
      "name": "afterAgreementTerminated",
      "outputs": [
        {
          "internalType": "bytes",
          "name": "newCtx",
          "type": "bytes"
        }
      ],
      "stateMutability": "nonpayable",
      "type": "function"
    },
    {
      "inputs": [
        {
          "internalType": "contract ISuperToken",
          "name": "_superToken",
          "type": "address"
        },
        {
          "internalType": "address",
          "name": "_agreementClass",
          "type": "address"
        },
        {
          "internalType": "bytes32",
          "name": "",
          "type": "bytes32"
        },
        {
          "internalType": "bytes",
          "name": "",
          "type": "bytes"
        },
        {
          "internalType": "bytes",
          "name": "",
          "type": "bytes"
        },
        {
          "internalType": "bytes",
          "name": "_ctx",
          "type": "bytes"
        }
      ],
      "name": "afterAgreementUpdated",
      "outputs": [
        {
          "internalType": "bytes",
          "name": "newCtx",
          "type": "bytes"
        }
      ],
      "stateMutability": "nonpayable",
      "type": "function"
    },
    {
      "inputs": [
        {
          "internalType": "contract ISuperToken",
          "name": "",
          "type": "address"
        },
        {
          "internalType": "address",
          "name": "",
          "type": "address"
        },
        {
          "internalType": "bytes32",
          "name": "",
          "type": "bytes32"
        },
        {
          "internalType": "bytes",
          "name": "",
          "type": "bytes"
        },
        {
          "internalType": "bytes",
          "name": "",
          "type": "bytes"
        }
      ],
      "name": "beforeAgreementCreated",
      "outputs": [
        {
          "internalType": "bytes",
          "name": "",
          "type": "bytes"
        }
      ],
      "stateMutability": "view",
      "type": "function"
    },
    {
      "inputs": [
        {
          "internalType": "contract ISuperToken",
          "name": "",
          "type": "address"
        },
        {
          "internalType": "address",
          "name": "",
          "type": "address"
        },
        {
          "internalType": "bytes32",
          "name": "",
          "type": "bytes32"
        },
        {
          "internalType": "bytes",
          "name": "",
          "type": "bytes"
        },
        {
          "internalType": "bytes",
          "name": "",
          "type": "bytes"
        }
      ],
      "name": "beforeAgreementTerminated",
      "outputs": [
        {
          "internalType": "bytes",
          "name": "",
          "type": "bytes"
        }
      ],
      "stateMutability": "view",
      "type": "function"
    },
    {
      "inputs": [
        {
          "internalType": "contract ISuperToken",
          "name": "",
          "type": "address"
        },
        {
          "internalType": "address",
          "name": "",
          "type": "address"
        },
        {
          "internalType": "bytes32",
          "name": "",
          "type": "bytes32"
        },
        {
          "internalType": "bytes",
          "name": "",
          "type": "bytes"
        },
        {
          "internalType": "bytes",
          "name": "",
          "type": "bytes"
        }
      ],
      "name": "beforeAgreementUpdated",
      "outputs": [
        {
          "internalType": "bytes",
          "name": "",
          "type": "bytes"
        }
      ],
      "stateMutability": "view",
      "type": "function"
    },
    {
      "inputs": [],
      "name": "cfaV1Lib",
      "outputs": [
        {
          "internalType": "contract ISuperfluid",
          "name": "host",
          "type": "address"
        },
        {
          "internalType": "contract IConstantFlowAgreementV1",
          "name": "cfa",
          "type": "address"
        }
      ],
      "stateMutability": "view",
      "type": "function"
    },
    {
      "inputs": [],
      "name": "currentReceiver",
      "outputs": [
        {
          "internalType": "uint256",
          "name": "startTime",
          "type": "uint256"
        },
        {
          "internalType": "address",
          "name": "receiver",
          "type": "address"
        },
        {
          "internalType": "int96",
          "name": "flowRate",
          "type": "int96"
        }
      ],
      "stateMutability": "view",
      "type": "function"
    }
  ],
  "bytecode": "0x60806040523480156200001157600080fd5b506040516200116a3803806200116a8339810160408190526200003491620001fa565b6001600160a01b0383166200004d576200004d6200024e565b6001600160a01b0382166200006657620000666200024e565b6001600160a01b0381166200007f576200007f6200024e565b600280546001600160a01b038481166001600160a01b0319928316179092556003805484841692169190911790556040805180820182529185168083529051635b69006f60e11b81527fa9214cc96615e0085d3bb077758db69497dc2dce3b2b1e97bc93c3d18d83efd3600482015260208301919063b6d200de90602401602060405180830381865afa1580156200011b573d6000803e3d6000fd5b505050506040513d601f19601f8201168201806040525081019062000141919062000264565b6001600160a01b039081169091528151600080549183166001600160a01b03199283161790556020909201516001805491831691909316179091556040516315a722b960e31b8152641500000001600482018190529185169063ad3915c890602401600060405180830381600087803b158015620001be57600080fd5b505af1158015620001d3573d6000803e3d6000fd5b50505050505050506200028b565b6001600160a01b0381168114620001f757600080fd5b50565b6000806000606084860312156200021057600080fd5b83516200021d81620001e1565b60208501519093506200023081620001e1565b60408501519092506200024381620001e1565b809150509250925092565b634e487b7160e01b600052600160045260246000fd5b6000602082840312156200027757600080fd5b81516200028481620001e1565b9392505050565b610ecf806200029b6000396000f3fe608060405234801561001057600080fd5b506004361061009e5760003560e01c806353c11f991161006657806353c11f991461016957806355586a311461017c5780635f9e7d77146101b6578063884d1f40146101c9578063d86ed3e51461010857600080fd5b806302964ff1146100a3578063215eed02146100d3578063230dbd291461010857806328d2bf941461012857806330d9c91514610156575b600080fd5b6003546100b6906001600160a01b031681565b6040516001600160a01b0390911681526020015b60405180910390f35b6100fa7fa9214cc96615e0085d3bb077758db69497dc2dce3b2b1e97bc93c3d18d83efd381565b6040519081526020016100ca565b61011b6101163660046109c2565b6101dc565b6040516100ca9190610ae9565b6101306102ec565b604080519384526001600160a01b039092166020840152600b0b908201526060016100ca565b61011b610164366004610b03565b6103a2565b61011b6101773660046109c2565b610405565b600054600154610196916001600160a01b03908116911682565b604080516001600160a01b039384168152929091166020830152016100ca565b61011b6101c4366004610b03565b6104b3565b61011b6101d7366004610b03565b61051a565b606089896101f8826002546001600160a01b0391821691161490565b6102495760405162461bcd60e51b815260206004820152601f60248201527f5265646972656374416c6c3a206e6f7420616363657074656420746f6b656e0060448201526064015b60405180910390fd5b6102528161057d565b6102a85760405162461bcd60e51b815260206004820152602160248201527f5265646972656374416c6c3a206f6e6c7920434641763120737570706f7274656044820152601960fa1b6064820152608401610240565b6000546001600160a01b031633146102d25760405162461bcd60e51b815260040161024090610ba2565b6102dc8585610609565b9c9b505050505050505050505050565b600354600090819081906001600160a01b03161561039d57600154600254600354604051631cd43d1160e31b81526001600160a01b039283166004820152306024820152908216604482015291169063e6a1e88890606401608060405180830381865afa158015610361573d6000803e3d6000fd5b505050506040513d601f19601f820116820180604052508101906103859190610bfb565b50506003549194506001600160a01b03909116925090505b909192565b60405162461bcd60e51b815260206004820152602f60248201527f556e737570706f727465642063616c6c6261636b202d204265666f726520416760448201526e1c99595b595b9d0810dc99585d1959608a1b6064820152606090608401610240565b6000546060906001600160a01b031633146104325760405162461bcd60e51b815260040161024090610ba2565b6002546001600160a01b038b8116911614158061045557506104538961057d565b155b156104995782828080601f0160208091040260200160405190810160405280939291908181526020018383808284376000920191909152509293506104a692505050565b6104a38383610609565b90505b9998505050505050505050565b60405162461bcd60e51b815260206004820152603360248201527f556e737570706f727465642063616c6c6261636b202d20204265666f7265204160448201527219dc99595b595b9d0815195c9b5a5b985d1959606a1b6064820152606090608401610240565b60405162461bcd60e51b815260206004820152602f60248201527f556e737570706f727465642063616c6c6261636b202d204265666f726520416760448201526e1c99595b595b9d081d5c19185d1959608a1b6064820152606090608401610240565b60007fa9214cc96615e0085d3bb077758db69497dc2dce3b2b1e97bc93c3d18d83efd3826001600160a01b0316637730599e6040518163ffffffff1660e01b8152600401602060405180830381865afa1580156105de573d6000803e3d6000fd5b505050506040513d601f19601f820116820180604052508101906106029190610c37565b1492915050565b606082828080601f016020809104026020016040519081016040528093929190818152602001838380828437600092018290525060015460025460405163e8e7e2d160e01b81526001600160a01b03918216600482015230602482015296975091959116935063e8e7e2d192506044019050602060405180830381865afa158015610698573d6000803e3d6000fd5b505050506040513d601f19601f820116820180604052508101906106bc9190610c50565b600154600254600354604051631cd43d1160e31b81526001600160a01b039283166004820152306024820152908216604482015292935060009291169063e6a1e88890606401608060405180830381865afa15801561071f573d6000803e3d6000fd5b505050506040513d601f19601f820116820180604052508101906107439190610bfb565b5050915050600081836107569190610c81565b9050600b81900b61078b5760035460025461078491600091879130916001600160a01b0391821691166107e5565b93506107dc565b600b82900b156107b7576003546002546107849160009187916001600160a01b039081169116856108c9565b6003546002546107d99160009187916001600160a01b03908116911685610932565b93505b50505092915050565b845460018601546040805160008152602081019091526060926001600160a01b0390811692634329d29392911690635a5999e360e11b9061082f9087908a908a9060448101610cf0565b60408051601f198184030181529181526020820180516001600160e01b03166001600160e01b03199485161790525160e085901b909216825261087792918a90600401610d2e565b6000604051808303816000875af1158015610896573d6000803e3d6000fd5b505050506040513d6000823e601f3d908101601f191682016040526108be9190810190610dff565b509695505050505050565b845460018601546060916001600160a01b0390811691634329d29391166328104d3160e11b86888760005b6040519080825280601f01601f19166020018201604052801561091e576020820181803683370190505b5060405160240161082f9493929190610e63565b845460018601546060916001600160a01b0390811691634329d293911663317e182f60e11b86888760006108f4565b6001600160a01b038116811461097657600080fd5b50565b60008083601f84011261098b57600080fd5b50813567ffffffffffffffff8111156109a357600080fd5b6020830191508360208285010111156109bb57600080fd5b9250929050565b600080600080600080600080600060c08a8c0312156109e057600080fd5b89356109eb81610961565b985060208a01356109fb81610961565b975060408a0135965060608a013567ffffffffffffffff80821115610a1f57600080fd5b610a2b8d838e01610979565b909850965060808c0135915080821115610a4457600080fd5b610a508d838e01610979565b909650945060a08c0135915080821115610a6957600080fd5b50610a768c828d01610979565b915080935050809150509295985092959850929598565b60005b83811015610aa8578181015183820152602001610a90565b83811115610ab7576000848401525b50505050565b60008151808452610ad5816020860160208601610a8d565b601f01601f19169290920160200192915050565b602081526000610afc6020830184610abd565b9392505050565b600080600080600080600060a0888a031215610b1e57600080fd5b8735610b2981610961565b96506020880135610b3981610961565b955060408801359450606088013567ffffffffffffffff80821115610b5d57600080fd5b610b698b838c01610979565b909650945060808a0135915080821115610b8257600080fd5b50610b8f8a828b01610979565b989b979a50959850939692959293505050565b60208082526022908201527f5265646972656374416c6c3a20737570706f7274206f6e6c79206f6e6520686f6040820152611cdd60f21b606082015260800190565b8051600b81900b8114610bf657600080fd5b919050565b60008060008060808587031215610c1157600080fd5b84519350610c2160208601610be4565b6040860151606090960151949790965092505050565b600060208284031215610c4957600080fd5b5051919050565b600060208284031215610c6257600080fd5b610afc82610be4565b634e487b7160e01b600052601160045260246000fd5b600081600b0b83600b0b60008212826b7fffffffffffffffffffffff03821381151615610cb057610cb0610c6b565b826b7fffffffffffffffffffffff19038212811615610cd157610cd1610c6b565b50019392505050565b634e487b7160e01b600052604160045260246000fd5b6001600160a01b038581168252848116602083015283166040820152608060608201819052600090610d2490830184610abd565b9695505050505050565b6001600160a01b0384168152608060208201819052600090610d5290830185610abd565b8281038060408501526002825261060f60f31b602083015260408101606085015250610d246040820185610abd565b600082601f830112610d9257600080fd5b815167ffffffffffffffff80821115610dad57610dad610cda565b604051601f8301601f19908116603f01168101908282118183101715610dd557610dd5610cda565b81604052838152866020858801011115610dee57600080fd5b610d24846020830160208901610a8d565b60008060408385031215610e1257600080fd5b825167ffffffffffffffff80821115610e2a57600080fd5b610e3686838701610d81565b93506020850151915080821115610e4c57600080fd5b50610e5985828601610d81565b9150509250929050565b6001600160a01b03858116825284166020820152600b83900b6040820152608060608201819052600090610d2490830184610abd56fea26469706673582212207db34bd1ada192b73ab1c5c279a3da5393cbf6e512cecc476f844884837a69fa64736f6c634300080d0033",
  "linkReferences": {},
  "deployedLinkReferences": {}
}