{
  "_format": "hh-sol-artifact-1",
  "contractName": "MockV3Aggregator",
  "sourceName": "contracts/test/MockV3Aggregator.sol",
  "abi": [
    {
      "inputs": [
        {
          "internalType": "int256",
          "name": "_initialAnswer",
          "type": "int256"
        }
      ],
      "stateMutability": "nonpayable",
      "type": "constructor"
    },
    {
      "anonymous": false,
      "inputs": [
        {
          "indexed": true,
          "internalType": "int256",
          "name": "current",
          "type": "int256"
        },
        {
          "indexed": true,
          "internalType": "uint256",
          "name": "roundId",
          "type": "uint256"
        },
        {
          "indexed": false,
          "internalType": "uint256",
          "name": "timestamp",
          "type": "uint256"
        }
      ],
      "name": "AnswerUpdated",
      "type": "event"
    },
    {
      "inputs": [],
      "name": "_latestRoundData",
      "outputs": [
        {
          "internalType": "int256",
          "name": "",
          "type": "int256"
        }
      ],
      "stateMutability": "view",
      "type": "function"
    },
    {
      "inputs": [],
      "name": "latestRoundData",
      "outputs": [
        {
          "internalType": "int256",
          "name": "",
          "type": "int256"
        },
        {
          "internalType": "int256",
          "name": "",
          "type": "int256"
        },
        {
          "internalType": "int256",
          "name": "",
          "type": "int256"
        },
        {
          "internalType": "int256",
          "name": "",
          "type": "int256"
        },
        {
          "internalType": "int256",
          "name": "",
          "type": "int256"
        }
      ],
      "stateMutability": "view",
      "type": "function"
    }
  ],
  "bytecode": "0x608060405234801561001057600080fd5b506040516101483803806101488339818101604052602081101561003357600080fd5b5051600081815560408051428152905183917f0559884fd3a460db3073b7fc896cc77986f16e378210ded43186175bf646fc5f919081900360200190a35060c98061007f6000396000f3fe6080604052348015600f57600080fd5b506004361060325760003560e01c806316e3759a146037578063feaf968c14604f575b600080fd5b603d6080565b60408051918252519081900360200190f35b60556086565b6040805195865260208601949094528484019290925260608401526080830152519081900360a00190f35b60005481565b600080548180809192939456fea2646970667358221220c877a8dbc9c262a376a75fc52bdda6fb70af2d572253fd748d3e1875fe66ef5464736f6c63430007000033",
  "linkReferences": {},
  "deployedLinkReferences": {}
}