{
  "address": "0xa0aeD8BF0724254A334E539CFbDFb45e957c45dF",
  "abi": [
    {
      "inputs": [
        {
          "internalType": "address",
          "name": "owner",
          "type": "address"
        },
        {
          "internalType": "string",
          "name": "_name",
          "type": "string"
        },
        {
          "internalType": "string",
          "name": "_symbol",
          "type": "string"
        },
        {
          "internalType": "contract ISuperfluid",
          "name": "host",
          "type": "address"
        },
        {
          "internalType": "contract IConstantFlowAgreementV1",
          "name": "cfa",
          "type": "address"
        },
        {
          "internalType": "contract ISuperToken",
          "name": "acceptedToken",
          "type": "address"
        }
      ],
      "stateMutability": "nonpayable",
      "type": "constructor"
    },
    {
      "anonymous": false,
      "inputs": [
        {
          "indexed": true,
          "internalType": "address",
          "name": "owner",
          "type": "address"
        },
        {
          "indexed": true,
          "internalType": "address",
          "name": "approved",
          "type": "address"
        },
        {
          "indexed": true,
          "internalType": "uint256",
          "name": "tokenId",
          "type": "uint256"
        }
      ],
      "name": "Approval",
      "type": "event"
    },
    {
      "anonymous": false,
      "inputs": [
        {
          "indexed": true,
          "internalType": "address",
          "name": "owner",
          "type": "address"
        },
        {
          "indexed": true,
          "internalType": "address",
          "name": "operator",
          "type": "address"
        },
        {
          "indexed": false,
          "internalType": "bool",
          "name": "approved",
          "type": "bool"
        }
      ],
      "name": "ApprovalForAll",
      "type": "event"
    },
    {
      "anonymous": false,
      "inputs": [
        {
          "indexed": false,
          "internalType": "address",
          "name": "receiver",
          "type": "address"
        }
      ],
      "name": "ReceiverChanged",
      "type": "event"
    },
    {
      "anonymous": false,
      "inputs": [
        {
          "indexed": true,
          "internalType": "address",
          "name": "from",
          "type": "address"
        },
        {
          "indexed": true,
          "internalType": "address",
          "name": "to",
          "type": "address"
        },
        {
          "indexed": true,
          "internalType": "uint256",
          "name": "tokenId",
          "type": "uint256"
        }
      ],
      "name": "Transfer",
      "type": "event"
    },
    {
      "inputs": [],
      "name": "_DAI",
      "outputs": [
        {
          "internalType": "contract ERC20",
          "name": "",
          "type": "address"
        }
      ],
      "stateMutability": "view",
      "type": "function"
    },
    {
      "inputs": [],
      "name": "_expirationDate",
      "outputs": [
        {
          "internalType": "uint256",
          "name": "",
          "type": "uint256"
        }
      ],
      "stateMutability": "view",
      "type": "function"
    },
    {
      "inputs": [],
      "name": "_requiredFlowRate",
      "outputs": [
        {
          "internalType": "int96",
          "name": "",
          "type": "int96"
        }
      ],
      "stateMutability": "view",
      "type": "function"
    },
    {
      "inputs": [],
      "name": "_strikePrice",
      "outputs": [
        {
          "internalType": "int256",
          "name": "",
          "type": "int256"
        }
      ],
      "stateMutability": "view",
      "type": "function"
    },
    {
      "inputs": [],
      "name": "_underlyingAsset",
      "outputs": [
        {
          "internalType": "contract ERC20",
          "name": "",
          "type": "address"
        }
      ],
      "stateMutability": "view",
      "type": "function"
    },
    {
      "inputs": [
        {
          "internalType": "contract ISuperToken",
          "name": "_superToken",
          "type": "address"
        },
        {
          "internalType": "address",
          "name": "_agreementClass",
          "type": "address"
        },
        {
          "internalType": "bytes32",
          "name": "",
          "type": "bytes32"
        },
        {
          "internalType": "bytes",
          "name": "",
          "type": "bytes"
        },
        {
          "internalType": "bytes",
          "name": "",
          "type": "bytes"
        },
        {
          "internalType": "bytes",
          "name": "_ctx",
          "type": "bytes"
        }
      ],
      "name": "afterAgreementCreated",
      "outputs": [
        {
          "internalType": "bytes",
          "name": "newCtx",
          "type": "bytes"
        }
      ],
      "stateMutability": "nonpayable",
      "type": "function"
    },
    {
      "inputs": [
        {
          "internalType": "contract ISuperToken",
          "name": "_superToken",
          "type": "address"
        },
        {
          "internalType": "address",
          "name": "_agreementClass",
          "type": "address"
        },
        {
          "internalType": "bytes32",
          "name": "",
          "type": "bytes32"
        },
        {
          "internalType": "bytes",
          "name": "",
          "type": "bytes"
        },
        {
          "internalType": "bytes",
          "name": "",
          "type": "bytes"
        },
        {
          "internalType": "bytes",
          "name": "_ctx",
          "type": "bytes"
        }
      ],
      "name": "afterAgreementTerminated",
      "outputs": [
        {
          "internalType": "bytes",
          "name": "newCtx",
          "type": "bytes"
        }
      ],
      "stateMutability": "nonpayable",
      "type": "function"
    },
    {
      "inputs": [
        {
          "internalType": "contract ISuperToken",
          "name": "_superToken",
          "type": "address"
        },
        {
          "internalType": "address",
          "name": "_agreementClass",
          "type": "address"
        },
        {
          "internalType": "bytes32",
          "name": "",
          "type": "bytes32"
        },
        {
          "internalType": "bytes",
          "name": "",
          "type": "bytes"
        },
        {
          "internalType": "bytes",
          "name": "",
          "type": "bytes"
        },
        {
          "internalType": "bytes",
          "name": "_ctx",
          "type": "bytes"
        }
      ],
      "name": "afterAgreementUpdated",
      "outputs": [
        {
          "internalType": "bytes",
          "name": "newCtx",
          "type": "bytes"
        }
      ],
      "stateMutability": "nonpayable",
      "type": "function"
    },
    {
      "inputs": [
        {
          "internalType": "address",
          "name": "to",
          "type": "address"
        },
        {
          "internalType": "uint256",
          "name": "tokenId",
          "type": "uint256"
        }
      ],
      "name": "approve",
      "outputs": [],
      "stateMutability": "nonpayable",
      "type": "function"
    },
    {
      "inputs": [
        {
          "internalType": "address",
          "name": "owner",
          "type": "address"
        }
      ],
      "name": "balanceOf",
      "outputs": [
        {
          "internalType": "uint256",
          "name": "",
          "type": "uint256"
        }
      ],
      "stateMutability": "view",
      "type": "function"
    },
    {
      "inputs": [],
      "name": "baseURI",
      "outputs": [
        {
          "internalType": "string",
          "name": "",
          "type": "string"
        }
      ],
      "stateMutability": "view",
      "type": "function"
    },
    {
      "inputs": [
        {
          "internalType": "contract ISuperToken",
          "name": "",
          "type": "address"
        },
        {
          "internalType": "address",
          "name": "",
          "type": "address"
        },
        {
          "internalType": "bytes32",
          "name": "",
          "type": "bytes32"
        },
        {
          "internalType": "bytes",
          "name": "",
          "type": "bytes"
        },
        {
          "internalType": "bytes",
          "name": "",
          "type": "bytes"
        }
      ],
      "name": "beforeAgreementCreated",
      "outputs": [
        {
          "internalType": "bytes",
          "name": "",
          "type": "bytes"
        }
      ],
      "stateMutability": "view",
      "type": "function"
    },
    {
      "inputs": [
        {
          "internalType": "contract ISuperToken",
          "name": "",
          "type": "address"
        },
        {
          "internalType": "address",
          "name": "",
          "type": "address"
        },
        {
          "internalType": "bytes32",
          "name": "",
          "type": "bytes32"
        },
        {
          "internalType": "bytes",
          "name": "",
          "type": "bytes"
        },
        {
          "internalType": "bytes",
          "name": "",
          "type": "bytes"
        }
      ],
      "name": "beforeAgreementTerminated",
      "outputs": [
        {
          "internalType": "bytes",
          "name": "",
          "type": "bytes"
        }
      ],
      "stateMutability": "view",
      "type": "function"
    },
    {
      "inputs": [
        {
          "internalType": "contract ISuperToken",
          "name": "",
          "type": "address"
        },
        {
          "internalType": "address",
          "name": "",
          "type": "address"
        },
        {
          "internalType": "bytes32",
          "name": "",
          "type": "bytes32"
        },
        {
          "internalType": "bytes",
          "name": "",
          "type": "bytes"
        },
        {
          "internalType": "bytes",
          "name": "",
          "type": "bytes"
        }
      ],
      "name": "beforeAgreementUpdated",
      "outputs": [
        {
          "internalType": "bytes",
          "name": "",
          "type": "bytes"
        }
      ],
      "stateMutability": "view",
      "type": "function"
    },
    {
      "inputs": [
        {
          "internalType": "contract ERC20",
          "name": "underlyingAsset",
          "type": "address"
        },
        {
          "internalType": "uint256",
          "name": "underlyingAmount",
          "type": "uint256"
        },
        {
          "internalType": "uint8",
          "name": "underlyingDecimals",
          "type": "uint8"
        },
        {
          "internalType": "contract AggregatorV3Interface",
          "name": "priceFeed",
          "type": "address"
        },
        {
          "internalType": "uint8",
          "name": "priceFeedDecimals",
          "type": "uint8"
        },
        {
          "internalType": "int96",
          "name": "requiredFlowRate",
          "type": "int96"
        },
        {
          "internalType": "uint256",
          "name": "expirationDate",
          "type": "uint256"
        },
        {
          "internalType": "int256",
          "name": "strikePrice",
          "type": "int256"
        }
      ],
      "name": "createOption",
      "outputs": [],
      "stateMutability": "nonpayable",
      "type": "function"
    },
    {
      "inputs": [],
      "name": "currentReceiver",
      "outputs": [
        {
          "internalType": "uint256",
          "name": "startTime",
          "type": "uint256"
        },
        {
          "internalType": "address",
          "name": "receiver",
          "type": "address"
        },
        {
          "internalType": "int96",
          "name": "flowRate",
          "type": "int96"
        }
      ],
      "stateMutability": "view",
      "type": "function"
    },
    {
      "inputs": [],
      "name": "exerciseOption",
      "outputs": [],
      "stateMutability": "nonpayable",
      "type": "function"
    },
    {
      "inputs": [
        {
          "internalType": "uint256",
          "name": "tokenId",
          "type": "uint256"
        }
      ],
      "name": "getApproved",
      "outputs": [
        {
          "internalType": "address",
          "name": "",
          "type": "address"
        }
      ],
      "stateMutability": "view",
      "type": "function"
    },
    {
      "inputs": [
        {
          "internalType": "address",
          "name": "owner",
          "type": "address"
        },
        {
          "internalType": "address",
          "name": "operator",
          "type": "address"
        }
      ],
      "name": "isApprovedForAll",
      "outputs": [
        {
          "internalType": "bool",
          "name": "",
          "type": "bool"
        }
      ],
      "stateMutability": "view",
      "type": "function"
    },
    {
      "inputs": [],
      "name": "name",
      "outputs": [
        {
          "internalType": "string",
          "name": "",
          "type": "string"
        }
      ],
      "stateMutability": "view",
      "type": "function"
    },
    {
      "inputs": [],
      "name": "optionActive",
      "outputs": [
        {
          "internalType": "bool",
          "name": "",
          "type": "bool"
        }
      ],
      "stateMutability": "view",
      "type": "function"
    },
    {
      "inputs": [],
      "name": "optionReady",
      "outputs": [
        {
          "internalType": "bool",
          "name": "",
          "type": "bool"
        }
      ],
      "stateMutability": "view",
      "type": "function"
    },
    {
      "inputs": [
        {
          "internalType": "uint256",
          "name": "tokenId",
          "type": "uint256"
        }
      ],
      "name": "ownerOf",
      "outputs": [
        {
          "internalType": "address",
          "name": "",
          "type": "address"
        }
      ],
      "stateMutability": "view",
      "type": "function"
    },
    {
      "inputs": [
        {
          "internalType": "address",
          "name": "from",
          "type": "address"
        },
        {
          "internalType": "address",
          "name": "to",
          "type": "address"
        },
        {
          "internalType": "uint256",
          "name": "tokenId",
          "type": "uint256"
        }
      ],
      "name": "safeTransferFrom",
      "outputs": [],
      "stateMutability": "nonpayable",
      "type": "function"
    },
    {
      "inputs": [
        {
          "internalType": "address",
          "name": "from",
          "type": "address"
        },
        {
          "internalType": "address",
          "name": "to",
          "type": "address"
        },
        {
          "internalType": "uint256",
          "name": "tokenId",
          "type": "uint256"
        },
        {
          "internalType": "bytes",
          "name": "_data",
          "type": "bytes"
        }
      ],
      "name": "safeTransferFrom",
      "outputs": [],
      "stateMutability": "nonpayable",
      "type": "function"
    },
    {
      "inputs": [
        {
          "internalType": "address",
          "name": "operator",
          "type": "address"
        },
        {
          "internalType": "bool",
          "name": "approved",
          "type": "bool"
        }
      ],
      "name": "setApprovalForAll",
      "outputs": [],
      "stateMutability": "nonpayable",
      "type": "function"
    },
    {
      "inputs": [
        {
          "internalType": "bytes4",
          "name": "interfaceId",
          "type": "bytes4"
        }
      ],
      "name": "supportsInterface",
      "outputs": [
        {
          "internalType": "bool",
          "name": "",
          "type": "bool"
        }
      ],
      "stateMutability": "view",
      "type": "function"
    },
    {
      "inputs": [],
      "name": "symbol",
      "outputs": [
        {
          "internalType": "string",
          "name": "",
          "type": "string"
        }
      ],
      "stateMutability": "view",
      "type": "function"
    },
    {
      "inputs": [
        {
          "internalType": "uint256",
          "name": "index",
          "type": "uint256"
        }
      ],
      "name": "tokenByIndex",
      "outputs": [
        {
          "internalType": "uint256",
          "name": "",
          "type": "uint256"
        }
      ],
      "stateMutability": "view",
      "type": "function"
    },
    {
      "inputs": [
        {
          "internalType": "address",
          "name": "owner",
          "type": "address"
        },
        {
          "internalType": "uint256",
          "name": "index",
          "type": "uint256"
        }
      ],
      "name": "tokenOfOwnerByIndex",
      "outputs": [
        {
          "internalType": "uint256",
          "name": "",
          "type": "uint256"
        }
      ],
      "stateMutability": "view",
      "type": "function"
    },
    {
      "inputs": [
        {
          "internalType": "uint256",
          "name": "tokenId",
          "type": "uint256"
        }
      ],
      "name": "tokenURI",
      "outputs": [
        {
          "internalType": "string",
          "name": "",
          "type": "string"
        }
      ],
      "stateMutability": "view",
      "type": "function"
    },
    {
      "inputs": [],
      "name": "totalSupply",
      "outputs": [
        {
          "internalType": "uint256",
          "name": "",
          "type": "uint256"
        }
      ],
      "stateMutability": "view",
      "type": "function"
    },
    {
      "inputs": [
        {
          "internalType": "address",
          "name": "from",
          "type": "address"
        },
        {
          "internalType": "address",
          "name": "to",
          "type": "address"
        },
        {
          "internalType": "uint256",
          "name": "tokenId",
          "type": "uint256"
        }
      ],
      "name": "transferFrom",
      "outputs": [],
      "stateMutability": "nonpayable",
      "type": "function"
    }
  ],
  "transactionHash": "0x08dc37069ef4b683c01c49a1f50f76022cfbf1e6e594f98ada54967140c5988e",
  "args": [
    "0x3F047877e6613676d50Bf001b383682aDAeBE463",
    "super option",
    "OPTx",
    "0x22ff293e14F1EC3A09B137e9e06084AFd63adDF9",
    "0xEd6BcbF6907D4feEEe8a8875543249bEa9D308E8",
    "0xF2d68898557cCb2Cf4C10c3Ef2B034b2a69DAD00"
  ],
  "solcInputHash": "fdd484ec9c8d7904e836b5f95719324c",
  "bytecode": "0x6080604052600c8054610100600160a81b0319167488271d333c72e51516b67f5567c728e702b3eee8001790553480156200003957600080fd5b5060405162004f0838038062004f08833981810160405260c08110156200005f57600080fd5b8151602083018051604051929492938301929190846401000000008211156200008757600080fd5b9083019060208201858111156200009d57600080fd5b8251640100000000811182820188101715620000b857600080fd5b82525081516020918201929091019080838360005b83811015620000e7578181015183820152602001620000cd565b50505050905090810190601f168015620001155780820380516001836020036101000a031916815260200191505b50604052602001805160405193929190846401000000008211156200013957600080fd5b9083019060208201858111156200014f57600080fd5b82516401000000008111828201881017156200016a57600080fd5b82525081516020918201929091019080838360005b83811015620001995781810151838201526020016200017f565b50505050905090810190601f168015620001c75780820380516001836020036101000a031916815260200191505b506040908152602082015190820151606090920151909350909150828282888888620001fa6301ffc9a760e01b62000424565b81516200020f90600690602085019062000f49565b5080516200022590600790602084019062000f49565b50620002386380ac58cd60e01b62000424565b6200024a635b5e139f60e01b62000424565b6200025c63780e9d6360e01b62000424565b50506001600160a01b0384166200027257600080fd5b6001600160a01b0383166200028657600080fd5b6001600160a01b0382166200029a57600080fd5b6001600160a01b038116620002ae57600080fd5b836001600160a01b0316633ca3ad4e826040518263ffffffff1660e01b815260040180826001600160a01b0316815260200191505060206040518083038186803b158015620002fc57600080fd5b505afa15801562000311573d6000803e3d6000fd5b505050506040513d60208110156200032857600080fd5b5051156200033557600080fd5b60118054601280546001600160a01b038781166001600160a01b0319928316179092556013805487841690831617905560148054868416921691909117905561ffff198188166201000090810262010000600160b01b0319909416939093171692839055604080516315a722b960e31b81526415000000016004820181905291519194939093049091169163ad3915c891602480830192600092919082900301818387803b158015620003e757600080fd5b505af1158015620003fc573d6000803e3d6000fd5b50505050505050505062000418866001620004a960201b60201c565b50505050505062000fe5565b6001600160e01b0319808216141562000484576040805162461bcd60e51b815260206004820152601c60248201527f4552433136353a20696e76616c696420696e7465726661636520696400000000604482015290519081900360640190fd5b6001600160e01b0319166000908152602081905260409020805460ff19166001179055565b6001600160a01b03821662000505576040805162461bcd60e51b815260206004820181905260248201527f4552433732313a206d696e7420746f20746865207a65726f2061646472657373604482015290519081900360640190fd5b6200051081620005fd565b1562000563576040805162461bcd60e51b815260206004820152601c60248201527f4552433732313a20746f6b656e20616c7265616479206d696e74656400000000604482015290519081900360640190fd5b620005716000838362000620565b6001600160a01b0382166000908152600160209081526040909120620005a291839062001e5262000630821b17901c565b50620005c0818360026200064560201b62001e5e179092919060201c565b5060405181906001600160a01b038416906000907fddf252ad1be2c89b69c2b068fc378daa952ba7f163c4a11628f55a4df523b3ef908290a45050565b60006200061a8260026200066560201b62001e7e1790919060201c565b92915050565b6200062b8262000673565b505050565b60006200063e838362000e47565b9392505050565b60006200065d84846001600160a01b03851662000e96565b949350505050565b60006200063e838362000f31565b6001600160a01b0381166200068757600080fd5b601160029054906101000a90046001600160a01b03166001600160a01b0316633ca3ad4e826040518263ffffffff1660e01b815260040180826001600160a01b0316815260200191505060206040518083038186803b158015620006ea57600080fd5b505afa158015620006ff573d6000803e3d6000fd5b505050506040513d60208110156200071657600080fd5b5051156200072357600080fd5b6014546001600160a01b0382811691161415620007405762000e44565b60125460135460145460408051631cd43d1160e31b81526001600160a01b039384166004820152306024820152918316604483015251600093929092169163e6a1e88891606480820192608092909190829003018186803b158015620007a557600080fd5b505afa158015620007ba573d6000803e3d6000fd5b505050506040513d6080811015620007d157600080fd5b506020015190506000600b82900b131562000deb5760115460125460135460145460408051600080825260208201928390526001600160a01b0394851660448301818152306064850181905295871660848501819052608060a48601908152855160c4870181905262010000909b0489169a6339255d5b9a9990991698635a5999e360e11b989497949692959294919260e486019291908190849084905b83811015620008895781810151838201526020016200086f565b50505050905090810190601f168015620008b75780820380516001836020036101000a031916815260200191505b5060408051601f198184030181529181526020820180516001600160e01b03166001600160e01b03199a8b16178152905160e08c901b90991689526001600160a01b038a1660048a01908152606060248b01908152835160648c01528351939a919950975060448101965060840194509250905080838360005b838110156200094b57818101518382015260200162000931565b50505050905090810190601f168015620009795780820380516001836020036101000a031916815260200191505b508381038252600281526020018061060f60f31b815250602001945050505050600060405180830381600087803b158015620009b457600080fd5b505af1158015620009c9573d6000803e3d6000fd5b505050506040513d6000823e601f3d908101601f191682016040526020811015620009f357600080fd5b810190808051604051939291908464010000000082111562000a1457600080fd5b90830190602082018581111562000a2a57600080fd5b825164010000000081118282018810171562000a4557600080fd5b82525081516020918201929091019080838360005b8381101562000a7457818101518382015260200162000a5a565b50505050905090810190601f16801562000aa25780820380516001836020036101000a031916815260200191505b50604081815260115460125460135463e8e7e2d160e01b85526001600160a01b0390811660048601819052306024870152935162010000909304811698506339255d5b975016945063317e182f60e11b935090918891859163e8e7e2d1916044808301926020929190829003018186803b15801562000b2057600080fd5b505afa15801562000b35573d6000803e3d6000fd5b505050506040513d602081101562000b4c57600080fd5b505160408051600080825260208201909252905060405160240180856001600160a01b03168152602001846001600160a01b0316815260200183600b0b815260200180602001828103825283818151815260200191508051906020019080838360005b8381101562000bc957818101518382015260200162000baf565b50505050905090810190601f16801562000bf75780820380516001836020036101000a031916815260200191505b5060408051601f198184030181529181526020820180516001600160e01b03166001600160e01b03199a8b16178152905160e08c901b90991689526001600160a01b038a1660048a01908152606060248b01908152835160648c01528351939a919950975060448101965060840194509250905080838360005b8381101562000c8b57818101518382015260200162000c71565b50505050905090810190601f16801562000cb95780820380516001836020036101000a031916815260200191505b508381038252600281526020018061060f60f31b815250602001945050505050600060405180830381600087803b15801562000cf457600080fd5b505af115801562000d09573d6000803e3d6000fd5b505050506040513d6000823e601f3d908101601f19168201604052602081101562000d3357600080fd5b810190808051604051939291908464010000000082111562000d5457600080fd5b90830190602082018581111562000d6a57600080fd5b825164010000000081118282018810171562000d8557600080fd5b82525081516020918201929091019080838360005b8381101562000db457818101518382015260200162000d9a565b50505050905090810190601f16801562000de25780820380516001836020036101000a031916815260200191505b50604052505050505b601480546001600160a01b0319166001600160a01b03848116919091179182905560408051929091168252517f7dfb1d59db37a3fd2e15e796c189dcab714cdbb18650d68a1de58f8fa60718c9916020908290030190a1505b50565b600062000e55838362000f31565b62000e8d575081546001818101845560008481526020808220909301849055845484825282860190935260409020919091556200061a565b5060006200061a565b60008281526001840160205260408120548062000efd5750506040805180820182528381526020808201848152865460018181018955600089815284812095516002909302909501918255915190820155865486845281880190925292909120556200063e565b8285600001600183038154811062000f1157fe5b90600052602060002090600202016001018190555060009150506200063e565b60009081526001919091016020526040902054151590565b828054600181600116156101000203166002900490600052602060002090601f016020900481019282601f1062000f8c57805160ff191683800117855562000fbc565b8280016001018555821562000fbc579182015b8281111562000fbc57825182559160200191906001019062000f9f565b5062000fca92915062000fce565b5090565b5b8082111562000fca576000815560010162000fcf565b613f138062000ff56000396000f3fe608060405234801561001057600080fd5b50600436106101fb5760003560e01c80635f9e7d771161011a578063a22cb465116100ad578063d86ed3e51161007c578063d86ed3e514610afe578063db10b64214610c2c578063e985e9c514610c34578063e9997cdd14610c62578063fcedc2c114610c81576101fb565b8063a22cb465146109e7578063b88d4fde14610a15578063c17a80e914610ad9578063c87b56dd14610ae1576101fb565b806370a08231116100e957806370a08231146108d357806382776b62146108f9578063884d1f401461090157806395d89b41146109df576101fb565b80635f9e7d771461077157806361c83a451461084f5780636352211e146108ae5780636c0360eb146108cb576101fb565b8063243c04651161019257806342842e0e1161016157806342842e0e146105e85780634f6ccce71461061e57806353c11f991461063b5780635c2fad3b14610769576101fb565b8063243c0465146104a557806328d2bf94146104ad5780632f745c59146104de57806330d9c9151461050a576101fb565b806316c9b880116101ce57806316c9b8801461031f57806318160ddd14610339578063230dbd291461034157806323b872dd1461046f576101fb565b806301ffc9a71461020057806306fdde031461023b578063081812fc146102b8578063095ea7b3146102f1575b600080fd5b6102276004803603602081101561021657600080fd5b50356001600160e01b031916610c89565b604080519115158252519081900360200190f35b610243610cac565b6040805160208082528351818301528351919283929083019185019080838360005b8381101561027d578181015183820152602001610265565b50505050905090810190601f1680156102aa5780820380516001836020036101000a031916815260200191505b509250505060405180910390f35b6102d5600480360360208110156102ce57600080fd5b5035610d42565b604080516001600160a01b039092168252519081900360200190f35b61031d6004803603604081101561030757600080fd5b506001600160a01b038135169060200135610da4565b005b610327610e7f565b60408051918252519081900360200190f35b610327610e85565b610243600480360360c081101561035757600080fd5b6001600160a01b03823581169260208101359091169160408201359190810190608081016060820135600160201b81111561039157600080fd5b8201836020820111156103a357600080fd5b803590602001918460018302840111600160201b831117156103c457600080fd5b919390929091602081019035600160201b8111156103e157600080fd5b8201836020820111156103f357600080fd5b803590602001918460018302840111600160201b8311171561041457600080fd5b919390929091602081019035600160201b81111561043157600080fd5b82018360208201111561044357600080fd5b803590602001918460018302840111600160201b8311171561046457600080fd5b509092509050610e96565b61031d6004803603606081101561048557600080fd5b506001600160a01b03813581169160208101359091169060400135611013565b61022761106a565b6104b5611078565b604080519384526001600160a01b039092166020840152600b0b82820152519081900360600190f35b610327600480360360408110156104f457600080fd5b506001600160a01b03813516906020013561113e565b610243600480360360a081101561052057600080fd5b6001600160a01b03823581169260208101359091169160408201359190810190608081016060820135600160201b81111561055a57600080fd5b82018360208201111561056c57600080fd5b803590602001918460018302840111600160201b8311171561058d57600080fd5b919390929091602081019035600160201b8111156105aa57600080fd5b8201836020820111156105bc57600080fd5b803590602001918460018302840111600160201b831117156105dd57600080fd5b509092509050611169565b61031d600480360360608110156105fe57600080fd5b506001600160a01b038135811691602081013590911690604001356111a2565b6103276004803603602081101561063457600080fd5b50356111bd565b610243600480360360c081101561065157600080fd5b6001600160a01b03823581169260208101359091169160408201359190810190608081016060820135600160201b81111561068b57600080fd5b82018360208201111561069d57600080fd5b803590602001918460018302840111600160201b831117156106be57600080fd5b919390929091602081019035600160201b8111156106db57600080fd5b8201836020820111156106ed57600080fd5b803590602001918460018302840111600160201b8311171561070e57600080fd5b919390929091602081019035600160201b81111561072b57600080fd5b82018360208201111561073d57600080fd5b803590602001918460018302840111600160201b8311171561075e57600080fd5b5090925090506111d3565b610327611390565b610243600480360360a081101561078757600080fd5b6001600160a01b03823581169260208101359091169160408201359190810190608081016060820135600160201b8111156107c157600080fd5b8201836020820111156107d357600080fd5b803590602001918460018302840111600160201b831117156107f457600080fd5b919390929091602081019035600160201b81111561081157600080fd5b82018360208201111561082357600080fd5b803590602001918460018302840111600160201b8311171561084457600080fd5b509092509050611396565b61031d600480360361010081101561086657600080fd5b506001600160a01b03813581169160208101359160ff604083013581169260608101359092169160808101359091169060a0810135600b0b9060c08101359060e001356113cf565b6102d5600480360360208110156108c457600080fd5b503561150a565b610243611532565b610327600480360360208110156108e957600080fd5b50356001600160a01b0316611593565b6102d56115fb565b610243600480360360a081101561091757600080fd5b6001600160a01b03823581169260208101359091169160408201359190810190608081016060820135600160201b81111561095157600080fd5b82018360208201111561096357600080fd5b803590602001918460018302840111600160201b8311171561098457600080fd5b919390929091602081019035600160201b8111156109a157600080fd5b8201836020820111156109b357600080fd5b803590602001918460018302840111600160201b831117156109d457600080fd5b50909250905061160a565b610243611643565b61031d600480360360408110156109fd57600080fd5b506001600160a01b03813516906020013515156116a4565b61031d60048036036080811015610a2b57600080fd5b6001600160a01b03823581169260208101359091169160408201359190810190608081016060820135600160201b811115610a6557600080fd5b820183602082011115610a7757600080fd5b803590602001918460018302840111600160201b83111715610a9857600080fd5b91908080601f0160208091040260200160405190810160405280939291908181526020018383808284376000920191909152509295506117a9945050505050565b6102d5611807565b61024360048036036020811015610af757600080fd5b503561181b565b610243600480360360c0811015610b1457600080fd5b6001600160a01b03823581169260208101359091169160408201359190810190608081016060820135600160201b811115610b4e57600080fd5b820183602082011115610b6057600080fd5b803590602001918460018302840111600160201b83111715610b8157600080fd5b919390929091602081019035600160201b811115610b9e57600080fd5b820183602082011115610bb057600080fd5b803590602001918460018302840111600160201b83111715610bd157600080fd5b919390929091602081019035600160201b811115610bee57600080fd5b820183602082011115610c0057600080fd5b803590602001918460018302840111600160201b83111715610c2157600080fd5b509092509050611a9e565b61031d611ba5565b61022760048036036040811015610c4a57600080fd5b506001600160a01b0381358116916020013516611e12565b610c6a611e40565b60408051600b9290920b8252519081900360200190f35b610227611e49565b6001600160e01b0319811660009081526020819052604090205460ff165b919050565b60068054604080516020601f6002600019610100600188161502019095169490940493840181900481028201810190925282815260609390929091830182828015610d385780601f10610d0d57610100808354040283529160200191610d38565b820191906000526020600020905b815481529060010190602001808311610d1b57829003601f168201915b5050505050905090565b6000610d4d82611e8a565b610d885760405162461bcd60e51b815260040180806020018281038252602c815260200180613daa602c913960400191505060405180910390fd5b506000908152600460205260409020546001600160a01b031690565b6000610daf8261150a565b9050806001600160a01b0316836001600160a01b03161415610e025760405162461bcd60e51b8152600401808060200182810382526021815260200180613e2e6021913960400191505060405180910390fd5b806001600160a01b0316610e14611e97565b6001600160a01b03161480610e355750610e3581610e30611e97565b611e12565b610e705760405162461bcd60e51b8152600401808060200182810382526038815260200180613cfd6038913960400191505060405180910390fd5b610e7a8383611e9b565b505050565b600e5481565b6000610e916002611f09565b905090565b60608989610ea382611f14565b610eac57600080fd5b610eb581611f28565b610ebe57600080fd5b6011546201000090046001600160a01b03163314610edb57600080fd5b60125460135460408051631cd43d1160e31b81526001600160a01b0392831660048201523360248201523060448201529051600093929092169163e6a1e88891606480820192608092909190829003018186803b158015610f3b57600080fd5b505afa158015610f4f573d6000803e3d6000fd5b505050506040513d6080811015610f6557600080fd5b5060200151600f54909150600b90810b810b9082900b12801590610f8a575060105442105b8015610f9d575060115460ff1615156001145b8015610fb15750601154610100900460ff16155b15610fc357610fbe611fb7565b610ff8565b60115460ff6101009091041615156001148015610feb5750600f54600b90810b810b9082900b125b15610ff857610ff8612051565b61100286866120ea565b9d9c50505050505050505050505050565b61102461101e611e97565b82612ab4565b61105f5760405162461bcd60e51b8152600401808060200182810382526031815260200180613e7e6031913960400191505060405180910390fd5b610e7a838383612b58565b601154610100900460ff1681565b601454600090819081906001600160a01b0316156111395760125460135460145460408051631cd43d1160e31b81526001600160a01b039384166004820152306024820152918316604483015251919092169163e6a1e888916064808301926080929190829003018186803b1580156110f057600080fd5b505afa158015611104573d6000803e3d6000fd5b505050506040513d608081101561111a57600080fd5b5080516020909101516014549194506001600160a01b03909116925090505b909192565b6001600160a01b03821660009081526001602052604081206111609083612ca4565b90505b92915050565b606060405162461bcd60e51b815260040180806020018281038252602f815260200180613eaf602f913960400191505060405180910390fd5b610e7a838383604051806020016040528060008152506117a9565b6000806111cb600284612cb0565b509392505050565b6011546060906201000090046001600160a01b031633146111f357600080fd5b6111fc8a611f14565b158061120e575061120c89611f28565b155b156112525782828080601f01602080910402602001604051908101604052809392919081815260200183838082843760009201919091525092935061138392505050565b426010556011805461ffff19169055600a54601454600b546040805163a9059cbb60e01b81526001600160a01b039384166004820152602481019290925251919092169163a9059cbb9160448083019260209291908290030181600087803b1580156112bd57600080fd5b505af19250505080156112e257506040513d60208110156112dd57600080fd5b505160015b61137457600a54601454600b546040805163095ea7b360e01b81526001600160a01b039384166004820152602481019290925251919092169163095ea7b39160448083019260209291908290030181600087803b15801561134257600080fd5b505af1158015611356573d6000803e3d6000fd5b505050506040513d602081101561136c57600080fd5b506113769050565b505b61138083836120ea565b90505b9998505050505050505050565b60105481565b606060405162461bcd60e51b8152600401808060200182810382526033815260200180613c7a6033913960400191505060405180910390fd5b6014546001600160a01b031633146113e657600080fd5b600a80546001600160a01b03199081166001600160a01b038b81169190911792839055600b8a8155600c805460ff191660ff8c811691909117909155600d80549094168a84161760ff60a01b1916600160a01b918a169190910217909255600e849055600f80546bffffffffffffffffffffffff19166bffffffffffffffffffffffff9388900b939093169290921790915560108490556040805163095ea7b360e01b8152306004820152602481018b90529051929091169163095ea7b3916044808201926020929091908290030181600087803b1580156114c757600080fd5b505af11580156114db573d6000803e3d6000fd5b505050506040513d60208110156114f157600080fd5b50506011805460ff191660011790555050505050505050565b600061116382604051806060016040528060298152602001613d5f6029913960029190612ccc565b60098054604080516020601f6002600019610100600188161502019095169490940493840181900481028201810190925282815260609390929091830182828015610d385780601f10610d0d57610100808354040283529160200191610d38565b60006001600160a01b0382166115da5760405162461bcd60e51b815260040180806020018281038252602a815260200180613d35602a913960400191505060405180910390fd5b6001600160a01b038216600090815260016020526040902061116390611f09565b600a546001600160a01b031681565b606060405162461bcd60e51b815260040180806020018281038252602f815260200180613e4f602f913960400191505060405180910390fd5b60078054604080516020601f6002600019610100600188161502019095169490940493840181900481028201810190925282815260609390929091830182828015610d385780601f10610d0d57610100808354040283529160200191610d38565b6116ac611e97565b6001600160a01b0316826001600160a01b03161415611712576040805162461bcd60e51b815260206004820152601960248201527f4552433732313a20617070726f766520746f2063616c6c657200000000000000604482015290519081900360640190fd5b806005600061171f611e97565b6001600160a01b03908116825260208083019390935260409182016000908120918716808252919093529120805460ff191692151592909217909155611763611e97565b6001600160a01b03167f17307eab39ab6107e8899845ad3d59bd9653f200f220920489ca2b5937696c318360405180821515815260200191505060405180910390a35050565b6117ba6117b4611e97565b83612ab4565b6117f55760405162461bcd60e51b8152600401808060200182810382526031815260200180613e7e6031913960400191505060405180910390fd5b61180184848484612cd9565b50505050565b600c5461010090046001600160a01b031681565b606061182682611e8a565b6118615760405162461bcd60e51b815260040180806020018281038252602f815260200180613dff602f913960400191505060405180910390fd5b60008281526008602090815260409182902080548351601f60026000196101006001861615020190931692909204918201849004840281018401909452808452606093928301828280156118f65780601f106118cb576101008083540402835291602001916118f6565b820191906000526020600020905b8154815290600101906020018083116118d957829003601f168201915b505050505090506060611907611532565b905080516000141561191b57509050610ca7565b8151156119dc5780826040516020018083805190602001908083835b602083106119565780518252601f199092019160209182019101611937565b51815160209384036101000a600019018019909216911617905285519190930192850191508083835b6020831061199e5780518252601f19909201916020918201910161197f565b6001836020036101000a0380198251168184511680821785525050505050509050019250505060405160208183030381529060405292505050610ca7565b806119e685612d2b565b6040516020018083805190602001908083835b60208310611a185780518252601f1990920191602091820191016119f9565b51815160209384036101000a600019018019909216911617905285519190930192850191508083835b60208310611a605780518252601f199092019160209182019101611a41565b6001836020036101000a0380198251168184511680821785525050505050509050019250505060405160208183030381529060405292505050919050565b60608989611aab82611f14565b611ab457600080fd5b611abd81611f28565b611ac657600080fd5b6011546201000090046001600160a01b03163314611ae357600080fd5b60125460135460408051631cd43d1160e31b81526001600160a01b0392831660048201523360248201523060448201529051600093929092169163e6a1e88891606480820192608092909190829003018186803b158015611b4357600080fd5b505afa158015611b57573d6000803e3d6000fd5b505050506040513d6080811015611b6d57600080fd5b5060200151600f54909150600b90810b810b9082900b12801590611b98575060115460ff1615156001145b15610ff857610ff8611fb7565b6010544211611bbb57611bb6612051565b611e10565b600d5460408051633fabe5a360e21b815290516000926001600160a01b03169163feaf968c9160048083019260a0929190829003018186803b158015611c0057600080fd5b505afa158015611c14573d6000803e3d6000fd5b505050506040513d60a0811015611c2a57600080fd5b506020015160125460135460408051631cd43d1160e31b81526001600160a01b0392831660048201523360248201523060448201529051939450600093919092169163e6a1e888916064808301926080929190829003018186803b158015611c9157600080fd5b505afa158015611ca5573d6000803e3d6000fd5b505050506040513d6080811015611cbb57600080fd5b5060200151600e54909150821215611cd257600080fd5b600f54600b90810b810b9082900b1215611ceb57600080fd5b600c54601454600e546040805163a9059cbb60e01b81526001600160a01b0393841660048201526024810192909252516101009093049091169163a9059cbb916044808201926020929091908290030181600087803b158015611d4d57600080fd5b505af1158015611d61573d6000803e3d6000fd5b505050506040513d6020811015611d7757600080fd5b5050600a54600b54604080516323b872dd60e01b81523060048201523360248201526044810192909252516001600160a01b03909216916323b872dd916064808201926020929091908290030181600087803b158015611dd657600080fd5b505af1158015611dea573d6000803e3d6000fd5b505050506040513d6020811015611e0057600080fd5b50506011805461ffff1916905550505b565b6001600160a01b03918216600090815260056020908152604080832093909416825291909152205460ff1690565b600f54600b0b81565b60115460ff1681565b60006111608383612e06565b6000611e7484846001600160a01b038516612e50565b90505b9392505050565b60006111608383612ee7565b6000611163600283611e7e565b3390565b600081815260046020526040902080546001600160a01b0319166001600160a01b0384169081179091558190611ed08261150a565b6001600160a01b03167f8c5be1e5ebec7d5bd14f71427d1e84f3dd0314c0f7b2291e5b200ac8c7c3b92560405160405180910390a45050565b600061116382612eff565b6013546001600160a01b0390811691161490565b60007fa9214cc96615e0085d3bb077758db69497dc2dce3b2b1e97bc93c3d18d83efd3826001600160a01b0316637730599e6040518163ffffffff1660e01b815260040160206040518083038186803b158015611f8457600080fd5b505afa158015611f98573d6000803e3d6000fd5b505050506040513d6020811015611fae57600080fd5b50511492915050565b600a54600b54604080516323b872dd60e01b81523360048201523060248201526044810192909252516001600160a01b03909216916323b872dd916064808201926020929091908290030181600087803b15801561201457600080fd5b505af1158015612028573d6000803e3d6000fd5b505050506040513d602081101561203e57600080fd5b50506011805461ff001916610100179055565b600a54601454600b546040805163a9059cbb60e01b81526001600160a01b039384166004820152602481019290925251919092169163a9059cbb9160448083019260209291908290030181600087803b1580156120ad57600080fd5b505af11580156120c1573d6000803e3d6000fd5b505050506040513d60208110156120d757600080fd5b5050426010556011805461ffff19169055565b606082828080601f01602080910402602001604051908101604052809392919081815260200183838082843760009201829052506012546013546040805163e8e7e2d160e01b81526001600160a01b039283166004820152306024820152905197985092969116945063e8e7e2d1935060448083019350602092829003018186803b15801561217857600080fd5b505afa15801561218c573d6000803e3d6000fd5b505050506040513d60208110156121a257600080fd5b505160125460135460145460408051631cd43d1160e31b81526001600160a01b039384166004820152306024820152918316604483015251939450600093919092169163e6a1e888916064808301926080929190829003018186803b15801561220a57600080fd5b505afa15801561221e573d6000803e3d6000fd5b505050506040513d608081101561223457600080fd5b50602001519050818101600b81900b61261f5760115460125460135460145460408051600080825260208201928390526001600160a01b0394851660448301818152306064850181905295871660848501819052608060a48601908152855160c4870181905262010000909b0489169a634329d2939a9990991698635a5999e360e11b989497949692959294919260e486019291908190849084905b838110156122e85781810151838201526020016122d0565b50505050905090810190601f1680156123155780820380516001836020036101000a031916815260200191505b5095505050505050604051602081830303815290604052906001600160e01b0319166020820180516001600160e01b038381831617835250505050876040518463ffffffff1660e01b815260040180846001600160a01b03168152602001806020018060200180602001848103845286818151815260200191508051906020019080838360005b838110156123b457818101518382015260200161239c565b50505050905090810190601f1680156123e15780820380516001836020036101000a031916815260200191505b508481038352600281526020018061060f60f31b815250602001848103825285818151815260200191508051906020019080838360005b83811015612430578181015183820152602001612418565b50505050905090810190601f16801561245d5780820380516001836020036101000a031916815260200191505b509650505050505050600060405180830381600087803b15801561248057600080fd5b505af1158015612494573d6000803e3d6000fd5b505050506040513d6000823e601f3d908101601f1916820160409081528110156124bd57600080fd5b8101908080516040519392919084600160201b8211156124dc57600080fd5b9083019060208201858111156124f157600080fd5b8251600160201b81118282018810171561250a57600080fd5b82525081516020918201929091019080838360005b8381101561253757818101518382015260200161251f565b50505050905090810190601f1680156125645780820380516001836020036101000a031916815260200191505b5060405260200180516040519392919084600160201b82111561258657600080fd5b90830190602082018581111561259b57600080fd5b8251600160201b8111828201881017156125b457600080fd5b82525081516020918201929091019080838360005b838110156125e15781810151838201526020016125c9565b50505050905090810190601f16801561260e5780820380516001836020036101000a031916815260200191505b506040525050505080945050612aab565b600b82900b156126c85760115460125460135460145460408051600080825260208201928390526001600160a01b039485166044830181815294861660648401819052600b8a900b6084850152608060a48501908152845160c4860181905262010000909a04881699634329d2939998909816976328104d3160e11b97939692958c9590949360e4860192909181908490849083156122e85781810151838201526020016122d0565b601154601254601354601454604080516000808252602082019092526001600160a01b0362010000909604861695634329d2939581169463317e182f60e11b949082169391169188915060405160240180856001600160a01b03168152602001846001600160a01b0316815260200183600b0b815260200180602001828103825283818151815260200191508051906020019080838360005b83811015612779578181015183820152602001612761565b50505050905090810190601f1680156127a65780820380516001836020036101000a031916815260200191505b5095505050505050604051602081830303815290604052906001600160e01b0319166020820180516001600160e01b038381831617835250505050876040518463ffffffff1660e01b815260040180846001600160a01b03168152602001806020018060200180602001848103845286818151815260200191508051906020019080838360005b8381101561284557818101518382015260200161282d565b50505050905090810190601f1680156128725780820380516001836020036101000a031916815260200191505b508481038352600281526020018061060f60f31b815250602001848103825285818151815260200191508051906020019080838360005b838110156128c15781810151838201526020016128a9565b50505050905090810190601f1680156128ee5780820380516001836020036101000a031916815260200191505b509650505050505050600060405180830381600087803b15801561291157600080fd5b505af1158015612925573d6000803e3d6000fd5b505050506040513d6000823e601f3d908101601f19168201604090815281101561294e57600080fd5b8101908080516040519392919084600160201b82111561296d57600080fd5b90830190602082018581111561298257600080fd5b8251600160201b81118282018810171561299b57600080fd5b82525081516020918201929091019080838360005b838110156129c85781810151838201526020016129b0565b50505050905090810190601f1680156129f55780820380516001836020036101000a031916815260200191505b5060405260200180516040519392919084600160201b821115612a1757600080fd5b908301906020820185811115612a2c57600080fd5b8251600160201b811182820188101715612a4557600080fd5b82525081516020918201929091019080838360005b83811015612a72578181015183820152602001612a5a565b50505050905090810190601f168015612a9f5780820380516001836020036101000a031916815260200191505b50604052509296505050505b50505092915050565b6000612abf82611e8a565b612afa5760405162461bcd60e51b815260040180806020018281038252602c815260200180613cd1602c913960400191505060405180910390fd5b6000612b058361150a565b9050806001600160a01b0316846001600160a01b03161480612b405750836001600160a01b0316612b3584610d42565b6001600160a01b0316145b80612b505750612b508185611e12565b949350505050565b826001600160a01b0316612b6b8261150a565b6001600160a01b031614612bb05760405162461bcd60e51b8152600401808060200182810382526029815260200180613dd66029913960400191505060405180910390fd5b6001600160a01b038216612bf55760405162461bcd60e51b8152600401808060200182810382526024815260200180613cad6024913960400191505060405180910390fd5b612c00838383612f03565b612c0b600082611e9b565b6001600160a01b0383166000908152600160205260409020612c2d9082612f0c565b506001600160a01b0382166000908152600160205260409020612c509082611e52565b50612c5d60028284611e5e565b5080826001600160a01b0316846001600160a01b03167fddf252ad1be2c89b69c2b068fc378daa952ba7f163c4a11628f55a4df523b3ef60405160405180910390a4505050565b60006111608383612f18565b6000808080612cbf8686612f7c565b9097909650945050505050565b6000611e74848484612ff7565b612ce4848484612b58565b612cf0848484846130c1565b6118015760405162461bcd60e51b8152600401808060200182810382526032815260200180613c486032913960400191505060405180910390fd5b606081612d5057506040805180820190915260018152600360fc1b6020820152610ca7565b8160005b8115612d6857600101600a82049150612d54565b60608167ffffffffffffffff81118015612d8157600080fd5b506040519080825280601f01601f191660200182016040528015612dac576020820181803683370190505b50859350905060001982015b8315612dfd57600a840660300160f81b82828060019003935081518110612ddb57fe5b60200101906001600160f81b031916908160001a905350600a84049350612db8565b50949350505050565b6000612e128383612ee7565b612e4857508154600181810184556000848152602080822090930184905584548482528286019093526040902091909155611163565b506000611163565b600082815260018401602052604081205480612eb5575050604080518082018252838152602080820184815286546001818101895560008981528481209551600290930290950191825591519082015586548684528188019092529290912055611e77565b82856000016001830381548110612ec857fe5b9060005260206000209060020201600101819055506000915050611e77565b60009081526001919091016020526040902054151590565b5490565b610e7a82613229565b600061116083836139cd565b81546000908210612f5a5760405162461bcd60e51b8152600401808060200182810382526022815260200180613c266022913960400191505060405180910390fd5b826000018281548110612f6957fe5b9060005260206000200154905092915050565b815460009081908310612fc05760405162461bcd60e51b8152600401808060200182810382526022815260200180613d886022913960400191505060405180910390fd5b6000846000018481548110612fd157fe5b906000526020600020906002020190508060000154816001015492509250509250929050565b600082815260018401602052604081205482816130925760405162461bcd60e51b81526004018080602001828103825283818151815260200191508051906020019080838360005b8381101561305757818101518382015260200161303f565b50505050905090810190601f1680156130845780820380516001836020036101000a031916815260200191505b509250505060405180910390fd5b508460000160018203815481106130a557fe5b9060005260206000209060020201600101549150509392505050565b60006130d5846001600160a01b0316613a93565b6130e157506001612b50565b60606131ef630a85bd0160e11b6130f6611e97565b88878760405160240180856001600160a01b03168152602001846001600160a01b0316815260200183815260200180602001828103825283818151815260200191508051906020019080838360005b8381101561315d578181015183820152602001613145565b50505050905090810190601f16801561318a5780820380516001836020036101000a031916815260200191505b5095505050505050604051602081830303815290604052906001600160e01b0319166020820180516001600160e01b038381831617835250505050604051806060016040528060328152602001613c48603291396001600160a01b0388169190613a99565b9050600081806020019051602081101561320857600080fd5b50516001600160e01b031916630a85bd0160e11b1492505050949350505050565b6001600160a01b03811661323c57600080fd5b601160029054906101000a90046001600160a01b03166001600160a01b0316633ca3ad4e826040518263ffffffff1660e01b815260040180826001600160a01b0316815260200191505060206040518083038186803b15801561329e57600080fd5b505afa1580156132b2573d6000803e3d6000fd5b505050506040513d60208110156132c857600080fd5b5051156132d457600080fd5b6014546001600160a01b03828116911614156132ef576139ca565b60125460135460145460408051631cd43d1160e31b81526001600160a01b039384166004820152306024820152918316604483015251600093929092169163e6a1e88891606480820192608092909190829003018186803b15801561335357600080fd5b505afa158015613367573d6000803e3d6000fd5b505050506040513d608081101561337d57600080fd5b506020015190506000600b82900b13156139715760115460125460135460145460408051600080825260208201928390526001600160a01b0394851660448301818152306064850181905295871660848501819052608060a48601908152855160c4870181905262010000909b0489169a6339255d5b9a9990991698635a5999e360e11b989497949692959294919260e486019291908190849084905b8381101561343257818101518382015260200161341a565b50505050905090810190601f16801561345f5780820380516001836020036101000a031916815260200191505b5060408051601f198184030181529181526020820180516001600160e01b03166001600160e01b03199a8b16178152905160e08c901b90991689526001600160a01b038a1660048a01908152606060248b01908152835160648c01528351939a919950975060448101965060840194509250905080838360005b838110156134f15781810151838201526020016134d9565b50505050905090810190601f16801561351e5780820380516001836020036101000a031916815260200191505b508381038252600281526020018061060f60f31b815250602001945050505050600060405180830381600087803b15801561355857600080fd5b505af115801561356c573d6000803e3d6000fd5b505050506040513d6000823e601f3d908101601f19168201604052602081101561359557600080fd5b8101908080516040519392919084600160201b8211156135b457600080fd5b9083019060208201858111156135c957600080fd5b8251600160201b8111828201881017156135e257600080fd5b82525081516020918201929091019080838360005b8381101561360f5781810151838201526020016135f7565b50505050905090810190601f16801561363c5780820380516001836020036101000a031916815260200191505b50604081815260115460125460135463e8e7e2d160e01b85526001600160a01b0390811660048601819052306024870152935162010000909304811698506339255d5b975016945063317e182f60e11b935090918891859163e8e7e2d1916044808301926020929190829003018186803b1580156136b957600080fd5b505afa1580156136cd573d6000803e3d6000fd5b505050506040513d60208110156136e357600080fd5b505160408051600080825260208201909252905060405160240180856001600160a01b03168152602001846001600160a01b0316815260200183600b0b815260200180602001828103825283818151815260200191508051906020019080838360005b8381101561375e578181015183820152602001613746565b50505050905090810190601f16801561378b5780820380516001836020036101000a031916815260200191505b5060408051601f198184030181529181526020820180516001600160e01b03166001600160e01b03199a8b16178152905160e08c901b90991689526001600160a01b038a1660048a01908152606060248b01908152835160648c01528351939a919950975060448101965060840194509250905080838360005b8381101561381d578181015183820152602001613805565b50505050905090810190601f16801561384a5780820380516001836020036101000a031916815260200191505b508381038252600281526020018061060f60f31b815250602001945050505050600060405180830381600087803b15801561388457600080fd5b505af1158015613898573d6000803e3d6000fd5b505050506040513d6000823e601f3d908101601f1916820160405260208110156138c157600080fd5b8101908080516040519392919084600160201b8211156138e057600080fd5b9083019060208201858111156138f557600080fd5b8251600160201b81118282018810171561390e57600080fd5b82525081516020918201929091019080838360005b8381101561393b578181015183820152602001613923565b50505050905090810190601f1680156139685780820380516001836020036101000a031916815260200191505b50604052505050505b601480546001600160a01b0319166001600160a01b03848116919091179182905560408051929091168252517f7dfb1d59db37a3fd2e15e796c189dcab714cdbb18650d68a1de58f8fa60718c9916020908290030190a1505b50565b60008181526001830160205260408120548015613a895783546000198083019190810190600090879083908110613a0057fe5b9060005260206000200154905080876000018481548110613a1d57fe5b600091825260208083209091019290925582815260018981019092526040902090840190558654879080613a4d57fe5b60019003818190600052602060002001600090559055866001016000878152602001908152602001600020600090556001945050505050611163565b6000915050611163565b3b151590565b6060611e74848460008585613aad85613a93565b613afe576040805162461bcd60e51b815260206004820152601d60248201527f416464726573733a2063616c6c20746f206e6f6e2d636f6e7472616374000000604482015290519081900360640190fd5b60006060866001600160a01b031685876040518082805190602001908083835b60208310613b3d5780518252601f199092019160209182019101613b1e565b6001836020036101000a03801982511681845116808217855250505050505090500191505060006040518083038185875af1925050503d8060008114613b9f576040519150601f19603f3d011682016040523d82523d6000602084013e613ba4565b606091505b5091509150613bb4828286613bbf565b979650505050505050565b60608315613bce575081611e77565b825115613bde5782518084602001fd5b60405162461bcd60e51b815260206004820181815284516024840152845185939192839260440191908501908083836000831561305757818101518382015260200161303f56fe456e756d657261626c655365743a20696e646578206f7574206f6620626f756e64734552433732313a207472616e7366657220746f206e6f6e20455243373231526563656976657220696d706c656d656e746572556e737570706f727465642063616c6c6261636b202d20204265666f72652041677265656d656e74205465726d696e617465644552433732313a207472616e7366657220746f20746865207a65726f20616464726573734552433732313a206f70657261746f7220717565727920666f72206e6f6e6578697374656e7420746f6b656e4552433732313a20617070726f76652063616c6c6572206973206e6f74206f776e6572206e6f7220617070726f76656420666f7220616c6c4552433732313a2062616c616e636520717565727920666f7220746865207a65726f20616464726573734552433732313a206f776e657220717565727920666f72206e6f6e6578697374656e7420746f6b656e456e756d657261626c654d61703a20696e646578206f7574206f6620626f756e64734552433732313a20617070726f76656420717565727920666f72206e6f6e6578697374656e7420746f6b656e4552433732313a207472616e73666572206f6620746f6b656e2074686174206973206e6f74206f776e4552433732314d657461646174613a2055524920717565727920666f72206e6f6e6578697374656e7420746f6b656e4552433732313a20617070726f76616c20746f2063757272656e74206f776e6572556e737570706f727465642063616c6c6261636b202d204265666f72652041677265656d656e7420757064617465644552433732313a207472616e736665722063616c6c6572206973206e6f74206f776e6572206e6f7220617070726f766564556e737570706f727465642063616c6c6261636b202d204265666f72652041677265656d656e742043726561746564a2646970667358221220528627429062a8bece4d4edbee1e03d50dbe105831d1789f3e093ff230bf6cc164736f6c63430007000033",
  "devdoc": {
    "kind": "dev",
    "methods": {
      "approve(address,uint256)": {
        "details": "See {IERC721-approve}."
      },
      "balanceOf(address)": {
        "details": "See {IERC721-balanceOf}."
      },
      "baseURI()": {
        "details": "Returns the base URI set via {_setBaseURI}. This will be automatically added as a prefix in {tokenURI} to each token's URI, or to the token ID if no specific URI is set for that token ID."
      },
      "getApproved(uint256)": {
        "details": "See {IERC721-getApproved}."
      },
      "isApprovedForAll(address,address)": {
        "details": "See {IERC721-isApprovedForAll}."
      },
      "name()": {
        "details": "See {IERC721Metadata-name}."
      },
      "ownerOf(uint256)": {
        "details": "See {IERC721-ownerOf}."
      },
      "safeTransferFrom(address,address,uint256)": {
        "details": "See {IERC721-safeTransferFrom}."
      },
      "safeTransferFrom(address,address,uint256,bytes)": {
        "details": "See {IERC721-safeTransferFrom}."
      },
      "setApprovalForAll(address,bool)": {
        "details": "See {IERC721-setApprovalForAll}."
      },
      "supportsInterface(bytes4)": {
        "details": "See {IERC165-supportsInterface}. Time complexity O(1), guaranteed to always use less than 30 000 gas."
      },
      "symbol()": {
        "details": "See {IERC721Metadata-symbol}."
      },
      "tokenByIndex(uint256)": {
        "details": "See {IERC721Enumerable-tokenByIndex}."
      },
      "tokenOfOwnerByIndex(address,uint256)": {
        "details": "See {IERC721Enumerable-tokenOfOwnerByIndex}."
      },
      "tokenURI(uint256)": {
        "details": "See {IERC721Metadata-tokenURI}."
      },
      "totalSupply()": {
        "details": "See {IERC721Enumerable-totalSupply}."
      },
      "transferFrom(address,address,uint256)": {
        "details": "See {IERC721-transferFrom}."
      }
    },
    "version": 1
  },
  "userdoc": {
    "kind": "user",
    "methods": {},
    "version": 1
  },
  "storageLayout": {
    "storage": [
      {
        "astId": 59,
        "contract": "contracts/TradeableCashflowOption.sol:TradeableCashflowOption",
        "label": "_supportedInterfaces",
        "offset": 0,
        "slot": "0",
        "type": "t_mapping(t_bytes4,t_bool)"
      },
      {
        "astId": 1096,
        "contract": "contracts/TradeableCashflowOption.sol:TradeableCashflowOption",
        "label": "_holderTokens",
        "offset": 0,
        "slot": "1",
        "type": "t_mapping(t_address,t_struct(UintSet)3621_storage)"
      },
      {
        "astId": 1098,
        "contract": "contracts/TradeableCashflowOption.sol:TradeableCashflowOption",
        "label": "_tokenOwners",
        "offset": 0,
        "slot": "2",
        "type": "t_struct(UintToAddressMap)2998_storage"
      },
      {
        "astId": 1102,
        "contract": "contracts/TradeableCashflowOption.sol:TradeableCashflowOption",
        "label": "_tokenApprovals",
        "offset": 0,
        "slot": "4",
        "type": "t_mapping(t_uint256,t_address)"
      },
      {
        "astId": 1108,
        "contract": "contracts/TradeableCashflowOption.sol:TradeableCashflowOption",
        "label": "_operatorApprovals",
        "offset": 0,
        "slot": "5",
        "type": "t_mapping(t_address,t_mapping(t_address,t_bool))"
      },
      {
        "astId": 1110,
        "contract": "contracts/TradeableCashflowOption.sol:TradeableCashflowOption",
        "label": "_name",
        "offset": 0,
        "slot": "6",
        "type": "t_string_storage"
      },
      {
        "astId": 1112,
        "contract": "contracts/TradeableCashflowOption.sol:TradeableCashflowOption",
        "label": "_symbol",
        "offset": 0,
        "slot": "7",
        "type": "t_string_storage"
      },
      {
        "astId": 1116,
        "contract": "contracts/TradeableCashflowOption.sol:TradeableCashflowOption",
        "label": "_tokenURIs",
        "offset": 0,
        "slot": "8",
        "type": "t_mapping(t_uint256,t_string_storage)"
      },
      {
        "astId": 1118,
        "contract": "contracts/TradeableCashflowOption.sol:TradeableCashflowOption",
        "label": "_baseURI",
        "offset": 0,
        "slot": "9",
        "type": "t_string_storage"
      },
      {
        "astId": 5764,
        "contract": "contracts/TradeableCashflowOption.sol:TradeableCashflowOption",
        "label": "_underlyingAsset",
        "offset": 0,
        "slot": "10",
        "type": "t_contract(ERC20)972"
      },
      {
        "astId": 5766,
        "contract": "contracts/TradeableCashflowOption.sol:TradeableCashflowOption",
        "label": "_underlyingAmount",
        "offset": 0,
        "slot": "11",
        "type": "t_uint256"
      },
      {
        "astId": 5768,
        "contract": "contracts/TradeableCashflowOption.sol:TradeableCashflowOption",
        "label": "_underlyingDecimals",
        "offset": 0,
        "slot": "12",
        "type": "t_uint8"
      },
      {
        "astId": 5773,
        "contract": "contracts/TradeableCashflowOption.sol:TradeableCashflowOption",
        "label": "_DAI",
        "offset": 1,
        "slot": "12",
        "type": "t_contract(ERC20)972"
      },
      {
        "astId": 5775,
        "contract": "contracts/TradeableCashflowOption.sol:TradeableCashflowOption",
        "label": "_priceFeed",
        "offset": 0,
        "slot": "13",
        "type": "t_contract(AggregatorV3Interface)45"
      },
      {
        "astId": 5777,
        "contract": "contracts/TradeableCashflowOption.sol:TradeableCashflowOption",
        "label": "_priceFeedDecimals",
        "offset": 20,
        "slot": "13",
        "type": "t_uint8"
      },
      {
        "astId": 5779,
        "contract": "contracts/TradeableCashflowOption.sol:TradeableCashflowOption",
        "label": "_strikePrice",
        "offset": 0,
        "slot": "14",
        "type": "t_int256"
      },
      {
        "astId": 5781,
        "contract": "contracts/TradeableCashflowOption.sol:TradeableCashflowOption",
        "label": "_requiredFlowRate",
        "offset": 0,
        "slot": "15",
        "type": "t_int96"
      },
      {
        "astId": 5783,
        "contract": "contracts/TradeableCashflowOption.sol:TradeableCashflowOption",
        "label": "_expirationDate",
        "offset": 0,
        "slot": "16",
        "type": "t_uint256"
      },
      {
        "astId": 5785,
        "contract": "contracts/TradeableCashflowOption.sol:TradeableCashflowOption",
        "label": "optionReady",
        "offset": 0,
        "slot": "17",
        "type": "t_bool"
      },
      {
        "astId": 5787,
        "contract": "contracts/TradeableCashflowOption.sol:TradeableCashflowOption",
        "label": "optionActive",
        "offset": 1,
        "slot": "17",
        "type": "t_bool"
      },
      {
        "astId": 5789,
        "contract": "contracts/TradeableCashflowOption.sol:TradeableCashflowOption",
        "label": "_host",
        "offset": 2,
        "slot": "17",
        "type": "t_contract(ISuperfluid)5382"
      },
      {
        "astId": 5791,
        "contract": "contracts/TradeableCashflowOption.sol:TradeableCashflowOption",
        "label": "_cfa",
        "offset": 0,
        "slot": "18",
        "type": "t_contract(IConstantFlowAgreementV1)4106"
      },
      {
        "astId": 5793,
        "contract": "contracts/TradeableCashflowOption.sol:TradeableCashflowOption",
        "label": "_acceptedToken",
        "offset": 0,
        "slot": "19",
        "type": "t_contract(ISuperToken)4894"
      },
      {
        "astId": 5795,
        "contract": "contracts/TradeableCashflowOption.sol:TradeableCashflowOption",
        "label": "_receiver",
        "offset": 0,
        "slot": "20",
        "type": "t_address"
      }
    ],
    "types": {
      "t_address": {
        "encoding": "inplace",
        "label": "address",
        "numberOfBytes": "20"
      },
      "t_array(t_bytes32)dyn_storage": {
        "base": "t_bytes32",
        "encoding": "dynamic_array",
        "label": "bytes32[]",
        "numberOfBytes": "32"
      },
      "t_array(t_struct(MapEntry)2672_storage)dyn_storage": {
        "base": "t_struct(MapEntry)2672_storage",
        "encoding": "dynamic_array",
        "label": "struct EnumerableMap.MapEntry[]",
        "numberOfBytes": "32"
      },
      "t_bool": {
        "encoding": "inplace",
        "label": "bool",
        "numberOfBytes": "1"
      },
      "t_bytes32": {
        "encoding": "inplace",
        "label": "bytes32",
        "numberOfBytes": "32"
      },
      "t_bytes4": {
        "encoding": "inplace",
        "label": "bytes4",
        "numberOfBytes": "4"
      },
      "t_contract(AggregatorV3Interface)45": {
        "encoding": "inplace",
        "label": "contract AggregatorV3Interface",
        "numberOfBytes": "20"
      },
      "t_contract(ERC20)972": {
        "encoding": "inplace",
        "label": "contract ERC20",
        "numberOfBytes": "20"
      },
      "t_contract(IConstantFlowAgreementV1)4106": {
        "encoding": "inplace",
        "label": "contract IConstantFlowAgreementV1",
        "numberOfBytes": "20"
      },
      "t_contract(ISuperToken)4894": {
        "encoding": "inplace",
        "label": "contract ISuperToken",
        "numberOfBytes": "20"
      },
      "t_contract(ISuperfluid)5382": {
        "encoding": "inplace",
        "label": "contract ISuperfluid",
        "numberOfBytes": "20"
      },
      "t_int256": {
        "encoding": "inplace",
        "label": "int256",
        "numberOfBytes": "32"
      },
      "t_int96": {
        "encoding": "inplace",
        "label": "int96",
        "numberOfBytes": "12"
      },
      "t_mapping(t_address,t_bool)": {
        "encoding": "mapping",
        "key": "t_address",
        "label": "mapping(address => bool)",
        "numberOfBytes": "32",
        "value": "t_bool"
      },
      "t_mapping(t_address,t_mapping(t_address,t_bool))": {
        "encoding": "mapping",
        "key": "t_address",
        "label": "mapping(address => mapping(address => bool))",
        "numberOfBytes": "32",
        "value": "t_mapping(t_address,t_bool)"
      },
      "t_mapping(t_address,t_struct(UintSet)3621_storage)": {
        "encoding": "mapping",
        "key": "t_address",
        "label": "mapping(address => struct EnumerableSet.UintSet)",
        "numberOfBytes": "32",
        "value": "t_struct(UintSet)3621_storage"
      },
      "t_mapping(t_bytes32,t_uint256)": {
        "encoding": "mapping",
        "key": "t_bytes32",
        "label": "mapping(bytes32 => uint256)",
        "numberOfBytes": "32",
        "value": "t_uint256"
      },
      "t_mapping(t_bytes4,t_bool)": {
        "encoding": "mapping",
        "key": "t_bytes4",
        "label": "mapping(bytes4 => bool)",
        "numberOfBytes": "32",
        "value": "t_bool"
      },
      "t_mapping(t_uint256,t_address)": {
        "encoding": "mapping",
        "key": "t_uint256",
        "label": "mapping(uint256 => address)",
        "numberOfBytes": "32",
        "value": "t_address"
      },
      "t_mapping(t_uint256,t_string_storage)": {
        "encoding": "mapping",
        "key": "t_uint256",
        "label": "mapping(uint256 => string)",
        "numberOfBytes": "32",
        "value": "t_string_storage"
      },
      "t_string_storage": {
        "encoding": "bytes",
        "label": "string",
        "numberOfBytes": "32"
      },
      "t_struct(Map)2680_storage": {
        "encoding": "inplace",
        "label": "struct EnumerableMap.Map",
        "members": [
          {
            "astId": 2675,
            "contract": "contracts/TradeableCashflowOption.sol:TradeableCashflowOption",
            "label": "_entries",
            "offset": 0,
            "slot": "0",
            "type": "t_array(t_struct(MapEntry)2672_storage)dyn_storage"
          },
          {
            "astId": 2679,
            "contract": "contracts/TradeableCashflowOption.sol:TradeableCashflowOption",
            "label": "_indexes",
            "offset": 0,
            "slot": "1",
            "type": "t_mapping(t_bytes32,t_uint256)"
          }
        ],
        "numberOfBytes": "64"
      },
      "t_struct(MapEntry)2672_storage": {
        "encoding": "inplace",
        "label": "struct EnumerableMap.MapEntry",
        "members": [
          {
            "astId": 2669,
            "contract": "contracts/TradeableCashflowOption.sol:TradeableCashflowOption",
            "label": "_key",
            "offset": 0,
            "slot": "0",
            "type": "t_bytes32"
          },
          {
            "astId": 2671,
            "contract": "contracts/TradeableCashflowOption.sol:TradeableCashflowOption",
            "label": "_value",
            "offset": 0,
            "slot": "1",
            "type": "t_bytes32"
          }
        ],
        "numberOfBytes": "64"
      },
      "t_struct(Set)3235_storage": {
        "encoding": "inplace",
        "label": "struct EnumerableSet.Set",
        "members": [
          {
            "astId": 3230,
            "contract": "contracts/TradeableCashflowOption.sol:TradeableCashflowOption",
            "label": "_values",
            "offset": 0,
            "slot": "0",
            "type": "t_array(t_bytes32)dyn_storage"
          },
          {
            "astId": 3234,
            "contract": "contracts/TradeableCashflowOption.sol:TradeableCashflowOption",
            "label": "_indexes",
            "offset": 0,
            "slot": "1",
            "type": "t_mapping(t_bytes32,t_uint256)"
          }
        ],
        "numberOfBytes": "64"
      },
      "t_struct(UintSet)3621_storage": {
        "encoding": "inplace",
        "label": "struct EnumerableSet.UintSet",
        "members": [
          {
            "astId": 3620,
            "contract": "contracts/TradeableCashflowOption.sol:TradeableCashflowOption",
            "label": "_inner",
            "offset": 0,
            "slot": "0",
            "type": "t_struct(Set)3235_storage"
          }
        ],
        "numberOfBytes": "64"
      },
      "t_struct(UintToAddressMap)2998_storage": {
        "encoding": "inplace",
        "label": "struct EnumerableMap.UintToAddressMap",
        "members": [
          {
            "astId": 2997,
            "contract": "contracts/TradeableCashflowOption.sol:TradeableCashflowOption",
            "label": "_inner",
            "offset": 0,
            "slot": "0",
            "type": "t_struct(Map)2680_storage"
          }
        ],
        "numberOfBytes": "64"
      },
      "t_uint256": {
        "encoding": "inplace",
        "label": "uint256",
        "numberOfBytes": "32"
      },
      "t_uint8": {
        "encoding": "inplace",
        "label": "uint8",
        "numberOfBytes": "1"
      }
    }
  }
}